:1000000032C0FECFFDCFFCCFFBCFFACFF9CFF8CF78
:100010000BC200C2F5CF56C0F3CFF2CFF1CFF0CF75
:10002000EFCF6CC0EDCF01004D61696E2050726F53
:100030006772616D2E20506F727400000000000026
:100040000000000000000000010014010061616177
:1000500061616161616161616161612064FF0100F1
:10006000040026000000F894EE27ECBBF1E0FBBF93
:10007000EBBFE5BFF8E1F1BDE1BD8DE0A2E0BB273C
:10008000ED938A95E9F780E094E0A0E6ED9301977F
:10009000E9F7EEE5F0E085919591009761F0A59183
:1000A000B59105901590BF01F00105900D92019753
:1000B000E1F7FB01F0CFEFE5EDBFE4E0EEBFC0E616
:1000C000D1E0E2C12AD20A930CB135D2EBB1EC7186
:1000D00091F425FC10C0BB2031F426FC03C0CC24D5
:1000E0002ED2B02E08C02BD2BA9429F40AD1E03017
:1000F00011F0689426F8099129D218950ED2E1B131
:10010000E03811F4E89430F8E1B1E03911F4689482
:1001100030F8662091F423FC0DC0E3B1EA3A19F4FB
:10012000689420F806C0E13721F4689423F8772416
:100130001BD202C063B018D20CC06A9415D26620DC
:1001400041F483B0E89423F8CAD0E03011F0689409
:1001500024F8E1B1E83B19F0E1B1E83AD1F4AA2082
:1001600079F425FC03C0E0E0E3B909C09924E091EB
:100170006002EF5FAE2E01D232FC07D2AA9409C012
:10018000FCD132FC02D2AA94AA2019F4E89425F8F2
:1001900032F8E5ECE6BFDAD11895FAD1E0936102C6
:1001A000689425F80895F8D1E1E0E0936102E3E076
:1001B000E0936202689425F80895EED1E0E0E093C0
:1001C0006102E2E0E0936202689425F80895E0D1CC
:1001D000E0936102689425F8E2E3F0E0FA93EA9391
:1001E0001BD2E1E0EBBFE2E0EBBF0ACB089546D2C1
:1001F00010E0E0E6F2E0D4D1D3D1E491EF5FF0E09B
:10020000FA93EA93F9D100E0D0D1E01728F0D1D1E8
:10021000D3D11E0F0F5FF8CFA02FB0E0A05ABD4F73
:100220001C93689432F825F87FC027D220E0E9E2D9
:10023000E093600200E0003258F4BBD1EF59FD4F6B
:10024000DF01B7D1E85DFF4FE491EC930F5FF3CF8F
:10025000A0E0B0E0FDD1E0938102A0E0B0E0F8D1F1
:10026000DF01CB01E8E0E4D1E0938202E0E0E0933B
:100270008302E093840240928502E0938602A7E81D
:10028000B2E0E8E4F0E0E0D1EC93E8E4F0E0DCD1C7
:10029000EF2FF0E0E093880210E087D1E11728F01B
:1002A0008FD18AD12E0F1F5FF8CF209389026894D7
:1002B00025F8E7D1239608956FD150926102E52D7C
:1002C000EE5FE0936202689425F80895E1E77BD140
:1002D0007CD1EFEF78D179D1E6E775D10895CED111
:1002E00000E010E0E0916101E11728F069D16FD1E1
:1002F0000E0F1F5FF7CF801611F4EFEF15C0E0E08F
:1003000013C0BCD100E010E0E09160021E1728F499
:1003100057D152D10E0F1F5FF7CF52D14DD1E017F9
:1003200011F4EFEF01C0E0E0B0D108950A93E0913D
:100330006201E03011F5E0916301E13021F4BCDFAE
:10034000E89424F819C0E43621F483D0E89424F822
:1003500013C0E23079F4E894939B6894A2B3A3F9B4
:10036000A2BB26FE04C0689425F8E89426F8E89419
:1003700024F802C0E89424F84BC0A09162014A1608
:1003800009F5E0916301E33021F44FDFE89424F8AC
:1003900018C0E13021F42BDFE89424F812C0E730D4
:1003A00021F415DFE89424F80CC0E43019F413D1DB
:1003B00024F807C0E53019F411D124F802C0E894FC
:1003C00024F826C0E0916201EE3FA9F4E0916301B8
:1003D000E43019F400D124F80DC0E53019F4FED052
:1003E00024F808C0EB3021F4D8DEE89424F802C0E9
:1003F000E89424F80DC000E0E0916101EF5FE017A0
:1004000028F0D7D0E4D0DFD00F5FF6CFE89424F8FF
:1004100009910895EA93EFB7EA93E3D0689422F83C
:10042000E991EFBFE9911895EA93EFB7689427F83F
:10043000EFBFE9911895E89422F8D6D0E5E0E3BF44
:100440000895CFD00895E3B3E770EF5F4E2ECFD07D
:1004500008953CDFF0DF26FC0FC022FE05C0939814
:10046000E89421F8552408C0689421F8509085023A
:10047000939AE89427F8EFCFE4DF21FE02C0689456
:1004800025F8E89426F80895E0E0E8BBE7BBE7E04C
:10049000E5BBE0E0E4BBE2BBECE1E1BBA2D0A4D071
:1004A000E0E0EFBDE5E8EEBD46D0E7E6E7BDE9E612
:1004B000E6BDE0E0EBBDEABDE9BDE8BDE2BDE5BDFE
:1004C000E4BDE3BDE5BFE5E0E9BFE0E0EBB9E8E9A5
:1004D000EAB9E6E8E0BDE0E0E0BDECE0E9B9E0E87B
:1004E000E8B9E0E0E0BFE1B9E2E0E0B980D0E5E4FE
:1004F000E6BF7894939AA7DF9398EBEA64D024FC44
:1005000015DFFDCFFFCF5F9BFECFECB108955D9B64
:10051000FECFE881ECB9219608950A921A92FA92D8
:100520006A937A938A939A93AA93BA93EA93FA93E3
:10053000EFB7EA930895E0E0EDBDECBD0895EC2D32
:10054000C394F0E0E05AFD4F00830895E991EFBFB6
:10055000F991E991B991A9919991899179916991CB
:10056000F990199009900895E72D7394F0E0E05AFE
:10057000FE4FDF01E3B1EC930895E92D9394F0E091
:10058000E05AFD4FE081E3B90895E3B1EA93BFCFAC
:10059000E1E0E09360020895E2E0E09360020895F4
:1005A000FA93EA93EAE4F0E00895E0916002E15002
:1005B0000895E02FF0E00895E05AFD4FE08108959E
:1005C000E12FF0E00895EA93A2CFE3E0FCCFE05AF8
:1005D000FE4FE0810895F1DDE8940895E4DDE894AC
:1005E0000895E0E0E3BF0895E0E0E2BF0895E42D60
:1005F000EE0FEF5FE2B9089599818881009641F08E
:10060000BD81AC81FB81EA8105900D920197E1F7F4
:10061000FD81EC8126960895E991F991309639F0A3
:1006200080ED97E00197F1F7A8953197C9F7089504
:10063000EE230E2EFD01BC0131F076956795F795FE
:10064000E7950A94D1F708950590F491E02D089567
:10065000129603D07F2F6E2F1297119602D0FE2F85
:100660001197E199FECFFF93FFB7F894AEBBBFBBE4
:10067000E09AEDB3FFBFFF9108952A931A930A936E
:1006800008952A8119810881089509911991089581
:00000001FF
