:0C18000038C0FECFFDCFFCCFFBCFFACFED
:10180C00F9CFF8CFF7CFF6CFF5CFF4CFF3CFF2CFA8
:10181C00F1CFF0CFEFCFEECFEDCF426F6F74205002
:10182C00726F6772616D2E20506F72740000000031
:10183C000000000000000000000001001300006127
:10184C00616161616161616161616161612064FF1C
:10185C004D01010000001F00040064025E1801002D
:10186C00060062180000F894EE27ECBBF1E0FBBF19
:10187C00F2E0FBBFE5BFF8E1F1BDE1BD8DE0A2E018
:10188C00BB27ED938A95E9F780E094E0A0E6ED9311
:10189C000197E9F7E4E6F8E185919591009761F0FD
:1018AC00A591B59105901590BF01F00105900D9291
:1018BC000197E1F7FB01F0CFEFE5EDBFE4E0EEBF00
:1018CC00C0E6D1E0E7C0A895E8E0E0936101A895F7
:1018DC00E0E4E0936201E0E0E0936301A895E0E6C8
:1018EC00E0936401E0E0E0936501A895E0E0E0930B
:1018FC006601E2E0E0936701A895E0E0E0936801FF
:10190C00E1E0E0936901A895689422F820F813D2DD
:10191C00089548D3A89589D291D18F010030E2E087
:10192C001E0730F085D2E0936201689422F80CC057
:10193C00E22FD80125D3D80117D32E1741F078D236
:10194C00E0936201689422F834D323960895A89505
:10195C0074D2E0936201689422F873D208952297AE
:10196C001ED3A895ECEFF7E16FD2EDEFF7E170D253
:10197C00C9D2C4D29F01D90188279927A03CEFEF87
:10198C00BE07EFE38E07E0E09E0721F4E0E00ED304
:10199C002896089500E010E040E050E02017310751
:1019AC0051F0F801E491DA01F0E0EA0FFB1FAF010E
:1019BC000F5F1F4FF3CFA895EEEFF7E145D2EFEF96
:1019CC00F7E146D2EE83FF83E417F50711F0E0E070
:1019DC0001C0E1E0EBD228960895C1DFE03009F4B4
:1019EC000895F894E1E0EBBFE0E0EBBF03C308958A
:1019FC0035D222F8E89420F8689423F808950A93D5
:101A0C00E8E2E093610100E0003258F42CD2EE5988
:101A1C00FE4FDF0128D2EA5DF74EE491EC930F5FA5
:101A2C00F3CFA0E0B0E097D2E0938201A0E0B0E069
:101A3C0092D2DF01CB011AD2E0938301E0E0E09374
:101A4C008401E0938501A6E8B1E0E0916001EC939C
:101A5C00E0E0E0938701A8E8B1E0E6E4F8E177D2B2
:101A6C00EC93E6E4F8E173D2EF2FF0E0E093890118
:101A7C00689422F89BC096D2E1E6F1E0FAD1F9D154
:101A8C00E491EF5FF0E0FA93EA9313D2689422F8B2
:101A9C00D8D1089546D0E4B7E3FF04C0E4B7E77F9C
:101AAC00E4BF9BDF91D0E0916001E41519F0EEEFFB
:101ABC00E41509F5E52DE83011F405DF1BC0E9301C
:101ACC0011F472D117C0EA3011F423DF13C0EB30DC
:101ADC0029F4E6E1EA93A3D18BDF0CC0E73019F4CB
:101AEC00BDD122F807C0E33011F489DF03C0E13027
:101AFC0009F4C1DF14C0442091F4E52DE13039F430
:101B0C0094D156D095D1E0936201C7D008C0E23091
:101B1C0031F422FE02C0C1D002C087D149D0C2CF5D
:101B2C00FFCFE7E0E5BBE0E0E4BBEBB9E8E1EAB905
:101B3C00E6E8E0BDE0E0E0BDECE0E9B9E0E8E8B9FA
:101B4C00E0E0E0BF05D0EFE1E1BDEFE0E1BD0895DD
:101B5C00E3B3E770EF5FE0936001E0E0E1B9E2E04E
:101B6C00E0B9E0916001EE0FEF5FE2B9E5E4E6BFAA
:101B7C00089584D1F1F3089584D1E03819F0E1B1DE
:101B8C00E03911F4E3B108957FD1F6CF0A93F4DF75
:101B9C000E2F7AD1E02F7BD1E0916302EF5FE093BF
:101BAC00630221FE02C097D00E27E02F0991089501
:101BBC00E0DFE881E3B968D164D1E83211F0E0E00C
:101BCC0001C0EFEF21960895EED1A89520FE04C038
:101BDC0055D111F4A895FCCFE0E0E0936102D6DF7B
:101BEC00E13709F0F3CFD2DFE0936202E0E0E0935B
:101BFC006302CCDF4E2ECADF5E2EE9E0E51519F04C
:101C0C00EAE0E51511F4689421F800E0E091620235
:101C1C00E3500E1748F4BADF1E2FA02FB0E0AF51DF
:101C2C00BE4F1C930F5FF2CFE89421F819D0E0302F
:101C3C0011F0E52D01C0E0E0C0D10895B4D1EA81E6
:101C4C00EF5FEA83E15029D100811127EA8125D188
:101C5C00F081E0E00E2B1F2BF801ACD123960895F8
:101C6C000A930091610292DF0E1711F0E0E031C08F
:101C7C00E0916202A0916302EA1711F0E0E029C042
:101C8C00E1E027C0E881EF5FE0936202E09361023C
:101C9C00E091620206D1219608950A93C6D088DF9E
:101CAC00E0916101EA93EEDF01E0E0916101EF5F09
:101CBC000E1740F4D8D0F7D0F4D0D5D0F4D0E7D06C
:101CCC000F5FF3CFE0916102ECD0E89422F823FC93
:101CDC0084DE09910895A0916402B091650280910F
:101CEC00660290916702EDE6FEE466EC71E40FD1BA
:101CFC00E75CFF4C6F4F7F4FE0936402F0936502FB
:101D0C006093660270936702A0916402B0916502C1
:101D1C008091660290916702A9D0E0936402F093DF
:101D2C0065026093660270936702E5E66E0EE091C1
:101D3C006402E6250895ECE5F8E109D166277727DA
:101D4C00E0936402F09365026093660270936702FD
:101D5C00EFE16E2EE89421F8089577B77170E9F7EA
:101D6C0008958FB7F894E881F981F7DF67BFE8959C
:101D7C000000000000000000F0DF8FBF089561E15B
:101D8C00F0DF229608950A801B8061E0EADF24963A
:101D9C00089563E0E6DF2296089565E0E2DF22967F
:101DAC00089561E1DEDF0895FBD000E0A8957FD0B7
:101DBC003E2F4F2F0E5F3036E0E04E0708F0FFCF7E
:101DCC00A32FB42FE6E085D03E2F4F2FA8954A9332
:101DDC003A93D5DF6CD0FA93EA934A933A93D3DFD4
:101DEC000E5F3E5F4F4FE32FEF73A1F7A89525D001
:101DFC00E0936201689422F830544040A8954A93CD
:101E0C003A93C7DFA8954A933A93C7DFA895C9DFE1
:101E1C00CED0259608955F9BFECFECB108955D9BC7
:101E2C00FECFE881ECB921960895E0E0EA9308959D
:101E3C00E1E0E0936101E0E00895E1E0E09361010D
:101E4C000895B7D023960895E491F0E0DF0108954A
:101E5C00E491FE2FE0E0EA2BFB2B0895E0E0E09309
:101E6C00610168940895E02FF0E00895E8E03AD01D
:101E7C000895FA93EA93E8E4F8E10895E6B7E07878
:101E8C00089577DEE1B10895E4ECE6BF0895A091E2
:101E9C006102EA0FE09361020895F0E0EF51FE4F0A
:101EAC000895EA9385CEEF59FE4FE08108950A9389
:101EBC00C5CE99818881009641F0BD81AC81FB81B2
:101ECC00EA8105900D920197E1F7FD81EC81269650
:101EDC000895EE230E2EFD0121F0EE0FFF1F0A9444
:101EEC00E1F70895EE230E2EFD01BC0131F076953D
:101EFC006795F795E7950A94D1F70895EE0FFF1FB4
:101F0C00EE0FFF1FEE0FFF1FEE0FFF1F08957A9FBE
:101F1C00702D6B9F700DF89F700DE99F700D6A9F6F
:101F2C00602D710DFB9F600D711DE89F600D711D83
:101F3C008827FA9FF02D610D781FEB9FF00D611D26
:101F4C00781FEA9FE02DF10D681F781F089505900A
:101F5C00F491E02D0895129603D07F2F6E2F1297D7
:101F6C00119602D0FE2F1197E199FECFFF93FFB788
:101F7C00F894AEBBBFBBE09AEDB3FFBFFF910895E1
:101F8C00E199FECF9FB7F894AEBBBFBBE09A8DB37F
:101F9C00E81719F0EDBBE29AE19A9FBF08955A93A6
:101FAC004A933A932A931A930A9308955D814C812C
:101FBC003B812A811981088108950991199108950D
:00000001FF
