:0C00000053C0FECFFDCFFCCF4AC2FACFA8
:10000C00F9CFF8CF1CC20DC2F5CF77C0F3CFF2CF2A
:10001C00F1CFF0CFEFCFB5C1EDCF0100F8004D61BE
:10002C00696E2050726F6772616D2E204D6567612D
:10003C0020384C20000000000000000000000100EF
:10004C000200430200436F6E6E6563746564204466
:10005C0065762E006452656C61795457492D3E5576
:10006C00415254006452656C6179554152542D3E95
:10007C0054574900645061636B6574204C4F535462
:10008C002020200064FF0100020002009200010009
:10009C000B00260001001E0428000000F894EE2737
:1000AC00ECBBF1E0FBBFEBBFE5BFF8E1F1BDE1BD9F
:1000BC008DE0A2E0BB27ED938A95E9F780E094E010
:1000CC00A0E6ED930197E9F7E4E9F0E085919591CD
:1000DC00009761F0A591B59105901590BF01F001C5
:1000EC0005900D920197E1F7FB01F0CFEFE5EDBF25
:1000FC00E4E0EEBFC0E6D1E01CC0EA93FA93EFB7A0
:10010C00EA930A930CB1EBB1EC7169F4442031F42D
:10011C0023FC03C0552448D3402E05C045D34A9434
:10012C0011F4689423F80991E991EFBFF991E991E1
:10013C001895939A2DD078943ED308D1939875D175
:10014C003ED3B9D2A2D021FE03C0BFD2E89421F88D
:10015C0023FE0CC037D33BD33DD331F0E0E0F0E0CD
:10016C00FDBDECBD939AF5D2E89423F827FE05C0AB
:10017C0026D36FD1E89427F820F826FE07C022FC7E
:10018C0005C0E1E0EBBFE2E0EBBF34CBDBCFFFCF50
:10019C00E7E0E5BBECE1E1BBE0E0E5BFE0E8E8B9B6
:1001AC00E0E0E0BF1AD3E0E0E2BFE2BDE5BD18D36A
:1001BC00E0E0E3BDEFBDE5E8EEBDE0E0EDBDECBD9C
:1001CC00E7E6E7BDE9E6E6BDE0E0EBBDEABDE9BD8B
:1001DC00E8BDE5E4E9BF07D3E9B9E3B3E770BE0EC8
:1001EC00EB2DEE0FE160EA9390D00895E0D300E0A0
:1001FC00AA81BB811C91E12F1150E03039F0AA810A
:10020C00BB81ED91AA83BB830E0FF5CFE02FD2D328
:10021C0024960895E0915C02ED5FE0935A02E88128
:10022C00E0935B02E0915A02E4D2FF93EF93EAE58C
:10023C00F2E0E3D2AF91BF91E3D222F844C2B7D33C
:10024C0000E0EA81E03029F4AB81BC810D91AB83F5
:10025C00BC83AB81BC811C91E12F1150E03039F093
:10026C00AB81BC81ED91AB83BC830E0FF5CFAB8121
:10027C00BC81EC91E01711F4E1E001C0E0E09AD30D
:10028C002596089563D0E8811EC2BDD2E9F5BED291
:10029C00C1F1E0912203E27081F1BCD2C0D25AD0FC
:1002AC00E0912203E47001F0E0916001E03181F40F
:1002BC00B1D2E0916201ED5FEA934CD0E1E6F1E05E
:1002CC00FA93EA937CD286D211F0689421F815C087
:1002DC00E03219F422FE6FD207C0E13211F4E89437
:1002EC0022F8E0E0E0935A02EAE5F2E0FA93EA93AE
:1002FC00E0915A02EF5FEA9317D085D209F426D029
:10030C0003C00DD0EA93BEDF0895E881E2B9EFEFA8
:10031C00E3B9E4E0E6BFD7C1E6B7E170089573D264
:10032C00F1F7E0911E0408950A936DD2F1F7E9817B
:10033C00E0931D0400E076D238F477D20F017AD224
:10034C00EC917FD20F5FF7CF7FD218C05CD2F1F760
:10035C007BD208950A9357D2F1F758D271F000E08E
:10036C0061D230F467D261D2E081EC930F5FF8CFA9
:10037C00E0912203ED7FE093220348D2088124967A
:10038C000895AA93BA93EA93FA93EFB7EA93E1B17B
:10039C00E83A11F4CC2402C0E83B29F45ED2E081A7
:1003AC00E3B9E5EC36C0E03C41F4E0911D04EC15FA
:1003BC0011F459D201C05DD22BC0E03731F4E09179
:1003CC002203E460E093220302C0E03641F4E091A2
:1003DC002203E260E0932203CC24E5EC1AC0E0385F
:1003EC0011F0E03939F439D2DF01E3B1EC933BD2AF
:1003FC00E5EC0FC0E03A09F40BC0E83811F0E8392D
:10040C0009F402C0E83C09F402C0E03001F431D236
:10041C00E4E0E6BFE991EFBFF991E991B991A991B7
:10042C001895EA93DAD1E9911895E1E726D2B6D17D
:10043C00EFEF23D2B3D1E6E723D24424089522D29E
:10044C0024FC02C0AA2414D1E89424F8EEDF28D2AC
:10045C001895E2E0E0935C02E4E0E0935D022ED2BA
:10046C0029F49394E0E0E0935E0204C0E091BF02B3
:10047C00E0935E02A4D1CEDE26C18824B1D1A8813E
:10048C00A13021F4E89427F8E7E001C0E0E0E5BDF5
:10049C001AC1F8D18394E4E0E81520F4689427F8A5
:1004AC008ED1EBDFFDD11895E1E0E0935C02E09397
:1004BC005D028DD1AFDE0895E2E0E0935C02E1E0F5
:1004CC00E0935D02E3E0E0935E0281D1A3DE089548
:1004DC00E2E0E0935C02E0E0E0935D02E2E0E093B6
:1004EC005E0275D197DE0895E1E0E0935C02E09343
:1004FC005D026DD18FDE689426F808950A9302E0B0
:10050C00E0916501E03041F4ECE5F2E0DAD1D9D1CB
:10051C00E491DCD112D241C0E130D1F5E02F0F5F74
:10052C0068D1DF01EEE0D7D10F5F63D1D7D1D3D142
:10053C000F5F5FD1D6D10F5F5CD1A082E02F0F5F30
:10054C0058D1DF01E1E0C7D10F5F53D1CAD10F5FA2
:10055C0050D16082E02F0F5F4CD1DF01E2E0BBD1C4
:10056C000F5F47D1BED10F5F44D17082E02F0F5F78
:10057C0040D1DF01E3E0AFD10F5F3BD1B2D10F5FD0
:10058C0038D19082E02F0F5F34D1DF01EFEF04C040
:10059C00E02F0F5F2ED1A2D1EC93E0915C02F0E042
:1005AC00E45AFD4FFF93EF93ECE5F2E026D1AF91C7
:1005BC00BF919AD12FDE7DC0FAD112E0E12F1F5FDF
:1005CC0018D1DF01E9E2EC9300E0003258F4E12F9E
:1005DC001F5F0FD1DF018AD1E65DFF4FE491EC93F1
:1005EC000F5FF3CFE12F1F5F84D189D12AD1E12F87
:1005FC001F5F7FD1FF93EF9387D1E8E0AED1AF912E
:10060C00BF9188D11F5F75D17AD1B3D11AD1E12FA7
:10061C001F5F6FD1FF93EF9377D1E8E19ED1AF913C
:10062C00BF9178D11F5FE5D0B082E12F1F5FE1D081
:10063C0055D170D11F5FDDD0DF01EAE4F0E09ED12F
:10064C0069D11F5FD6D0DF01ECE4F0E097D1EC93D9
:10065C00E0915C02F0E0E45AFD4FFF93EF93ECE580
:10066C00F2E0CBD0AF91BF913FD1D4DDA6D10895AC
:10067C00E2E0E0935C02E1E0E0935D02A0925E02B6
:10068C009ED0C8DD08950A9324FE13C0A0D0F5DED9
:10069C0001E0E0916201EE5FE01738F027D1E05AFB
:1006AC00FE4FE081EDD00F5FF4CF63949398689484
:1006BC0020F80991089502D121F4E0E0EAB9E0BDF7
:1006CC0001C091D0E9B921960895E0916301E03021
:1006DC0061F5E0916401E33011F46EDF25C0E13087
:1006EC0011F40CDF21C0E73011F4FEDE1DC0EE3A30
:1006FC0019F46DD0E0DF18C0E13AB1F4EFEFE093FC
:10070C006301E0916201F0E0EE59FE4FFF93EF932D
:10071C00E2E6F1E072D0AE2FE0916101EA0FAF9109
:10072C00BF916ED025F8AFDF13C0E0916301EE3FAF
:10073C0071F4E0916401E43011F4CADE07C0E530D5
:10074C0011F4BADE03C0EB3009F4AEDE01C09BDF5E
:10075C00089524FC07C0A090E3028ADF689424F873
:10076C00939A17C020FE15C02AD087DE25FE03C041
:10077C002ED06FDE0BC0ECE5F2E0FA93EA9322D0B8
:10078C00E091BE02A3D0C9D022D044DDE89425F874
:10079C00739408955F9BFECFECB108955D9BFECFE3
:1007AC00E881ECB921960895E52D5394F0E0E254DC
:1007BC00FD4F00830895E0E0E0935A020895E0E0D5
:1007CC00EA930895EEEBF2E0FA93EA930895E1E0F0
:1007DC00EA93089534DDE0300895E0E0E3BF089536
:1007EC00E0E0E4BD0895E8E9EAB9E6E8E0BDECE054
:1007FC000895F0E0E65AFD4F0895FA93EA93F6CC8B
:10080C00EC936894089588DDE0300895E09122031C
:10081C00E1700895E0E6F1E0FA93EA930895E3E0DD
:10082C00EA930895E9810E170895E02FF0E0ED5D4D
:10083C00FC4F0895E02FAA81BB81F0E0AE0FBF1FE3
:10084C000895D001EC930895E0E0E0932203E8EFE3
:10085C00E0931E04E5ECE6BF0895EC2DC394F0E0A4
:10086C00ED5DFC4F0895E0912203E160E0932203DB
:10087C000895E1B1E0931E040895EA938FDFCFCF82
:10088C00EA938CCF0A921A92FA926A937A938A9389
:10089C009A93AA93BA93EA93FA93EFB7EA930895CB
:1008AC00E991EFBFF991E991B991A9919991899148
:1008BC0079916991F990199009900895E881E03047
:1008CC000895FA93EA93EEE4F0E00895EF5FF0E018
:1008DC00FA93EA930895EC93E02F0895DF01E0E09A
:1008EC000895B082E02F0895EC9371CFE02FF0E0E3
:1008FC000895AAE5B2E0F0E0EA0FFB1F08950F019E
:10090C00A0E0B0E03FD00895A0E0B0E03BD0DF0124
:10091C00CB010895EC93E12F08959981888100967D
:10092C0041F0BD81AC81FB81EA8161916D930197AE
:10093C00E1F7FD81EC8126960895998188810096D6
:10094C0041F0BD81AC81FB81EA8105900D9201974C
:10095C00E1F7FD81EC8126960895EE230E2EFD0124
:10096C00BC0131F076956795F795E7950A94D1F728
:10097C000895E62FF72F60E070E008950590F4914C
:10098C00E02D0895129603D07F2F6E2F129711969B
:10099C0002D0FE2F1197E199FECFFF93FFB7F89489
:1009AC00AEBBBFBBE09AEDB3FFBFFF9108951A93A6
:1009BC000A93089519810881089509911991089550
:00000001FF
