:020000021000EC
:0EF800000C9451FC0C9400FC0C9400FC0C9435
:10F80E0000FC0C9400FC0C9400FC0C9400FC0C947A
:10F81E0000FC0C9400FC0C9400FC0C9400FC0C946A
:10F82E0000FC0C9400FC0C9400FC0C9400FC0C945A
:10F83E0000FC0C9400FC0C9400FC0C9400FC0C944A
:10F84E0000FC0C9400FC0C9400FC0C9400FC0C943A
:10F85E0000FC0C9400FC0C9400FC0C9400FC0C942A
:10F86E0000FC0C9400FC0C9400FC0C9400FC0C941A
:10F87E0000FC0C9400FC0C9400FC0C9400FC4D015C
:10F88E00010000001F00040002058EF801000500B3
:10F89E0092F80000F894EE27ECBBF1E0FBBFF5BF49
:10F8AE00F2E0F5BFE0936C00F8E1F1BDE1BD8DE053
:10F8BE00A2E0BB27ED938A95E9F780E090E1A0E006
:10F8CE00B1E0ED930197E9F7E4E9F8EF87919791AD
:10F8DE00009761F0A791B79107901790BF01F001C3
:10F8EE0007900D920197E1F7FB01F0CFEFEFEDBF1F
:10F8FE00E0E1EEBFC0E0D5E00C94AAFD0E9441FE0F
:10F90E00E03009F40895A895E8E0EA930E9452FECB
:10F91E000E9447FFE8EFF1E0FA93EA930E940FFE90
:10F92E00E0E0F0E1FA93EA930E940FFE0E9447FF97
:10F93E000E945DFE689420F80E9434FF08950E9494
:10F94E00F6FF689421F8A8950E94F5FD8F010E949C
:10F95E00E6FD2E2FE89421F80E9441FEE03021F0C2
:10F96E000030E0E11E0718F00E944DFF0EC0E22F9E
:10F97E00D8010E94E1FFD8010E94D5FF2E1719F081
:10F98E000E944DFF02C00E9457FF0E94FBFF23966C
:10F99E000895E881F9817BB76A816BBF86917BBF41
:10F9AE00E82F24960895FF9228970E94F5FFFF24D2
:10F9BE00A895ECEFF7EF61E070E00E9461FF7F9396
:10F9CE006F93FF93EF93EDEFF7EF61E070E00E941E
:10F9DE0061FFDF01CB01E8E00E9494FFAF91BF9180
:10F9EE008F919F910E948FFFEC83FD836E837F83A7
:10F9FE00AC81BD818E819F81AF3FEFEFBE07E0E00E
:10FA0E008E07E0E09E0711F4E0E07DC0AC81BD8181
:10FA1E008E819F81A83FE1E0BE07E0E08E07E0E027
:10FA2E009E0710F06894F0F8AC81BD818E819F81A5
:10FA3E00E8E00E9494FFEC83FD836E837F83F0FEEB
:10FA4E000CC0EC81FD816E817F81E450F0406040FE
:10FA5E007040EC83FD836E837F83E0E0E887E98767
:10FA6E00EA87EB8700E010E0EC81FD816E817F81FB
:10FA7E00A885B9858A859B850E94F0FFD0F4E8851C
:10FA8E00F9856A857B850E94D0FF0E94D0FCD80143
:10FA9E00F0E0EA0FFB1F8F01E885F9856A857B850B
:10FAAE00EF5FFF4F6F4F7F4FE887F9876A877B873E
:10FABE00DBCFF0FE08C001501F4F01501F4F015009
:10FACE001F4F01501F4FEEEFF7EF61E070E00E9405
:10FADE00D0FF0E94D0FCF0E0FF93EF93EFEFF7EF33
:10FAEE0061E070E00E94D0FF0E94D0FCFE2FE0E0AB
:10FAFE00AF91BF91EA2BFB2B9F012017310711F01D
:10FB0E00E0E001C0E1E00E94FAFF2C96FF9008951C
:10FB1E000E94DAFCE03009F40895F894E1E0E5BFC4
:10FB2E00E0E0E5BFA8950C9400000895A3D0E03066
:10FB3E0009F40895E0E0EA93AED0B8D0E89420F846
:10FB4E000E948FFD0895E4B7E3FF05C0E4B7E77F99
:10FB5E00E4BF0E948FFD16D068D0E83019F40E94E1
:10FB6E0085FC0EC0E93019F40E948CFE09C0EA3003
:10FB7E0019F40E94A6FC04C0EB3011F40E949DFD06
:10FB8E00EBCFFFCFE0E1EAB9E6E0E0939500ECE0E1
:10FB9E00E9B9E0E0E0939000EFE1E1BDEFE0E1BD17
:10FBAE0008955D9BFECFE881ECB930C0EBB1E078F3
:10FBBE0008950E94DDFDE030E1F3ECB108950A9363
:10FBCE000E94E0FD0E2F400E0E9469FF21FE03C031
:10FBDE000E9401FF0E27E02F099108951A930A93B0
:10FBEE000E94E6FD0E2F11270E94E6FDFE2FE0E09B
:10FBFE000E2B1F2BF801099119910895E8814E0ED5
:10FC0E000E9469FFE881EA930E94D8FD219608952B
:10FC1E00E881F981F070EA930E9405FEE981F070A7
:10FC2E00EA930E9405FE22960895A89520FE09C02B
:10FC3E000E94DDFDE03011F00C9428FEA8950C9486
:10FC4E001FFE44240E94E6FDE13711F00C941DFEC8
:10FC5E000E94E6FDE0930005E0E0E09301050E94BE
:10FC6E00E6FDEE3F11F00C941DFE0E94E6FD089598
:10FC7E000C941DFE0A93042D0E94E6FD0E1741F40E
:10FC8E00E0910005A0910105EA1711F4E1E001C031
:10FC9E00E0E009910895E881EF5FE09300054424C8
:10FCAE00539AEA930E9405FE219608954A920E9465
:10FCBE0005FE53980895709168007170E1F70895EC
:10FCCE008FB7F8949BB7E881F981AA81ABBFF3DFB8
:10FCDE0060936800E8950000000000000000EBDF74
:10FCEE009BBF8FBF089561E1EBDF249608950C80D2
:10FCFE001D8061E0E5DF2696089563E0E1DF24963E
:10FD0E00089565E0DDDF249608952497689421F820
:10FD1E00A8950E94F5FD66277727E883F9836A8305
:10FD2E007B83A881B9818A819B81A83FE1E0BE07D0
:10FD3E00E0E08E07E0E09E0708F0FFCFA881B981D2
:10FD4E008A819B81E8E00E9494FFE883F9836A83AD
:10FD5E007B83A895E881F9816A817B810E94D0FF1F
:10FD6E000E947AFEA895B4D0CCD010F40C94B9FEB3
:10FD7E00E89421F80E9441FEE03019F487D02496D1
:10FD8E000895A8958DD00E941CFEE930E1F7689485
:10FD9E0021F8A8959DD0B5D010F40C94D0FEE8941F
:10FDAE0021F80E9441FEE03019F470D02496089597
:10FDBE00E881F9816A817B81E050F14060407040BA
:10FDCE00E883F9836A837B83A895E881F9816A8148
:10FDDE007B810E94D0FF0E9484FEA895E881F98164
:10FDEE006A817B810E94D0FF0E9488FEA89558D020
:10FDFE0024960895A0910205B09103058091040503
:10FE0E0090910505EDE6FEE466EC71E40E94ACFF10
:10FE1E00E75CFF4C6F4F7F4FE0930205F0930305B5
:10FE2E006093040570930505A0910205B09103053A
:10FE3E008091040590910505E8E00E94A0FFE093F3
:10FE4E000205F09303056093040570930505E5E63E
:10FE5E005E0EE0910205E5250895ECE8F8EF0E94AC
:10FE6E00CCFF66277727E0930205F0930305609396
:10FE7E00040570930505EFE15E2EE89421F80895D0
:10FE8E00E0E0F1E0FA93EA930C940FFEE1E0EA93DE
:10FE9E000E9452FEE0E0EA930E9405FE0C945DFE85
:10FEAE00E1E0EA930E9452FEE1E0EA930E9405FE31
:10FEBE000C945DFE0E94D0FF0E94D0FCFF276627A7
:10FECE0077270895E0910105EF5FE093010508950E
:10FEDE000E94F5FDFA93EA93EA81FB816C817D81A4
:10FEEE000E94D0FF0E947EFEE881F9816A817B81AB
:10FEFE00EE5FFF4F6F4F7F4FE883F9836A837B83FB
:10FF0E000895E0910005E150A0910105AE17089506
:10FF1E00EA2BFB2B682B792B0895EE230E2EFD0179
:10FF2E00BC0131F0EE0FFF1F661F771F0A94D1F749
:10FF3E000895EE230E2EFD01BC0131F076956795E6
:10FF4E00F795E7950A94D1F708957A9F702D6B9FD8
:10FF5E00700DF89F700DE99F700D6A9F602D710DE9
:10FF6E00FB9F600D711DE89F600D711D8827FA9F24
:10FF7E00F02D610D781FEB9FF00D611D781FEA9F2C
:10FF8E00E02DF10D681F781F08950790F691E02D72
:10FF9E0008957A936A93FA93EA930895E199FECFBE
:10FFAE00FF93FFB7F894AEBBBFBBE09AEDB3FFBFB4
:10FFBE00FF910895E199FECF9FB7F894AEBBBFBBFA
:10FFCE00E09A8DB3E81719F0EDBBE29AE19A9FBF64
:10FFDE000895AE17BF078607970708953A932A9399
:10FFEE001A930A9308953B812A81198108810895F5
:00000001FF
