:040000000C940F014C
:100004000C9400000C9400000C9400000C9400006C
:100014000C9400000C9400000C9400000C9400005C
:100024000C9400000C9400000C9400000C94350314
:100034000C9428040C9400000C9400000C94F30419
:100044000C9400000C94C8020C9400000C94000062
:100054000C9400000C9400000C9400000C9400001C
:100064000C9400000C9400000C9400000C9400000C
:100074000C9400000C9400000C9400000C940000FC
:100084000C9400000C940000506F72742044657648
:100094006963652076312E30000000000000000006
:1000A4000000000000000000000185078507010032
:1000B40002000300040001000A00000040000000E8
:1000C400000001004100000000000200490000009F
:1000D400000003004A000000000004004C0000007F
:1000E400000005004D000000020006005000010061
:1000F4000000070051000200000008005200020046
:10010400000009005800020000000A005900020023
:1001140000000B005B00000000000C005C0002000B
:1001240001000D005D00020001000E005E000200EF
:1001340000000F00600002000000100061000200D7
:1001440000001100620002000000120063000200BF
:1001540000001300640002000000140065000200A7
:100164000000150066000300010016006A00030089
:10017400010017007A000000030018007B00030050
:10018400000019006900000000001027E803640063
:100194000A0001000010000110000100CFEEF0F28F
:1001A400203100CFEEF0F2203200CFEEF0F2203317
:1001B40000CFEEF0F22034000A0D0025582000256F
:1001C400303258200000000000000400A80CCA01CE
:1001D40002000400AE0002000600B0000700400761
:1001E400A00101005007B20007005107A701010058
:1001F4006107B40007006207AE0101007207B60090
:1002040007007307B50101008307B80001000B0064
:10021400BA0001008608BC000000F894EE27ECBB8D
:10022400F1E0F5BFE5BFE0936C00EBBFF8E1F1BD91
:10023400E1BD8DE0A2E0BB27ED938A95E9F788EA5A
:100244009BE0A0E0B1E0ED930197E9F7EEECF1E07B
:1002540085919591009761F0A591B59105901590C0
:10026400BF01F00105900D920197E1F7FB01F0CF7A
:10027400E7EAEDBFECE0EEBFC0E0D5E00C943D0250
:100284000E94271FE0918507E03011F00C9488014B
:10029400E3E4EA936DD1E2E0EA9364D1E0E0EA9327
:1002A40061D110E0143068F500E00F30A0F4E12FC4
:1002B400F0E0A1E1B0E00E94201EE05CF84FDF0115
:1002C400E02FF0E0AE0FBF1F2C91203021F02A93D5
:1002D40049D10F5FEACF0F3028F4E0E2EA9342D12C
:1002E4000F5FF9CFA12FBB27E1E1F0E00E94201EB0
:1002F400A0E5B7E0AE0FBF1FEC91EA9333D11F5FC7
:10030400D1CFEFEFEA932ED13BD12EC0E13061F58E
:10031400EDE0EA932DD110E0143010F51A9322D1B8
:10032400A12FBB27E1E1F0E00E94201EA0E5B7E089
:10033400AE0FBF1FEC91EA9315D1A12FBB27E1E1CA
:10034400F0E00E94201EA0E5B7E0AE0FBF1FEC91C5
:10035400F0E0E050F94FE081EA9304D11F5FDCCF75
:10036400EFEFEA93FFD00CD10E942E1F239608953D
:100374000A93E8E2EA93FCD000E0003248F4E02F6C
:10038400F0E0E457FF4FE491EA93ECD00F5FF5CF30
:10039400A0E0B0E00E94D51EFA93EA938CD1A0E0CD
:1003A400B0E00E94D51E0E94111EFA93EA9383D1F5
:1003B400A4E0B0E00E94DE1EEA93D4D0E0E0EA9329
:1003C400D1D0ECEAF0E00E94C71EFA93EA9373D10D
:1003D400D7D009910895E0918507A4E0B0E00E9488
:1003E400FD1EE1E0EA93C4D0E1E0EA93BBD0C8D0BB
:1003F4000895A0E0B0E00E94D51E0E940C1F41F0B9
:10040400E1E0EA93B5D0E0E0EA93ACD0B9D0089546
:10041400E0918507F09186076091870770918807BE
:10042400A0E0B0E00E94EA1EE1E0EA93A1D0E1E09E
:10043400EA9398D0A5D00895E0E0EA9399D0A0D0AB
:10044400E1E0E5BFE2E0E5BF0C9400FC089565D16E
:1004540023D1B2D2AED20895DA98EAE0F0E0FA936A
:10046400EA930E94BE1DDA9AE4EFF1E0FA93EA936C
:100474000E94BE1D0895D09AD19AD898D99A0E9404
:1004840029020E942E027894539AE8EBFBE0FA9337
:10049400EA930E94BE1DB3D23AD5E030E9F3D09A74
:1004A400D19AD89AD99801E0E0918B09E01720F00D
:1004B4000A9335D30F5FF8CFD5D2E1D0E03011F4F1
:1004C4000C94B202A4E0B0E00E94DE1EA091840766
:1004D400EA1711F0AF3F21F5DAD0E13019F40E94A8
:1004E40042011DC0E33019F40E94BA0118C0E4307F
:1004F40019F40E94ED0113C0E53019F40E94FB01C8
:100504000EC0E73019F40E941E0209C0E63011F44F
:10051400DCD005C0E43B11F420D301C0BAD020C024
:1005240001E0E0918B09E017D8F0E02FF0E0E05013
:10053400F94FE081A0918407EA1781F4D09AD19A07
:10054400D898D99A0A93BAD2A4D0E2E3F0E0FA9305
:10055400EA930E94BE1D0A93E2D202C00F5FE1CF6C
:100564009ECFFFCF5D9BFECFE881ECB9AE0E64C198
:10057400AA24539AE881EF5FEA930E94B4025CC113
:10058400AA920E94B402E1E0BE2E0895AA93EA93CF
:10059400FA93EFB7EA930A930CB1EB2DE13091F49F
:1005A400013709F058C0E2E0BE2ECC24ECB5FDB50D
:1005B400E056F04FFBBDEABDE0E1E6BFE7B7E0611E
:1005C400E7BF49C0E23029F4E02FE350DE2EE3E038
:1005D40041C0E33021F400938407E4E03BC0E430FD
:1005E40059F4E02EE0E0E0938408DD2011F0E5E02A
:1005F40001C0E6E0BE2E2FC0E530A9F4A091840826
:10060400AF3F08F026C0E0918408EF5FE0938408D0
:10061400E150F0E0EB57F84F0083A0918408AD154A
:10062400D0F0E6E017C0E630A1F4C01611F0E1E026
:100634000BC0E0918408EF5FE0938408E150F0E0A0
:10064400EB57F84F0083E7E0BE2EE7B7EF7EE7BF36
:1006540002C0E1E0BE2EC00E0991E991EFBFF9910D
:10066400E991A9911895EA93EFB7EA93E1E0BE2ED8
:10067400E7B7EF7EE7BFE991EFBFE9911895E7E0AF
:10068400EB1511F4EFEF0895E0E008950895EE2DD1
:100694000895E1E0BE2E0895E0E0EBB9E0E9EAB99F
:1006A400E6E8E0939500ECE0E9B9E0E0E09390003F
:1006B400E5E0EEBD0895E881EA930E94B402E98181
:1006C400F070EA930E94B402F2C01A930A93D09A8B
:1006D400D19AD898D99ADA9287D000E00D1598F477
:1006E400E02FF0E0EB57F84FE081EA935AD0E02F87
:1006F400F0E0EB57F84FE081A0918508EA0FE09312
:1007040085080F5FEBCF9AD00E944B03EAE0F0E03C
:10071400FA93EA930E94BE1DA2C1E0E0E093710047
:10072400E0E2E0937000E0E0E0937200E4E0E09344
:1007340074000895E0917400E07829F4E0918A0946
:10074400E17009F4F7CF0895E4EAE09374000E949D
:100754009C03A0917100A83021F0A0917100A031F8
:1007640009F402C0E0E00895EFEF0895E4E9E093AE
:10077400740008950E949C03E881E0937300E4E808
:10078400E09374000E949C03A0917100A83121F0B1
:10079400A0917100A03409F402C0E0E04DC0EFEF75
:1007A4004BC00E949C03E881E0937300E4E8E0936B
:1007B40074000E949C03A0917100A83211F0E0E043
:1007C4003BC0EFEF39C005D10E949C03E881E030C3
:1007D40011F0E4EC01C0E4E8E09374000E949C038F
:1007E400FDD0E091730028C00E94A603E03019F404
:1007F4000E94B803F9CFE0E0EA930E94BC03E03022
:1008040019F40E94B803F0CFE0E0E0938508E1E733
:10081400EA930E94D303E0918508EF58E09385089A
:10082400E881EF5FEA930E94D303E881EF5FA09130
:100834008508EA0FE093850821960895E0918508DC
:10084400EA930E94D3030E94B8030895EA93EFB792
:10085400EA93E8E0E0938608E7B7E77FE7BFE9912A
:10086400EFBFE9911895B5D00E94A603E03011F4CA
:100874000E94B803E981EE0FEA930E94BC03E030C2
:1008840011F40E94B803E881EA930E94D3030E9402
:10089400B803A4D0E0918A09E17011F4EFEF07C026
:1008A400A0918A09E1E0EA27E0938A09E0E0229630
:1008B40008950A938ED00E94A603E03011F40E949A
:1008C400B803E981EE0FEA930E94BC03E03011F40F
:1008D4000E94B8030E949C0300E0E0910105EF5FD1
:1008E400E01750F0E02FF0E0E050FB4FE081EA9396
:1008F4000E94D3030F5FF1CF0E94B8036FD0E09141
:100904008A09E17011F4EFEF25C1A0918A09E1E0B1
:10091400EA27E0938A09E0E01DC10A930E94A60336
:10092400E03011F40E94B803E981EE0FEF5FEA931F
:100934000E94BC03E03011F40E94B803E1E0EA93A2
:100944000E94E503E093000601E0E09100060E1723
:1009540078F4E02FF0E0E050FA4FFF93EF93E1E0FA
:10096400EA930E94E503AF91BF91EC930F5FEDCF43
:10097400E02FF0E0E050FA4FFF93EF93E0E0EA93CA
:100984000E94E503AF91BF91EC930E94B803E091FC
:100994008A09E17019F449D0E03009F402C0EFEF9C
:1009A400D9C0A0918A09E1E0EA27E0938A09E0E04E
:1009B400D1C0BF9ABC9A0895E0E0E0BFE3BFE1E094
:1009C400E2BFE0E0E1BFE1E0E7BFE0E0E0937D000B
:1009D4000895E0E0E2BFE6E0E3BF0895E0E0E3BFAE
:1009E4000895EA93EFB7EA93E0E0E3BFE0918A0960
:1009F400E160E0938A09E991EFBFE99118950A93C0
:100A040001E00A3048F40A93EAEAEA930E943504C2
:100A1400E03011F00F5FF5CFE02FE150E0938B0948
:100A2400E0E0F7E0E0930007EAC01A930A9300E0DD
:100A340010E0E09100061E1740F4E12FF0E0E050D2
:100A4400FA4FE0810E0F1F5FF4CFE12FF0E0E0508A
:100A5400FA4FE081E01711F4EFEF01C0E0E00991F3
:100A6400199108950A93E1E7E0930005E3E0E09328
:100A74000105E0E0E0930205E1E0E0930305E5E72A
:100A8400E0930405E0E0EA930E945B04E5E0F0E013
:100A9400FA93EA930E94BE1D01E0E0918B09E017EE
:100AA40060F00A930E948F04A02FB0E0A050B94FC9
:100AB400E0910106EC930F5FF0CFA1C01A930A9363
:100AC40010E0E1E7E0930005ED2DED5FE093010513
:100AD400A2E0B5E0E0918407EC93E092030504E022
:100AE400ED2DEC5FE01768F0A02FB0E0A050BB4FF5
:100AF400E12F1F5FF0E0EB57F84FE081EC930F5FBD
:100B0400EFCFEA81EA930E945B04EAE0F0E0FA9313
:100B1400EA930E94BE1D19810881239608950A93C1
:100B2400E981EA930E948F04E0910006E03091F09D
:100B3400539A00E0E0910006E01750F0E02FF0E057
:100B4400E050FA4FE081EA930E94B4020F5FF2CFC3
:100B5400E1E0BE2E0881229608950A93E09185076C
:100B6400E130B9F4D09AD19AD898D99AF201319651
:100B7400FA93EA93E0E0EA930E9439184F01082CB3
:100B8400092811F4E0E001C0E5E5EA930E94741C31
:100B940034C0E23091F1E33091F4D09AD19AD898EC
:100BA400D99A9A928A920E948D1A082C092811F4D3
:100BB400E0E001C0E5E5EA930E94741C1EC0E43045
:100BC400E1F0E530D1F0E630C1F0E73019F40E94ED
:100BD400FE1213C0E83089F4D09AD19AD898D99AE1
:100BE4009A928A920E94161A082C092811F4E0E0BD
:100BF40001C0E5E5EA930E94741CE1E0BE2E099170
:100C04000895E881EFB9779BFECFEFB1A5C624978D
:100C14000E94241FC498AE85BB2760EC70E0E8E016
:100C2400F0E00E94201EE60FF71F04910A930E9431
:100C34000306AE85BB2762EC70E0E8E0F0E00E94BA
:100C4400201EE60FF71F0E94C71E9F01022E032AD3
:100C540071F440E050E04430E0E05E0738F4E0E056
:100C6400EA930E9403064F5F5F4FF5CF3CC0EA85CD
:100C7400FB856C857D85E070F07060707F7FDF019F
:100C8400CB01E8E10E94FC1D0E2F0A930E9403068B
:100C9400EA85FB856C857D85E070F0706F7F7070F0
:100CA4000E94111E0E2F0A930E940306EA85FB85FB
:100CB4006C857D85E070FF7F60707070DF01CB0113
:100CC400E8E00E94FC1D0E2F0A930E940306EA85A9
:100CD400FB856C857D85EF7FF070607070700E2FE2
:100CE4000A930E940306EE85E03011F405E901C081
:100CF4000FEF0A930E940306EFEFEA930E940306A4
:100D0400AE85BB2764EC70E0E8E0F0E00E94201EB2
:100D1400E60FF71F0E94C71E9F01F901309731F4B7
:100D2400EFEFEA930E940306F0E0E3C0E130A0E0B5
:100D3400FA0701F5EFEFEA930E9403061E2FE0E0A5
:100D4400EE83EF83E887E987EE81FF816885798503
:100D54000E940C1F61F4EFEFEA930E940306FF2741
:100D640066277727EE83FF8368877987EDCFE12FA6
:100D7400F0E0BFC0E230A0E0FA0741F5EFEFEA93FC
:100D84000E940306FF2766277727EE83FF83688781
:100D94007987AE81BF8188859985E8E00E94F01D3E
:100DA4007F936F93FF93EF93EFEFEA930E94030611
:100DB400AF91BF918F919F91FF27662777270E945C
:100DC400DE1DEE83FF836887798793C0E330A0E05C
:100DD400FA0711F00C947907EFEFEA930E940306E7
:100DE4001E2FE0E0E0938C09E0938D09E0938E09D7
:100DF400E0938F09EFEFEA930E940306FF2766272B
:100E04007727EE83FF8368877987AE81BF818885E2
:100E14009985E8E10E94F01DE0938C09F0938D0917
:100E240060938E0970938F09EFEFEA930E94030693
:100E3400FF2766277727EE83FF83688779870E94D9
:100E4400161EA0918C09B0918D0980918E09909104
:100E54008F090E94DE1DE0938C09F0938D09609345
:100E64008E0970938F09EFEFEA930E940306FF2720
:100E740066277727EE83FF8368877987AE81BF81F2
:100E840088859985E8E00E94F01DA0918C09B091B5
:100E94008D0980918E0990918F090E94DE1DE09347
:100EA4008C09F0938D0960938E0970938F09EFEF8D
:100EB400EA930E940306FF2766277727EE83FF83C2
:100EC40068877987A0918C09B0918D0980918E09EA
:100ED40090918F090E94DE1DE0938C09F0938D0997
:100EE40060938E0970938F09E12FF0E002C0E0E077
:100EF400F0E00E942B1F2F960895C49AEFEFEA9317
:100F04000E940306EFEFEA930E94030608952497D4
:100F14000A93E7B3E760E7BBBB98BC9AE0E5EDB999
:100F2400E0E0EEB9E0E0F2E0E093960BF093970B8B
:100F3400E0E0E093E70BE093E80BE093E90BE09348
:100F4400EA0B47D3E03011F4E0E028C3E0E0E983A2
:100F5400EA83EB83EC83A981BA818B819C81A436DB
:100F6400E0E0BE07E0E08E07E0E09E0710F000300E
:100F7400A1F4C498EFEFEA930E9403060E2FC49ADB
:100F8400E981FA816B817C81EF5FFF4F6F4F7F4F67
:100F9400E983FA836B837C83DECFE0E0E983EA8331
:100FA400EB83EC83A981BA818B819C81A436E0E038
:100FB400BE07E0E08E07E0E09E07F0F440D3E030A7
:100FC400D9F4A981BA818B819C81A336E0E0BE0764
:100FD400E0E08E07E0E09E0711F4E0E0DFC2E98183
:100FE400FA816B817C81EF5FFF4F6F4F7F4FE98305
:100FF400FA836B837C83D6CFE0E0F0E060E070E0BE
:101004000E94CB1E4DD3E03029F4E1E0E093D30BF2
:10101400E0E0C4C2B091570BA0E0E091560BF0E0C1
:10102400EA2BFB2BE093900BF093910BA09190098A
:10103400AB3E21F4E0919209E03921F0A0919009AE
:10104400A93E51F4E0918E0BE53521F4E0918F0B2C
:10105400EA3A09F001C001C005C0E0E0E093900B5A
:10106400E093910BE091900BF091910B6627772719
:10107400DF01CB01E091960BF091970B6627772760
:101084000E944D1EE093B50BF093B60B6093B70B23
:101094007093B80BE091900BF091910B309791F015
:1010A400E091B50BF091B60B6091B70B7091B80B52
:1010B4000E94CB1EF5D2E03029F4E1E0E093D30B9B
:1010C400E0E06CC2E0919009FF27662777270E9431
:1010D400161EDF01CB01F0919109E0E00E941B1E76
:1010E4000E94DE1DDF01CB01E0919209F0E00E9435
:1010F4001B1E0E94DE1DE093920BF093930B6093F2
:10110400940B7093950BB0919C09A0E0E0919B091E
:10111400F0E0EA2BFB2BE093960BF093970BE09116
:101124009D09E093980BB0919F09A0E0E0919E097E
:10113400F0E0EA2BFB2BE093990BF0939A0BE091F0
:10114400A009E0939B0BB091A209A0E0E091A10952
:10115400F0E0EA2BFB2BE0939C0BF0939D0BB091FA
:10116400A709A0E0E091A609F0E0EA2BFB2BE093AD
:101174009E0BF0939F0BB091A409A0E0E091A3090A
:10118400F0E0EA2BFB2B66277727E093A10BF09383
:10119400A20B6093A30B7093A40B0E940C1FD1F5B8
:1011A400E091B309FF2766277727DF01CB01E8E148
:1011B4000E94F01DDF01CB01E091B209FF276627F1
:1011C40077270E94161E0E94DE1D7F936F93FF9364
:1011D400EF93E091B109FF2766277727DF01CB0161
:1011E400E8E00E94F01DAF91BF918F919F910E9402
:1011F400DE1DDF01CB01E091B009FF2766277727C9
:101204000E94DE1DE093A10BF093A20B6093A30B4D
:101214007093A40BE091BA09FF2766277727DF01B3
:10122400CB01E8E10E94F01DDF01CB01E091B90997
:10123400FF27662777270E94161E0E94DE1D7F93D4
:101244006F93FF93EF93E091B809FF276627772701
:10125400DF01CB01E8E00E94F01DAF91BF918F91B7
:101264009F910E94DE1DDF01CB01E091B709FF27AA
:10127400662777270E94DE1DE093A50BF093A60B4B
:101284006093A70B7093A80BE0E0E983EA83EB83F8
:10129400EC83A981BA818B819C81AB30E0E0BE07ED
:1012A400E0E08E07E0E09E0700F5E981FA816B81BA
:1012B4007C81E755F44FDF01E981FA816B817C8100
:1012C400E55DFF4F6F4F7F4FE057F64FE081EC93A2
:1012D400E981FA816B817C81EF5FFF4F6F4F7F4F14
:1012E400E983FA836B837C83D4CFE0E0E093B40B8F
:1012F400E091990BF0919A0B66277727DF01CB01D8
:10130400E091960BF091970B662777270E944D1E6C
:10131400A091B50BB091B60B8091B70B9091B80B1F
:101324000E94CA1DE093C10BF093C20B6093C30BE0
:101334007093C40BE0919E0BF0919F0B6627772767
:10134400DF01CB01E091960BF091970B662777278D
:101354000E944D1EA091C10BB091C20B8091C30B92
:101364009091C40B0E94CA1DE093C50BF093C60B69
:101374006093C70B7093C80BE0919B0BFF27662704
:101384007727DF01CB01E0919E0BF0919F0B66273D
:1013940077270E944D1EDF01CB01E091990BF0915C
:1013A4009A0B662777270E94CA1DE093B90BF09326
:1013B400BA0B6093BB0B7093BC0BE091960BF0914E
:1013C400970BA091B90BB091BA0B8091BB0B909184
:1013D400BC0B662777270E94281EE093B90BF09375
:1013E400BA0B6093BB0B7093BC0BE091B50BF091FF
:1013F400B60B6091B70B7091B80BA091B90BB0917B
:10140400BA0B8091BB0B9091BC0B0E94CA1DE09358
:10141400B90BF093BA0B6093BB0B7093BC0BE091C8
:101424009C0BF0919D0BEE0FFF1F0E94081EA091D4
:10143400960BB091970BAE0FBF1F1197E091960BCF
:10144400F091970B0E94521E66277727E093C90BF1
:10145400F093CA0B6093CB0B7093CC0BE0919E0B73
:10146400F0919F0BA0919B0BB0E00E94201EA091D5
:10147400990BB0919A0BAE0FBF1FE091C90BF0917D
:10148400CA0B6091CB0B7091CC0B882799270E94D3
:10149400CA1DE093CD0BF093CE0BA091A10BB0919C
:1014A400A20B8091A30B9091A40B662777270E942F
:1014B400D91DA093D80BB093D90B8093DA0B9093DA
:1014C400DB0BE091980BA091D80BB091D90B8091D4
:1014D400DA0B9091DB0BFF27662777270E94651EA6
:1014E400E093D80BF093D90B6093DA0B7093DB0B7A
:1014F400E0E0E093E30BE093E40BE093E50BE0938F
:10150400E60BE1E0F0E0E093EB0BF093EC0BA09141
:10151400D80BB091D90B8091DA0B9091DB0BA53FDE
:10152400EFE0BE07E0E08E07E0E09E0720F4E2E390
:10153400E093A00B1CC0A091D80BB091D90B809163
:10154400DA0B9091DB0BA53FEFEFBE07E0E08E07CF
:10155400E0E09E0720F4E6E3E093A00B08C0E0E09F
:10156400E093A00BECE0E093D30BE0E017C0E09134
:10157400B90BF091BA0B6091BB0B7091BC0BE0936B
:10158400BD0BF093BE0B6093BF0B7093C00BECE5E7
:10159400E093ED0BE0E0E093EE0BE1E008812596AB
:1015A4000895EDB1E03519F4E1E5EDB910C0EDB100
:1015B400E13519F4E2E5EDB90AC0EDB1E23519F40B
:1015C400E3E5EDB904C0E0E5EDB9E0E00895E1E05C
:1015D40008950E94271F20E0243078F5C49A10E073
:1015E4001A3030F4EFEFEA930E9403061F5FF8CF3E
:1015F400E0E0EA93E0E0F0E060E070E00E94CB1EFF
:101604000E9409060E2F10E0183C70F4013029F4F2
:10161400C49AE0E5EDB9E1E03FC0EFEFEA930E9440
:1016240003060E2F1F5FF0CF0E94D30AE03019F497
:10163400C49AE0E031C02F5FCFCFE0E02DC00E941C
:10164400271F0E947F0710E020E0183EE3E02E07EA
:10165400F0F4E1E0EA93E0E0F0E060E070E00E94A2
:10166400CB1E0E9409060E2F003089F0EFEFEA939B
:101674000E9403060E2F003051F0EFEFEA930E9410
:1016840003060E2F003019F01F5F2F4FDECF0030FE
:1016940011F4E1E001C0E0E00E942E1F23960895BA
:1016A40024970A93E091960BF091970BAD81BE813C
:1016B4008F819885662777270E94931E0E940C1FAE
:1016C40029F0E4E0E093D30BE0E08EC00E947F07B2
:1016D400E7E0EA93EE81FF81688579850E94CB1E5D
:1016E4000E9409060E2FE0E0E983EA83EB83EC8392
:1016F400A981BA818B819C81A83EE3E0BE07E0E02A
:101704008E07E0E09E07A0F40E3F91F0EFEFEA931E
:101714000E9403060E2FE981FA816B817C81EF5FC1
:10172400FF4F6F4F7F4FE983FA836B837C83E0CF56
:101734000E3F11F00C94EC0BE0E0E983EA83EB83B9
:10174400EC83E091960BF091970BA981BA818B8180
:101754009C81662777270E941F1FE0F4E981FA81A4
:101764006B817C81E057F64FFF93EF93EFEFEA93A1
:101774000E940306AF91BF91EC93E981FA816B81DA
:101784007C81EF5FFF4F6F4F7F4FE983FA836B8359
:101794007C83D7CFEFEFEA930E940306EFEFEA933F
:1017A4000E940306EFEFEA930E940306C49AE0E066
:1017B400E093D30BED81FE816F817885E093D40BA8
:1017C400F093D50B6093D60B7093D70BE0E5EDB98E
:1017D400E1E00AC0C49A0E94D30AE03009F076CF4F
:1017E400E4E0E093D30BE0E00881299608950E9499
:1017F400251FE091960BF091970BAD81BE818F81EF
:101804009885662777270E94931E0E940C1F79F4FF
:10181400E091B50BF091B60B6091B70B7091B80BDA
:10182400AD81BE818F8198850E941A1F28F0E3E064
:10183400E093D30BE0E066C00E947F07E9E0EA93FF
:10184400EE81FF81688579850E94CB1E0E9409067E
:101854000E2F20E030E040E0383EE3E04E0760F435
:10186400003011F421E008C0EFEFEA930E94030670
:101874000E2F3F5F4F4FF0CF2030D1F1EFEFEA93BF
:101884000E940306EEEFEA930E94030630E040E074
:10189400E091960BF091970B3E174F0758F4A0E98F
:1018A400B9E0A30FB41FEC91EA930E9403063F5FD3
:1018B4004F4FEECFEFEFEA930E940306EFEFEA9368
:1018C4000E940306EFEFEA930E9403060E2FE02F17
:1018D400E06E1E2F153E61F4EFEFEA930E940306BB
:1018E400E030D1F3C49AE0E0E093D30BE1E00AC026
:1018F400C49A0E94D30AE03009F09ECFE3E0E0935B
:10190400D30BE0E00E942C1F29960895A881A032F1
:1019140018F4EFEFFFEF20C0A881A232C1F0AA3281
:10192400B1F0AB32A1F0AC3291F0AE3281F0AF3213
:1019340071F0AA3310F0A03450F0A881AB3510F048
:10194400AE3528F0A881AC3711F0A53E19F4EFEFBD
:10195400FFEF02C0E0E0F0E0219608956B970E944B
:10196400241FE0E0EC8B00E010E0E9A1FAA1ED8B8C
:10197400FE8BE0E0EF8FE8A3AF8DB8A11B9710F0CA
:101984000C942C0DAD89BE89EC91EA930E94880CCD
:101994003097A1F4EF8DF8A1DE011696EA0FFB1F34
:1019A400FF93EF93AD89BE89ED91AD8BBE8BEA9326
:1019B4000E94B71DAF91BF91EC9346C0AD89BE891B
:1019C400AC91AE32F9F4AF8DB8A1189768F4EF8DED
:1019D400F8A13196EF8FF8A33197DE011696AE0F7A
:1019E400BF1FE0E2EC93EFCFEF8DF8A13197EF8FBB
:1019F400F8A3ED89FE893196ED8BFE8BEC89E160CD
:101A0400EC8B22C0AD89BE89EC91E03091F4AF8DAE
:101A1400B8A11B9768F4EF8DF8A13196EF8FF8A366
:101A24003197DE011696AE0FBF1FE0E2EC93EFCFC5
:101A34000BC0ABA1BCA1E0E0F0E060E070E00E946C
:101A4400C21EEFEFFFEFB5C1EF8DF8A13196EF8F16
:101A5400F8A392CFE0E0E98BABA1BCA10E94BC1E2D
:101A6400A091B90BB091BA0B8091BB0B9091BC0BB8
:101A74000E941A1F29F420919C0B30919D0B26C0C3
:101A8400ABA1BCA10E94BC1E0E94CB1ED5D1ED8F80
:101A9400FE8F309719F0EC89E068EC8BE091960B9F
:101AA400F091970B66277727DF01CB01E091980B24
:101AB400FF27662777270E944D1EDF01CB01E0E256
:101AC400F0E060E070E00E948B1E9F01E0E0EF8F89
:101AD400E8A30217130710F00C94D10EABA1BCA11C
:101AE4000E94BC1E7F936F93FF93EF93EF8DF8A139
:101AF40066277727DF01CB01E091960BF091970BD6
:101B0400662777270E944D1EAF91BF918F919F91B9
:101B14000E94CA1D0E94CB1E0E94520BE03009F4A1
:101B24003EC140E050E04031E0E05E0710F00C942C
:101B3400A40EFA01EE0FFF1F0E94081EE057F64F95
:101B4400EF8BF88FFE013696ED8BFE8BAF89B88D47
:101B5400EC91E030B9F5EC89E07149F5ABA1BCA199
:101B64000E94BC1E7F936F93FF93EF93EF8DF8A1B8
:101B740066277727DF01CB01E091960BF091970B55
:101B8400662777270E944D1EAF91BF918F919F9139
:101B94000E94CF1DFA01EE0FFF1F0E94081E662748
:101BA40077270E94CA1DE98FFA8F6B8F7C8FE98D8E
:101BB400FA8D6B8D7C8DABA1BCA10E94C21EE0E0AE
:101BC400F0E0F7C0AF89B88DAC91A53E69F5ABA143
:101BD400BCA10E94BC1E7F936F93FF93EF93EF8D84
:101BE400F8A166277727DF01CB01E091960BF091EE
:101BF400970B662777270E944D1EAF91BF918F9157
:101C04009F910E94CF1DFA01EE0FFF1F0E94081E34
:101C1400662777270E94CA1DE98FFA8F6B8F7C8F06
:101C2400EC89E061EC8B89C0EC89E17011F40C94CF
:101C34005A0EED89FE89FA93EA93E98DFA8DFA93A7
:101C4400EA93EBE0EA930E94921DE03081F5ABA1A8
:101C5400BCA10E94BC1E7F936F93FF93EF93EF8D03
:101C6400F8A166277727DF01CB01E091960BF0916D
:101C7400970B662777270E944D1EAF91BF918F91D6
:101C84009F910E94CF1DFA01EE0FFF1F0E94081EB4
:101C9400662777270E94CA1DE98FFA8F6B8F7C8F86
:101CA400ABA1BCA10E94C21EEFEFFFEF82C045C0F2
:101CB400ED89FE89FA93EA93E98DFA8DFA93EA9312
:101CC400EBE0EA930E94921DE03031F4AF89B88DC5
:101CD4001B96EC91E07109F430C0ABA1BCA10E9449
:101CE400BC1E7F936F93FF93EF93EF8DF8A166274C
:101CF4007727DF01CB01E091960BF091970B6627D4
:101D040077270E944D1EAF91BF918F919F910E94A2
:101D1400CF1DFA01EE0FFF1F0E94081E66277727CA
:101D24000E94CA1DE98FFA8F6B8F7C8FABA1BCA177
:101D34000E94C21EEFEFFFEF3CC00F5F1F4F4F5FCB
:101D44005F4FF1CEEF8DF8A13196EF8FF8A32017F6
:101D5400310721F5EC89E07809F1ED8DFE8DFA93D8
:101D6400EA93E1E0EA93E5D0EF8FF8A3AF8DB8A151
:101D7400AF3FEFEFBE0791F0EF8DF8A1FA93EA932E
:101D84001CD0ABA1BCA10E94C21EEF8DF8A1ED8FA7
:101D9400FE8F00E010E0E0E0EF8FE8A39ACEABA165
:101DA400BCA1E0E0F0E060E070E00E94C21EEFEF52
:101DB400FFEF0E942B1FA59608952497AC81BD8147
:101DC4001297E091980BFF27662777278827992792
:101DD4000E944D1EDF01CB01E091CD0BF091CE0BA3
:101DE400662777270E94CA1DE093CF0BF093D00B90
:101DF4006093D10B7093D20BE091960BF091970BFB
:101E040066277727A091CF0BB091D00B8091D10B8F
:101E14009091D20B0E944D1EA091B50BB091B60BC0
:101E24008091B70B9091B80B0E94CA1DE883F98387
:101E34006A837B8326960895E091B50BF091B60BE7
:101E44006091B70B7091B80BA881B9818A819B818D
:101E54000E941A1F18F0E0E0F0E070C4A091B50BE6
:101E6400B091B60B8091B70B9091B80BE881F981D2
:101E74006A817B810E94D41DE883F9836A837B8312
:101E8400E091960BF091970BA881B9818A819B818F
:101E9400662777270E94651EE883F9836A837B831C
:101EA400E091CD0BF091CE0B66277727A881B981FD
:101EB4008A819B810E941A1F18F0E0E0F0E03EC482
:101EC400E091CD0BF091CE0BA881B9818A819B81E1
:101ED400662777270E94D91DA883B9838A839B83A9
:101EE400E091980BA881B9818A819B81FF2766279D
:101EF40077270E94651EE883F9836A837B83EE5FFC
:101F0400FF4F6F4F7F4FE883F9836A837B83A881F8
:101F1400B9818A819B81A030E0E0BE07E1E08E07B1
:101F2400E0E09E0718F0E0E0F0E008C4E881F98101
:101F340005C426970E94241FAD85BE85129718F408
:101F4400EFEFFFEFC7C0A091A00BA63311F00C94E4
:101F54006710E091960BF091970BF695E795AD8598
:101F6400BE850E94521EA091990BB0919A0BEA0F64
:101F7400FB1F8F01E091960BF091970BF695E79577
:101F8400AD85BE850E94901EEE0FFF1F9F01F801D4
:101F9400EE0FFF1FFE2FE0E0A091B50BB091B60B42
:101FA4008091B70B9091B80B662777270E94CA1DC2
:101FB400EE83FF8368877987AC85A13051F40E9452
:101FC400CB1E0E94520BE03019F4EFEFFFEF82C0FA
:101FD4006AC0AC85A03019F0A23009F064C0E09169
:101FE400D40BF091D50B6091D60B7091D70BAE81C9
:101FF400BF81888599850E941A1F11F40C9455108D
:102004000E940C1F11F40C944810E091C50BF09140
:10201400C60B6091C70B7091C80BA091D40BB09103
:10202400D50B8091D60B9091D70B0E941F1FE8F41B
:10203400A091C10BB091C20B8091C30B9091C40BC2
:102044000E94D41DA091D40BB091D50B8091D60BD6
:102054009091D70B0E94CA1D0E94CB1E0E94F90BBF
:10206400E03019F4EFEFFFEF35C0E091D40BF091BD
:10207400D50B6091D60B7091D70B0E94CB1E0E949A
:10208400F90BE03019F4EFEFFFEF24C0EE81FF818C
:10209400688579850E94CB1E0E94520BE03019F4AA
:1020A400EFEFFFEF17C0F901EF56F64FF081E0E0D4
:1020B4000F01A0E9B9E0A20FB31FEC91D001F0E049
:1020C400EA2BFB2BEA87FB8703C0EFEFFFEF02C08D
:1020D400EA85FB850E942B1F2F9608951A930A9375
:1020E40010E000E00E3010F00C94CF10E02FAA8125
:1020F400BB81F0E0AE0FBF1FEC91EA930E94880C05
:102104003097A9F4E12F1F5FF0E0EF5AF34FFF93EC
:10211400EF93E02FAA81BB81F0E0AE0FBF1FEC91DB
:10212400EA930E94B71DAF91BF91EC9332C0E02FA8
:10213400AA81BB81F0E0AE0FBF1FAC91AE3261F457
:10214400183048F4E12F1F5FF0E0EF5AF34FDF013E
:10215400E0E2EC93F5CF1DC0E02FAA81BB81F0E053
:10216400AE0FBF1FEC91E03061F41B3048F4E12F57
:102174001F5FF0E0EF5AF34FDF01E0E2EC93F5CF9D
:102184000CC0E5E0E093D30BE0E0F0E019810881B6
:10219400D5C21B3010F40F5FA5CFA12FB0E0AF5A0A
:1021A400B34FE0E0EC93E1E5FCE019810881C6C29D
:1021B40029970E94241FAA89BB89129710F4E0E092
:1021C400F1C0A091A00BA63311F00C94D111E091B1
:1021D400960BF091970BF695E795AA89BB890E9417
:1021E400521EA091990BB0919A0BEA0FFB1F8F011D
:1021F400E091960BF091970BF695E795AA89BB8928
:102204000E94901EEE0FFF1F9F01F801662777279B
:10221400A0E0B2E080E090E00E944D1EA091B50BDA
:10222400B091B60B8091B70B9091B80B0E94CA1D68
:10223400EB87FC876D877E87AF85A13049F40E94C8
:10224400CB1E0E94520BE03011F4E0E0ABC067C03B
:10225400AF85A03019F0A23009F061C0E091D40B31
:10226400F091D50B6091D60B7091D70BAB85BC85E3
:102274008D859E850E941A1F11F40C9491110E9461
:102284000C1F11F40C948511E091C50BF091C60B51
:102294006091C70B7091C80BA091D40BB091D50B72
:1022A4008091D60B9091D70B0E941F1FE0F4A09150
:1022B400C10BB091C20B8091C30B9091C40B0E94CF
:1022C400D41DA091D40BB091D50B8091D60B9091D5
:1022D400D70B0E94CA1D0E94CB1E0E94F90BE0304E
:1022E40011F4E0E05FC0E091D40BF091D50B609164
:1022F400D60B7091D70B0E94CB1E0E94F90BE030D5
:1023040011F4E0E04FC0EB85FC856D857E850E946D
:10231400CB1E0E94520BE03011F4E0E043C0F901FF
:10232400EF56F64FDF01E989F070EC93D901A0571D
:10233400B64FE889F989F070EC93AF85A13011F0BC
:10234400A23061F5A091C10BB091C20B8091C30B77
:102354009091C40BE091C50BF091C60B6091C70B33
:102364007091C80B0E94D41DAB85BC858D859E855C
:102374000E94CA1D0E94CB1E0E94F90BE03011F48A
:10238400E0E010C0EB85FC856D857E850E94CB1E48
:102394000E94F90BE03011F4E0E004C002C0E0E078
:1023A40001C0E1E00E942B1F6496089526970E94C5
:1023B400251FEB85FC85309711F4E0E0C1C0AB85A7
:1023C400BC85A45EBD4F0E94BC1EEF83F88769875D
:1023D4007A87EB85FC85A689B789808D918D0E94CB
:1023E400D01E0E94520BE03011F4E0E0A9C0AB858E
:1023F400BC855A960E94B81EE655F64F1E2F2F2F05
:102404002F931F931F5F2F4FAB85BC851C960E9493
:10241400B81EF070AF91BF91EC932F931F931F5F81
:102424002F4FAB85BC851C960E94B81EEF2FF0E0A1
:10243400AF91BF91EC9300E00430D0F4EF81F885C4
:1024440069857A85EF7FF07060707070A12FB22F6C
:10245400EC93AF81B88589859A85E8E00E94FC1DDC
:10246400EF83F88769877A871F5F2F4F0F5FE4CF69
:10247400AB85BC855A960E94B81EEA55F64F1E2FAE
:102484002F2FE0E0EF83E887E987EA8700E0043054
:10249400F8F4AF81B88589859A85E8E00E94F01D3B
:1024A400EF83F88769877A87A12FB22FEC91AF81E8
:1024B400B88589859A85FF27662777270E94DE1DC0
:1024C400EF83F88769877A87115020400F5FDFCF49
:1024D400EF81F88569857A85EF5FFF4F6F4F7F4FF6
:1024E400EF83F88769877A8700E00430D0F41F5FB0
:1024F4002F4FEF81F88569857A85EF7FF0706070E2
:102504007070A12FB22FEC93AF81B88589859A851D
:10251400E8E00E94FC1DEF83F88769877A870F5FE4
:10252400E4CFEB85FC85A689B789808D918D0E94C7
:10253400D01E0E94F90BE03011F4E0E001C0E1E0AC
:102544000E942C1F2D9608950E94261FEC81FD8168
:10255400309711F4E0E04CC02C813D81E0E0E09341
:10256400D40BE093D50BE093D60BE093D70B293F24
:10257400EFEF3E0700F53A932A93E0E0EA930E94D6
:102584009B0F8F01083FEFEF1E0720F40024001675
:10259400010609F410C03A932A93E0E0F0E0FA93BC
:1025A400EA93EA930E94DA10E03011F4E0E020C0EC
:1025B400202F312FDCCF3A932A93E0E0F0E0FA9316
:1025C400EA93E2E0EA930E94DA10E03011F4E0E0EA
:1025D4000FC0E0E0E093E30BE093E40BE093E50B42
:1025E400E093E60BE0E0E093EB0BE093EC0BE1E02F
:1025F4000E942D1F269608952497E0E0E883E9833E
:10260400EA83EB83E091960BF091970BA881B98153
:102614008A819B81662777270E941F1FB4F4E88173
:10262400F9816A817B81E057F64FDF01E0E0EC93AA
:10263400E881F9816A817B81EF5FFF4F6F4F7F4FA4
:10264400E883F9836A837B83DDCFE091C10BF0914A
:10265400C20B6091C30B7091C40BE050FE4F6F4FDF
:102664007F4FE883F9836A837B83E091980BA0E032
:10267400B4E0F0E00E94481EA091B90BB091BA0BEF
:102684008091BB0B9091BC0B0E941B1E0E94CA1D23
:10269400A881B9818A819B810E941F1FE8F4E88187
:1026A400F9816A817B810E94CB1E0E94F90BE03084
:1026B40031F4E3E0E093D30BEFEFFFEF3FC0E881A9
:1026C400F9816A817B81E050FE4F6F4F7F4FE88331
:1026D400F9836A837B83C9CFE8EFE0939009EFEF36
:1026E400E0939109E0939209A091A00BA63311F411
:1026F400E0939309E091C10BF091C20B6091C30B7D
:102704007091C40B0E94CB1E0E94F90BE03071F053
:10271400E091C50BF091C60B6091C70B7091C80B8B
:102724000E94CB1E0E94F90BE03031F4E3E0E09309
:10273400D30BEFEFFFEF02C0E0E0F0E02496089542
:102744000E94261FE091BD0BF091BE0B6091BF0B60
:102754007091C00BAE81BF810E94C21E288539854D
:10276400D901AC91AC3591F4E091B90BF091BA0B6D
:102774006091BB0B7091BC0BE093BD0BF093BE0B4F
:102784006093BF0B7093C00B2F5F3F4F0C811D8173
:10279400D901EC91E03091F1EA930E94880C3097D2
:1027A40021F0D901AC91AE3279F41F930F930F5FEE
:1027B4001F4FD9012F5F3F4FEC91EA930E94B71D41
:1027C400AF91BF91EC9319C0D901AC91AC3591F4A0
:1027D400D801E0E0EC93EC81FD81FA93EA9317D001
:1027E400309719F0EFEFFFEF0EC00C811D812F5FC2
:1027F4003F4F03C0EFEFFFEF06C0CACFD801E0E0C0
:10280400EC93E0E0F0E00E942D1F2A96089568976B
:102814000E94251FAD8DBE8DAC91AE3261F4AD8D9D
:10282400BE8D1196AC91AE3231F4AD8DBE8D129643
:10283400AC91A03009F04BC0E091B90BF091BA0B08
:102844006091BB0B7091BC0BA091BD0BB091BE0B02
:102854008091BF0B9091C00B0E941A1F19F4EFEFE7
:10286400FFEF09C1E091BD0BF091BE0B6091BF0B6E
:102874007091C00B0E94CB1E0E94520BE03019F4E1
:10288400EFEFFFEFF8C0B091CB09A0E0E091CA09E7
:10289400F0E0EA2BFB2BED87FE87309729F0FA93C3
:1028A400EA930E94DF0E08C0E091B90BF091BA0BD5
:1028B4006091BB0B7091BC0BE093BD0BF093BE0B0E
:1028C4006093BF0B7093C00BE0E0F0E0D4C00D8DBB
:1028D4001E8DFE013F969F01FE017A962E173F073B
:1028E40020F5D801EC91EA930E94880C309779F492
:1028F4003F932F932F5F3F4FD8010F5F1F4FEC91F2
:10290400EA930E94B71DAF91BF91EC930DC0D8011B
:10291400EC91E03031F4D9012F5F3F4FE0E2EC93CA
:1029240003C0EFEFFFEFA7C0D7CFD901E0E0EC93EE
:10293400E0E0ED87EE87E0E0EF83E88740E0E091B8
:102944009C0BF0919D0BAF81B885AE17BF0710F0BB
:102954000C943B15ED85FE85EE0FFF1FFE2FE0E086
:10296400A091BD0BB091BE0B8091BF0B9091C00B99
:10297400662777270E94CA1D0E94CB1E0E94520B15
:10298400E0E0EB87EC87AB85BC85509710F00C94A6
:102994003515EB85FC85EE0FFF1F0E94081EED83A5
:1029A400FE83E057F64FE081E03019F4EFEFFFEFDC
:1029B40062C0E0E0E987EA87A985BA851B97E8F455
:1029C400E985FA85DE011F96AE0FBF1F0C90AD811D
:1029D400BE81EA0FFB1FE057F64FE081E01511F4CA
:1029E40041E005C040E0EBE0F0E0E987FA87E985E3
:1029F400FA853196E987FA87DFCF403049F1ED81D6
:102A0400FE81E556F64FE081E03111F040E020C050
:102A1400ED81FE81E555F64FF081E0E0DF01ED81C7
:102A2400FE81E655F64FE081F0E0EA2BFB2BE987C7
:102A3400FA87FA93EA930E94DF0EE093BD0BF093BA
:102A4400BE0B6093BF0B7093C00BE0E0F0E013C0CB
:102A5400EF81F8853196EF83F887EB85FC85319615
:102A6400EB87FC8790CFED85FE853196ED87FE8759
:102A740066CFEFEFFFEF0E942C1F6F9608956C97BF
:102A84000E94241FE0E0EC87ED87EE87EF87EBA13F
:102A9400FCA1FA93EA93FE013E96FA93EA93FE01AF
:102AA4007896FA93EA930E94A213309779F0EC8512
:102AB400FD856E857F85E093BD0BF093BE0B60931F
:102AC400BF0B7093C00BE0E0F0E0AAC4EC89E030E7
:102AD40079F4EC85FD856E857F85E093BD0BF093DD
:102AE400BE0B6093BF0B7093C00BE0E0F0E098C4A2
:102AF400E091BD0BF091BE0B6091BF0B7091C00BC8
:102B0400E887F9876A877B87FE013896FA93EA9308
:102B1400FE017696FA93EA930E94B00C9F01A88571
:102B2400B9858A859B850E94141F21F00024021612
:102B3400030679F4EC85FD856E857F85E093BD0BF6
:102B4400F093BE0B6093BF0B7093C00BE0E0F0E01A
:102B540067C4E0E0EE83EF83E9E2F2E0FA93EA93FC
:102B64000E942A1DEE83FF83309791F4E9E0E093FD
:102B7400D30BEC85FD856E857F85E093BD0BF093CB
:102B8400BE0B6093BF0B7093C00BE0E0F0E048C451
:102B9400AE81BF81A45EBD4FE6E5F4E464E376E470
:102BA4000E94C21EAE81BF811C96E4EEF0E0ED935C
:102BB400FC93AE81BF81A05EBD4FE6E4F4E466E61B
:102BC40075E40E94C21EE091960BF091970BA885C4
:102BD400B9858A859B85662777270E94931EAF0156
:102BE400FA01A885B9858A859B85662777270E947F
:102BF400D91DA887B9878A879B87E885F9856A855F
:102C04007B850E94CB1E0E94520BE03079F4EC8548
:102C1400FD856E857F85E093BD0BF093BE0B6093BD
:102C2400BF0B7093C00BE0E0F0E0FAC3FE017496B2
:102C3400FA93EA930E947010E88BF98B3097A9F409
:102C4400EE81FF81FA93EA930E94471DEC85FD858E
:102C54006E857F85E093BD0BF093BE0B6093BF0B35
:102C64007093C00BE0E0F0E0DBC3FA01E057F64FED
:102C7400EA8BFB8B022E032A11F40C942118AAA1CF
:102C8400A23011F0A33031F4FA01E556F64FE08199
:102C9400E17009F418C0EBE0E093D30BEE81FF81FF
:102CA400FA93EA930E94471DEC85FD856E857F8526
:102CB400E093BD0BF093BE0B6093BF0B7093C00BFE
:102CC400E0E0F0E0ADC300E010E00C30E0E01E070F
:102CD40080F4F801AE81BF81EA0FFB1F0F01A1E56B
:102CE400BCE0A00FB11FEC91D001EC930F5F1F4F1C
:102CF400ECCFFA01E555F64FF081E0E0DF01FA018F
:102D0400E655F64FE081F0E0EA2BFB2BAE81BF8164
:102D14001C96ED93FC93AE81BF811C960E94B81E55
:102D2400AE81BF811E96ED93FC93AE81BF81529616
:102D3400E0E0F0E0ED93FC93AE81BF81A45EBD4F73
:102D4400E0E0F0E060E070E00E94C21EFA01E057AB
:102D5400F64F7F96EA8BFB8B00E010E00430E0E056
:102D64001E07A0F5EE81FF81E45EFD4FFF93EF9314
:102D7400DF010E94BC1EDF01CB01E8E00E94F01DD0
:102D8400AF91BF910E94C21EEE81FF81E45EFD4FB0
:102D94000F01DF010E94BC1E7F936F93FF93EF939B
:102DA400AA89BB891197AA8BBB8B1196EC91AF9121
:102DB400BF918F919F91FF27662777270E94DE1D81
:102DC400D0010E94C21E0F5F1F4FC8CFAE81BF81CA
:102DD400A05EBD4FE0E0F0E060E070E00E94C21E43
:102DE400AAA1A23011F00C945E17FA01E057F64F35
:102DF4007F96EA8BFB8B00E010E00630E0E01E07D4
:102E040058F4AA89BB891197AA8BBB8B1196E0E071
:102E1400EC930F5F1F4FF1CFAE81BF81A45EBD4F16
:102E24000E94BC1E0E940C1F11F40C945E17F90141
:102E3400EE0FFF1FFE2FE0E0A091BD0BB091BE0B83
:102E44008091BF0B9091C00B662777270E94CA1D03
:102E54000E94CB1E0E94F90BE030A9F4EE81FF81A1
:102E6400FA93EA930E94471DEC85FD856E857F8564
:102E7400E093BD0BF093BE0B6093BF0B7093C00B3C
:102E8400E0E0F0E0CDC2AE81BF81A45EBD4FE0E0E2
:102E9400F0E060E070E00E94C21EEE81FF81A48534
:102EA400B585BA93AA930E94A612AE81BF811C96DF
:102EB400E0E0F0E0ED93FC93EE81FF81A685B78519
:102EC400BA93AA93E1E0EA930E949B0FAE81BF817B
:102ED4005096ED93FC93AE81BF81A45EBD4F0E94DA
:102EE400BC1E0E940C1F39F4AE81BF811C960E9447
:102EF400B81E309709F01DC0AAA1A130C1F4EBE0BF
:102F0400E093D30BEE81FF81FA93EA930E94471D6D
:102F1400EC85FD856E857F85E093BD0BF093BE0B3C
:102F24006093BF0B7093C00BE0E0F0E079C2E2E085
:102F3400EAA3E885F9856A857B85AE81BF815696CB
:102F44000E94C21EFA01AE81BF815A96ED93FC9392
:102F5400AE81BF815496E1E0F0E0ED93FC93AAA129
:102F6400A33039F5EE81FF81FA93EA93E0E0F0E0D3
:102F740060E070E00E94CB1EE1E0EA93EDD2EF3F07
:102F8400AFEFFA07A9F4EE81FF81FA93EA930E9466
:102F9400471DEC85FD856E857F85E093BD0BF09321
:102FA400BE0B6093BF0B7093C00BE0E0F0E038C23F
:102FB4002EC0EE81FF81A685B785BA93AA930E949D
:102FC400DF0E0E94CB1E0E94520B00E010E0E09145
:102FD400960BF091970B0E171F0780F4EE81FF817B
:102FE4007C96E00FF11F0F01A0E9B9E0A00FB11F1B
:102FF400EC91D001EC930F5F1F4FE9CFEE81FF817D
:103004007C96AE81BF81A95DBD4FED93FC93EAA18F
:10301400AE81BF81AC5DBD4FEC93E0E0E093D30B98
:10302400EC85FD856E857F85E093BD0BF093BE0B2B
:103034006093BF0B7093C00BEE81FF81F1C1E2E09E
:10304400E093D30BEE81FF81FA93EA930E94471D2C
:10305400EC85FD856E857F85E093BD0BF093BE0BFB
:103064006093BF0B7093C00BE0E0F0E0D9C16C97A4
:103074000E94241FE0E0EC87ED87EE87EF87EBA149
:10308400FCA1FA93EA93FE013E96FA93EA93FE01B9
:103094007896FA93EA930E94A213309791F0EEE0A7
:1030A400E093D30BEC85FD856E857F85E093BD0BA6
:1030B400F093BE0B6093BF0B7093C00BE0E0F0E0A5
:1030C400AFC1EC89E03091F4E5E0E093D30BEC85FB
:1030D400FD856E857F85E093BD0BF093BE0B6093F9
:1030E400BF0B7093C00BE0E0F0E09AC1E091BD0B20
:1030F400F091BE0B6091BF0B7091C00BE887F9870C
:103104006A877B87FE013896FA93EA93FE017696E6
:10311400FA93EA930E94B00C9F01E885F9856A85C9
:103124007B850E940C1F91F4EFE0E093D30BEC85B8
:10313400FD856E857F85E093BD0BF093BE0B609398
:10314400BF0B7093C00BE0E0F0E06AC1E091960B16
:10315400F091970BA885B9858A859B856627772783
:103164000E94931EAF01FA01A885B9858A859B85C3
:10317400662777270E94D91DA887B9878A879B87E6
:10318400E885F9856A857B850E94CB1E0E94520BD7
:10319400E03091F4E4E0E093D30BEC85FD856E859B
:1031A4007F85E093BD0BF093BE0B6093BF0B7093D0
:1031B400C00BE0E0F0E034C1FE017496FA93EA93A8
:1031C4000E947010E88BF98B309791F4E5E0E0935E
:1031D400D30BEC85FD856E857F85E093BD0BF09365
:1031E400BE0B6093BF0B7093C00BE0E0F0E018C11E
:1031F400FA01E057F64FEA8BFB8B022E032AD1F03B
:10320400FA01E556F64FE081E170E13091F4E6E031
:10321400E093D30BEC85FD856E857F85E093BD0B34
:10322400F093BE0B6093BF0B7093C00BE0E0F0E033
:10323400F7C0AAC000E010E00B30E0E01E0788F4FD
:10324400EA89FB893196EA8BFB8B31970F01A889B8
:10325400B989ED91A88BB98BD001EC930F5F1F4F07
:10326400EBCFAA89BB89E0E2EC93EA89FB8931962A
:10327400EA8BFB8BAA89BB891196AA8BBB8B11970E
:10328400E0E0EC93AA89BB891196AA8BBB8B1197BA
:10329400EC9300E010E00430E0E01E0758F4AA8943
:1032A400BB891196AA8BBB8B1197E0E0EC930F5F5F
:1032B4001F4FF1CFAA89BB891196AA8BBB8B11979B
:1032C400E0E0EC93AA89BB891196AA8BBB8B11977A
:1032D400EC93AA89BB891196AA8BBB8B1197EC93AB
:1032E400AA89BB891196AA8BBB8B1197EC9300E03A
:1032F40010E00430E0E01E0758F4AA89BB89119657
:10330400AA8BBB8B1197E0E0EC930F5F1F4FF1CFBB
:10331400AA89BB891196AA8BBB8B1197E0E0EC9329
:10332400AA89BB891196AA8BBB8B1197EC9300E0F9
:1033340010E00430E0E01E0758F4AA89BB89119616
:10334400AA8BBB8B1197E0E0EC930F5F1F4FF1CF7B
:10335400E885F9856A857B850E94CB1E0E94F90B5E
:10336400E03091F4E3E0E093D30BEC85FD856E85CA
:103374007F85E093BD0BF093BE0B6093BF0B7093FE
:10338400C00BE0E0F0E04CC0EC85FD856E857F85E8
:10339400E093BD0BF093BE0B6093BF0B7093C00B17
:1033A400EBA1FCA1FA93EA93E2E0EA930E944115AF
:1033B400EE83FF83309719F4E0E0F0E031C0EAA136
:1033C400E03049F1EC85FD856E857F850E94CB1E3A
:1033D4000E94520BE03031F4E4E0E093D30BE0E0E0
:1033E400F0E01EC0FA01E456F64F0F01E081AAA1F5
:1033F400EA2BD001EC93EC85FD856E857F850E94D8
:10340400CB1E0E94F90BE03031F4E3E0E093D30BE0
:10341400E0E0F0E005C0E0E0E093D30BEE81FF8153
:103424000E942B1FA596089524971A930A93AE81A0
:10343400BF810E94101F29F0AC5DBD4FAC91A1303B
:1034440019F4EFEFFFEF63C0AE81BF81AC5DBD4FF8
:10345400AC91A23041F0AE81BF81AC5DBD4FAC9167
:10346400A33009F052C0EE81FF81A685B785BA93D7
:10347400AA930E94DF0E7F936F93FF93EF93AE8125
:10348400BF8154960E94B81E3197A091960BB091BB
:10349400970B0E94201EAF91BF918F919F91662739
:1034A40077270E94CA1DEA83FB836C837D8300E037
:1034B40010E0E091960BF091970B0E171F0768F43C
:1034C400D801A057B64FEE81FF817C96E00FF11F23
:1034D400E081EC930F5F1F4FECCFEA81FB816C819D
:1034E4007D810E94CB1E0E94F90BE03019F4EFEFAE
:1034F400FFEF0DC0EE81FF81FA93EA930E94D81189
:10350400E03019F4EFEFFFEF02C0E0E0F0E01981E2
:10351400088128960895A881B981AC5DBD4FAC910E
:10352400A13069F0E881F981FA93EA930E94161AAE
:10353400EF3FAFEFFA0719F4EFEFFFEF0BC0E881AD
:10354400F981FA93EA930E94471DE0E0E883E98356
:10355400E0E0F0E02296089528970E94261FE9896A
:10356400FA89309731F4E2E0E093D30BEFEFFFEF09
:10357400B1C1EC85E03081F4A989BA89A05EBD4F60
:103584000E94BC1EAD85BE858F8598890E94CA1D88
:10359400ED87FE876F87788BA989BA89A45EBD4FB2
:1035A4000E94BC1EAD85BE858F8598890E941A1F16
:1035B40058F4A989BA89AB5DBD4FEAE0EC93E09376
:1035C400D30BEFEFFFEF86C1AC85A13081F4A9895D
:1035D400BA89A45EBD4F0E94BC1EAD85BE858F8591
:1035E40098890E94D41DED87FE876F87788BA989FF
:1035F400BA89AC5DBD4FAC91A13059F0E989FA8923
:10360400FA93EA930E94161A309719F0EFEFFFEF3E
:1036140061C1A989BA891C962D913C91F901A989A6
:10362400BA891E96ED93FC933A932A93E1E0EA93C8
:103634000E949B0FA989BA895096ED93FC93A9899E
:10364400BA895296E0E0F0E0ED93FC93E091960B9A
:10365400F091970B66277727DF01CB01E091980B58
:10366400FF27662777270E944D1EAD85BE858F856F
:1036740098890E94651EEC83FD836E837F83E091AD
:10368400960BF091970B66277727DF01CB01E0912A
:10369400980BFF27662777270E944D1EAD85BE85B0
:1036A4008F8598890E94931EE887F9876A877B87AC
:1036B400A989BA89AA5DBD4FE0E0EC93EC81FD8154
:1036C4006E817F810E940C1F11F40C94C31BE98945
:1036D400FA89A089B189A83FEFEFBE0730F1AC8128
:1036E400BD818E819F81A130E0E0BE07E0E08E07BE
:1036F400E0E09E0739F4A885B9858A859B850E94F8
:10370400141F09F007C0A989BA89AA5DBD4FE1E079
:10371400EC9337C0A989BA89AB5DBD4FEAE0EC935D
:10372400E093D30BEFEFFFEFD5C0A989BA89509688
:103734002D913C91A989BA891E960E94B81EA98927
:10374400BA895296ED93FC93F901A989BA891E9618
:10375400ED93FC933A932A93E0E0EA930E949B0F43
:10376400A989BA895096ED93FC93EC81FD816E8111
:103774007F81319760407040EC83FD836E837F834B
:103784009DCFE989FA89A685B785BA93AA930E9441
:10379400DF0EEC83FD836E837F83A989BA895496F7
:1037A400E1E0F0E0ED93FC93E091960BF091970B40
:1037B400A885B9858A859B85662777270E941F1F60
:1037C40048F1E091960BF091970BAC81BD818E810D
:1037D4009F81662777270E94CA1DEC83FD836E8331
:1037E4007F83E091960BF091970BA885B9858A8524
:1037F4009B85662777270E94D91DA887B9878A8762
:103804009B87A989BA8954960E94B81E3196ED9374
:10381400FC93CACFEC81FD816E817F810E94CB1E17
:103824000E94520BE03019F4EFEFFFEF53C000E0B9
:1038340010E0E091960BF091970B0E171F0780F4A0
:10384400E989FA897C96E00FF11F0F01A0E9B9E03C
:10385400A00FB11FEC91D001EC930F5F1F4FE9CF84
:10386400A989BA89AA5DBD4FAC91A13039F4A88564
:10387400B9858A859B850E94141F09F010C0A98907
:10388400BA895C96E091960BF091970B3197EA0F09
:10389400FB1FA989BA89A95DBD4FED93FC93A98942
:1038A400BA895C96E885F9856A857B85EA0FFB1FF2
:1038B400A989BA89A95DBD4FED93FC93ED85FE8579
:1038C4006F857889A989BA89A05EBD4F0E94C21EFE
:1038D400E0E0F0E00E942D1F639608955F9BFECF09
:1038E400ECB108955D9BFECFE881ECB92196089573
:1038F40022970E94241F08EA1CE0D801E0E0F0E0CF
:10390400ED93FC93002E012AA9F1D8010E94B81E60
:10391400E00FF11F3496AF0112960E94B81E9F016A
:10392400309719F02E833F8304C0E0E0F1E1EE8389
:10393400FF83EE81FF81E41BF50BDF01E885F98548
:103944003496AE17BF0798F0FA01D8011296ED939A
:10395400FC93F901DA011296ED93FC93E885F9855D
:10396400DA01ED93FC934C5F5F4FFA0105C0022F1F
:10397400132FC8CFE0E0F0E00E942B1F2A96089591
:103984000E94261F08EA1CE0002E012A81F0D801BB
:1039940012960E94B81E9F01DF01EC81FD81EA1797
:1039A400FB0711F4F80105C0022F132FEDCFE0E05F
:1039B400F0E00E942D1F2696089522970E94241F4E
:1039C400EA85FB85309711F40C94241D34978F01FC
:1039D4001A930A93D5DF9F013097A1F1D80112966B
:1039E4000E94B81ED9011296ED93FC93E885F985DF
:1039F400309741F1FA93EA937BDFAF013097E9F016
:103A0400D8010E94B81EEE83FF83DF01E885F985A3
:103A1400AE17BF0720F4EE81FF81E887F9875A9338
:103A24004A93EC85FD85FA93EA93EC85FD85FA9338
:103A3400EA930E94521DFA0107C0F801D9011296B7
:103A4400ED93FC93E0E0F0E00E942B1F2C96089588
:103A54001A930A9300E010E0EA81FB81309781F029
:103A6400FA93EA9345DF8F01309751F01A930A9342
:103A7400E0E0EA93ED81FE81FA93EA930E946F1DE0
:103A8400F8011981088124960895E881F981FA934F
:103A9400EA93E0E0F0E0FA93EA938FDF2296089548
:103AA400998188810096A9F0BD81AC81FB81EA816E
:103AB400EA17FB0771F02CF061916D930197E1F720
:103AC40008C0A80FB91FE80FF91F62916E93019700
:103AD400E1F7FD81EC8126960895B981A8811096BD
:103AE40031F0FC81EB816A8161931197E9F7EB81F5
:103AF400FC8125960895A991B991EE27FF276D9130
:103B0400662311F03196FBCF0895AA27BB27E991CC
:103B1400F9910590002011F01196FBCFFD01089555
:103B2400662777278991E991F991A991B991882319
:103B340049F08A956D917191671721F46623B9F75D
:103B4400EE270895671BE1F3E1E008F4E2500895DD
:103B54006991A991B991EFEFFF277D91671709F456
:103B6400EF2FF3957723C9F70895E991E13618F01B
:103B7400EB3708F4E0520895E991F991309639F061
:103B840080ED97E00197F1F7A8953197C9F708956B
:103B9400EA0FFB1F681F791F0895AE0FBF1F861F12
:103BA400971F0895EA1BFB0B680B790B0895AE1B56
:103BB400BF0B860B970B0895EA2BFB2B682B792BF5
:103BC4000895E095F09531960895E095F095609507
:103BD4007095EF5FFF4F6F4F7F4F0895EE230E2ECA
:103BE400FD01BC0131F0EE0FFF1F661F771F0A9421
:103BF400D1F70895EE230E2EFD01BC0131F0769528
:103C04006795F795E7950A94D1F70895EE0FFF1F8E
:103C1400EE0FFF1FEE0FFF1FEE0FFF1F0895E62F9D
:103C2400F72F60E070E008956E2F7F2FE0E0F0E062
:103C340008956F2F660F660B762F0895FA9FF02D67
:103C4400EB9FF00DEA9FE02DF10D08957A9F702D02
:103C54006B9F700DF89F700DE99F700D6A9F602D2A
:103C6400710DFB9F600D711DE89F600D711D88270C
:103C7400FA9FF02D610D781FEB9FF00D611D781FE9
:103C8400EA9FE02DF10D681F781F08954ED0D6DF0E
:103C94000EF497DF089557D0D9DF0EF496DF089518
:103CA4000024112490E1AA0FBB1F001C111C0E1A42
:103CB4001F0A18F40E0E1F1E01C0A1609A9599F7F1
:103CC400FD01D00108953F934F935F930024112485
:103CD4003327442750E2AA0FBB1F881F991F001CDB
:103CE400111C331F441F0E1A1F0A360B470B28F4EE
:103CF4000E0E1F1E361F471F01C0A1605A9559F7AB
:103D0400FD01BC01D001832F942F5F914F913F910E
:103D1400089519D0D8DF0EF458DF0895C1DFFD01EE
:103D24000895D1DFFD01BC010895E894F7FF02C0B6
:103D340048DF6894B7FF06C0A095B095119600F8C7
:103D4400039400FA0895E89477FF02C03EDF689474
:103D540097FF0BC00024A095B0958095909511967F
:103D6400801D901D00F8039400FA0895ED91FC91D4
:103D740011970895ED91FD916D917C91139708959C
:103D8400ED93FD936D937C9308950590F491E02D4C
:103D940008957A936A93FA93EA9308959A938A9387
:103DA400BA93AA930895129603D07F2F6E2F129779
:103DB400119602D0FE2F1197E199FECFFF93FFB722
:103DC400F894AEBBBFBBE09AEDB3FFBFFF9108957B
:103DD4000AD012960E2E1F2EE62FF72F04D0E02DB8
:103DE400F12D1297089507D01196EF93EF2F03D07A
:103DF400EF9111970895E199FECF9FB7F894AEBB68
:103E0400BFBBE09A8DB3E81719F0EDBBE29AE19AD3
:103E14009FBF0895309760407040089500240A16AB
:103E24000B06089500240A160B06080609060895D1
:103E3400EA17FB07680779070895AE17BF078607D7
:103E4400970708955A934A933A932A931A930A9395
:103E540008955D814C813B812A81198108810895EF
:00000001FF
