:0A18000038C0FECFFDCFFCCFFBCFB8
:10180A00FACFF9CFF8CFF7CFF6CFF5CFF4CFF3CFA2
:10181A00F2CFF1CFF0CFEFCFEECFEDCF426F6F74B3
:10182A002050726F6772616D2E20506F72740000C3
:10183A00000000000000000000000000010013008A
:10184A000061616161616161616161616161612020
:10185A0064FF4D01010000001F00040064025E18CD
:10186A000100060062180000F894EE27ECBBF1E0D4
:10187A00FBBFF2E0FBBFE5BFF8E1F1BDE1BD8DE0E2
:10188A00A2E0BB27ED938A95E9F780E094E0A0E611
:10189A00ED930197E9F7E4E6F8E1859195910097D0
:1018AA0061F0A591B59105901590BF01F0010590E1
:1018BA000D920197E1F7FB01F0CFEFE5EDBFE4E010
:1018CA00EEBFC0E6D1E0E4C0A895E8E0E09361018C
:1018DA00A895E0E4E0936201E0E0E0936301A89553
:1018EA00E0E6E0936401E0E0E0936501A895E0E0BA
:1018FA00E0936601E2E0E0936701A895E0E0E093F7
:10190A006801E1E0E0936901A895689422F820F85B
:10191A000CD208953FD3A89581D28CD18F01003083
:10192A00E2E01E0730F07DD2E0936201689422F86B
:10193A000CC0E22FD8011CD3D8010ED32E1741F0C8
:10194A0070D2E0936201689422F82BD3239608950B
:10195A00A8956CD2E0936201689422F86BD208953C
:10196A00229715D3A895ECEFF7E167D2EDEFF7E1EF
:10197A0068D2C0D2BBD29F01D90188279927A03C3F
:10198A00EFEFBE07EFE38E07E0E09E0721F4E0E009
:10199A0005D32896089500E010E040E050E02017B3
:1019AA00310751F0F801E491DA01F0E0EA0FFB1F88
:1019BA00AF010F5F1F4FF3CFA895EEEFF7E13DD2CE
:1019CA00EFEFF7E13ED2EE83FF83E417F50711F05C
:1019DA00E0E001C0E1E0E2D228960895C1DFE030FC
:1019EA0009F40895F894E1E0EBBFE0E0EBBF03C32C
:1019FA0008952DD2E89420F8689423F808950A935C
:101A0A00E8E2E093610100E0003258F424D2EE5992
:101A1A00FE4FDF0120D2EA5DF74EE491EC930F5FAF
:101A2A00F3CFA0E0B0E08FD2E0938201A0E0B0E073
:101A3A008AD2DF01CB0112D2E0938301E0E0E09386
:101A4A008401E0938501A6E8B1E0E0916001EC939E
:101A5A00E0E0E0938701A8E8B1E0E6E4F8E16FD2BC
:101A6A00EC93E6E4F8E16BD2EF2FF0E0E093890122
:101A7A00689422F897C0E1E6F1E0F3D1F2D1E4915B
:101A8A00EF5FF0E0FA93EA930CD2689422F8089593
:101A9A003FD0E4B7E3FF04C0E4B7E77FE4BF9EDFCB
:101AAA008FD0E0916001E41519F0EEEFE41529F505
:101ABA00E52DE83019F408DFECD01EC0E93019F43E
:101ACA006DD1E7D019C0EA3019F424DFE2D014C08E
:101ADA00EB3021F48EDFDDD081DF0EC0E73019F460
:101AEA00B6D1D7D009C0E33019F489DFD2D004C007
:101AFA00E13011F4C0DFCDD009C0442039F4E52D1E
:101B0A00E13021F48ED1E0936201C3D0C9CFFFCF77
:101B1A00E7E0E5BBE0E0E4BBEBB9E8E1EAB9E6E817
:101B2A00E0BDE0E0E0BDECE0E9B9E0E8E8B9E0E01A
:101B3A00E0BF05D0EFE1E1BDEFE0E1BD0895E3B319
:101B4A00E770EF5FE0936001E0E0E1B9E2E0E0B95D
:101B5A00E0916001EE0FEF5FE2B9E5E4E6BF0895B8
:101B6A0085D1F1F3089585D1E03819F0E1B1E03972
:101B7A0011F4E3B10895E1B1E83A11F4E0E0E3B910
:101B8A007BD1F1CF0A93EFDF0E2F76D1E02F77D1F9
:101B9A00E0916302EF5FE093630221FE02C095D0F9
:101BAA000E27E02F09910895DBDFE881E3B964D1BC
:101BBA0060D1E83211F0E0E001C0EFEF219608951C
:101BCA00EAD1A89520FE04C051D111F4A895FCCF02
:101BDA00E0E0E0936102D6DFE13709F0F3CFD2DF2C
:101BEA00E0936202E0E0E0936302CCDF4E2ECADFAC
:101BFA005E2EE9E0E51519F0EAE0E51511F46894BE
:101C0A0021F800E0E0916202E3500E1748F4BADFCF
:101C1A001E2FA02FB0E0AF51BE4F1C930F5FF2CF23
:101C2A00E89421F819D0E03011F0E52D01C0E0E088
:101C3A00BCD10895B0D1EA81EF5FEA83E15025D1A2
:101C4A0000811127EA8121D1F081E0E00E2B1F2BC0
:101C5A00F801A8D1239608950A930091610292DFB0
:101C6A000E1711F0E0E02FC0E0916202A09163022A
:101C7A00EA1711F0E0E027C0E1E025C0E881EF5F54
:101C8A00E0936202E0936102E091620202D121963E
:101C9A0008950A93C3D088DFE0916101EA93EEDFE9
:101CAA0001E0E0916101EF5F0E1740F4D4D0F3D068
:101CBA00F0D0D1D0F0D0E3D00F5FF3CFE091610242
:101CCA00E8D0E89422F809910895A0916402B091AD
:101CDA0065028091660290916702EDE6FEE466EC89
:101CEA0071E40DD1E75CFF4C6F4F7F4FE0936402C4
:101CFA00F09365026093660270936702A091640292
:101D0A00B09165028091660290916702A7D0E09334
:101D1A006402F09365026093660270936702E5E6D7
:101D2A006E0EE0916402E6250895ECE5F8E107D12C
:101D3A0066277727E0936402F09365026093660250
:101D4A0070936702EFE16E2EE89421F8089577B751
:101D5A007170E9F708958FB7F894E881F981F7DF90
:101D6A0067BFE8950000000000000000F0DF8FBFA9
:101D7A00089561E1F0DF229608950A801B8061E0F0
:101D8A00EADF2496089563E0E6DF2296089565E087
:101D9A00E2DF2296089561E1DEDF0895FBD000E0DC
:101DAA00A8957DD01E2F2F2F0E5F1036E0E02E074C
:101DBA0008F0FFCFA12FB22FE6E083D01E2F2F2FDE
:101DCA00A8952A931A93D5DF6AD0FA93EA932A93AD
:101DDA001A93D3DF0E5F1E5F2F4FE12FEF73A1F728
:101DEA00A89524D0E0936201689422F81054204008
:101DFA00A8952A931A93C7DFA8952A931A93C7DF3F
:101E0A00A895C9DF17D008955F9BFECFECB108955E
:101E1A005D9BFECFE881ECB921960895E0E0EA9354
:101E2A000895E1E0E0936101E0E00895E1E0E093E4
:101E3A0061010895B6D023960895E491F0E0DF0198
:101E4A000895E491FE2FE0E0EA2BFB2B0895E0E0F1
:101E5A00E09361010895E02FF0E00895E8E03AD0B8
:101E6A000895FA93EA93E8E4F8E10895E6B7E0788A
:101E7A00089576DEE1B10895E4ECE6BF0895A091F5
:101E8A006102EA0FE09361020895F0E0EF51FE4F1C
:101E9A000895EA9389CEEF59FE4FE08108950A9397
:101EAA00C9CE99818881009641F0BD81AC81FB81C0
:101EBA00EA8105900D920197E1F7FD81EC81269662
:101ECA000895EE230E2EFD0121F0EE0FFF1F0A9456
:101EDA00E1F70895EE230E2EFD01BC0131F076954F
:101EEA006795F795E7950A94D1F70895EE0FFF1FC6
:101EFA00EE0FFF1FEE0FFF1FEE0FFF1F08957A9FD1
:101F0A00702D6B9F700DF89F700DE99F700D6A9F81
:101F1A00602D710DFB9F600D711DE89F600D711D95
:101F2A008827FA9FF02D610D781FEB9FF00D611D38
:101F3A00781FEA9FE02DF10D681F781F089505901C
:101F4A00F491E02D0895129603D07F2F6E2F1297E9
:101F5A00119602D0FE2F1197E199FECFFF93FFB79A
:101F6A00F894AEBBBFBBE09AEDB3FFBFFF910895F3
:101F7A00E199FECF9FB7F894AEBBBFBBE09A8DB391
:101F8A00E81719F0EDBBE29AE19A9FBF08955A93B8
:101F9A004A933A932A931A930A9308955D814C813E
:101FAA003B812A811981088108950991199108951F
:00000001FF
