:020000020000FC
:0A0000000C94003F01FF02FFB3C49F
:10000C00F9CF0FE50DBF08E00EBFF894002700BD37
:10001C000CE009B900270BB908E10AB906E800BDE4
:10002C0007E30ABB01E10BBB0DE104BB002705BBD9
:10003C0004E302BB04E001BB82D500EA0BBF08E479
:10004C0005BF0027009364000093630000936200D7
:10005C000093610000936000442455246624DD98CD
:10006C00DC9839D501E012E014D5002710E011D549
:10007C0000270FD5DC9A2FD544D4C09A789405E08C
:10008C00902E01E519D245C0B299BBCFCF99B9CF0B
:10009C0062D046FCF6D446FCF7CFE1D252FE72C2D7
:1000AC0056FEF2CFE89456F8F0E0E7E701910191A3
:1000BC00003809F066C20081003171F0023181F024
:1000CC00013191F0003299F00232D1F00033E1F0BD
:1000DC00023309F056C20FC2FBE0E6ED61D251C209
:1000EC00FBE0E0ED5DD24DC2E89452F84BC2FBE070
:1000FC00E4EE65D2B4D257FCFDCFE89452F842C27C
:10010C00FBE0E4EE5CD23DC2FCE0E6E049D2929822
:10011C0000C0CC24C092780103E000934F03F1E0BF
:10012C00E9E790E082E03FE0F894FED40193019679
:10013C003A95D9F700917A0100938C0110E1F1E026
:10014C00E0E838E00191A5D413953A95D9F7789465
:10015C009BCF78940895F89414E0C4D4102F88940D
:10016C000795059530917801301719F000937801B7
:10017C0025D1117071F315E037EBF2E0E8E9B2D458
:10018C00019313953A95D9F7B2E0ACEA0C91802E15
:10019C0080928B0164D1B2E0A3EA0C910227009308
:1001AC008F01F0E0E6E0C895001649F0F0E4E6E0D7
:1001BC00C895001621F46894C0F89AC0CACF009173
:1001CC0099020F701BEA010FF2E0E2E91127E00F30
:1001DC00F11F408150919C02542730E9F2E0EDEA86
:1001EC00142F1523212F07E0269512270A95E1F7E6
:1001FC001695441F00810427009501933A9581F7C9
:10020C003FE8F2E0EDEA112722270191100F08F4E4
:10021C0023953A95D1F70191200F139579F62395F3
:10022C0069F606E749D10091A9022FD10091AF02DE
:10023C000130F1F00230E1F0053029F0063021F008
:10024C00083019F086CF99C067C000914F030A950A
:10025C0000934F03B9F790E080E83CE765D40023A6
:10026C0011F0002759D401963A95C1F7A7D071CF58
:10027C00402F0091AD02FFE7EAEFC895001511F78A
:10028C00413071F030E8F2E0E2EB882799274CD44A
:10029C00102F0191011340D401963A95C1F759CF13
:1002AC000091AE0200938E01EE27F0E8F00F8894D7
:1002BC00F795E795F595E7958E2F9F2F30E8D2E0CF
:1002CC00C2EBEE0FFF1F05901991011619F43A9528
:1002DC00D1F70AC0D2E0C2EBE82FF92F0E94703F91
:1002EC000BE2EAD06894C0F800918E010B3791F4C0
:1002FC00F0E4EE270E94C83F69F4C0FE0BC0F0E4A6
:10030C00E6E0C89500918F01001621F401E2D4D0EB
:10031C000C94203F1ECF1DCFB2E0A2EBFFE7E8EF1D
:10032C000D9135910317B9F735910D91031799F785
:10033C003296359130950D91031769F734913095BC
:10034C000D91031741F7F1E0E0E93CE70D910193C2
:10035C003A95E1F7F1E0E0E990E080E83CE71191B3
:10036C00E3D3011711F0012FD7D301963A95B9F7C2
:10037C0025D003E000934F03ECCED2E0C2EBF1E0CA
:10038C00E9E73FE00881019323963A95D9F700916C
:10039C007A0100938C0120917D01992781E1C4D3CE
:1003AC00021711F0022FB8D3F1E0E0E810E138E0C9
:1003BC0001916FD313953A95D9F7CBCE9F938F9329
:1003CC003F932F931F930F93009178010A95000F81
:1003DC0090E080E83327800F931FA6D3202F0FEFD8
:1003EC0020FD007F21FD0F7118E153D30FEF22FD8B
:1003FC00027F23FD0F7313954CD30FEF24FD047F65
:10040C0025FD0F75139545D30FEF26FD067F27FDB0
:10041C000F7713953ED3019687D3202F0FEF20FD36
:10042C00087F21FD0F79139534D30FEF22FD0A7F3E
:10043C0023FD0F7B13952DD30FEF24FD0C7F25FD92
:10044C000F7D139526D30FEF26FD0E7F139521D329
:10045C000F911F912F913F918F919F9108950F9321
:10046C001F9310918B0100918C011023212F07E019
:10047C00269512270A95E1F720918B011695221FDC
:10048C0020938B011F910F9108950F93029507D024
:10049C000F9105D00F9300E20FD00F9108950F9399
:1004AC002F930F700A3010F027E0020F20E3020F99
:1004BC0003D02F910F9108955D9BFECF0CB90E9434
:1004CC006D020895AF93BF93A8EEB3E004C0AF9351
:1004DC00BF93AAE0B0E006D005D01197E1F7BF9129
:1004EC00AF9108956F9362E802C06F936AE06A95CA
:1004FC00F1F76F910895F0E0EAE751913196719020
:10050C008190319601911191E10FF01F511B06E082
:10051C00501BD3E0C0E5222431961191199311910F
:10052C0019932394319621911127E20FF11F521B3D
:10053C0015E0511B552381F720927701002734D306
:10054C00FCE0EEE02DD07992899209E00993499371
:10055C00F3E0E0E52090770154E0019109930191DB
:10056C00099303E0500F01E830FF01EF0993379531
:10057C002A9499F7F0E0EAE7508304E0500F509387
:10058C00630087CD689464FE05C065FE05C066FEF9
:10059C0005C005C060F803C061F801C062F874CDF5
:1005AC00D0E0C7E7C895319600926300102DC8952E
:1005BC00319609921A95D9F7689457F80895D0E0B6
:1005CC00C7E7C895319600926300102DC8953196F7
:1005DC0009921A95D9F72797FFE7E8EF859195913E
:1005EC0032965591509514911095112301F556950D
:1005FC0097958795839519F4939509F4539500274E
:10060C003FE022E410E41BD031E026E810EA17D0DA
:10061C00332727E210E113D023E018EE10D0222765
:10062C0014E60DD01AE00BD0605D699305C017E09D
:10063C000DE209931A95E9F7689457F80895002785
:10064C00452F792F682F0395811B920B530BC0F705
:10065C000A95542F972F862F005D0993089551FE0C
:10066C0006C052FE06C044FC6EC057FC8EC0B1D012
:10067C000895F0E0E3E700270093640006E00093A0
:10068C00630001E9019304E0019300E0019300276A
:10069C0060FC01E061FC02E062FC03E0019300E01D
:1006AC00019301E40193689447F893D054DD47FC1F
:1006BC00FCCF44FEFACFE89444F88BD0F0E0E3E7AB
:1006CC000191023939F401910191002319F403D0FD
:1006DC00689452F8CCCF019100936700019100937C
:1006EC006800019100936900019100936A000191E7
:1006FC0000936B00008100936C00319760FC0DC07F
:10070C0061FC16C00191009371000081009372008E
:10071C00E89462F8689466F815C0019100936D0036
:10072C00008100936E00E89460F8689464F80AC045
:10073C00019100936F00008100937000E89461F8C0
:10074C00689465F80895F0E0E3E70191003931F021
:10075C000539D1F0E89456F844F815C0019101918F
:10076C0010916B000117B1F7019110916C000117FA
:10077C0089F70091650014E0011B009365006894F3
:10078C0056F8E89444F873CF72CFF0E0E3E7002713
:10079C00009364000091630014E0010F0093630068
:1007AC0000E9019302E0019300916B000193009129
:1007BC006C000193689447F8CEDC0BD047FCFCCF5F
:1007CC00E89457F854CF05D047FC02C0E89457F88A
:1007DC00089550FEA0D0839B02C093D0089542FC94
:1007EC0065C043FE0FC0E89443F881D000916200CD
:1007FC00023851F0003A09F1013809F1043809F0D6
:10080C0055C047C0AFD0EBCF689451F80091610050
:10081C000093600003E80093620004E0009363001F
:10082C00F0E0E3E700E8019302E00193009160003F
:10083C00019300E00193E3D039C03CD037C047FEB0
:10084C001FC000EA009362000091600000936100F9
:10085C0000916300F0E0E3E71127E00FF11F14E0D3
:10086C00010F0093630000E8019302E001930091F3
:10087C006000019300E00193C2D0E89447F816C0E1
:10088C0036D000EA00936200002700936300B7D0D3
:10089C000DC005E80093620000E000936300AFD048
:1008AC00002700936000E89451FA00C0DC9A13D141
:1008BC0028D0089500E8009362001090630001E0D6
:1008CC0000936300F0E0E3E72080002747FA07F984
:1008DC000083002700936400009160000093610086
:1008EC008ED0F0E0E3E72082109263000895F89434
:1008FC000F930BB70F770BBF0AB700680ABF0F91A6
:10090C0008950F930BB700680BBF0AB700680ABFB6
:10091C000F9178940895F8949D9BFECFDC98DBD0D2
:10092C008399FECF12E002E0B4D010E000E0B1D029
:10093C0010E000E8AED012E002E0ABD0DD9ACBD0F4
:10094C00DC9AC9D0CE99FECFDD988399FECF9E99C3
:10095C00FECFDC9AC0D0689450F80027009360005A
:10096C00D0DF0895F8943FB6DF92EF92FF920F9389
:10097C001F93FF93EF93DD98BADF9E99FECFDC981F
:10098C0012E0B0D0002319F4DC9AA5D02EC012E0EE
:10099C0080D0BBD010916000112329F0011719F001
:1009AC00DC9A99D022C0B1D0E02FAFD00093620076
:1009BC00ACD00A95F02EA9D000936100DD24FF2065
:1009CC0061F0DD24EE24F0E0E3E79FD00193D394B3
:1009DC00E394FA94D1F7E0926600D0926500DD20A2
:1009EC0011F0689444F8689443F8EF91FF911F91CB
:1009FC000F91FF90EF90DF903FBE78941895009187
:100A0C0063000091630015E0010F12E042D00091E9
:100A1C00600011273ED0002745FA07F93AD0009123
:100A2C00620037D000916300043010F024E0021B08
:100A3C0003952FD0009160002CD00091630000230F
:100A4C0011F414D00FC020916300F0E0E3E70191A2
:100A5C0011271FD02A95D9F709D0002700936300DE
:100A6C0000936500E89445F841F8089512E03AD0F7
:100A7C0012E00FD0DD9A2FD0DC9A2DD0689446F876
:100A8C000895CB9905C09E9903C0DD98E89446F86B
:100A9C0008952F933F93312F3F70212F2295207F64
:100AAC00232B36EA232702271F930F930AD0AB9AE6
:100ABC00AB981F9106D0AA9AAA981F913F912F919B
:100ACC00089508E0AC9810FDAC9AA89AA8981795D0
:100ADC000A95C1F7089513E0F4DFAB9AAB98AA9A84
:100AEC00AA9808951F93EDDFAB9A00000000A89A16
:100AFC00AB98A89818E08894999B08940795A89AA5
:100B0C00A8981A95C1F71F9108951F9315E0D9DF86
:100B1C00AB9AAA9AAA98EBCFE199FECF9FBB8EBB5A
:100B2C000DBBE29AE19A0895E199FECF9FBB8EBB73
:100B3C00E09A0FE00FBB0FEF0EBB0DB30895D898E2
:100B4C00D4DCD3DCD89AB7E3AEEFDCE0C4E1849913
:100B5C00FECF31E0859918C0332311F4119631E0A2
:100B6C00FE01C895102D2196FD01C895002D03237B
:100B7C0019F4012F0FD005C000270CD00BD01A95FB
:100B8C00E9F78894331FE6CF15E0002703D01A95B8
:100B9C00E9F7089528E0DA9800FDDA9AD99AD998FD
:100BAC0006952A95C1F7089510917701112309F440
:100BBC000895D3E0C0E5099109911A95E1F741E850
:100BCC003FEF0895049F801000000C9F80110800D7
:100BDC000200410003004100209F80211C01000104
:100BEC0000011653545620322E3033207365722E6A
:100BFC004E3D3030303030303000069F803102D0E6
:100C0C001200049F80330400FFFF627F3600FFFF59
:100C1C00FFFFFFFFFFFFFFFFFFFFFFFFFFFFFFFFD8
:100C2C00FFFFFFFFFFFFFFFFFFFFFFFFFFFFFFFFC8
:100C3C00FFFFFFFFFFFFFFFFFFFFFFFFFFFFFFFFB8
:100C4C00FF000C1401305004C880112802200A4403
:100C5C0081A82300060F100762401488020345E0A8
:100C6C0008800130000640141880FB0012A00248D6
:100C7C00800A70012A400550012A40055400090FD2
:100C8C00A80015A002548004A800154002480009D1
:100C9C00A0022400853680F93680F906142E80A82F
:100CAC001D011780E80000348A200002014000007A
:100CBC00844120000092200400010FC0240208008F
:100CCC00002000040120C10200491080AE00002069
:100CDC0000020205040416C0092000C080000001B7
:100CEC0081F80000300004E00000C00070000860D3
:100CFC0000080000E01120031800008001008007AC
:100D0C0030001C000281AE0000300810D2036800D5
:100D1C00202400040010D8111003080000804500A6
:100D2C00420600001A000080A70000300122C08497
:100D3C000000136142248005311020C802114202C8
:100D4C006081000084200216041858102100A800AD
:100D5C00003CA001F10000C003780003E2013C80DC
:100D6C0001F080103003780000E0010C880730009F
:100D7C001EC00001D0000030000001020300400042
:100D8C00820130028010C00360041000C0400010CB
:100D9C000080860000300A45100801000308028A12
:100DAC0080013000040804034252051803C0880275
:100DBC006000008041800040C80280802284B9001D
:100DCC000406A020C20243501008004190090012F2
:100DDC0002010242520008031800000400C4225809
:100DEC0000006021018011050026010000611081C6
:100DFC00890000100002C00008000101000480817D
:100E0C0002010412520230032010021800C0001814
:100E1C0010006000008001000006030180A1C001E9
:100E2C002010042002021800084000080007E0040B
:100E3C001252023003201002180720000600001086
:100E4C000000440000800100001C0002808DA801FD
:100E5C00000010140000200809002028000480065F
:100E6C00D003508052022802201012009406100366
:100E7C0008002020051A005000F080899000120113
:100E8C00180001116080240208300016C482025040
:100E9C00805202280220101200141604424008004E
:100EAC000081001030000AC0000058106180F3E08F
:100EBC00010CA001300006D08078000360003DA03A
:100ECC0007F004D2D2020310381202800730000659
:100EDC00000018000360000C800100001EC0000020
:100EEC00DE0400010000C180000880600000820167
:100EFC0031024003D2D20203103812020000C000AB
:100F0C0018000060000C8001310006020000100087
:100F1C0002AA2008281004D002848022600048A075
:100F2C0011300040080203D2420204381200804003
:100F3C00C888181100681280B005300516000080B2
:100F4C00002200F80004061106C202434410648417
:100F5C0080020834812004020102D24202043812B9
:100F6C000080000024004090080100800936012018
:100F7C0001000202880000100006C0000800016099
:100F8C00028030080590C240020602074000800132
:100F9C0030200683C00120800120020210000EE0E8
:100FAC0001302000F00390C2400206028001E003F1
:100FBC00200000400030900700001800008098A42A
:100FCC000100050010000008080A000D8001300126
:100FDC0000C8038000D20203100212028000D0026B
:100FEC00084214002000B000060000180400109203
:100FFC00840511064000428010A1000C4C84053180
:10100C000010C882028000D20203100212020046B5
:10101C00C082000022020C000030300226020000C8
:10102C00030090A4E0010C8001320006C0001800FF
:10103C000FE0013C8801F005420602028007F20035
:10104C0000C00058000060003C880700001E02959C
:10105C000880000006C2400000806040000800309C
:10106C000004004004420020040202100600800527
:10107C008001110620832004204206D000000912B2
:10108C00680140204820084008020302D0004003B9
:10109C0020000220060004000010411000A00530C2
:1010AC004240080098040000FC200804200001883D
:1010BC0000112060848C0208009220C00001020202
:1010CC00D00520000200060422024200604401A068
:1010DC0001841020010000040000FB8080100662D7
:1010EC00000C0080000002C203D0425000100238F5
:1010FC002200000806046000008001088400012022
:10110C0010073000068003100003C0010800042003
:10111C0003D04250002002382200001001E00000F1
:10112C00C000100000800100800700001E0000803D
:10113C00B900840080061000024003080000A001E2
:10114C000400101203D00210003002383A12029838
:10115C0000D000402000080040900100080600006C
:10116C0018000080E78010900016C40018001301CE
:10117C0021808189B020420008010000D0021004B7
:10118C00383A12020040C082001023048140102023
:10119C00004106080058100080B260400C9007F027
:1011AC00801EC803180003E0013C8001310310804D
:1011BC00400230031008009801F20006C00318002A
:1011CC000360000C800700001E029E022000C40079
:1011DC0018000062200C0400300000C14002108096
:1011EC0040020410080000060080000003600000AC
:1011FC00844105100000BB4045280020C000184069
:10120C001068002C2048300015C004400200200259
:10121C0020029016010408510368122C8011102230
:10122C00A000008002822008061106018800002020
:10123C000802802200058020C20001024002000842
:10124C0002200204061400986003602400200004AD
:10125C008040020000080080A980001000060422D3
:10126C002000800202C003D052D2001002381A02B1
:10127C000008060000180000600CCC0001200001E2
:10128C00300000800340000E00010800042003D051
:10129C0052D2001002381A020008010000040003A8
:1012AC0010000040051E02DD040401850010000042
:1012BC00400300210D00840400A010001003C202A2
:1012CC00080102100202840000880200030A0000D8
:1012DC00200240080018000010EA84441000C0C02E
:1012EC000400000B22002C88083002420104020387
:1012FC00C20240040210020220C0C00041088B0050
:10130C0081008089000A80000058100090946000D1
:10131C000C9001F04000C00318100F60403C90018D
:10132C0030800280825202000200002010120280E3
:10133C0001300006C003180000E0010C8001000021
:10134C001E000080DC0840001006C20301000004EF
:10135C0040300000C1800A00008082520200100060
:10136C00002010120200060280180083600000802A
:10137C000130100402100020FE0009200116C000EC
:10138C000040085011204009300024C0080400001F
:10139C00C0824000000802221000801600041811C0
:1013AC00036812008001B0001008008002EE800576
:1013BC0036000611040210080C228C2208021206B8
:1013CC00C002090000C082400522100080201000DD
:1013DC0098401301020D808904412601000005008C
:1013EC0080B58001200806402008000020000C80F9
:1013FC000206C100020280D002000402201002008A
:10140C000202001804030020040604808840003007
:10141C000001800010C80340000200010C000130E4
:10142C0000080280D0020001022010020004028099
:10143C00060003790000E24100900100001E02D773
:10144C002C0030C1000042000003000A01002800FB
:10145C0080020C0000101240000006023002020252
:10146C000400000360000020008003180000A0AD01
:10147C0004203000404000080213210280905030BC
:10148C0021C0000801000010124005300202004289
:10149C00000041082160802008080002200000584C
:1014AC00100000A660003CA001322006C0031810FA
:1014BC000360003C800130000800001080D205223F
:1014CC0000028001310006C00379000360000D8822
:1014DC000104001E000080EC8C0130100602030297
:1014EC00100C0400300006C2400200001080D20034
:1014FC000004022200020000C1001800030288014F
:10150C00200006021000908FA001B20006A020540B
:10151C00481040000C0041300016C0000400009040
:10152C00D250000001030200004500881811430846
:10153C000A8080890022A6000080028320000420FB
:10154C0000112482082300848184090012061004EF
:10155C0004000090D250000008030200802012000A
:10156C004240030800018089842026010042480083
:10157C00C0BB000010000040000800030200008007
:10158C00810000064140020000D0D2020203381252
:10159C001200000202080302000C000020000604E6
:1015AC0080F660002010078000108000700000485A
:1015BC00000C00018000100000D0D20202000500D7
:1015CC0000381212000004C000080403601000E888
:1015DC000100A00102C00080CE028006001400456C
:1015EC00006800802000008000004203404204108C
:1015FC0010080000A0C0209000236402402090003E
:10160C000102800200B08580099020064802082063
:10161C004060802010103200404004404204101002
:10162C00080000220018000303010C00020800103F
:10163C0040000050200310D6E0010D80073020063A
:10164C00C00078000360003C90013220034002008F
:10165C00100422028801F10016C003780003600018
:10166C000D8001020006C00362CD8001020420003F
:10167C0000030100008881300006054002002004B0
:10168C00220210000100000401001000840101106E
:10169C00060200001003208980012840408004903D
:1016AC005003081044A001300006A82003D2D20534
:1016BC001202020024C02410010364048080110073
:1016CC000206000080000300ED8005069100040274
:1016DC0083002300208C0208340000104403D2D273
:1016EC000512020200001400185103608401808965
:1016FC00340026010002020000C080011004040323
:10170C0002000C0080300000410390409002031056
:10171C0000120418000360050605E54000200000D7
:10172C00E400008800780002C001300007800390BC
:10173C0040900203100012000007C00004C0031008
:10174C000003E04100880102100000F824000005AD
:10175C0040D000004000600001A001308006001461
:10176C0002D0D2D000400238021202A006C02802D9
:10177C00000308000100040480000080E8040890C5
:10178C004010C8000110106080408005000406481D
:10179C0004080000D0D2D00040040000380212022D
:1017AC002006081840080300818C1008801040089F
:1017BC000040200000A560000D8001F00006C00074
:1017CC007A0003E8010D800730201C025050D042F3
:1017DC000E00001000103AA207F00006800318005B
:1017EC000F60000D8001000006000080A988010137
:1017FC002000028000080302000C0880300800045E
:10180C002016025050D0420B00001000103A22005B
:10181C00040018000360000C800100000602001098
:10182C00080000D8A0112002021004104123081057
:10183C008C20043002408008100000C002D002202E
:10184C00080000180202009040C022181103681210
:10185C000C80490005060000400000808D1310002C
:10186C0000C002D0022008000018020200101280F2
:10187C00F700000480020203010000048000100441
:10188C004092520A042002040010000203010000DE
:10189C00048000100002400000AC17409252020479
:1018AC002002149E240805800010400240000942CA
:1018BC00012080048000100310100052041012103C
:1018CC00802014000240080942012080048000108E
:1018DC000002400010A50415101000520410121044
:1018EC000510020B90FF4000040480001000004023
:1018FC0008904210D00202100802010410000200ED
:10190C00000407FE08044000080D904210D00202AB
:10191C00100815209B200004802014084240000869
:10192C000041280004842014400E80001084825052
:10193C008808000120080680201484825008018247
:10194C0000001003100000010304032000008003BA
:10195C002000004003100304020100000406B20240
:10196C0008004022400DF929010B80E802200A40B2
:10197C001B04000010054081FF0000044002080217
:10198C0005401D400107B20000210001200000802D
:10199C00001000024000001000240240020402016A
:1019AC000202050406010404E502200C0212100BCD
:1019BC00010002020080CB030201028202024000FD
:1019CC000004400F80002280020810000040040038
:1019DC0002002000040000E700006090000C0000F2
:1019EC004050020018082D018001100F8000348037
:1019FC0002484B02158000028004180A80AA0001DC
:101A0C0020000C82001812402058040144000E14CF
:101A1C00008A0F8000B8044640A8541D20093000ED
:101A2C008200008000288288060400004010040018
:101A3C0000012014200010002010010000040002FE
:101A4C0004809D800020000280000810800010009F
:101A5C000800000804120420000400020008000121
:101A6C00100000010380F60004008010100020001C
:101A7C0008080121000008800000020E800000020E
:101A8C00400280002001008000100040000080E82F
:101A9C00B00440014201000004880001000008A0CD
:101AAC0000000402080000100304000008020802F1
:101ABC0018000040020C03C0BF060100000408031C
:101ACC000000080604052000440204020802080075
:101ADC0004808E063007040B020A0214400704101F
:101AEC000280F99001C00006001044000340080C6D
:101AFC008004000006C0800F06082010000240027F
:101B0C0002C0AA00408400001100000880084000B8
:101B1C002200008000100F8010400080A30480027F
:101B2C0008042693022000008000024000400201BD
:101B3C002008008000100F80000002000008000048
:101B4C00810004800202000008A503084003200560
:101B5C00080A4005084000080608000804809F1485
:101B6C0080020000800100004002C004408001009F
:101B7C00010A8089044000001015100302011003B3
:101B8C00400708000020F410031100004000200062
:101B9C000080400000021080001080050240000808
:101BAC0000402000040082D80A020C3400304800A7
:101BBC0008000020006180050820000003022400BA
:101BCC002000810D12C00240210008050120A01048
:101BDC008004135A2ABC10100106A00012140040F5
:101BEC00200118211601005001100FBA802030106E
:101BFC00208A0C440839100100002E080010A0E5C2
:101C0C00100820060110020020040400001002201D
:101C1C000800004093020800042008008000000423
:101C2C000804101011000802100080400780FE020A
:101C3C00200A8004800280000010034005800D8083
:101C4C00EE02011A000680000C000264000810016C
:101C5C00060006C010030510002006800108B8100D
:101C6C00180206010280022000000808C0A4020429
:101C7C002320042207809D04200805400201041043
:101C8C0022809200004010094017100000020B80C7
:101C9C00DB004000008104810008841040000262D7
:101CAC0000008004210F8014100200000840008006
:101CBC0002000080050006020080F900800202107C
:101CCC00021000002800040302110240000800006A
:101CDC002005024000080080C400000204102B40C4
:101CEC000080AB14040000100402000807800304F9
:101CFC000207DC020C000806100102081420004048
:101D0C00002000008000000800002000008302403A
:101D1C002304000107200280AE028006D0050D04CA
:101D2C00D0041050420A0400680125228804A182C4
:101D3C00D00000400800980306C0050C0480401039
:101D4C00C0001000006020080304C0020282BA0424
:101D5C00F0050C04401318000060200F800110885F
:101D6C0007F204E104C0050C04804411441008007F
:101D7C006004288490000144D00210048B031004EA
:101D8C000204400440081124880000200244000989
:101D9C00001022C0020801CF02800020400403047E
:101DAC0003B0401030001E100078100FE8410C807A
:101DBC0007E40000C00000BF03060C4040112008DF
:101DCC0000006010040441000002D003808203066E
:101DDC000C8002110258200060018C800100211639
:101DEC00C8022001AE028000108400400800000DE3
:101DFC000450078806C40251420A41022522000001
:101E0C00801202400340A104400301000C0580062F
:101E1C0030061804021002010008008100000401C1
:101E2C0004E904804000000300000C054006200675
:101E3C009007C0020300000C800100800704819011
:101E4C000306040200004100000C05020F44C244CA
:101E5C0080200A0100280485000084030830D00487
:101E6C0040440000A20000200804080F220040801B
:101E7C00000101004480840000220414F402800656
:101E8C00300000C0030000030430400E8007B40093
:101E9C0006C80300000FE801008007040000C00022
:101EAC0060C8030603821902002000080102000426
:101EBC00848000000204A0D00480140000130848A1
:101ECC000E8016880440000B00008C800900001660
:101EDC0008022001D90000048000D0036806D00459
:101EEC001090420A040205282000C242D8000A6160
:101EFC002001DB0000040000C003602005804012BC
:101F0C001003080001000002C00380CE00000C008A
:101F1C0000F003601005404010C0001E030F80014C
:101F2C003C0000C4020181FE040216D803600105C6
:101F3C008011C044120802081085300020C0140023
:101F4C0008232085040402010000600205400810EB
:101F5C00C0048803448084B00020C00040089380F3
:101F6C008700000C80062003781005B04006300670
:101F7C001800B0201E10020FE8013CA001F420064E
:101F8C00C00280A008020604601005404011200821
:101F9C0003048400001000002000088390E6024037
:101FAC0005200405800206200610000008582002B7
:101FBC008C8009050110C8020280BD00000480005D
:101FCC00D00000400808020D0450180E80021102C7
:101FDC004A4013680005A20105802201000A610332
:101FEC0040FD04C00341400C160400400004036192
:101FFC0000080001000004030380DA000030000038
:10200C00F2020320000C05400648062406C0020319
:10201C0000000C80410C8007000008000300BC008D
:10202C0000300026C0021101810C050206080604CE
:10203C0044C20081204300004888110000240400A1
:10204C00502003B0A4000030110000080100120061
:10205C0040201004080640062022C0204008090138
:10206C0044448090B00022020120D0F000003C805B
:10207C0006200000C003190003043040064006A0EF
:10208C0007740006C00318000FE8013CA007040009
:10209C0006C8002186000030000603821902008069
:1020AC000000030100048400310002030320F3004C
:1020BC00003010040B000A064806080716880400B6
:1020CC00092300088C80053000160800001153808D
:1020DC00D73000148400D000004000082200A0017A
:1020EC0001000010072006140010005A50000C00CC
:1020FC0005222024904208001A4213809D04C0033C
:10210C00200000800102804006800640008080187C
:10211C00000260000800012000020000180002818B
:10212C00A804F00203400000808102C013100003D9
:10213C0000000F0610008300D40C00004146D202B0
:10214C000300820080090280420C05200605100263
:10215C0059200A0122480808822020080098200AE9
:10216C0000A28485801000001002220100808402ED
:10217C0040400608060400000480000101444400AD
:10218C0010000120000018092180DBE0010C800602
:10219C00200000C000182000E00102F00008060436
:1021AC0007308006C80318000F68800CA0010400DB
:1021BC001EC08300F08C01000006054000808102E7
:1021CC004015010000040400010318000380E280A4
:1021DC000100120408440000800102C084110205B1
:1021EC00110301088C00088040100800180553806A
:1021FC00F40000048000D0000040110A8205104851
:10220C00120609058000D0001A6008688005218834
:10221C0000801200001A5108C08504C003200680FB
:10222C000002059001050800C000180002620004BD
:10223C0003040100100002018D0000300800C003EF
:10224C004106C000100608059001E000180003606C
:10225C000000800100000600000802DA020246C8F5
:10226C000208000805804204060807D00018090A75
:10227C006141209010020084000010051034CE0241
:10228C000A0000020222200540401005180726C053
:10229C00000809012100400041000022000008094B
:1022AC000811B600003C8006302000C0001806F073
:1022BC000F8007E2001EC003784003E8010080078E
:1022CC00040016C00060A50210060C40000A0605AA
:1022DC000606C0001808016200000401000002009C
:1022EC0000080800A09E0000300205418005C010C7
:1022FC00200610050806C0005800236024808005C5
:10230C000200160800500020819F0000048000D0BD
:10231C00001A40036A061044061006C02418000276
:10232C004120690005A800008022D1008A400902E2
:10233C00FE0000040000C0001800026008080550F0
:10234C000405040400001804020000080000010049
:10235C0004C00010040080B200000C0000F2001851
:10236C0000017906C0800206010510000400180067
:10237C000300200C0306F000000800809A040004FF
:10238C000006C000180002680640020E084000005B
:10239C0058080A0101081008020024D4009000100B
:1023AC008487040444580021004405800F1020C089
:1023BC00048804010144440000010022C0004008CC
:1023CC001080B300000C800620001EC8021106F01D
:1023DC00200E8001F42006C00318000F6800008056
:1023EC0007E40006C000018108020602080101068C
:1023FC008011C000080001000004040202C00000AB
:10240C00080081ED0000040A0240000A07C0200FFA
:10241C0010C80010020302088C0080000016C802CD
:10242C000800E70000348000D0000040116C00412F
:10243C0002800010440640068802D2001210006888
:10244C000009A101058082000002401340AD00008C
:10245C00300006C0036000000415020000100000EC
:10246C006020080001000004030201AA0000308073
:10247C0001C1036100040803C011020000080060E0
:10248C000000800206020018000380C008003080A3
:10249C0026C00208600020044002010540062040CE
:1024AC0000840001006008800489000044000018CA
:1024BC00009330F8020406002400002000142004CD
:1024CC000206880208054004052020000480000054
:1024DC00404040801000202202092150D500000C01
:1024EC000001300000C000190003028007F0201C1E
:1024FC0005400E05A0013480061000180003688109
:10250C000C8007040006C003A18504020604020522
:10251C000680001605400B05200640008400301094
:10252C0002030120D30810000020100206C028105E
:10253C000520080510100802412002800009320015
:10254C001608000005830098100000200F100608E4
:10255C001502010000409420000080001000024091
:10256C000008000120000480001007080604001079
:10257C000002400008000120000080001000024012
:10258C000080F524021080D92C0084C000100002B9
:10259C0040000800012000048000100F8000100093
:1025AC00024000080001200004A102024000B0819A
:1025BC0004044803241A010A0802909D2000040018
:1025CC0000040002400201200004800010144000AE
:1025DC000800002000080280024000E0AD0C000062
:1025EC00082804030203A0D9200084804014880228
:1025FC0040000844012000048000100F80101222BB
:10260C0082500008000120000480001044024000A9
:10261C0080A700004000800F080308020402040594
:10262C00400301064080E12960000800000200021E
:10263C0000010280C403040608012002001005BA40
:10264C0004080380010B2005040A20000409D400AF
:10265C000080030100010000040440114000001040
:10266C0005010308000082CC020310032000004087
:10267C0003804000000402020202020200008002F9
:10268C000203010800000404BF0302012009041026
:10269C0080001102010040050100080001808A80C1
:1026AC000008000240000008002010020080150203
:1026BC0020000400200000020000080140200290CD
:1026CC00AA20000480011240001000084001000004
:1026DC00010001110126800090000820000828103C
:1026EC00A00212800C83008089000400008241202B
:1026FC00220000020A080115E6001430116AA00D30
:10270C00190081065230800722048000CE08028214
:10271C0040201B8005200910801098020301042022
:10272C00040215020140088080001002400340039F
:10273C0010A2044004400000040F200000020340DB
:10274C00480009000040008007AA1003220310165D
:10275C00010001080008080202000200000110003C
:10276C0000400040EC0910011B020000400000205A
:10277C000080040480E3061000040D400A060E04D9
:10278C000000808E100020050800800580000010DD
:10279C0000004003080000200512000400010000A6
:1027AC00040602C0E4051000004004801C45000132
:1027BC00002080060280C10408000040034015017F
:1027CC0009080680EC2B010990E9000010050608A9
:1027DC00011208050204200001008C0802074000C9
:1027EC00008002800240024004100480070140CFA8
:1027FC0003024100040940042000000102100800FB
:10280C000080001100080000200420004200000895
:10281C000182A48000010001102004480020024025
:10282C00080610060800800240800502400380085C
:10283C00000090B3A02801800132800E54000803E0
:10284C000500022103200800400330048000000131
:10285C0032980404011010000800011000228002BC
:10286C00880001C80037000004811090000040006F
:10287C000880000080380052010218008305804156
:10288C0000204A18802900080198028802008480E0
:10289C003830040E10DA1003010640091000010153
:1028AC000440800000100602042000040040D9807F
:1028BC00400000024020040000200004051003101A
:1028CC00000105800320040403022110080001000C
:1028DC00D58000006002080C800280024002400695
:1028EC0001200801100080B0100004200508090424
:1028FC0000001103020000080504800A020000C059
:10290C00880C801A0202100304000402BE04C0806A
:10291C0002404016020B2006BD0803020B200001EA
:10292C000E042002008000400000800880901120DE
:10293C0005400F800000080000080580B703010463
:10294C0004060410100920012403020000480009A9
:10295C004000240080B800001022C00404021003C0
:10296C00800080AC040120031000100A400B802072
:10297C0003080ABD0202011E80000103100040057D
:10298C0040100080830908061000000400001003AA
:10299C00020000080802002009C8F1078009011490
:1029AC008005840002028080AF8088148942000078
:1029BC00980810090140A084040000040F80005006
:1029CC00829840028C2805020046D40013410A016B
:1029DC00D78002040204400002181808020C0001FF
:1029EC00000006C00018100380D4E00100080200AB
:1029FC00001E900320100380010180011080014013
:102A0C00000400830000038040008001C0401010CF
:102A1C000281BF00900001440200004090000400BD
:102A2C0080110008118000C044020003028003C022
:102A3C000298002380C8400180104200004004230B
:102A4C0000248C0030000446041016C008400060BE
:102A5C00000040101102440899002382B820010C98
:102A6C00800301001EC08318000F64010C80071046
:102A7C008007B12006C8030000036041008001B04C
:102A8C00000ED00100DB400102010018000302001F
:102A9C000C00400000061106000018008000000C1D
:102AAC00880206028003E5800000040240600300F7
:102ABC00080C0009B040061106800499200B000098
:102ACC008C8050000016800444A00804F510880483
:102ADC008000C0449848210200012285840A08061F
:102AEC000400940402002000008C248000004602A4
:102AFC00000A4361008F0C800100080930061800A1
:102B0C0080200202000C0306000018000380AF6056
:102B1C0001000006F0401E04040100080920069084
:102B2C000140001884030000028002010000080824
:102B3C000101918C9000000600044000000100404F
:102B4C00819100011340221841030000010085000F
:102B5C00800258001320ED5401801026001800004C
:102B6C00080000208001020112868080000303010E
:102B7C000040103002080098002381D528010C80F9
:102B8C0007F10006D000010003E2000C08118007D9
:102B9C00B0001EC00300000360010080010000169D
:102BAC00C80200854801300006C10018070812064B
:102BBC00400302000C0802060203109A8000300445
:102BCC004600021982100200884804A212800640B6
:102BDC004218051000008C0045000016022000046D
:102BEC00E11088148A20C2441A400001000DA03064
:102BFC0000A240108000104818112000002C800901
:102C0C00000046D842124103C0920304000018038E
:102C1C000C800102021318000002000C88810000D5
:102C2C0006C00018100380E26001100000F10018CB
:102C3C0000010280400C0006040F8001400004C01B
:102C4C0003000003400201C08010C80380A38C90D5
:102C5C0080202010101800000400008001040016D1
:102C6C001080008084020003022000008000C00459
:102C7C00180003B0AD44010040800000980810001B
:102C8C0000409001300100081016010240001300B2
:102C9C0000401000020000C808990800508F38014D
:102CAC002C800130401EC00002000360813C900566
:102CBC00088006A007B08006C8030100036000006E
:102CCC008001F0000EC080A0CF4801100000C106AA
:102CDC00040031000001070806040600001800007B
:102CEC0002000C8881000006C20320AA800020226A
:102CFC0000C08880102004020430000410100680EC
:102D0C008098201000008C8005000016800445205F
:102D1C000080F00088348042C2449848030000418F
:102D2C00208500220004074806800090200009201E
:102D3C0002008C301000002610000A030080F508F9
:102D4C00030288010B3006480080050C00000100CE
:102D5C0006020018000080FE6001000802F0001E50
:102D6C00040300000408010C800110800140201CA9
:102D7C0080030000028040008001C00008040000B5
:102D8C00D8809000011001820200030000808001B5
:102D9C000612800040001A400300000100050310D9
:102DAC00980000A0F44001801010002400002002C4
:102DBC0000009001311026081006080681185800F2
:102DCC000301004010300204005802FF20010C8067
:102DDC0001F40006D00203E0003C8007040728063B
:102DEC009407B0001ED00300000360010080013086
:102DFC002016080080C7400102C000180803040018
:102E0C00300006110640200202000C0840000006AB
:102E1C0002200210E8800000040404021903804020
:102E2C000432000608480604064002802010000008
:102E3C008C001100001602200000FB10880480405A
:102E4C00C144984803680045A830B40000040FA0A2
:102E5C000000440061400000010008000046D280E0
:102E6C0000400040DC0803600000800120081C804A
:102E7C00000006C003808F6001301002F4201EC0D9
:102E8C0003028440308801084806A40130001C006D
:102E9C000100000CC001000001C00000C00000C611
:102EAC008C90000200100080080300008080053028
:102EBC00010908110710001A00A200008CA20100E1
:102ECC008000C00401000030B15401000110040066
:102EDC008000A0002100901130011608001205207E
:102EEC00064426C0005800600000808109010000E3
:102EFC00C442000003949328010CA00130401EC46E
:102F0C000018000360013D880700000206060580DA
:102F1C0007F1201ED00200000FE001008001F0003C
:102F2C0000C00360EE480102C0001806310806001C
:102F3C0000200D1406C00A06420203208580000002
:102F4C004140C4004120000082800804B00006000B
:102F5C0000140606051806C00080208200000C0232
:102F6C0028000016C00001000300EB0088041200CA
:102F7C00C044984803000080A001002200040F8088
:102F8C000010888000200100800410010046180009
:102F9C001A000080A80402068201040806090A0827
:102FAC000706000018000080BB6001008801F000DB
:102FBC001E8003000003C0010C8001108001400042
:102FCC001E800300000EC001000001C0001E0000A6
:102FDC0080F480900001000004034520010000A053
:102FEC0001040310052006800080401840030000F7
:102FFC000DA001008000C0001802E7400100090686
:10300C0000020202008C00803011860000020508CC
:10301C00020646010258000301008C8009010000E1
:10302C0004284002C420010C8007F12006D00300C4
:10303C00000F64003C80070000020510068007B0FA
:10304C00801ED00300000FE8010080013000060450
:10305C000000D54001000006C00018000302000C5F
:10306C0000003000060000100520020606040200D5
:10307C00000802060203809A80002008060002590C
:10308C00080B00000C000030000609050510068036
:10309C00028120100000800028000016001003F9A7
:1030AC00108804C206C044984812020040A20134A1
:1030BC00090004000A0D84001004430820040001D8
:1030CC002008008000D0800240A308030280012069
:1030DC00030405200805280A010000C004A66001AD
:1030EC00002006F0001E0002000003C001300001A9
:1030FC000000200508010580014000088003000045
:10310C000C8280000006C14003BF8C90000210129C
:10311C0022021003020000A001B0C00908068000C2
:10312C00801450440300004C0001000016C0020241
:10313C00B080440180100008020B04000C0408103D
:10314C000246084007160802000303010080013004
:10315C000000C0C008010000D09838010C80073076
:10316C004006D00100000F60403C8807040FA00708
:10317C00B08016C00300000F6001008007F0032030
:10318C00A1480102C08018030C000030000608881A
:10319C000604060080020200000240024103A0B0B7
:1031AC008000200440C40818889000000C0205061A
:1031BC000880062006800890041000002C000900EE
:1031CC000046C004010000808C1089048046C14474
:1031DC00984861000045A40100A212108000102440
:1031EC0000112002008090090080001000000300F4
:1031FC008099800010200403030280010000040168
:10320C0007401080810780986001000006F0001EC6
:10321C00008102C8010C0006080806A00140001E2F
:10322C00C00300000E40020600000402EF8C9080E8
:10323C002004088400090B000040A001040084084D
:10324C004006A000808818000300000D2002160123
:10325C002402000080C85401002102002800050B44
:10326C000200200010B000420000080540040520B8
:10327C0006000258001300008C00080200C0002851
:10328C0058000080DF68010C8007F4001EC00200AB
:10329C00000364403CA00502001405400A05A00789
:1032AC00B1801ED00301000F680000800730001EA3
:1032BC00100080A74801000006C40018000001039C
:1032CC0030000200001205400905200600400202F1
:1032DC00000088010418000080E200010040460054
:1032EC00024120024008003000240800100520088C
:1032FC000510068004802010000080802900000644
:10330C00C11018000080ED10121006081940A420FE
:10331C00000480001000020000080001200004805E
:10332C0000100708060400100002400008000120ED
:10333C0000048000100002400080B524021080D9E7
:10334C002C0004800010000240100C00012000042E
:10335C008000100F801010000240000800012000B7
:10336C00048000100002400030CE0435D0E8180074
:10337C000406080610160803040000100320C308F6
:10338C0003024000080304000010000212400F204A
:10339C00E6208404801010024240100900212028ED
:1033AC00848010100F802012020248100A0041285D
:1033BC0008058020140082485000951D2014080236
:1033CC00F3020480000110080004000010068003C2
:1033DC000104052002010C08000080820780020C09
:1033EC00040E018007100480D70620030103100986
:1033FC000409500008000020400400001004A0C084
:10340C00030A4000080008020014000010800207A4
:10341C000402028003024000100000010000400181
:10342C0000000405FB100000200000404000420298
:10343C00000A0000100610061020000414FE0A10EA
:10344C000082400000041102412008022000020307
:10345C004100008000009280001000024002010137
:10346C00000040800000041204800004801002213F
:10347C0020022000040100CC200004850010000074
:10348C00440002200064800180011115E7C1041082
:10349C00004A2D002400050002228000D00000DB31
:1034AC008A27E0065C01023C16E8400800802E509A
:1034BC000C0480110E80000026C802502011080058
:1034CC0040700410800200008080EA80030100023A
:1034DC00088002800010201440100000102002050B
:1034EC000621A6804010080200000804404020027B
:1034FC0001200240401302000200080000102000CE
:10350C004003A0E200000400040080200000090039
:10351C000080000806180504040808034003020094
:10352C00080100E402000010040620021004080543
:10353C000400008001020805020F889800010604AF
:10354C000000200402001006050720110010038063
:10355C000202408002808F08010201060106040E5F
:10356C001000049000020002080201040320EE1077
:10357C000B40800000081380070206C0F207800889
:10358C0022020880D3042000112002020000200E29
:10359C002000401140040080BE8000100009400053
:1035AC000800010000040840052006400621070819
:1035BC0088DF00001004400020000020040A0105F0
:1035CC008002080B100002400088D402801108040D
:1035DC00021AD90920100080000080000403200B7F
:1035EC000100200044800A040021A480001008027D
:1035FC0040200A40032007080301000010001000BF
:10360C00044202024004ED323004A0009081000418
:10361C005610200040020112036007080215845660
:10362C0000980009000128000086001014000850C2
:10363C0081D30020E0051E04220C0260C00F140987
:10364C0074100004413305810580210022502F881D
:10365C0006F16000000240000004801080020008A7
:10366C00DD100202002010030400801000004180D5
:10367C00058105800000024020080881100000042C
:10368C00000106C0D5008010080102048020100043
:10369C00024000800000100C80400410000905025C
:1036AC004020000400809C052000004003200801FD
:1036BC00061005080FDE1005040004022015080E84
:1036CC0020500142D90D010040000902800510076D
:1036DC0022000002020400010000040382FC00002E
:1036EC000800120904801440062108F60402801018
:1036FC000000080804040814800720C30208000016
:10370C0080031000002010080000800F108000883B
:10371C00D004000028000702800440000A000200C8
:10372C0080051006280522400201200000800210AE
:10373C002000048519020B014000010000048002E6
:10374C00020000040000FD0E011410400F80B90AA5
:10375C000D81151000040310000202800402D9062A
:10376C0002081011100F800000C0051002010000AB
:10377C00040215A02010A80604012101021409203E
:10378C00001018E0402007011804034005800402D3
:10379C008240008D3680F93680F9003F400254009B
:1037AC0009200174800490001240024800150F5C3F
:1037BC000009200174800490001240025C8016A065
:1037CC00037480BB804C8081220006C000980003EB
:1037DC0060000C80013000A20F320006C00098007F
:1037EC000360000C80013250A0C0049880DCFFFF05
:1037FC00FF0000000000000000000020000000009E
:10380C00800000202905000024000048010000A0D1
:10381C000000208002000000A00000000028000032
:10382C0008A8020000809400000000850000000041
:10383C000085000004108010000000000082801041
:10384C000000401000000000004400000000008A4E
:10385C0000000000004004000000000022000008EE
:10386C0000110A0404208400000000848000000081
:10387C0000100200000000800200400000108108CF
:10388C0000008400000000004002000040004120C5
:10389C0008000041000000000010040000000000BF
:1038AC00800000000000200800000A002004000432
:1038BC0000008402001000000805000040481000C1
:1038CC000200401000500000200400020000801094
:1038DC0000000000000400000000080000000010C0
:1038EC00000000400000100000000100000000215A
:1038FC0008000500000401004000000288000400DC
:10390C000000040000000000400000004000000423
:10391C00200800000020000004000000020000004D
:10392C000000201080000000000000100200480081
:10393C000002000024000000000010020000100033
:10394C008400000000009000000000002001000036
:10395C0020004284020040080080000000410080EA
:10396C000000000000000000000008000000000043
:10397C00000400000000000000000000200040A037
:10398C008010100084040080100000801009024197
:10399C000A2482040000020000088550A1A85221CC
:1039AC00202500005455AA801408010000000809C5
:1039BC0000000004000001080001002000100000BD
:1039CC00080200020008A14042282AA82200008018
:1039DC0082000040210540400010A40A91000A1208
:1039EC008A02014008000280204000000000040010
:1039FC00002A4220008A902A540000500455481591
:103A0C005481420000200000208002025008518A9C
:103A1C0014004051A20400809400892A005409002B
:103A2C00224A001021090000250048090022001537
:103A3C000884A2120005A8082001140088000A00BE
:103A4C00240009000054002041010002282100003C
:103A5C009202022411109242002090080080A4408F
:103A6C0000A024014049818000000900001401805D
:103A7C000042450000205400000000A80080000017
:103A8C0052000000140008880A00000000500000DA
:103A9C00A0200500000A14088040A4000000821435
:103AAC000000000044010000840202082400000011
:103ABC00200A00005424000180A20000141105000B
:103ACC008090280000004001008044010000240A7E
:103ADC0000000020050000005002000000880210C9
:103AEC0000000900000814000000400200008A02D7
:103AFC0008009100800000A1000000100200018469
:103B0C0002080084280000100021010001000409B3
:103B1C000000A890022208090400500100001400C3
:103B2C0000280000080004AA02202040002A0000FF
:103B3C0008000080AA8A00A444A522040A050A41B0
:103B4C008582A28800004000400000080000008030
:103B5C00000040545004A0144200A98000200144ED
:103B6C00548008080122108850A5A02A285415A1B9
:103B7C0010000200408A24008010020000000000A7
:103B8C00220000800A410100505401A0AA045008F0
:103B9C0009AA28A914014805A4120200AA9028A574
:103BAC0088A08010A9220000100800241200000038
:103BBC0010000000001050000000022000008000E7
:103BCC00000001400022088000000000A00000401E
:103BDC0028440000510004000010000200000110F5
:103BEC0000002000000050420200100010000008ED
:103BFC0000008428000000040220000000010100E5
:103C0C00000001000000000500008040010002805F
:103C1C00100000000040010080520400000004006D
:103C2C00000000024000008002400420A0000000C0
:103C3C00218800042050004000004000002040106B
:103C4C000082020000000012000000004001000091
:103C5C000000500000800844020000140000000026
:103C6C00400000A0540100000800000000540000B7
:103C7C000204400200080000140000000000292487
:103C8C000000140040000020008014A51000004823
:103C9C00000001002800800001140000000020003A
:103CAC00408840212800200500000000080000800A
:103CBC000225000405400800800220000000480096
:103CCC000000000024000000804042100008200189
:103CDC00000015000014000028000008000008AACD
:103CEC001021500000100000A802A0549052AA020B
:103CFC0020018014000800A0504088002080400261
:103D0C00000004000000001000001084400180201E
:103D1C00000200502A00A8A042884211AA001241B9
:103D2C002525840800405520A00AA80AA04000546C
:103D3C000124002015000000004001000084000553
:103D4C000004048044805095A820A810084825A899
:103D5C0012420880002A415080801245A42A142463
:103D6C00544095900000400000000000010000004D
:107E0000B89AC0980FE50DBF08E00EBFFF27EE2718
:107E1000BFD011F40C940700F0E4EE27B9D0D1F7ED
:027E20000FC091
:107E4000BB27AA274CE7F0E2EE27EA0FFB0FD2E0B0
:107E5000C1E130E8EE0FFF1F059009923A95E1F776
:107E6000D2E0C1E130E8FB2FEA2FEE0FFF1F0590B3
:107E70000991001561F43A95D1F7FF27E0E4AE0FC0
:107E8000BF1F03E2A4D04A95F1F60C940000D2E0A3
:0C7E9000C1E1EA2FFB2F0E94703FD5CF0C
:107EE0000F921F921F933F934F935F938F939F9394
:107EF000AF93BF93EE0FFF1F8E2F9F2F4C2F5D2F41
:107F000033E00E94B93F31E10E94B93FA0E8B0E000
:107F10000990199031E00E94B93F32961297C1F74B
:107F2000E82FF92F35E00E94B93F31E10E94B93FB7
:107F3000A0E8B0E0D52FC42F05901990011014C00F
:107F40001197D1F707B706FF04C031E10E94B93F8E
:107F5000F9CFBF91AF919F918F915F914F913F91D9
:107F60001F911F900F900895F92FE82FD52FC42F40
:107F7000C7CF07B700FDFDCF1FB7F894E199FECF3B
:107F800037BFE89500000000000000001FBF089503
:107F90000F921F920F931F932F93EF93FF932EE354
:107FA0002F0F0027112705901590000D111DF217B6
:107FB000D1F7039509F41395FF91EF912F911F913C
:087FC0000F911F900F9008952E
:107FCE005D9BFECF0CB908950F93029501D00F91D2
:107FDE000F932F930F700A3010F027E0020F20E35B
:107FEE00020FEEDF2F910F9108959E0F0100FFFFFC
:00000001FF
