:0C0000000C9447000C9400000C940000CD
:10000C000C9400000C9400000C9400000C94000064
:10001C000C9400000C9400000C9400000C94000054
:10002C000C9400000C9400000C9400000C94000044
:10003C000C9400000C9400000C9400000C947A00BA
:10004C000C9400000C9400000C9400000C94000024
:10005C000C9400000C9400000C9400000C94000014
:10006C000C9400000C9400000C9400000C94000004
:10007C000C9400000C9400000C94C7000C9400002D
:10008C000000F894EE27ECBBF1E0F5BFE5BFE09380
:10009C006C00EBBFF8E1F1BDE1BD8DE0A2E0BB2748
:1000AC00ED938A95E9F780E090E1A0E0B1E0ED9363
:1000BC000197E9F7ECE8F0E085919591009761F0F4
:1000CC00A591B59105901590BF01F00105900D9289
:1000DC000197E1F7FB01F0CFEFEFEDBFE0E1EEBFF1
:1000EC00C0E0D5E00C94D700AA93BA93EA93FA93A4
:1000FC00EFB7EA931A930A930BB11CB1E02FEC7192
:10010C00E9F422FC03C0113709F018C0D201A05049
:10011C00BB4F1C93F20131962F01E030A1E0FA079E
:10012C0011F444245524F40131964F01E030A1E040
:10013C00FA0721F488249924689420F809911991DC
:10014C00E991EFBFF991E991B991A99118950A93A9
:10015C00082C0928E9F3A0E0B5E0A60DB71D0C9119
:10016C00F30131963F01E030A1E0FA0711F4662467
:10017C007724F894F40131974F017894E02F09918A
:10018C0008951895DA98EAE0F0E0FA93EA930E9461
:10019C00A801DA9AEAEFF0E0FA93EA930E94A80138
:1001AC000895E1E0EBBBE7E0EABBE0E0E8BBE7BBCE
:1001BC00E5BBE4BBE2BBE1BBE3B9E2B9E0936200AF
:1001CC00E0936100E0936500E0936400E0BFE3BF5F
:1001DC00E2BFE1BFEFBDEEBDEDBDECBDE7BDE6BDE1
:1001EC00EBBDEABDE9BDE8BDE0937900E093780092
:1001FC00E5BDE4BDE3BDE0938B00E0938A00E093A2
:10020C008900E0938800E0938100E0938000E09304
:10021C008700E0938600E0938500E0938400E093F0
:10022C008300E0938200E0936A00EABFE9BFE7BF76
:10023C00E0937D00EBB9E8E9EAB9E6E0E0939500DC
:10024C00E0E0E0939000ECE0E9B9E0E8E8B9E0E048
:10025C00E0BD2AD00E94C8007894D09AD19AD89A3E
:10026C00D99800E010E020E00E94AD003E2FD09A1B
:10027C00D19AD898D99A2AD0E03011F435D0F4CF4D
:10028C00E0E0EA9335D0E03011F42ED0EDCF3A9384
:10029C003CD0E03011F428D0E7CF26D0D09AD19AB8
:1002AC00D89AD998E1CFFFCFE0E0E0937100E0E27B
:1002BC00E0937000E0E0E0937200E4E0E0937400FF
:1002CC000895E0917400E078E1F30895E4EA0E9467
:1002DC009A01A83021F0A0917100A03109F402C05C
:1002EC00E0E00895EFEF0895E4E9E09374000895D9
:1002FC000E94A101A83121F0A0917100A03409F451
:10030C0002C0E0E009C0EFEF07C00E94A101A832D3
:10031C0011F0E0E001C0EFEF219608955D9BFECF58
:10032C00E881ECB921960895E09374000E9467016E
:10033C00A091710008950E946701E881E093730019
:10034C00E4E8F2CFE991F991309639F080ED97E03D
:10035C000197F1F7A8953197C9F708953A932A9325
:10036C001A930A9308953B812A8119810881089573
:00000001FF
