:0C18000031C0FECFFDCFFCCFFBCFFACFF4
:10180C00F9CFF8CFF7CFF6CFF5CFF4CFF3CFF2CFA8
:10181C00F1CFF0CFEFCF79C1EDCF010001004D0139
:10182C000100130200424F4F542050524F47524177
:10183C004D20200064FFF800010000001F00010093
:10184C0005002C1801009403421804009503441859
:10185C000100070048180000F894EE27ECBBF1E0FB
:10186C00FBBFF2E0FBBFE5BFF8E1F1BDE1BD8DE0F0
:10187C00A2E0BB27ED938A95E9F780E094E0A0E61F
:10188C00ED930197E9F7EAE4F8E1859195910097DA
:10189C0061F0A591B59105901590BF01F0010590EF
:1018AC000D920197E1F7FB01F0CFEFE5EDBFE4E01E
:1018BC00EEBFC0E6D1E0B5C0E9E0E0936301E0E43F
:1018CC00E0936401E0E0E0936501E0E6E0936601FB
:1018DC00E0E0E0936701E0E0E0936801E2E0E09390
:1018EC006901E0E0E0936A01E1E0E0936B01E3E67B
:1018FC00F1E0B4D2E0936C01689420F893D208958F
:10190C006DD3EA81EF5FEA83E150ABD2EF9359D20A
:10191C00AF91EA270E2F1127EA81A3D2F0E0FF93B3
:10192C00EF934FD2AF91BF91F0E0AE27BF27FD01EF
:10193C00FE2FE0E00E2B1F2BF80157D323960895B2
:10194C004CD3A895E5E0EA93DBDF8F013AD2A09166
:10195C00A601EA272E2F0030E2E01E0788F4E22FC2
:10196C00D80129D3D8011BD32E1751F4E2E0E09310
:10197C006301E1E0E0936401E3E0E093650109C0F9
:10198C00E2E0E0936301E0E0E0936401E2E0E093E5
:10199C0065012AD32396089522971CD3ECEFF7E127
:1019AC0065D2EDEFF7E166D2D1D2CCD29F01D9014D
:1019BC0088279927A03CEFEFBE07EFE38E07E0E006
:1019CC009E0711F4E0E01FC000E010E040E050E0A2
:1019DC002017310751F0F801E491DA01F0E0EA0F39
:1019EC00FB1FAF010F5F1F4FF3CFEEEFF7E13ED2BE
:1019FC00EFEFF7E13FD2EE83FF83E417F50711F029
:101A0C00E0E001C0E1E0EDD228960895C5DFE030BA
:101A1C0009F40895F894E1E0EBBFE0E0EBBFEAC213
:101A2C000895C3D07894E8B7E2FF05C0E8B7E46046
:101A3C00E8BF26D2EBDF20D1442041F1E091A20196
:101A4C00E03021F0E091A201EF3FF9F4E091A30125
:101A5C00E330B9F0E130A9F0E73041F4689424F8B0
:101A6C00E1E0E0936101E09362010BC0E83011F416
:101A7C0023DF07C0E93011F46BD103C0EA3009F45D
:101A8C005FDFE1E0EA93B9D0FBD14424CCCFFFCFA8
:101A9C00E881E2B9EFEFE3B9E4E0E6BFEBC0E6B70B
:101AAC00E1700895F2D1F1F7E091940308950A934F
:101ABC00ECD1F1F7E981E093930300E0E9D140F434
:101ACC00EAD10F01EDD1EC91D001EC930F5FF6CF81
:101ADC00EED118C0DAD1F1F7EAD108950A93D5D135
:101AEC00F1F7EED171F000E0D3D130F4D9D1D3D1EC
:101AFC00E081EC930F5FF8CFE0916001ED7FE09314
:101B0C006001DED1088124960895AA93BA93EA93D2
:101B1C00FA93EFB7EA93E1B1E83A11F4662402C004
:101B2C00E83B29F4D1D1E081E3B9E5EC36C0E03CE7
:101B3C0041F4E0919303E61511F4CCD101C0D0D15E
:101B4C002BC0E03731F4E0916001E460E093600178
:101B5C0002C0E03641F4E0916001E260E093600184
:101B6C006624E5EC1AC0E03811F0E03939F4ACD158
:101B7C00DF01E3B1EC93AED1E5EC0FC0E03A09F430
:101B8C000BC0E83811F0E83909F402C0E83C09F45C
:101B9C0002C0E03001F4A4D1E4E0E6BFE991EFBF6C
:101BAC00F991E991B991A9911895E7E0E5BBE5E0C8
:101BBC00EEBD66D1E8E9EAB9E6E8E0BDECE0E9B9EA
:101BCC00E3B3E7705E0EE52DEE0FE160EA9360DFA4
:101BDC00089504D200E0AA81BB811C91E12F115021
:101BEC00E03039F0AA81BB81ED91AA83BB830E0F43
:101BFC00F5CFE02FFAD124960895E0916301ED5FC3
:101C0C00E0936101E881E0936201E0916101F0E011
:101C1C00EF59FE4FFF93EF93E1E6F1E01FD1AF9147
:101C2C00BF91EC93689422F825C0D8D100E0EA81EA
:101C3C00E03029F4AB81BC810D91AB83BC83AB81CB
:101C4C00BC811C91E12F1150E03039F0AB81BC818B
:101C5C00ED91AB83BC830E0FF5CFAB81BC81EC91C6
:101C6C00E01711F4E1E001C0E0E0BFD12596089542
:101C7C0031DFE8812196089508D109F041C020D1C7
:101C8C00E1F1E0916001E270A1F12ED1E3E031D1FC
:101C9C00E0916001E47001F0E0919F01E03189F482
:101CAC0023D1E091A101ED5F24D1E0EAF1E0FA93B8
:101CBC00EA93E0E0EA93B9DFE03011F0E1E04E2E78
:101CCC0018C0E03231F422FC03C0E0E0E093610183
:101CDC0007C0E13211F4E89422F8E0E0E0936101EE
:101CEC00E1E6F1E0FA93EA93E0916101EF5FEA93A8
:101CFC00DEDECBD009F4EEDE03C0D4DEEA93B8DF2F
:101D0C00089577B77170E9F708958FB7F894E88163
:101D1C00F981F7DF67BFE8950000000000000000C4
:101D2C00F0DF8FBF089561E1F0DF229608950A80FD
:101D3C001B8061E0EADF2496089563E0E6DF2296DB
:101D4C00089565E0E2DF2296089561E1DEDF0895F3
:101D5C0044D105E0A895CFD01E2F2F2F0E5F103643
:101D6C00E0E02E0708F0FFCFA12FB22FE6E0D5D090
:101D7C001E2F2F2FA8952A931A93D5DFBCD0FA9338
:101D8C00EA932A931A93D3DF0E5F1E5F2F4FE12F36
:101D9C00EF73A1F7105420402A931A93CEDFA89525
:101DAC002A931A93CEDFA895D0DFE2E0E09363018B
:101DBC00E1E0E0936401E3E0E093650115D1239643
:101DCC000895A0919503B0919603809197039091FB
:101DDC009803EDE6FEE466EC71E4BDD0E75CFF4CE5
:101DEC006F4F7F4FE0939503F093960360939703A7
:101DFC0070939803A0919503B091960380919703EB
:101E0C0090919803E8E092D0E0939503F0939603B9
:101E1C006093970370939803E5E67E0EE09195032B
:101E2C00E7250895EAE2F8E1B6D066277727E09334
:101E3C009503F09396036093970370939803EFE1E7
:101E4C007E2EE89421F808955F9BFECFECB10895A7
:101E5C005D9BFECFE881ECB921960895FA93EA9345
:101E6C00B8CEF0E0E156FE4FE0810895E491F0E049
:101E7C00DF010895E491FE2FE0E0EA2BFB2B08959F
:101E8C00E6EFF2EDFDBDECBD089509DEE0300895FE
:101E9C00E9810E170895E02FF0E0E756FD4F089505
:101EAC00E02FAA81BB81F0E0AE0FBF1F0895E0E0E8
:101EBC00E0936001E8EFE0939403E5ECE6BF08954E
:101ECC00E0916001E1700895E62D6394F0E0E7562F
:101EDC00FD4F0895E0916001E160E0936001089589
:101EEC00E1B1E09394030895EFE9F1E0FA93EA93FA
:101EFC000895EA93F3CD0A9303CD998188810096D6
:101F0C0041F0BD81AC81FB81EA8105900D92019776
:101F1C00E1F7FD81EC8126960895EE230E2EFD014E
:101F2C0021F0EE0FFF1F0A94E1F70895EE230E2E19
:101F3C00FD01BC0131F076956795F795E7950A940C
:101F4C00D1F70895EE0FFF1FEE0FFF1FEE0FFF1FCF
:101F5C00EE0FFF1F08957A9F702D6B9F700DF89FE9
:101F6C00700DE99F700D6A9F602D710DFB9F600DC8
:101F7C00711DE89F600D711D8827FA9FF02D610D72
:101F8C00781FEB9FF00D611D781FEA9FE02DF10D7E
:101F9C00681F781F08950590F491E02D0895E1993C
:101FAC00FECFFF93FFB7F894AEBBBFBBE09AEDB387
:101FBC00FFBFFF910895E199FECF9FB7F894AEBB98
:101FCC00BFBBE09A8DB3E81719F0EDBBE29AE19A2A
:101FDC009FBF08955A934A933A932A931A930A935C
:101FEC0008955D814C813B812A8119810881089576
:00000001FF
