:040000000C94320228
:100004000C9400000C9400000C9400000C9400006C
:100014000C9400000C9400000C9400000C9400005C
:100024000C9400000C9400000C9400000C9400004C
:100034000C9400000C9400000C9400000C9400003C
:100044000C9400000C9400000C9400000C9400002C
:100054000C9400000C9400000C9400000C9400001C
:100064000C9400000C9400000C9400000C9400000C
:100074000C9400000C9400000C9400000C940000FC
:100084000C9400000C9400000000400000000000EC
:1000940001004100000000000200490000000000CF
:1000A40003004A000000000004004C0000000000AF
:1000B40005004D0000000200060050000100000091
:1000C4000700510002000000080052000200000076
:1000D40009005800020000000A0059000200000054
:1000E4000B005B00000000000C005C00020001003B
:1000F4000D005D00020001000E005E000200000021
:100104000F00600002000000100061000200000007
:1001140011006200020000001200630002000000EF
:1001240013006400020000001400650002000000D7
:10013400150066000300010016006A0003000100B8
:1001440017007A000000030018007B000300000081
:1001540019006900000000000A0D524541445F4542
:100164005252000A0D426F6F745F5365633A205B0D
:10017400307825582025582025585D205B30782577
:10018400585D205B307825585D000A0D506172740B
:1001940020416464726573733A2020256C58000A08
:1001A4000D42535F6A6D70426F6F743A2020256C64
:1001B40058000A0D4250425F42797473506572537D
:1001C40065633A20202558000A0D4250425F53656A
:1001D40063506572436C75733A20202558000A0DEC
:1001E4004250425F52737664536563436E743A209F
:1001F400202558000A0D4250425F4E756D46415409
:10020400733A20202558000A0D4250425F526F6F06
:1002140074456E74436E743A20202558000A0D42CA
:1002240050425F464154537A31363A2020255800D3
:100234000A0D4250425F546F7453656331363A205D
:1002440020256C58000A0D4250425F4641545479AF
:1002540070653A20204641543132000A0D42504222
:100264005F464154547970653A20204641543136F2
:10027400000A0D4250425F464154547970653A2059
:1002840020464154204552524F522121000A0D4329
:100294006C7573746572436E743A2020256C580033
:1002A4000A0D524F4F545F414444523A2020256C6A
:1002B40058000A0D464154325F414444523A2020CA
:1002C400256C58000A0D526F6F744469725365634C
:1002D400746F72733A20202558000A0D46697273B0
:1002E4007444617461536563746F723A20202558B5
:1002F400000A0D526573657420434D443A20200072
:100304004F4B212121004552524F52212121000DF2
:100314000A496E697469616C697A6174696F6E3ACD
:100324002020004F4B21004552524F522D2578205A
:1003340020000A0D00255820000D0A46696C65202E
:100344004C697374696E6720666F723A2020524F4D
:100354004F545C0020205B002020202020202020FF
:1003640020202020202020205B256C645D206279E1
:10037400746573202020202020282558290D202052
:10038400005D20202020202028255829000D0A2047
:1003940020566F6C756D652053657269616C3A20E7
:1003A400205B3078256C585D000D0A2020566F6C58
:1003B400756D65204C6162656C3A20205B25735D28
:1003C4000D0A0025303258200064656D6F2E64617B
:1003D4007400436F6C756D6E2025642C20436F6C24
:1003E400756D6E2025642C20436F6C756D6E202511
:1003F400642C20436F6C756D6E2025642C20436F34
:100404006C756D6E2025642C20436F6C756D6E20A9
:1004140025642C20436F6C756D6E2025642C20435D
:100424006F6C756D6E2025642C20436F6C756D6E3A
:100434002025642C20436F6C756D6E2025642C0D73
:100444000A00256C642C20000D0A0D0A444F4E4509
:1004540021212100000000000400240858040000A9
:10046400F894EE27ECBBF1E0F5BFE5BFE0936C0038
:10047400EBBFF8E1F1BDE1BD8DE0A2E0BB27ED9358
:100484008A95E9F784E297E0A0E0B1E0ED93019763
:10049400E9F7ECE5F4E085919591009761F0A59179
:1004A400B59105901590BF01F00105900D9201974B
:1004B400E1F7FB01F0CFE3E2EDBFE8E0EEBFC0E01F
:1004C400D5E00C94C318E881EFB9779BFECFEFB168
:1004D4002196089524970E940423C498AE85BB27CF
:1004E400EEE8F0E0FF93EF93E8E0F0E00E943922B9
:1004F400AF91BF91EA0FFB1F04910A930E944F1C16
:10050400E0E9F0E0FF93EF93E8E0F0E00E943922A5
:10051400AF91BF910E94541C022E032A71F440E053
:1005240050E04430E0E05E0738F4E0E0EA930E94F3
:1005340065024F5F5F4FF5CF28C0EA85FB856C8568
:100544007D85E070F07060707F7FDF01CB01E8E1B2
:100554000E945B1CE070F0706F7F70700E942A2212
:100564000E94661CEA85FB856C857D85E070FF7FB3
:1005740060707070DF01CB01E8E00E945B1CEF7FCC
:10058400F070607070700E94661CEE85E03011F4AB
:1005940005E901C00FEF0A930E946A1C0E944F1CD8
:1005A400E2E9F0E0FF93EF93E8E0F0E00E94392203
:1005B400AF91BF910E94541CE22FF32F309721F486
:1005C4000E946F1CF0E088C0E130A0E0FA07E1F47B
:1005D4000E946F1C1E2FE0E0EE83EF83E887E9871B
:1005E400EE81FF81688579850E94E82251F40E949A
:1005F4006F1CFF2766277727EE83FF836887798739
:10060400EFCFE12FF0E068C0E230A0E0FA07D9F4C0
:100614000E946F1C0E94731CE8E00E94FB217F93E0
:100624006F93FF93EF930E946F1CAF91BF918F91D3
:100634009F91FF27662777270E94ED21EE83FF8392
:100644006887798749C0E330A0E0FA0711F00C9479
:100654006C030E946F1C1E2FE0E0E0930005E09302
:100664000105E0930205E09303050E946F1C0E94BC
:10067400731CE8E10E94FB21E0930005F09301055F
:1006840060930205709303050E946F1C0E947F1CF7
:100694000E942F220E94871C0E94731CE8E00E9483
:1006A400FB210E94871C0E947F1CA0910005B09131
:1006B400010580910205909103050E94ED21E093CC
:1006C4000005F09301056093020570930305E12F83
:1006D400F0E002C0E0E0F0E00E940B232F960895C2
:1006E400C49A0E949A1C0E946502089524970A9352
:1006F400E7B3E760E7BBBB98BC9A0E949D1CEEB9C8
:10070400E0E0F2E06E2E7F2EE0E0E0935007E0930D
:100714005107E0935207E0935307D4D3E03011F428
:10072400E0E0B6C3E0E0E983EA83EB83EC83A981EC
:10073400BA818B819C81A436E0E0BE07E0E08E079D
:10074400E0E09E0710F0003041F4C4980E946F1C52
:100754000E2FC49A0E94A11CEACFE0E0E983EA8349
:10076400EB83EC83A981BA818B819C81A436E0E080
:10077400BE07E0E08E07E0E09E07A0F4E4D3E0309B
:1007840089F4A981BA818B819C81A336E0E0BE07FC
:10079400E0E08E07E0E09E0711F4E0E079C30E94F8
:1007A400A11CE0CFE0E0F0E060E070E00E94AE1C4D
:1007B40041F4ECE5F1E0FA93EA9380E00E94B41C82
:1007C40067C3B091CB06A0E0E091CA06F0E0EA2B43
:1007D400FB2B4E2E5F2EA0910405AB3E21F4E0913D
:1007E4000605E03921F0A0910405A93E51F4E091F9
:1007F4000207E53521F4E0910307EA3A09F001C064
:1008040001C002C044245524E42DF52D0E94BB1CD4
:10081400E0931E07F0931F0760932007709321074E
:10082400042C052859F00E94AE1C41F4ECE5F1E0DB
:10083400FA93EA9380E00E94B41C2AC3E7E6F1E04D
:10084400FA93EA93E0910405FF27662777270E942D
:10085400D122E0910505FF27662777270E94D12240
:10086400E0910605FF27662777270E94D122E091B1
:100874000207FF27662777270E94D122E09103070A
:10088400FF27662777270E94D12284E10E94511B0B
:100894006696E0910405FF27662777270E942F229A
:1008A400DF01CB01F0910505E0E00E9434220E94B3
:1008B400ED21DF01CB01E0910605F0E00E94342236
:1008C4000E94ED21E0930407F09305076093060767
:1008D40070930707B0911005A0E0E0910F05F0E0D8
:1008E400EA2BFB2B6E2E7F2EE1E1F5E08080B091A8
:1008F4001305E0911205F0E0EA2BFB2B9E2EAF2EA0
:10090400E4E1F5E0B080B0911605E0911505F0E062
:10091400EA2BFB2BCE2EDF2EB0911B05E0911A059E
:10092400F0E0EA2BFB2BE0930807F0930907B09162
:100934001805E09117050E94C61CE0930A07F0937E
:100944000B0760930C0770930D070E94E82239F59A
:10095400E09127050E94CC1CE09126050E94D71C3B
:100964007F936F93FF93EF93E09125050E94DF1C23
:10097400AF91BF918F919F910E94ED21DF01CB0137
:10098400E0912405FF27662777270E94ED21E09355
:100994000A07F0930B0760930C0770930D07E0911F
:1009A4002E050E94CC1CE0912D050E94D71C7F933C
:1009B4006F93FF93EF93E0912C050E94DF1CAF919E
:1009C400BF918F919F910E94ED21DF01CB01E091B6
:1009D4002B05FF27662777270E94ED21E0930E075A
:1009E400F0930F076093100770931107E0E0E98319
:1009F400EA83EB83EC83A981BA818B819C81AB3040
:100A0400E0E0BE07E0E08E07E0E09E07B0F4E98195
:100A1400FA816B817C81EE5EF84FDF01E981FA8116
:100A24006B817C81E55DFF4F6F4F7F4FEC5FFA4F29
:100A3400E081EC930E94A11CDECFE0E0E0931D076F
:100A4400E92DFA2D0E94BB1CA0911E07B0911F072F
:100A540080912007909121070E94DE21E0932A07CC
:100A6400F0932B0760932C0770932D07E0910807F0
:100A7400F09109070E94BB1CA0912A07B0912B0793
:100A840080912C0790912D070E94DE21E0932E0780
:100A9400F0932F076093300770933107EB2DFF27F6
:100AA40066277727DF01CB01E0910807F09109075A
:100AB400662777270E946122DF01CB01E92DFA2DF9
:100AC400662777270E94DE21E0932207F09323070D
:100AD4006093240770932507E62DF72DA091220734
:100AE400B0912307809124079091250766277727E3
:100AF4000E944122E0932207F09323076093240786
:100B040070932507E0911E07F0911F07609120075D
:100B140070912107A0912207B091230780912407A7
:100B2400909125070E94DE21E0932207F09323078A
:100B34006093240770932507EC2DFD2DEE0FFF1F06
:100B44000E941322E60DF71D0E94E81C0E946622F3
:100B540066277727E0933207F093330760933407CF
:100B640070933507E0910807F0910907AB2DB0E0C9
:100B74000E943922E90DFA1DDF01E0913207F0915C
:100B840033076091340770913507882799270E94AD
:100B9400DE21E0933607F0933707A0910A07B0915E
:100BA4000B0780910C0790910D070E94ED1CE093B8
:100BB4004107F09342076093430770934407E82D7D
:100BC400A0914107B0914207809143079091440757
:100BD400FF27662777270E947922E0934107F09345
:100BE40042076093430770934407E0E0E0934C07A7
:100BF400E0934D07E0934E07E0934F07E1E0F0E008
:100C0400E0935407F0935507A0914107B091420730
:100C14008091430790914407A53FEFE0BE07E0E0D1
:100C24008E07E0E09E0718F4E2E3EE2E19C0A091CF
:100C34004107B09142078091430790914407A53F33
:100C4400EFEFBE07E0E08E07E0E09E0718F4E6E36E
:100C5400EE2E06C0EE24ECE0E0933C07E0E018C181
:100C6400E0912207F09123076091240770912507F2
:100C7400E0932607F09327076093280770932907CA
:100C8400ECE5E0935607E0E0E0935707EEE8F1E087
:100C9400FA93EA93E0911E07F0911F0760912007F1
:100CA400709121070E94D12284E00E94511B269654
:100CB400E3EAF1E0FA93EA93E0910407F09105077F
:100CC40060910607709107070E94D12284E00E9478
:100CD400511B2696E6EBF1E0FA93EA93E62DF72D05
:100CE400662777270E94D12284E00E94511B269612
:100CF400ECECF1E0FA93EA93E82DFF2766277727D7
:100D04000E94D12284E00E94511B2696E2EEF1E07B
:100D1400FA93EA93E92DFA2D662777270E94D122C8
:100D240084E00E94511B2696E8EFF1E0FA93EA93DF
:100D3400EB2DFF27662777270E94D12284E00E94AB
:100D4400511B2696EBE0F2E0FA93EA93EC2DFD2D8D
:100D5400662777270E94D12284E00E94511B2696A1
:100D6400E1E2F2E0FA93EA93E0910807F0910907CF
:100D7400662777270E94D12284E00E94511B269681
:100D8400E4E3F2E0FA93EA93E0910A07F0910B07A7
:100D940060910C0770910D070E94D12284E00E949B
:100DA400511B2696E2E3EE1549F4E9E4F2E0FA93E6
:100DB400EA9380E00E94511B229611C0E6E3EE15EF
:100DC40031F4EFE5F2E0FA93EA9380E005C0E5E759
:100DD400F2E0FA93EA9380E00E94511B2296E1E943
:100DE400F2E0FA93EA93E0914107F09142076091AF
:100DF4004307709144070E94D12284E00E94511B52
:100E04002696E4EAF2E0FA93EA93E0912207F0915D
:100E1400230760912407709125070E94D12284E062
:100E24000E94511B2696E6EBF2E0FA93EA93E091D6
:100E34002E07F0912F0760913007709131070E94BF
:100E4400D12284E00E94511B2696E8ECF2E0FA934A
:100E5400EA93E0913207F09133076091340770917F
:100E640035070E94D12284E00E94511B2696EEEDA4
:100E7400F2E0FA93EA93E0913607F0913707662798
:100E840077270E94D12284E00E94511B2696E1E03C
:100E9400088125960895EDB1E03519F4E1E5EDB941
:100EA4000FC0EDB1E13519F4E2E5EDB909C0EDB1DA
:100EB400E23519F4E3E5EDB903C00E949D1C0895E1
:100EC400E1E008950E940723E5EFF2E0FA93EA9344
:100ED40080E00E94511B229620E0243090F5C49AB1
:100EE40010E01A3020F40E946F1C1F5FFACFE0E07C
:100EF4000E94F41C10E0183C98F4013061F4C49A88
:100F0400E4E0F3E0FA93EA9380E00E94511B229616
:100F14000E94FF1C57C00E946F1C0E2F1F5FEBCF57
:100F2400EAE0F3E0FA93EA9380E00E94511B2296F0
:100F34000E944D07E03019F4C49AE0E043C02F5FEB
:100F4400CCCFE0E03FC00E9407230E947203E3E19C
:100F5400F3E0FA93EA9380E00E94511B229610E09A
:100F640020E0183EE3E02E0790F4E1E00E94F41C38
:100F7400003069F00E946F1C0E2F003041F00E9477
:100F84006F1C0E2F003019F01F5F2F4FEACF003077
:100F940051F4E7E2F3E0FA93EA9380E00E94511BF4
:100FA4002296E1E00FC0EBE2F3E0FA93EA93E02F3C
:100FB400FF27662777270E94D12284E00E94511BD5
:100FC4002696E0E00E940E232396089524970A9320
:100FD4000E94031D19F00E94101D61C00E9472033B
:100FE400E7E00E94151DE0E0E983EA83EB83EC83EC
:100FF400A981BA818B819C81A83EE3E0BE07E0E031
:101004008E07E0E09E0740F40E3F31F00E946F1C13
:101014000E2F0E94A11CECCF0E3FC9F5E0E0E9833E
:10102400EA83EB83EC83E62DF72DA981BA818B81CA
:101034009C81662777270E94FF2280F4E981FA8148
:101044006B817C81EC5FFA4FFF93EF930E946F1CDE
:10105400AF91BF91EC930E94A11CE5CF0E949A1C12
:101064000E946A1C0E946502C49AE0E0E0933C0777
:10107400ED81FE816F817885E0933D07F0933E0713
:1010840060933F07709340070E94FF1C08C0C49AF6
:101094000E944D07E03009F0A1CF0E94101D088185
:1010A400299608950E9405230E94031D79F4E09176
:1010B4001E07F0911F076091200770912107AD81F1
:1010C400BE818F8198850E94FA2218F00E94201D0B
:1010D4004CC00E947203E9E00E94151D20E030E03C
:1010E40040E0383EE3E04E0750F4003011F421E0D4
:1010F40006C00E946F1C0E2F3F5F4F4FF2CF20306F
:1011040061F10E946F1CEEEFEA930E94650230E0E9
:1011140040E03615470558F4A4E0B5E0A30FB41F2A
:10112400EC91EA930E9465023F5F4F4FF2CF0E9419
:101134009A1C0E946A1C0E9465020E2FE02FE06E2A
:101144001E2F153E51F40E946F1CE030E1F3C49A47
:10115400E0E0E0933C07E1E008C0C49A0E944D0738
:10116400E03009F0B6CF0E94201D0E940C2329967E
:101174000895A881A03218F4EFEFFFEF22C0A881F0
:10118400A232D1F0AA32C1F0AB32B1F0AC32A1F04C
:10119400AE3291F0AF3281F0AA3318F0EFE3EA17E0
:1011A40058F4A881AB3518F0EDE5EA1728F4A881C6
:1011B400AC3711F0A53E19F4EFEFFFEF02C0E0E009
:1011C400F0E0219608956B970E940423E0E0EC8BF5
:1011D40000E010E0E9A1FAA1ED8BFE8BE0E0EF8FD7
:1011E400E8A3AF8DB8A1AB30E0E0BE0710F00C94DB
:1011F4004209AD89BE890E94251DA1F4EF8DF8A195
:10120400DE011696EA0FFB1FFF93EF93AD89BE89AB
:10121400ED91AD8BBE8BEA930E94D321AF91BF9128
:10122400EC932BC0AD89BE89AC91AE32A1F4AF8DE5
:10123400B8A1A830E0E0BE0718F40E942B1DF7CF38
:10124400EF8DF8A13197EF8FF8A30E94381DEC8938
:10125400E160EC8B12C0AD89BE89EC91E03051F4B1
:10126400AF8DB8A1AB30E0E0BE0718F40E942B1D8F
:10127400F7CF03C00E943E1D10C10E94491DB1CF8B
:10128400E0E0E98BABA1BCA10E94C222A09122079D
:10129400B091230780912407909125070E94FA2298
:1012A40019F42C2D3D2D1AC0ABA1BCA10E94C22261
:1012B4000E94D12228D1ED8FFE8F309719F0EC894E
:1012C400E068EC8B0E944F1DDF01CB01E0E2F0E00F
:1012D40060E070E00E949F222E2F3F2FE0E0EF8F0E
:1012E400E8A30217130710F00C944D0AABA1BCA19C
:1012F4000E94C2227F936F93FF93EF930E945C1D21
:10130400AF91BF918F919F910E94DE210E94AE1CEC
:1013140009F4C1C040E050E04031E0E05E0710F065
:101324000C94240A0E94691DEC5FFA4FEF8BF88F2E
:10133400FE013696ED8BFE8BAF89B88DEC91E030D3
:10134400E1F4EC89E071A1F4ABA1BCA10E94C2223A
:101354007F936F93FF93EF930E945C1DAF91BF91B6
:101364008F919F910E94E3210E94691D0E94701D2C
:101374000E94791DE0E0F0E090C0AF89B88DAC9197
:10138400A53EC1F4ABA1BCA10E94C2227F936F937E
:10139400FF93EF930E945C1DAF91BF918F919F913A
:1013A4000E94E3210E94691D0E94701DEC89E06186
:1013B400EC8B43C0EC89E170E9F00E94821DC9F412
:1013C400ABA1BCA10E94C2227F936F93FF93EF93C2
:1013D4000E945C1DAF91BF918F919F910E94E32168
:1013E4000E94691D0E94701D0E94791DEFEFFFEF9E
:1013F40054C023C00E94821D31F4AF89B88D1B965E
:10140400EC91E07109F419C0ABA1BCA10E94C22205
:101414007F936F93FF93EF930E945C1DAF91BF91F5
:101424008F919F910E94E3210E94691D0E94701D6B
:101434000E94791DEFEFFFEF30C00F5F1F4F4F5F2A
:101444005F4F6ACF0E94491D2017310719F5EC89B7
:10145400E07801F1ED8DFE8DFA93EA930E94901DE0
:10146400EF8FF8A3AF8DB8A1AF3FEFEFBE0791F0B8
:10147400EF8DF8A1FA93EA9314D0ABA1BCA10E941A
:10148400C822EF8DF8A1ED8FFE8F00E010E0E0E0C0
:10149400EF8FE8A326CF0E943E1D0E940B23A59642
:1014A40008952497AC81BD811297E82DFF27662704
:1014B4007727882799270E944122DF01CB01E091F9
:1014C4003607F0913707662777270E94DE21E093DD
:1014D4003807F093390760933A0770933B07E62D7A
:1014E400F72D66277727A0913807B09139078091A7
:1014F4003A0790913B070E94941DE883F9836A831D
:101504007B8326960895E0911E07F0911F07609152
:10151400200770912107A881B9818A819B810E944B
:10152400FA2218F0E0E0F0E064C0A0911E07B09148
:101534001F078091200790912107E881F9816A8132
:101544007B810E94E821E883F9836A837B83E62D0B
:10155400F72DA881B9818A819B81662777270E940C
:101564007922E883F9836A837B83E0913607F091DB
:10157400370766277727A881B9818A819B810E94D2
:10158400FA2218F0E0E0F0E034C0E0913607F09180
:101594003707A881B9818A819B810E94ED1CE88369
:1015A400F9836A837B83E82DA881B9818A819B8131
:1015B400FF27662777270E947922E883F9836A83C5
:1015C4007B83EE5FFF4F6F4F7F4FE883F9836A831E
:1015D4007B83A881B9818A819B81EFEFFFEF60E073
:1015E40070E00E94FA2218F4E0E0F0E002C0E88122
:1015F400F9812496089526970E940423AD85BE851B
:10160400E1E0F0E0EA17FB0718F0EFEFFFEF17C196
:10161400E6E3EE1511F00C94610B0E94A11D0E94EB
:10162400A81D0E94A11D0E94AF1D0E94B81DA130DB
:1016340059F4EE81FF81688579850E94AE1C19F406
:10164400EFEFFFEFFCC02CC0AC85A03011F0A2304E
:1016540039F50E94CE1D21F1E0913D07F0913E073E
:1016640060913F07709140070E94E82279F00E9440
:10167400DD1D30F40E94F01D19F4EFEFFFEFDFC021
:101684000E94121E19F4EFEFFFEFD9C0EE81FF8123
:10169400688579850E94AE1C19F4EFEFFFEFCFC087
:1016A4000E94201EE0E0FF93EF930E94271EAF915B
:1016B400BF91F0E0EA2BFB2BEA87FB87BEC0E2E395
:1016C400EE1511F00C941C0C0E942D1EF695E79556
:1016D4002E2F3F2F0E942D1EE170F0704E2F5F2F92
:1016E4000E94341E0E94391EE62DF72DA02FB12F23
:1016F4000E943922A0911E07B0911F0780912007F4
:1017040090912107662777270E94DE21EE83FF83CD
:1017140068877987AC85A13039F40E94AE1C19F42E
:10172400EFEFFFEF8CC02CC0AC85A03011F0A230DD
:1017340039F50E94CE1D21F1E0913D07F0913E075D
:1017440060913F07709140070E94E82279F00E945F
:10175400DD1D30F40E94F01D19F4EFEFFFEF6FC0B0
:101764000E94121E19F4EFEFFFEF69C0EE81FF81B2
:10177400688579850E94AE1C19F4EFEFFFEF5FC016
:101784000E94271EF0E0EA87FB870E94421E91F523
:10179400E02FF12F31960E94B81DA03019F0AC85CE
:1017A400A230D9F40E94DD1D30F40E94F01D19F41A
:1017B400EFEFFFEF44C00E94121E19F4EFEFFFEFAA
:1017C4003EC0EE81FF8168857985E0933D07F09303
:1017D4003E0760933F0770934007EE81FF81688561
:1017E40079850E94AE1C19F4EFEFFFEF28C0F09149
:1017F400040502C00E94201EE0E0AA85BB85EA2BF6
:10180400FB2BEA87FB87042E052A19F00E941C2271
:1018140003C0EA85FB85FF70EA87FB87AA85BB8541
:10182400A83FEFE0BE0728F0EA85FB85F06FEA8762
:10183400FB8703C0EFEFFFEF02C0EA85FB850E9440
:101844000B232F9608951A930A9310E000E00E30AC
:10185400C0F50E94481E0E94251D79F4E12F1F5FE8
:10186400F0E0E654F84FFF93EF930E94481E0E9465
:101874004F1EAF91BF91EC9320C00E94481EAC91C3
:10188400AE3241F4183028F4E12F1F5F0E94531E3A
:10189400F9CF13C00E94481EEC91E03041F41B3094
:1018A40028F4E12F1F5F0E94531EF9CF0AC0E5E020
:1018B400E0933C07E0E0F0E00CC01B3010F40F5F55
:1018C400C6CFA12FB0E0A654B84FE0E0EC93EAEB0A
:1018D400F7E019810881249608952C970E94052326
:1018E400E0912A07F0912B0760912C0770912D0746
:1018F400ED83FE836F837887E1E0F0E0EF87F88B78
:10190400A989BA890E94EC2219F4E6E3EE1509F0DC
:1019140021C0ED81FE816F817885A0914C07B09143
:101924004D0780914E0790914F070E94FA2290F440
:10193400E0914C07F0914D0760914E0770914F076D
:10194400ED83FE836F837887E0915407F091550708
:10195400EF87F88B01E0E0912E07F0912F0760915B
:10196400300770913107AD81BE818F8198850E94C7
:10197400FF2210F00C940D0EE6E3EE1511F00C941A
:10198400760DE989FA89309791F4ED81FE816F81B2
:101994007885E0934C07F0934D0760934E0770935E
:1019A4004F07EF85F889E0935407F0935507ED81CD
:1019B400FE816F8178850E94AE1C19F4E0E0F0E0AE
:1019C4002CC1E0915007F09151076091520770913A
:1019D40053070E94E82281F0E0915007F0915107EB
:1019E400ED87FE87E0E0E0935007E0935107E09332
:1019F4005207E093530703C0E0E0ED87EE873D858F
:101A04004E85E62DF72DF695E7953E174F0710F016
:101A14000C94710DE32FF42FEE0FFF1F31960E94EB
:101A24005A1EDF01E32FF42FEE0FFF1FEC5FFA4F76
:101A3400E0810E94C61CE987FA876B877C87E32FC5
:101A4400F42F662777277F936F93FF93EF93E62D09
:101A5400F72D662777270E942522DF01CB01EF852A
:101A6400F88966277727E150F040604070400E9473
:101A74004122AF91BF918F919F910E94DE211E2F31
:101A84002F2F0E945F1EB1F4E985FA856B857C8552
:101A94000E94E82261F4E32FF42F66277727E0936E
:101AA4005007F09351076093520770935307E12F47
:101AB400F22FB3C0E0914107F091420760914307D0
:101AC40070914407A12FB22F882799270E94FA22E8
:101AD40018F40E946A1EA1C03F5F4F4F92CF0E942C
:101AE400701E0E947D1E96C0E2E3EE1511F00C9468
:101AF400090E003059F0ED81FE816F8178850E94D6
:101B0400AE1C19F4E0E0F0E088C000E0EF85F8894D
:101B140066277727A3E0B0E080E090E00E944122AE
:101B24000E9425221E2F2F2FE62DF72DA12FB22F35
:101B34000E94A4221E2F2F2FE12FF22F1F5F2F4F61
:101B4400EC5FFA4FE081FF2766277727E987FA875A
:101B54006B877C8761167206A1F40E94701EED816A
:101B6400FE816F8178850E94AE1C19F4E0E0F0E0FC
:101B740054C0F0910405E0E00E94831E10E020E0D0
:101B840008C0E12FF22F1F5F2F4F0E945A1E0E94A0
:101B9400831EEF85F889E17041F0A985BA858B85AC
:101BA4009C85E4E00E94072208C0E985FA856B85DC
:101BB4007C85EF7FFF7060707070E987FA876B87B0
:101BC4007C870E945F1E19F4EF85F88926C0E09196
:101BD4004107F09142076091430770914407AF8534
:101BE400B889882799270E94FA2218F40E946A1E4D
:101BF40014C06116720621F4EF85F889E17009F4C6
:101C040003C00E94701E01E00E947D1E03C0E0E03C
:101C1400F0E003C0A0CE0E946A1E0E940C236396CB
:101C2400089529970E940423AA89BB89E1E0F0E082
:101C3400EA17FB0710F0E0E08EC1E6E3EE1511F0C1
:101C44000C94880E0E94901E0E94A81D0E94901E53
:101C54000E94AF1D66277727A0E0B2E080E090E005
:101C64000E94941D0E94971E51F4EB85FC856D859E
:101C74007E850E94AE1C11F4E0E06DC129C0AF85E1
:101C8400A03011F0A23021F50E949E1E09F1E091CE
:101C94003D07F0913E0760913F07709140070E9415
:101CA400E82269F00E94DD1D28F40E94F01D11F461
:101CB400E0E051C10E94121E11F4E0E04CC1EB853A
:101CC400FC856D857E850E94AE1C11F4E0E043C165
:101CD4000E94AD1EDF01E989F070EC93A22FB32FAF
:101CE400AC5FBA4FE889F989F0700E94B31E19F00D
:101CF400AF85A23051F40E94B71E11F4E0E02BC16D
:101D04000E94D51E11F4E0E026C124C1E2E3EE15E1
:101D140011F00C94AA0F0E94DF1EF695E7952E2F62
:101D24003F2F0E94DF1EE170F070E987FA870E945E
:101D3400341E0E94391EE02FF12F0E94BB1CA0917B
:101D44001E07B0911F0780912007909121070E94E0
:101D5400DE210E94971E51F4EB85FC856D857E85FE
:101D64000E94AE1C11F4E0E0F6C029C0AF85A0309B
:101D740011F0A23021F50E949E1E09F1E0913D0769
:101D8400F0913E0760913F07709140070E94E8225E
:101D940069F00E94DD1D28F40E94F01D11F4E0E0BA
:101DA400DAC00E94121E11F4E0E0D5C0EB85FC8578
:101DB4006D857E850E94AE1C11F4E0E0CCC0E889FC
:101DC400F989EF70F070EE83E889F9890E941C228A
:101DD400EF70F070EF83E989F070EF70F070E887CE
:101DE4000E94421E11F00C94590FE985FA85309730
:101DF40069F10E94271E0E94E61EFF93EF930E9442
:101E0400EF1EAF91BF91EC930E94B71E11F4E0E076
:101E1400A2C00E94D51E11F4E0E09DC00E94F81EED
:101E240011F4E0E098C00E94071F0E940D1F19F0F2
:101E3400AF85A23051F40E94B71E11F4E0E08BC0CC
:101E44000E94D51E11F4E0E086C030C0E22FF32FCB
:101E5400EC5FFA4FFF93EF930E94121FAF91BF9173
:101E6400EC930E94B71E11F4E0E075C00E94D51EE9
:101E740011F4E0E070C00E94F81E11F4E0E06BC0C1
:101E8400E09104050E94181F0E941D1F0E940D1F4F
:101E940019F0AF85A23051F40E94B71E11F4E0E0AE
:101EA4005AC00E94D51E11F4E0E055C050C0E98527
:101EB400FA85309721F10E94271E0E94E61EFF93A7
:101EC400EF930E94EF1EAF91BF91EC930E94AD1E61
:101ED400FF93EF930E94071FAF91BF910E94B31E1F
:101EE40019F0AF85A23051F40E94B71E11F4E0E05E
:101EF40032C00E94D51E11F4E0E02DC028C0E22FAC
:101F0400F32FEC5FFA4FFF93EF930E94121FAF91F0
:101F1400BF91EC930E94AD1EE0810E94181F0E94A5
:101F2400AD1EFF93EF930E941D1FAF91BF910E94BE
:101F3400B31E19F0AF85A23051F40E94B71E11F4FC
:101F4400E0E009C00E94D51E11F4E0E004C002C024
:101F5400E0E001C0E1E00E940B2364960895269717
:101F64000E940523EB85FC85309711F4E0E083C0E3
:101F7400AB85BC85A45EBD4F0E94C222EF83F88767
:101F840069877A870E94241F0E94E807E03011F4D1
:101F9400E0E071C00E942D1F7A96EC5FFA4F1E2F6D
:101FA4002F2F2F931F931F5F2F4F0E94331FF0700B
:101FB400AF91BF91EC932F931F931F5F2F4F0E94FC
:101FC400331FEF2FF0E0AF91BF91EC9300E00430AA
:101FD40030F40E94391F1F5F2F4F0F5FF8CF0E940C
:101FE4002D1F7696EC5FFA4F1E2F2F2FE0E0EF8324
:101FF400E887E987EA8700E00430F8F4AF81B88520
:1020040089859A85E8E00E94FB21EF83F887698738
:102014007A87A12FB22FEC91AF81B88589859A85F3
:10202400FF27662777270E94ED21EF83F8876987CA
:102034007A87115020400F5FDFCFEF81F8856985E3
:102044007A85EF5FFF4F6F4F7F4FEF83F887698784
:102054007A8700E0043030F41F5F2F4F0E94391F4D
:102064000F5FF8CF0E94241F0E945408E03011F43F
:10207400E0E001C0E1E00E940C232D9608950E9447
:102084000623EC81FD81309711F4E0E03DC02C8102
:102094003D81E0E0E0933D07E0933E07E0933F0796
:1020A400E0934007E8EFFFEFE217F307B8F00E9470
:1020B400501F0E2F1F2F083FEFEF1E0720F40024A0
:1020C4000016010609F40AC00E94561F0E945D1FF3
:1020D40011F4E0E019C0202F312FE4CF0E94561FE5
:1020E4000E94631F11F4E0E00FC0E0E0E0934C07AE
:1020F400E0934D07E0934E07E0934F07E0E0E09351
:102104005407E0935507E1E00E940D2326960895B5
:102114000E940623E0912607F09127076091280783
:1021240070912907AE81BF810E94C8222885398514
:102134000E94691F91F4E0912207F09123076091B6
:10214400240770912507E0932607F09327076093EF
:102154002807709329072F5F3F4F0C811D810E9430
:102164006E1F81F1A22FB32F0E94251D29F0A22FEB
:10217400B32FAC91AE3271F41F930F930F5F1F4FC7
:10218400A22FB32F2F5F3F4F0E944F1EAF91BF91DD
:10219400EC9317C00E94691F89F40E94731FEC819D
:1021A400FD81FA93EA9316D0309719F0EFEFFFEF21
:1021B4000DC00C811D812F5F3F4F03C0EFEFFFEF78
:1021C40005C0CDCF0E94731FE0E0F0E00E940D2314
:1021D4002A96089568970E940523AD8DBE8DAC9113
:1021E400AE3261F4AD8DBE8D1196AC91AE3231F448
:1021F400AD8DBE8D1296AC91A03009F048C0E0912F
:102204002207F09123076091240770912507A0917C
:102214002607B091270780912807909129070E94EB
:10222400FA2219F4EFEFFFEFF5C0E0912607F091E1
:10223400270760912807709129070E94AE1C19F4A2
:10224400EFEFFFEFE7C0B0913F05A0E0E0913E055E
:10225400F0E0EA2BFB2BED87FE87309729F0FA9309
:10226400EA930E94530A08C0E0912207F0912307E1
:102274006091240770912507E0932607F0932707C0
:102284006093280770932907E0E0F0E0C3C00D8D48
:102294001E8DFE013F962E2F3F2FFE017A962E179C
:1022A4003F0718F5A02FB12F0E94251D71F43F930D
:1022B4002F932F5F3F4FA02FB12F0F5F1F4F0E940F
:1022C4004F1EAF91BF91EC930FC0A02FB12FEC9193
:1022D400E03039F4A22FB32F2F5F3F4FE0E2EC93AD
:1022E40003C0EFEFFFEF96C0D8CFA22FB32FE0E0EB
:1022F400EC93E0E0ED87EE87E0E0EF83E88740E0F1
:10230400AF81B885AC15BD0510F00C940A12ED85AB
:10231400FE850E94781F0E94E807E0E0EB87EC87C7
:10232400AB85BC85A031E0E0BE0710F00C9404122C
:10233400EB85FC85EE0FFF1F0E941322ED83FE83C5
:10234400EC5FFA4FE081E03019F4EFEFFFEF62C089
:10235400E0E0E987EA87A985BA85AB30E0E0BE070B
:1023640008F5E985FA85DE011F96AE0FBF1FEC91D3
:10237400EF93E985FA85AD81BE81EA0FFB1FEC5F1F
:10238400FA4FE081AF91EA1711F441E005C040E053
:10239400EBE0F0E0E987FA87E985FA853196E98789
:1023A400FA87D9CF403019F1ED81FE810E948B1F4D
:1023B400E03111F040E01BC0ED81FE817B960E946C
:1023C4005A1EDF01ED81FE810E94901FE987FA8782
:1023D400FA93EA930E94530AE0932607F09327079F
:1023E4006093280770932907E0E0F0E013C0EF81C1
:1023F400F8853196EF83F887EB85FC853196EB877A
:10240400FC878ECFED85FE853196ED87FE8778CFEC
:10241400EFEFFFEF0E940C236F9608950E94981F20
:1024240019F00E94B01F95C2EC89E03019F40E94A3
:10243400B01F8FC20E94BF1FA885B9858A859B855E
:102444000E94F42221F000240216030619F40E94CB
:10245400B01F7FC2E0E0EE83EF83E9E2F2E0FA939B
:10246400EA930E94251C0E94D81F31F4E9E0E0930E
:102474003C070E94B01F6DC2AE81BF81A45EBD4FF8
:10248400E6E5F4E464E376E40E94C822AE81BF8109
:102494001C96E4EEF0E0ED93FC93AE81BF81A05E68
:1024A400BD4FE6E4F4E466E675E40E94C8220E94A7
:1024B400DC1F0E94EF1F19F40E94B01F4AC20E9441
:1024C400F41F19F40E94FE1F44C20E94042011F458
:1024D4000C949813AAA1A23011F0A33031F4E42F84
:1024E400F52F0E948B1FE17009F403C00E940D2098
:1024F40030C200E010E00C30E0E01E0798F4E02F5A
:10250400F12FAE81BF81EA0FFB1FFF93EF93AAEB7C
:10251400B7E0A00FB11FEC91AF91BF91EC930F5FA7
:102524001F4FE9CFE42FF52F7B960E945A1EDF013F
:10253400E42FF52F0E94901FAE81BF811C96ED936E
:10254400FC930E941120AE81BF811E96ED93FC93F3
:10255400AE81BF810E9417200E941D200E94282066
:1025640000E010E00430E0E01E0790F5EE81FF810A
:10257400E45EFD4FFF93EF93DF010E94C222DF016F
:10258400CB01E8E00E94FB21AF91BF910E94C822D9
:10259400EE81FF81E45EFD4FFF93EF93DF010E9424
:1025A400C2227F936F93FF93EF930E943020EC91AC
:1025B400AF91BF918F919F91FF27662777270E9444
:1025C400ED21AF91BF910E94C8220F5F1F4FCACF68
:1025D400AE81BF81A05EBD4FE0E0F0E060E070E05E
:1025E4000E94C822AAA1A23051F50E94282000E02E
:1025F40010E00630E0E01E0738F40E943020E0E0EE
:10260400EC930F5F1F4FF5CF0E943720C1F0E22FEC
:10261400F32F0E94781F0E945408E03019F40E949E
:10262400FE1F97C10E941D200E9440200E9441105D
:10263400AE81BF811C96E0E0F0E0ED93FC930E9434
:1026440047200E94901DAE81BF815096ED93FC936C
:102654000E94372021F40E941120309709F008C00D
:10266400AAA1A13019F40E940D2073C1E2E0EAA3EB
:10267400E885F9856A857B85AE81BF8156960E947F
:10268400C822E42FF52FAE81BF815A96ED93FC93B7
:102694000E944E20AAA1A33079F4EE81FF810E940A
:1026A4005620E1E0EA93B5D3EF3FAFEFFA0719F410
:1026B4000E94FE1F4EC122C00E9447200E94530A5E
:1026C4000E94D1220E94E80700E010E006151705D9
:1026D40060F40E945F20FF93EF930E946520AF9106
:1026E400BF91EC930F5F1F4FF1CFEE81FF817C967A
:1026F400AE81BF81A95DBD4FED93FC93EAA1AE818C
:10270400BF81AC5DBD4FEC93E0E0E0933C07EC850A
:10271400FD856E857F85E0932607F09327076093F8
:10272400280770932907EE81FF8113C1E2E0E0934B
:102734003C070E94FE1F0DC10CC12C971A930A93EB
:1027440000E010E00C30E0E01E07ACF4E02FF12FC5
:10275400DE011296EA0FFB1FFF93EF93E02FF12F98
:10276400AF85B889EA0FFB1FE491AF91BF91EC9359
:102774000F5F1F4FE7CFFE013296FA93EA93E88981
:10278400EA9304D019810881619608950E94981FE4
:1027940031F0EEE0E0933C070E94B01FDAC0EC8910
:1027A400E03019F40E946B20D4C00E94BF1FE8855A
:1027B400F9856A857B850E94E82231F4EFE0E09395
:1027C4003C070E94B01FC5C00E94DC1F0E94EF1F7F
:1027D40031F4E4E0E0933C070E94B01FBAC00E94C9
:1027E400F41F19F40E946B20B4C00E94042071F0FD
:1027F400E42FF52F0E948B1FE170E13031F4E6E005
:10280400E0933C070E94B01FA4C05AC000E010E04F
:102814000B30E0E01E0780F40E946F203197FF9395
:10282400EF93A889B989ED91A88BB98BAF91BF912A
:10283400EC930F5F1F4FECCFAA89BB89E0E2EC93C6
:102844000E946F200E9475200E94752000E010E015
:102854000430E0E01E0728F40E9475200F5F1F4F2C
:10286400F7CF0E9475200E9475200E9475200E9457
:10287400752000E010E00430E0E01E0728F40E9418
:1028840075200F5F1F4FF7CF0E9475200E9475209F
:1028940000E010E00430E0E01E0728F40E947520F8
:1028A4000F5F1F4FF7CFE885F9856A857B850E9406
:1028B4007E2031F4E3E0E0933C070E94B01F49C05E
:1028C400EC85FD856E857F85E0932607F0932707C9
:1028D4006093280770932907EBA1FCA1FA93EA936C
:1028E400E2E0EA930E9410120E94D81F19F4E0E07B
:1028F400F0E02FC0EAA1E03039F1EC85FD856E856A
:102904007F850E94AE1C31F4E4E0E0933C07E0E0F4
:10291400F0E01FC0E42FF52F3C96EC5FFA4FFF93D5
:10292400EF93E081AAA1EA2BAF91BF91EC93EC85E0
:10293400FD856E857F850E947E2031F4E3E0E0937F
:102944003C07E0E0F0E005C0E0E0E0933C07EE8106
:10295400FF810E940B23A59608950E948420AE81D6
:10296400BF810E94EC2221F00E948820A13019F43A
:10297400EFEFFFEF38C00E948820A23021F00E94C0
:102984008820A33071F50E9447200E94530A7F9348
:102994006F93FF93EF930E948E200E943922AF9190
:1029A400BF918F919F910E94942000E010E0061542
:1029B400170538F40E949D20E081EC930F5F1F4FB0
:1029C400F6CFEA81FB816C817D810E947E2019F41F
:1029D400EFEFFFEF08C00E94A22019F4EFEFFFEF22
:1029E40002C0E0E0F0E01981088128960895A881EA
:1029F400B9810E94AA2069F0E881F981FA93EA93E7
:102A04000E94AF14EF3FAFEFFA0719F4EFEFFFEFB7
:102A14000BC0E881F981FA93EA930E94441CE0E038
:102A2400E883E983E0E0F0E0229608950E948420A0
:102A3400EE81FF81309719F4EFEFFFEFB1C10E94EF
:102A44008820A13031F4E6E0E0933C07EFEFFFEF9C
:102A5400A7C10E943720E9F40E94AF20AE81BF8154
:102A64001C96ED93FC930E94B5200E941120AE8128
:102A7400BF811E96ED93FC930E9440200E94BD20CE
:102A8400E1E0EA930E94130EE03019F4EFEFFFEF58
:102A940087C10E94C4207F936F93FF93EF930E949A
:102AA400CB20AF91BF918F919F910E94FA2219F48C
:102AB4000E94D22009F441C00E94D920AE81BF8176
:102AC4005296ED93FC930E94AF20AE81BF811E9677
:102AD400ED93FC930E94B5200E944E20EE81FF816D
:102AE400A289B389BA93AA93E885F985A685B7859F
:102AF400BA93AA930E945D1F19F4EFEFFFEF50C140
:102B04000E9447200E94BD200E94631F19F4EFEF2A
:102B1400FFEF46C10E94A22019F4EFEFFFEF40C17E
:102B2400AE81BF810E94DF20EE81FF817C96AE8161
:102B3400BF81A95DBD4FED93FC930E94E420A8855D
:102B4400A0830E94E420FF93EF93AE81BF810E9493
:102B5400EB20AF91BF91EA17FB0711F00C94AC1670
:102B64000E94C4207F936F93FF93EF930E94CB2026
:102B7400AF91BF918F919F910E94FA2230F4E0E1CE
:102B8400E0933C07EFEFFFEF0BC10E9447200E9448
:102B9400530A7F936F93FF93EF930E948E200E94BA
:102BA4003922AF91BF918F919F910E94942000E0B0
:102BB40010E00615170538F40E949D20E081EC937F
:102BC4000F5F1F4FF6CFEA81FB816C817D810E94EC
:102BD400D1220E945408EE81FF81A489B589E82D91
:102BE400F0E0AE17BF07D8F40E9447200E94530AB2
:102BF4007F936F93FF93EF93EE81FF81A489B5894F
:102C0400E62DF72D0E943922AF91BF918F919F91AC
:102C14000E949420AE81BF810E94F22055C0EE81B3
:102C2400FF81A089B189A83FEFEFBE0718F0E6E362
:102C3400EE1561F0EE81FF81A089B189A83FEFE034
:102C4400BE0718F0E2E3EE1509F01AC00E94C42092
:102C54007F936F93FF93EF930E94CB20AF91BF912B
:102C64008F919F910E94FA2231F0E0E2E0933C07B9
:102C7400EFEFFFEF95C0AE81BF810E94F9201AC02B
:102C84000E94D920AE81BF815296ED93FC93AE8110
:102C9400BF8150960E94BE22AE81BF811E96ED93E5
:102CA400FC930E9447200E94901DAE81BF815096E4
:102CB400ED93FC930E944E200E9447200E94530AE9
:102CC400EA83FB836C837D830E94D22029F5EA8109
:102CD400FB816C817D810E94AE1C19F4EFEFFFEF44
:102CE4005FC000E010E00030E2E01E0760F40E94E4
:102CF4005F20FF93EF930E946520AF91BF91EC9307
:102D04000F5F1F4FF0CFEE81FF817C96AE81BF81B4
:102D1400A95DBD4FED93FC930E94CB207F936F93ED
:102D2400FF93EF930E94C420AF91BF918F919F9125
:102D34000E94FA2241F40E94CB20EF5FFF4F6F4FB5
:102D44007F4F0E94C8220E94A22019F4EFEFFFEFE8
:102D540027C01CC00E94E4203196ED93FC930E948E
:102D6400CB207F936F93FF93EF930E94C420AF9186
:102D7400BF918F919F910E94FA2241F40E94CB202F
:102D8400EF5FFF4F6F4F7F4F0E94C8220E94C42005
:102D9400EF5FFF4F6F4F7F4F0E94C822E885F0E03E
:102DA4001981088129960895FF92F82EEF97A59727
:102DB4000E940623DE01AC59BF4F0E94DA210A2F7C
:102DC4001B2FFE013496FA93EA93DE01A659BF4FF6
:102DD4000E94FE201A930A930E94391BFE01349626
:102DE4002E2F3F2F0E946E1F71F0A22FB32F2F5F43
:102DF4003F4FEC91EA93DE01A559BF4F0E94FE209C
:102E04000E941815EFCF0E940D23EF96A996FF900C
:102E1400089528970E940623E989FA89309731F4A6
:102E2400E2E0E0933C07EFEFFFEF50C1EC85E030C8
:102E340081F4A989BA89A05EBD4F0E94C222AD85E2
:102E4400BE858F8598890E94DE21ED87FE876F8776
:102E5400788B0E9405210E94FA2218F40E94102106
:102E640035C1AC85A13041F40E9405210E94E821BE
:102E7400ED87FE876F87788BA989BA890E94AA207B
:102E840059F0E989FA89FA93EA930E94AF143097CA
:102E940019F0EFEFFFEF1AC1A989BA891C962D9199
:102EA4003C91E22FF32FA989BA891E96ED93FC93E6
:102EB4003A932A930E94901DA989BA895096ED935A
:102EC400FC93A989BA890E9417200E944F1DAD85E1
:102ED400BE858F8598890E947922EC83FD836E8359
:102EE4007F830E944F1DAD85BE858F8598890E9482
:102EF400A722E887F9876A877B87A989BA890E940C
:102F0400DF20EC81FD816E817F810E94E82211F433
:102F14000C94D917E989FA89A089B189A83FEFEF00
:102F2400BE07E0F0AC81BD818E819F81A130E0E0DD
:102F3400BE07E0E08E07E0E09E0739F4A885B98576
:102F44008A859B850E94F42209F005C0A989BA8963
:102F54000E94F9202CC00E941021B8C0A989BA8906
:102F640050962D913C91A989BA891E960E94BE2241
:102F7400A989BA895296ED93FC93E22FF32FA9897C
:102F8400BA891E96ED93FC930E94501FA989BA89B1
:102F94005096ED93FC93EC81FD816E817F81319796
:102FA40060407040EC83FD836E837F83AACFE98900
:102FB400FA89A685B785BA93AA930E94530AEC832B
:102FC400FD836E837F83A989BA895496E1E0F0E09A
:102FD400ED93FC93E62DF72DA885B9858A859B850D
:102FE400662777270E94FF22F8F0E62DF72DAC81A3
:102FF400BD818E819F81662777270E94DE21EC8325
:10300400FD836E837F83E62DF72DA885B9858A8598
:103014009B850E94ED1CE887F9876A877B87A989CD
:10302400BA890E94F220D6CFEC81FD816E817F8126
:103034000E94AE1C19F4EFEFFFEF48C000E010E06F
:103044000615170578F4E989FA897C96E00FF11FD3
:10305400FF93EF930E946520AF91BF91EC930F5FB4
:103064001F4FEECFA989BA89AA5DBD4FAC91A1309B
:1030740039F4A885B9858A859B850E94F42209F0D4
:103084000AC0A989BA890E94EB20A989BA89A95DD5
:10309400BD4FED93FC93A989BA895C96E885F985BF
:1030A4006A857B85EA0FFB1FA989BA89A95DBD4F93
:1030B400ED93FC93ED85FE856F857889A989BA899E
:1030C400A05EBD4F0E94C822E0E0F0E00E940D2304
:1030D40063960895EFEFEBBBE0E0EABBEFEFE8BBEC
:1030E400E0EDE7BBEFEFE5BBE0E0E4BBEFEFE2BB15
:1030F400E0E0E1BBEFEFE3B9E0E0E2B9EFEFE0934A
:103104006200E0E0E0936100EFE1E0936500E0E05D
:10311400E09364000895E0E0EAB9EBB9E6E0E093F7
:103124009500E7E0E9B9E0E0E0939000E8E1EAB96E
:103134000895E0E0E0939A00E0939B00E6E0E093DA
:103144009D00E7E0E0939900E0E0E0939800E8E177
:10315400E0939A000895F894E0E0ECBFE0936D00EA
:103164000E946C180E948D180E949B18E0E0E5BF35
:10317400E0936A00EABFE9BFE7BFE0937D0078947B
:10318400089528970E94AD18E8B3E06DE8BB0E944B
:103194007803E03019F40E941B21F9CFE8B3EF75EE
:1031A400E8BBEDECF3E00E942021002E012A29F473
:1031B400EDECF3E00E942021F8CF1A930A93E6ED98
:1031C400F3E00E945620E1E0F0E060E070E00E944D
:1031D400D122E2E0F0E060E070E00E94D122E3E07E
:1031E400F0E060E070E00E94D122E4E0F0E060E012
:1031F40070E00E94D122E5E0F0E060E070E00E941F
:10320400D122E6E0F0E060E070E00E94D122E7E045
:10321400F0E060E070E00E94D122E8E0F0E060E0DD
:1032240070E00E94D122E9E0F0E060E070E00E94EA
:10323400D12288E20E94D616AC96E0E0EC83ED83BE
:10324400EE83EF83AC81BD818E819F81A436E0E063
:10325400BE07E0E08E07E0E09E0710F00C947B19B7
:10326400E0E0E883E983EA83EB83A881B9818A817A
:103274009B81AA30E0E0BE07E0E08E07E0E09E0715
:1032840048F51A930A93E6E4F4E0FA93EA93A885DE
:10329400B9858A859B85EAE0F0E060E070E00E94F1
:1032A4006122AC81BD818E819F810E94DE210E94BA
:1032B400D12284E00E94D6162896E881F9816A8199
:1032C4007B81EF5FFF4F6F4F7F4FE883F9836A8302
:1032D4007B83CBCFEDE00E94292159F0EAE00E94E4
:1032E400292139F00E941B210E9432210E9437219A
:1032F400A9CF1A930A930E94F914ECE4F4E0FA9328
:10330400EA9380E00E94511B2296C6980E943221C3
:10331400E0E0EC83ED83EE83EF83AC81BD818E81AD
:103324009F81A03AE6E8BE07E1E08E07E0E09E0751
:1033340018F40E943721F1CFE9CF2896FFCF5F9B85
:10334400FECFACB108955D9BFECFA881ACB92196A8
:103354000895A881B9810E94BE22309749F00E9445
:10336400BE223196ED93FC933197AA81A08304C0C9
:10337400EA81EA930E94A519239608952B970E9447
:10338400042300E073D33197E4913E2FE03011F42D
:103394000C94351BE02FE03031F4353211F401E0A8
:1033A40001C070D75FC1E130A9F4353219F46AD78E
:1033B40000E058C102E050E010E03D3211F411E0A9
:1033C40051C13B3211F45BE24DC1303211F450E291
:1033D40049C102C0E23039F440E003E0303311F473
:1033E400106840C102C0E330A1F4303310F03A3326
:1033F40008F009C0A42FEAE0EA9FE02D4E2FE32F46
:10340400E0534E0F2FC13C3619F4126005E02AC177
:1034140004C0E53011F00C94341BE32FE33621F49F
:1034240038D7EC913DD71DC1E33731F432D73FD7BC
:103434000E9499210E2F08C0E03759F42AD737D7B4
:103444000E94A3210E2F18601F77E0E0E88B20E094
:1034540073C0E43611F0E93611F4146002C0E537A4
:10346400C1F4EAE0E88B11FF0AC0E0E0FAEC6AE993
:103474007BE3E887F9876A877B870AE029C0E0E174
:10348400F7E260E070E0E887F9876A877B8705E008
:103494001FC0E83511F4186004C0E83711F00C942B
:1034A400331BE0E1E88B11FF0AC0E0E0F0E060E0EC
:1034B40070E1E887F9876A877B8708E009C0E0E064
:1034C400F0E160E070E0E887F9876A877B8704E0D1
:1034D40011FF08C0DED60E94C222EC87FD876E87EA
:1034E4007F8711C012FF06C0D4D60E94BE220E945C
:1034F400342205C0CED60E94BE2266277727EC87E9
:10350400FD876E877F8712FF17C0AC85BD858E85CA
:103514009F850E94F0225CF4EC85FD856E857F8595
:103524000E94F221EC87FD876E877F875DE2503031
:1035340011F00F5F01C01B7F10FD10C0041770F461
:1035440017FF08C012FF04C01B7F352F015001C0B4
:1035540030E301C030E296D64150F0CF202FE88905
:10356400E030C9F42030B1F013FF08C0EE81FF81D0
:103574003196EE83FF833197E49105C0AE81BF811C
:10358400ED91AE83BF83EA9399D6403009F0415060
:103594002150E8CF5EC0E885F9856A857B85AC85D6
:1035A400BD858E859F850E9479223E2FE9E0E31731
:1035B40030F413FF02C0395C01C0395A01C0305DD8
:1035C40014FD22C0E0E3E31760F0A885B9858A857D
:1035D4009B85A130E0E0BE07E0E08E07E0E09E07B7
:1035E40009F409C0421710F010FF01C011C030E205
:1035F40017FF0AC030E3106112FF06C01B7F5A9305
:103604005DD6403009F041503DD6403009F041507C
:103614002150E885F9856A857B85AC85BD858E85D5
:103624009F850E94A722EC87FD876E877F87E889A4
:10363400A885B9858A859B85FF27662777270E94F9
:103644007922E887F9876A877B870E94E82209F054
:10365400A2CF10FF06C0403021F04150E0E220D656
:10366400FACF00E08FCE0E940B236796089522972D
:10367400EE81FF81E883F983EC81FD81FA93EA937B
:10368400EC81FD81FA93EA93FE013496FA93EA936E
:1036940075DEA881B981E0E0EC9328960895FF9245
:1036A400F82E22971A930A93DE010E94DA210A2F38
:1036B4001B2FE0E0EA83EB83DE0114969DD51A9379
:1036C4000A93FE013696FA93EA9358DE198108812B
:1036D4002496FF90089522970E94042304E218E0A0
:1036E400A02FB12FE0E0F0E0ED93FC93002E012A2F
:1036F400C1F1A02FB12F0E94BE22E00FF11F34961A
:103704004E2F5F2FE1D5309719F02E833F8304C0ED
:10371400E0E0F1E1EE83FF83EE81FF81E41BF50B32
:10372400DF01E885F9853496AE17BF07B8F0E42FBA
:10373400F52FD8011296ED93FC93E22FF32FDA01C3
:103744001296ED93FC93E885F985A42FB52FED939C
:10375400FC934C5F5F4FE42FF52F05C0022F132F0E
:10376400C5CFE0E0F0E00E940B232A9608950E9462
:10377400062304E218E0002E012A69F0A5D5DF0132
:10378400EC81FD81EA17FB0719F4E02FF12F05C046
:10379400022F132FF0CFE0E0F0E00E940D232696D5
:1037A400089522970E940423EA85FB85309711F43B
:1037B4000C941F1C34970E2F1F2F1A930A93D7DFD4
:1037C4002E2F3F2F3097C9F1A02FB12F12960E94B0
:1037D400BE22D9011296ED93FC93E885F9853097C2
:1037E40061F1FA93EA9377DF4E2F5F2F3097F9F068
:1037F400A02FB12F0E94BE22EE83FF83DF01E88554
:10380400F985AE17BF0720F4EE81FF81E887F987B9
:103814005A934A93EC85FD85FA93EA93EC85FD85EA
:10382400FA93EA930E946E21E42FF52F08C0E02F4B
:10383400F12FD9011296ED93FC93E0E0F0E00E94A1
:103844000B232C9608951A930A9300E010E0EA8162
:10385400FB81309789F0FA93EA933DDF0E2F1F2FF7
:10386400309751F01A930A93E0E0EA93ED81FE81D8
:10387400FA93EA930E948B21E02FF12F198108819A
:1038840024960895E881F981FA93EA93E0E0F0E060
:10389400FA93EA9386DF229608950E946502AE8524
:1038A400BB270895EA0FFB1F0E94CD222E2F3F2F26
:1038B40008950E9407220E2F0A930E946502EA854A
:1038C400FB856C857D8508950E2F0A930C94650203
:1038D4000E946502EFEFEA930895EFEFEA930C94E8
:1038E4006502FF2766277727EE83FF83688779873A
:1038F400AE81BF81888599850895FF27662777273C
:10390400EE83FF83688779870895A0910005B091BD
:10391400010580910205909103050E94ED21E09339
:103924000005F09301056093020570930305D5CF5C
:10393400EFEFEA93CDCFE0E5EDB9E0E00895E9815A
:10394400FA816B817C81EF5FFF4F6F4F7F4FE9837B
:10395400FA836B837C8308950E94D1220E94E80736
:10396400E03008959CDE2296E1E0E0933C07E0E03D
:10397400089566277727DF01CB01E62DF72D66270B
:1039840077270E9461220895F0E0EA2BFB2B66273B
:1039940077270895FF2766277727DF01CB01E8E122
:1039A4000E94FB21DF01CB010895FF2766277727BB
:1039B4000E942F220E94ED210895FF276627772772
:1039C400DF01CB01E8E00E94FB2108953197DF017C
:1039D400E62DF72D0895662777270E94DB220E94A3
:1039E400E8210895EA93E0E0F0E060E070E00E94EE
:1039F400D1220E946C020E2F0895E0E5EDB9E1E0BA
:103A04000895E62DF72DAD81BE818F8198856627B7
:103A140077270E94A7220E94E8220895E4E0E09319
:103A24003C07E0E00895EA93EE81FF81688579859B
:103A34000E94D1220E946C020E2F0895E3E0E093CD
:103A44003C07E0E00895EC91EA930E94BB083097AC
:103A54000895EF8DF8A13196EF8FF8A33197DE0129
:103A64001696AE0FBF1FE0E2EC930895ED89FE8930
:103A74003196ED8BFE8B0895ABA1BCA1E0E0F0E0A4
:103A840060E070E00E94C822EFEFFFEF0895EF8D31
:103A9400F8A13196EF8FF8A30895E62DF72D662748
:103AA4007727DF01CB01E82DFF27662777270E94C0
:103AB40061220895EF8DF8A166277727DF01CB01F6
:103AC400E62DF72D662777270E9441220895E42FDB
:103AD400F52FEE0FFF1F0E94132208956627772704
:103AE4000E94DE21E98FFA8F6B8F7C8F0895E98D18
:103AF400FA8D6B8D7C8DABA1BCA10E94C822089568
:103B0400ED89FE89FA93EA93E98DFA8DFA93EA93A3
:103B1400EBE0EA930E94AE21E0300895E1E0EA93FD
:103B24000C94FD0A0E946122A0911E07B0911F0708
:103B340080912007909121070E94DE210895E62DAF
:103B4400F72DF695E795AD85BE8508950E9466220A
:103B5400E90DFA1D0E2F1F2F08950E94A422EE0FC7
:103B6400FF1F2E2F3F2FE02FF12F0895EE0FFF1F81
:103B7400FE2FE0E0A0911E07B0911F07809120075F
:103B840090912107662777270E94DE21EE83FF8329
:103B940068877987AC850895E0913D07F0913E07E9
:103BA40060913F0770914007AE81BF8188859985F8
:103BB4000E94FA220895E0912E07F0912F07609158
:103BC400300770913107A0913D07B0913E07809175
:103BD4003F07909140070E94FF220895A0912A0771
:103BE400B0912B0780912C0790912D07E0912E071F
:103BF400F0912F0760913007709131070E94E821FE
:103C0400A0913D07B0913E0780913F0790914007F6
:103C14000E94DE210E94D1220E945408E0300895BF
:103C2400E0913D07F0913E0760913F077091400796
:103C34000E94D1220E945408E0300895E22FF32F0D
:103C44003196EC5FFA4FF0810895A4E0B5E0A20F3D
:103C5400B31FEC910895AD85BE85E3E0F0E00E94CA
:103C640039220895E62DF72DA22FB32F6FCFE62D1D
:103C7400F72DA22FB32F0E94A4222E2F3F2F089599
:103C8400E62DF72D3197E217F3070895E02FAA8167
:103C9400BB81F0E0AE0FBF1F0895EC91EA930C9442
:103CA400D321F0E0E654F84FDF01E0E2EC9308950D
:103CB400EC5FFA4FF081E0E00895E989FA89A9857B
:103CC400BA858B859C85662777270E94FA220895FA
:103CD400EDE0E0933C07E0E0F0E00895ED81FE8143
:103CE4006F817885E050FE4F6F4F7F4FED83FE83E9
:103CF4006F8378870895EF85F8893196EF87F88B7D
:103D04000895A985BA858B859C85662777270E94A7
:103D1400ED21E987FA876B877C870895E62DF72DD7
:103D2400F695E795AA89BB890895EB87FC876D878B
:103D34007E87AF85A1300895E0913D07F0913E075D
:103D440060913F0770914007AB85BC858D859E854A
:103D54000E94FA220895E22FF32F3196EC5FFA4F76
:103D64000895EC93AF85A1300895A0912A07B091EE
:103D74002B0780912C0790912D07E0912E07F0914D
:103D84002F0760913007709131070E94E821AB85BD
:103D9400BC858D859E850E94DE210E94D1220E94D1
:103DA4005408E0300895EB85FC856D857E850E947E
:103DB400D1220E945408E0300895AA89BB89E3E027
:103DC400F0E00E9439220895EF70F0E04E2F5F2F4B
:103DD400E22FF32FEC5FFA4F0895EE81E295E07F36
:103DE400A42FB52FF0E0EA2BFB2B0895E62DF72D39
:103DF400AB85BC858D859E85662777270E94DE214D
:103E0400EB87FC876D877E87A7CDE885E295E07F09
:103E1400AF81EA2B0895E0930405AF85A13008959E
:103E2400EF81E295E07FAE81EA2B0895E07FF0E038
:103E34004E2F5F2F0895E885A42FB52FF0E0EA2BCD
:103E4400FB2B0895EB85FC85A689B789808D918D20
:103E54000E94D6220895AB85BC855A960E94BE2244
:103E64000895AB85BC851C960E94BE220895EF81FF
:103E7400F88569857A85EF7FF07060707070A12F86
:103E8400B22FEC93AF81B88589859A85E8E00E94CA
:103E94000722EF83F88769877A8708953A932A93EC
:103EA400E0E0EA930C94FD0A3A932A93E0E0F0E010
:103EB400FA93EA930895E0E0EA930E94130EE03047
:103EC4000895E2E0EA930E94130EE0300895A22FD1
:103ED400B32FAC91AC350895A22FB32FEC91E03001
:103EE4000895A02FB12FE0E0EC930895EE0FFF1F8B
:103EF400FE2FE0E0A0912607B091270780912807C4
:103F040090912907662777270E94DE210E94D122FB
:103F140008953B96EC5FFA4FE08108957A96EC5F42
:103F2400FA4FE081F0E0EA2BFB2B08956C970E9496
:103F34000423E0E0EC87ED87EE87EF87EBA1FCA19B
:103F4400FA93EA93FE013E96FA93EA93FE01789679
:103F5400FA93EA930E948A1030970895EC85FD85C0
:103F64006E857F85E0932607F093270760932807E3
:103F740070932907E0E0F0E00895E0912607F091BE
:103F840027076091280770912907E887F9876A87CE
:103F94007B87FE013896FA93EA93FE017696FA93AC
:103FA400EA930E94E5082E2F3F2F0895EE83FF83A6
:103FB40030970895E62DF72DA885B9858A859B85C8
:103FC400662777270E94A7224E2F5F2FE42FF52F15
:103FD400A885B9858A859B85FECCE887F9876A8799
:103FE4007B87BACCFE017496FA93EA930E94250C5F
:103FF400E88BF98B30970895EE81FF81FA93EA9369
:1040040041DCACCFE42FF52FEC5FFA4FEA8BFB8B4E
:10401400022E032A0895EBE0E0933C07EDCFAE8136
:10402400BF811C960E94BE2208955296E0E0F0E003
:10403400ED93FC930895AE81BF81A45EBD4FE0E093
:10404400F0E060E070E00E94C8220895E42FF52FAC
:10405400EC5FFA4F7F96EA8BFB8B0895AA89BB89A4
:104064001197AA8BBB8B11960895AE81BF81A45E74
:10407400BD4F0E94C2220E94E8220895EE81FF8172
:10408400A485B585BA93AA930895EE81FF81A68588
:10409400B785BA93AA930895AE81BF815496E1E09F
:1040A400F0E0ED93FC930895FA93EA93E0E0F0E0F6
:1040B40060E070E00E94D1220895EE81FF817C9639
:1040C400E00FF11F0895A4E0B5E0A00FB11FEC913B
:1040D4000895E5E0E0933C0741CFEA89FB893196F6
:1040E400EA8BFB8B0895AA89BB891196AA8BBB8B9B
:1040F4001197E0E0EC9308950E94D1220E945408A5
:10410400E030089524971A930A930895AE81BF81ED
:10411400AC5DBD4FAC910895AE81BF8154960E94B1
:10412400BE2254CC662777270E94DE21EA83FB83D4
:104134006C837D830895A02FB12FAC5FBA4FBDCFA0
:10414400EE81FF81FA93EA930E94B10FE030089563
:10415400AC5DBD4FAC91A1300895E0E0F0E0FA937E
:10416400EA930C946F0CAE81BF815096EFEFFFEF92
:10417400ED93FC930895E885F985A089B189BA93F4
:10418400AA930895AE81BF81A05EBD4F0E94C22252
:104194000895AE81BF81A45EBD4F0E94C2220895DE
:1041A400AE81BF81AA5DBD4FEC91E0300895AE8130
:1041B400BF811E960E94BE220895AA5DBD4FE0E015
:1041C400EC930895AE81BF81A95DBD4F0E94BE22CC
:1041D40008955C96E62DF72D3197EA0FFB1F08959D
:1041E40054960E94BE223196ED93FC930895AA5DE5
:1041F400BD4FE1E0EC9308950E94DA210E94BE22B3
:10420400FA93EA930895A989BA89A45EBD4F0E94DE
:10421400C222AD85BE858F8598890895A989BA89FA
:10422400AB5DBD4FEAE0EC93E0933C07EFEFFFEFAB
:104234000895E8B3A0E4EA27E8BB0895FA93EA9363
:10424400E0E0EA930E949F130E2F1F2F0895EA9334
:104254001A930A930E941815EF3FAFEFFA070895D7
:10426400E8B3A0E8EA27E8BB0895EC81FD816E81FC
:104274007F81EF5FFF4F6F4F7F4FEC83FD836E8332
:104284007F8308953A93EA89FB89FA93EA930C941D
:10429400AB19AB89BC891497AB8BBC8B149608956E
:1042A400EA93EA89FB89FA93EA930C94AB190E9486
:1042B400BE22EE83FF83FA93EA930895EA89FB8989
:1042C400FA93EA930C94AB19A02FB12F12960E9483
:1042D400BE222E2F3F2F0895998188810096A9F040
:1042E400BD81AC81FB81EA81EA17FB0771F02CF0F8
:1042F40061916D930197E1F708C0A80FB91FE80F0A
:10430400F91F62916E930197E1F7FD81EC81269686
:104314000895B981A881109631F0FC81EB816A81FE
:1043240061931197E9F7EB81FC8125960895A99192
:10433400B991EE27FF276D91662311F03196FBCFDB
:104344000895AA27BB27E991F9910590002011F05F
:104354001196FBCFFD010895662777278991E9918E
:10436400F991A991B991882349F08A956D91719138
:10437400671721F46623B9F7EE270895671BE1F365
:10438400E1E008F4E25008956991A991B991EFEF41
:10439400FF277D91671709F4EF2FF3957723C9F76A
:1043A4000895E991E13618F0EB3708F4E0520895E6
:1043B4000024AF0DB01D0895EA0FFB1F681F791F7D
:1043C4000895AE0FBF1F861F971F0895EA1BFB0BAE
:1043D400680B790B0895EA2BFB2B682B792B089536
:1043E400E095F09560957095EF5FFF4F6F4F7F4FAD
:1043F4000895EE230E2EFD01BC0131F0EE0FFF1FD8
:10440400661F771F0A94D1F70895EE230E2EFD013F
:10441400BC0131F076956795F795E7950A94D1F745
:104424000895EE0FFF1FEE0FFF1FEE0FFF1FEE0F9D
:10443400FF1F0895F695E795F695E795F695E795A8
:10444400F695E795089576956795F795E795089518
:10445400E62FF72F60E070E008956E2F7F2FE0E0E5
:10446400F0E008956F2F660F660B762F0895FA9F7C
:10447400F02DEB9FF00DEA9FE02DF10D08957A9F4A
:10448400702D6B9F700DF89F700DE99F700D6A9FE2
:10449400602D710DFB9F600D711DE89F600D711DF6
:1044A4008827FA9FF02D610D781FEB9FF00D611D99
:1044B400781FEA9FE02DF10D681F781F089549D0F9
:1044C400DEDF0EF48DDF08950024112490E1AA0F9D
:1044D400BB1F001C111C0E1A1F0A18F40E0E1F1EFF
:1044E40001C0A1609A9599F7FD01D00108953F9309
:1044F4004F935F93002411243327442750E2AA0FDB
:10450400BB1F881F991F001C111C331F441F0E1A48
:104514001F0A360B470B28F40E0E1F1E361F471FAB
:1045240001C0A1605A9559F7FD01BC01D001832F48
:10453400942F5F914F913F9108950BD0D8DF0EF4E3
:104544004FDF0895C1DFFD010895D1DFFD01BC01F6
:104554000895E89477FF02C043DF689497FF0BC087
:104564000024A095B095809590951196801D901D7E
:1045740000F8039400FA0895ED91FC9111970895C1
:10458400ED91FD916D917C9113970895ED93FD93B9
:104594006D937C9308950590F491E02D08957A939A
:1045A4006A93FA93EA9308959A938A93BA93AA938F
:1045B4000895182E862F612D192E972F712D1B2EDD
:1045C400BF2FF12D1A2EAE2FE12D089530976040A4
:1045D4007040089500240A160B0608951097804031
:1045E4009040089500240A160B060806090608954B
:1045F400EA17FB07680779070895AE17BF07860710
:10460400970708955A934A933A932A931A930A93CD
:1046140008955D814C813B812A8119810881089527
:00000001FF
