:040000000C94FF0558
:100004000C9400000C9400000C9400000C9400006C
:100014000C9400000C9400000C9400000C9400005C
:100024000C9400000C9400000C9400000C9400004C
:100034000C9400000C9400000C9400000C9400003C
:100044000C9400000C9400000C9400000C9400002C
:100054000C9400000C9400000C9400000C9400001C
:100064000C9400000C9400000C9400000C9400000C
:100074000C9400000C9400000C9400000C940000FC
:100084000C9400000C9400000000400000000000EC
:1000940001004100000000000200490000000000CF
:1000A40003004A000000000004004C0000000000AF
:1000B40005004D0000000200060050000100000091
:1000C4000700510002000000080052000200000076
:1000D40009005800020000000A0059000200000054
:1000E4000B005B00000000000C005C00020001003B
:1000F4000D005D00020001000E005E000200000021
:100104000F00600002000000100061000200000007
:1001140011006200020000001200630002000000EF
:1001240013006400020000001400650002000000D7
:10013400150066000300010016006A0003000100B8
:1001440017007A000000030018007B000300000081
:10015400190069000000000048E1FA3ECDCC4C3D96
:100164000AD7A33B6F12033A17B75138ACC5A73669
:100174000A0D524541445F455252000A0D426F6FC9
:10018400745F5365633A205B3078255820255820E6
:1001940025585D205B307825585D205B30782558E4
:1001A4005D000A0D5061727420416464726573735A
:1001B4003A2020256C58000A0D42535F6A6D704244
:1001C4006F6F743A2020256C58000A0D4250425F2C
:1001D400427974735065725365633A202025580040
:1001E4000A0D4250425F536563506572436C7573E8
:1001F4003A20202558000A0D4250425F527376641B
:10020400536563436E743A20202558000A0D42500A
:10021400425F4E756D464154733A20202558000ABA
:100224000D4250425F526F6F74456E74436E743A60
:1002340020202558000A0D4250425F464154537A0B
:1002440031363A20202558000A0D4250425F546F3F
:100254007453656331363A2020256C58000A0D42E8
:1002640050425F464154547970653A2020464154C7
:100274003132000A0D4250425F4641545479706550
:100284003A20204641543136000A0D4250425F461E
:100294004154547970653A202046415420455252C5
:1002A4004F522121000A0D436C7573746572436EBD
:1002B400743A2020256C58000A0D524F4F545F4168
:1002C4004444523A2020256C58000A0D46415432C9
:1002D4005F414444523A2020256C58000A0D526F65
:1002E4006F74446972536563746F72733A20202586
:1002F40058000A0D466972737444617461536563EE
:10030400746F723A20202558000A0D526573657483
:1003140020434D443A2020004F4B212121004552D7
:10032400524F52212121000D0A496E697469616C92
:10033400697A6174696F6E3A2020004F4B21004541
:1003440052524F522D25782020000A0D00255820A6
:10035400000D0A46696C65204C697374696E6720E8
:10036400666F723A2020524F4F545C0020205B008D
:100374002020202020202020202020202020202079
:100384005B256C645D2062797465732020202020D5
:1003940020282558290D2020005D20202020202001
:1003A40028255829000D0A2020566F6C756D65208C
:1003B40053657269616C3A20205B3078256C585D16
:1003C400000D0A2020566F6C756D65204C616265C6
:1003D4006C3A20205B25735D0D0A002530325820CD
:1003E400000D0A5465737420436F6D6D616E647300
:1003F4003A000D0A20202831292D496E697469615B
:100404006C697A65204D6564696120202020202074
:100414002832292D52656164204469726563746FC2
:1004240072792046696C6573000D0A2020283329EF
:100434002D4372656174652046696C652020202017
:10044400202020202020202834292D44656C657428
:10045400652046696C65000D0A20202835292D5237
:10046400656E616D652046696C6520202020202022
:1004740020202020202836292D4F70656E204669C3
:100484006C65000D0A20202837292D4D616B6520ED
:100494004469726563746F727920202020202020C3
:1004A400202838292D44656C65746520446972657B
:1004B40063746F7279000D0A20202839292D43684E
:1004C400616E676520576F726B696E67204469724D
:1004D400202020202830292D4765742046696C652A
:1004E40020496E666F000D0A20202846292D51757B
:1004F40069636B20466F726D61742043617264207E
:10050400202020202856292D476574204D656469D4
:10051400612053657269616C2026204C6162656CB0
:10052400000D0A20202863292D446973706C6179B9
:100534002054696D652F4461746520202020202893
:1005440043292D5365742054696D652F4461746586
:100554000D0A000D0A4F70656E2046696C652043D4
:100564006F6D6D616E64733A000D0A202028312985
:100574002D6674656C6C20202020202020202020F3
:1005840020202020202832292D667365656B000DFC
:100594000A20202833292D666765746320202020D3
:1005A40020202020202020202020202834292D75C0
:1005B4006E67657463000D0A20202835292D526565
:1005C40061642066696C652074696C6C20454E44D6
:1005D40020202836292D577269746520746F2046AF
:1005E400696C65000D0A20202837292D44756D702B
:1005F40020427566666572202D20484558202020CB
:100604002838292D44756D70204275666665722000
:100614002D204153434949000D0A20202839292D12
:1006240066666C75736820202020202020202020FE
:10063400202020202830292D66636C6F7365000DFF
:100644000A20202845292D467265652046696C6577
:10065400204D656D6F72790D0A000A0D53656E6445
:10066400204461746520616E642054696D65206165
:1006740073206D6D2F64642F797979792068683AD5
:100684006D6D3A73735B454E5445525D0A0D0025FA
:1006940064002F3A20000D0A202D204F4B21000D1D
:1006A4000A202D204552524F5221202D202558003A
:1006B4000D0A202D204552524F5221000D0A4A7531
:1006C4006D70696E6720746F20426F6F746C6F6118
:1006D400646572000D0A496E697469616C697A69AE
:1006E4006E672E2E2E20000D0A4372656174696EAA
:1006F400672046696C653A2020004D792020506FB0
:10070400696E7431004D792020506F696E74320027
:100714000D0A44656C6574696E672046696C653AB8
:100724002020000D0A52656E616D652046696C6576
:100734003A0D0A20204F6C64204E616D653A2020EA
:10074400000D0A20204E6577204E616D653A202009
:10075400000A0D4F70656E2066696C653A202000B2
:100764000D0A43686F6F73653A20202831292D5292
:1007740045414420202832292D57524954452020F0
:100784002833292D415050454E440020202D2D2042
:10079400524541440020202D2D20575249544500F4
:1007A40020202D2D20415050454E44000D0A46690D
:1007B4006C654F70656E204572726F72203D202506
:1007C40078000D0A5375636365737321212120201A
:1007D4002D20202573202D204F70656E6564212007
:1007E4000D0A000D0A4D616B6520446972656374DE
:1007F4006F72793A2020000D0A44656C6574652097
:100804004469726563746F72793A2020000D0A435B
:1008140068616E67652043757272656E7420446901
:10082400726563746F727920746F3A2020000D0A28
:100834004765742046696C6520496E666F20666F53
:10084400723A2020000D0A202046696C6520536905
:100854007A653A2020256C642062797465730D0AE8
:1008640020204372656174652054696D653A2020C7
:10087400000D20204D6F646966792054696D653AD6
:100884002020000D202041747472696275746573B0
:100894003A2020307825580A000D202053746172C4
:1008A40074696E6720436C75737465723A202030E6
:1008B40078256C58204020414444523A2030782511
:1008C4006C580D0A000D0A202D204552524F52211A
:1008D400202D2025580D0A000D0A517569636B20DF
:1008E400466F726D6174204361726420616E64208E
:1008F40064656C65746520616C6C206578697374DB
:10090400696E6720646174613F20202859296573EA
:100914002020284E296F0D0A2020006573202D20E9
:10092400006F202D2043616E63656C6C65640D0A55
:1009340000202D2049766E616C69642052657370C5
:100944006F6E7365202D2043616E63656C6C656406
:100954000D0A000A0D52656164204D4D43202D207F
:10096400456E74657220416464726573733A200045
:100974000A0D43616C632E20616464726573733A7B
:1009840020256C78000A0D46696E64696E67204EF6
:10099400657874204176616C6961626C6520436C92
:1009A40075737465723A20205B25585D2C20205F96
:1009B40046465F6572726F72203D205B25585D006C
:1009C4000A0D4C6F63617465642040203078256C97
:1009D40058000D0A506F696E7420436C757374650A
:1009E400723A203078000D0A546F20436C7573748A
:1009F40065723A2030780020202D20204F4B212191
:100A0400210020202D20204552524F522121210027
:100A14000D0A566F6C756D652053657269616C20A3
:100A24004E756D62657220616E64204C6162656C06
:100A34003A000A0D6674656C6C3A2020706F736915
:100A440074696F6E203D203078256C58000A0D665D
:100A54007365656B3A20204F6666736574203D208C
:100A64003078003D256C580D0A202020204D6F64FD
:100A7400653A20202831292D5345454B5F43555273
:100A840020202832292D5345454B5F454E442020D4
:100A94002833292D5345454B5F534554203A0020B4
:100AA400202D2D205345454B5F4355520020202DCA
:100AB4002D205345454B5F454E440020202D2D20CD
:100AC4005345454B5F534554000D0A456E7465729A
:100AD4002063686172616374657220746F2070753D
:100AE4007368206261636B3A2000202D204F4B21F4
:100AF4000D0A000D0A577269746520746F206669C7
:100B04006C653A2020205072657373205B45534313
:100B14005D20746F20656E642027577269746527A1
:100B2400206D6F64650D0A000D0A577269746520A3
:100B34004552524F52212121000A0D46696C65200D
:100B4400466C757368696E672E2E2E000A0D466911
:100B54006C6520436C6F73696E672E2E2E000D0A30
:100B6400436C6F73652046696C6520772F6F207323
:100B74006176696E67206275666665726564206475
:100B84006174613F202028592965732020284E294B
:100B94006F0D0A2020000D0A4D6963726F636F6E3A
:100BA40074726F6C6C6572205265736574212121B7
:100BB4000D0A000D0A5072657373202731272074C3
:100BC4006F20696E697469616C697A65206D65640A
:100BD40069613A000D0A20204552524F52212121C9
:100BE4000D0A000D0A20204F4B2121210000000096
:100BF400000004002408F20B0000F894EE27ECBB7C
:100C0400F1E0F5BFE5BFE0936C00EBBFF8E1F1BDA7
:100C1400E1BD8DE0A2E0BB27ED938A95E9F784E27C
:100C240097E0A0E0B1E0ED930197E9F7E6EFFBE090
:100C340085919591009761F0A591B59105901590D6
:100C4400BF01F00105900D920197E1F7FB01F0CF90
:100C5400E3E2EDBFE8E0EEBFC0E0D5E00C94512E36
:100C64001A930A93EBB10E2FE078E1F31CB1E02F55
:100C7400EC7111F4E12F01C0F5CF09911991089598
:100C84005D9BFECFE881ECB905C0E881EFB9779BA5
:100C9400FECFEFB12196089524970E941440C49882
:100CA400AE85BB276EE870E00E941E3304910A9360
:100CB4000E94253360E970E00E941E330E945C3E6E
:100CC4009F01022E032A71F440E050E04430E0E03A
:100CD4005E0738F4E0E0EA930E9447064F5F5F4FF7
:100CE400F5CF28C0EA85FB856C857D85E070F070C2
:100CF40060707F7FDF01CB01E8E10E942A33E0705E
:100D0400F0706F7F70700E94703D0E943533EA85E9
:100D1400FB856C857D85E070FF7F60707070DF01FE
:100D2400CB01E8E00E942A33EF7FF07060707070AE
:100D34000E943533EE85E03011F405E901C00FEF70
:100D44000A930E9439330E94253362E970E00E94BD
:100D54001E330E945C3E9F01F901309721F40E94EA
:100D64003E33F0E088C0E130A0E0FA07E1F40E94ED
:100D74003E331E2FE0E0EE83EF83E887E987EE81C0
:100D8400FF81688579850E94F83F51F40E943E33C3
:100D9400FF2766277727EE83FF8368877987EFCF5E
:100DA400E12FF0E068C0E230A0E0FA07D9F40E9435
:100DB4003E330E944233E8E00E94413D7F936F93AB
:100DC400FF93EF930E943E33AF91BF918F919F9118
:100DD400FF27662777270E94263DEE83FF836887D7
:100DE400798749C0E330A0E0FA0711F00C943B077F
:100DF4000E943E331E2FE0E0E0930005E0930105DE
:100E0400E0930205E09303050E943E330E944233BF
:100E1400E8E10E94413DE0930005F09301056093F1
:100E24000205709303050E943E330E944E330E94D4
:100E3400753D0E9456330E944233E8E00E94413DD2
:100E44000E9456330E944E33A0910005B0910105D3
:100E540080910205909103050E94263DE0930005D0
:100E6400F09301056093020570930305E12FF0E010
:100E740002C0E0E0F0E00E941B402F960895C49A5F
:100E84000E9469330E944706089524970A93E7B3A2
:100E9400E760E7BBBB98BC9A0E946C33EEB9E0E014
:100EA400F2E03F01E0E0E0935007E0935107E09364
:100EB4005207E0935307CDD3E03011F4E0E0AFC321
:100EC400E0E0E983EA83EB83EC83A981BA818B8137
:100ED4009C81A436E0E0BE07E0E08E07E0E09E07D8
:100EE40010F0003041F4C4980E943E330E2FC49A8F
:100EF4000E947033EACFE0E0E983EA83EB83EC837A
:100F0400A981BA818B819C81A436E0E0BE07E0E030
:100F14008E07E0E09E07A0F4DDD3E03089F4A981D8
:100F2400BA818B819C81A336E0E0BE07E0E08E07A6
:100F3400E0E09E0711F4E0E072C30E947033E0CF5A
:100F4400E0E0F0E060E070E00E947D3341F4E4E72B
:100F5400F1E0FA93EA9380E00E94833360C3B09196
:100F6400CB06A0E0E091CA06F0E0EA2BFB2B2F01B0
:100F7400A0910405AB3E21F4E0910605E03921F08F
:100F8400A0910405A93E51F4E0910207E53521F44E
:100F9400E0910307EA3A09F001C001C002C0442409
:100FA4005524F2010E948B33E0931E07F0931F0730
:100FB4006093200770932107042C052859F00E94A0
:100FC4007D3341F4E4E7F1E0FA93EA9380E00E9490
:100FD400833325C3EFE7F1E0FA93EA93E091040544
:100FE400FF27662777270E94663EE0910505FF27C5
:100FF400662777270E94663EE0910605FF2766274D
:1010040077270E94663EE0910207FF27662777272D
:101014000E94663EE0910307FF27662777270E9418
:10102400663E84E10E9428326696E0910405FF271B
:10103400662777270E94753DDF01CB01F0910505F6
:10104400E0E00E94803D0E94263DDF01CB01E0915B
:101054000605F0E00E94803D0E94263DE0930407CF
:10106400F09305076093060770930707B091100586
:10107400A0E0E0910F05F0E0EA2BFB2B3F0180900C
:101084001105B0911305A0E0E0911205F0E0EA2B00
:10109400FB2B9E2EAF2EB0901405B0911605A0E048
:1010A400E0911505F0E0EA2BFB2B6F01B0911B05D5
:1010B400A0E0E0911A05F0E0EA2BFB2BE09308078F
:1010C400F0930907B0911805A0E0E09117050E947C
:1010D4009533E0930A07F0930B0760930C07709322
:1010E4000D070E94F83F39F5E09127050E949B33D4
:1010F400E09126050E94A6337F936F93FF93EF93AD
:10110400E09125050E94AE33AF91BF918F919F91DD
:101114000E94263DDF01CB01E0912405FF276627CD
:1011240077270E94263DE0930A07F0930B0760930C
:101134000C0770930D07E0912E050E949B33E091FC
:101144002D050E94A6337F936F93FF93EF93E09155
:101154002C050E94AE33AF91BF918F919F910E9455
:10116400263DDF01CB01E0912B05FF27662777277A
:101174000E94263DE0930E07F0930F07609310073B
:1011840070931107E0E0E983EA83EB83EC83A981A0
:10119400BA818B819C81AB30E0E0BE07E0E08E0732
:1011A400E0E09E07B0F4E981FA816B817C81EE5E18
:1011B400F84FDF01E981FA816B817C81E55DFF4FA6
:1011C4006F4F7F4FEC5FFA4FE081EC930E947033D6
:1011D400DECFE0E0E0931D07E92DFA2D0E948B336A
:1011E400A0911E07B0911F078091200790912107BD
:1011F4000E94123DE0932A07F0932B0760932C077B
:1012040070932D07E0910807F09109070E948B3332
:10121400A0912A07B0912B0780912C0790912D075C
:101224000E94123DE0932E07F0932F07609330073E
:1012340070933107EB2DFF2766277727DF01CB015A
:10124400E0910807F0910907662777270E94B73DC8
:10125400DF01CB01E92DFA2D662777270E94123D85
:10126400E0932207F09323076093240770932507E4
:10127400F301A0912207B091230780912407909154
:101284002507662777270E94923DE0932207F09373
:1012940023076093240770932507E0911E07F091BC
:1012A4001F076091200770912107A0912207B09138
:1012B400230780912407909125070E94123DE09313
:1012C4002207F09323076093240770932507F60100
:1012D400EE0FFF1F0E94593DE60DF71D0E94B73324
:1012E4000E94CF3D66277727E0933207F0933307B8
:1012F4006093340770933507E0910807F09109076C
:10130400AB2DB0E00E948A3DE90DFA1DDF01E091AA
:101314003207F091330760913407709135078827BD
:1013240099270E94123DE0933607F0933707A09166
:101334000A07B0910B0780910C0790910D0766275F
:1013440077270E94213DA0934107B09342078093E1
:10135400430790934407E82DA0914107B0914207B9
:101364008091430790914407FF27662777270E94BF
:10137400E23DE0934107F093420760934307709383
:101384004407E0E0E0934C07E0934D07E0934E07F9
:10139400E0934F07E1E0F0E0E0935407F093550742
:1013A400A0914107B091420780914307909144076F
:1013B400A53FEFE0BE07E0E08E07E0E09E0718F4EB
:1013C400E2E3EE2E19C0A0914107B091420780914B
:1013D400430790914407A53FEFEFBE07E0E08E0777
:1013E400E0E09E0718F4E6E3EE2E06C0EE24ECE0FF
:1013F400E0933C07E0E013C1E0912207F09123075A
:101404006091240770912507E0932607F09327073E
:101414006093280770932907ECE5E0935607E0E012
:10142400E0935707E6EAF1E0FA93EA93E0911E07A6
:10143400F0911F0760912007709121070E94663E7A
:1014440084E00E9428322696EBEBF1E0FA93EA93CB
:10145400E0910407F0910507609106077091070772
:101464000E94663E84E00E9428322696EEECF1E06B
:10147400FA93EA93F301662777270E94663E84E095
:101484000E9428322696E4EEF1E0FA93EA93E82DDE
:10149400FF27662777270E94663E84E00E94283251
:1014A4002696EAEFF1E0FA93EA93E92DFA2D6627FE
:1014B40077270E94663E84E00E9428322696E0E167
:1014C400F2E0FA93EA93EB2DFF27662777270E9431
:1014D400663E84E00E9428322696E3E2F2E0FA9324
:1014E400EA93F601662777270E94663E84E00E940D
:1014F40028322696E9E3F2E0FA93EA93E0910807AA
:10150400F0910907662777270E94663E84E00E94CF
:1015140028322696ECE4F2E0FA93EA93E0910A0783
:10152400F0910B0760910C0770910D070E94663EC5
:1015340084E00E9428322696E2E3EE1531F4E1E6D7
:10154400F2E0FA93EA9380E00EC0E6E3EE1531F49C
:10155400E7E7F2E0FA93EA9380E005C0EDE8F2E011
:10156400FA93EA9380E00E9428322296E9EAF2E0B4
:10157400FA93EA93E0914107F0914207609143079F
:10158400709144070E94663E84E00E9428322696A9
:10159400ECEBF2E0FA93EA93E0912207F09123074F
:1015A40060912407709125070E94663E84E00E94A2
:1015B40028322696EEECF2E0FA93EA93E0912E07B5
:1015C400F0912F0760913007709131070E94663EB9
:1015D40084E00E9428322696E0EEF2E0FA93EA9341
:1015E400E0913207F0913307609134077091350729
:1015F4000E94663E84E00E9428322696E6EFF2E0DE
:10160400FA93EA93E0913607F09137076627772734
:101614000E94663E84E00E9428322696E1E008811A
:1016240025960895EDB1E03519F4E1E5EDB90FC063
:10163400EDB1E13519F4E2E5EDB909C0EDB1E235FA
:1016440019F4E3E5EDB903C00E946C330895E1E0B9
:1016540008950E941740EDE0F3E0FA93EA9380E0E6
:101664000E942832229620E0243090F5C49A10E09B
:101674001A3020F40E943E331F5FFACFE0E00E944C
:10168400BB3310E0183C98F4013061F4C49AECE1E7
:10169400F3E0FA93EA9380E00E94283222960E94B3
:1016A400C63355C00E943E330E2F1F5FEBCFE2E2DC
:1016B400F3E0FA93EA9380E00E94283222960E9493
:1016C400140BE03019F4C49AE0E041C02F5FCCCF92
:1016D400E0E03DC00E9417400E944107EBE2F3E0C6
:1016E400FA93EA9380E00E942832229610E020E0E8
:1016F400183EE3E02E0790F4E1E00E94BB33003093
:1017040069F00E943E330E2F003041F00E943E33B8
:101714000E2F003019F01F5F2F4FEACF003041F435
:10172400EFE3F3E0FA93EA9380E00E94CA330FC038
:10173400E3E4F3E0FA93EA93E02FFF2766277727A1
:101744000E94663E84E00E9428322696E0E00E94D1
:101754001E402396089528970A93E985FA856B8598
:101764007C85F170309719F00E94CF3377C00E94C6
:10177400D433EA85FB856C857D850E94D9330E3F81
:1017840021F00E943E330E2FFACFE0E0ED83EE838A
:10179400EF83E887AD81BE818F819885A030E2E038
:1017A400BE07E0E08E07E0E09E0710F00C94280CE2
:1017B400ED81FE816F817885EF70F07060707070DC
:1017C400E983FA836B837C830E94F83F41F4EEE45F
:1017D400F3E0FA93EA9380E00E9428322296ED81A6
:1017E400FE816F817885EC5FFA4FFF93EF930E943F
:1017F4003E33AF91BF91EC93ED81FE816F8178858B
:10180400EC5FFA4FE081E03120F4E0E3EA930E94D8
:101814004206E1E5F3E0FA93EA93EF81F8856985FE
:101824007A850E94DF330E94663E84E00E9428325B
:101834002696ED81FE816F817885EF5FFF4F6F4FB4
:101844007F4FED83FE836F837887A4CF0E94693333
:101854000E9439330E944706C49AE1E008812D961C
:10186400089524970A930E94E63319F00E94CF3317
:1018740063C00E94D433EE81FF81688579850E941C
:10188400D933E0E0E983EA83EB83EC83A981BA816D
:101894008B819C81A83EE3E0BE07E0E08E07E0E098
:1018A4009E0740F40E3F31F00E943E330E2F0E94FB
:1018B4007033ECCF0E3FC1F5E0E0E983EA83EB83BC
:1018C400EC83F301A981BA818B819C8166277727F8
:1018D4000E940F4080F4E981FA816B817C81EC5F86
:1018E400FA4FFF93EF930E943E33AF91BF91EC9375
:1018F4000E947033E6CF0E9469330E9439330E94FC
:101904004706C49AE0E0E0933C07ED81FE816F81D5
:101914007885E0933D07F0933E0760933F0770930B
:1019240040070E94C63308C0C49A0E94140BE030DA
:1019340009F09FCF0E94CF330881299608950E9411
:1019440015400E94E63379F4E0911E07F0911F07D9
:101954006091200770912107AD81BE818F819885A8
:101964000E940A4018F00E94F23351C00E944107BD
:10197400E9E0EA93EE81FF81688579850E94D93395
:1019840020E030E040E0383EE3E04E0750F4003021
:1019940011F421E006C00E943E330E2F3F5F4F4FEB
:1019A400F2CF203061F10E943E33EEEFEA930E94C1
:1019B400470630E040E03615470558F4A4E0B5E0AA
:1019C400A30FB41FEC91EA930E9447063F5F4F4F69
:1019D400F2CF0E9469330E9439330E9447060E2FCA
:1019E400E02FE06E1E2F153E51F40E943E33E0308E
:1019F400E1F3C49AE0E0E0933C07E1E008C0C49A54
:101A04000E94140BE03009F0B1CF0E94F2330E941F
:101A14001C40299608950A93A981A03310F4EFEF8E
:101A240023C0A981AA3328F4E981E0530E2FE02FC3
:101A34001BC0A981A13410F4EFEF16C0A981A7340B
:101A440028F4E981E7530E2FE02F0EC0A981A136B7
:101A540010F4EFEF09C0A981A73628F4E981E7550E
:101A64000E2FE02F01C0EFEF088122960895A88180
:101A7400A03218F4EFEFFFEF20C0A881A232C1F02A
:101A8400AA32B1F0AB32A1F0AC3291F0AE3281F0B7
:101A9400AF3271F0AA3310F0A03450F0A881AB3506
:101AA40010F0AE3528F0A881AC3711F0A53E19F43A
:101AB400EFEFFFEF02C0E0E0F0E0219608956B97AE
:101AC4000E941440E0E0EC8B00E010E0E9A1FAA1F0
:101AD400ED8BFE8BE0E0EF8FE8A3AF8DB8A11B97F1
:101AE40010F00C94BB0DAD89BE890E94F733A1F4AC
:101AF400EF8DF8A1DE011696EA0FFB1FFF93EF931B
:101B0400AD89BE89ED91AD8BBE8BEA930E94CF3C2B
:101B1400AF91BF91EC932AC0AD89BE89AC91AE322E
:101B2400A9F4AF8DB8A1189718F40E94FD33F9CF2A
:101B3400EF8DF8A13197EF8FF8A3ED89FE893196E7
:101B4400ED8BFE8BEC89E160EC8B10C0AD89BE8916
:101B5400EC91E03041F4AF8DB8A11B9718F40E94CA
:101B6400FD33F9CF03C00E940A340DC10E9415341D
:101B7400B4CFE0E0E98BABA1BCA10E94513EA0919F
:101B84002207B091230780912407909125070E9492
:101B94000A4019F42C2D3D2D19C0ABA1BCA10E9403
:101BA400513E0E94663EC0D2ED8FFE8F309719F0F1
:101BB400EC89E068EC8B0E941B34DF01CB01E0E28E
:101BC400F0E060E070E00E94083E9F01E0E0EF8FEB
:101BD400E8A30217130710F00C94C30EABA1BCA129
:101BE4000E94513E7F936F93FF93EF930E9427349B
:101BF400AF91BF918F919F910E94123D0E947D33BE
:101C040009F4BFC040E050E04031E0E05E0710F06E
:101C14000C949C0E0E943334EC5FFA4FEF8BF88FD8
:101C2400FE013696ED8BFE8BAF89B88DEC91E030DA
:101C3400E1F4EC89E071A1F4ABA1BCA10E94513E96
:101C44007F936F93FF93EF930E942734AF91BF91DB
:101C54008F919F910E94173D0E9433340E94393422
:101C64000E944234E0E0F0E08EC0AF89B88DAC91C0
:101C7400A53EC1F4ABA1BCA10E94513E7F936F93DA
:101C8400FF93EF930E942734AF91BF918F919F915F
:101C94000E94173D0E9433340E943934EC89E0617C
:101CA400EC8B43C0EC89E170E9F00E944B34C9F439
:101CB400ABA1BCA10E94513E7F936F93FF93EF931E
:101CC4000E942734AF91BF918F919F910E94173D3D
:101CD4000E9433340E9439340E944234EFEFFFEF04
:101CE40052C023C00E944B3431F4AF89B88D1B9687
:101CF400EC91E07109F419C0ABA1BCA10E94513E62
:101D04007F936F93FF93EF930E942734AF91BF911A
:101D14008F919F910E94173D0E9433340E94393461
:101D24000E944234EFEFFFEF2EC00F5F1F4F4F5F53
:101D34005F4F6ACF0E9415342017310709F5EC89EB
:101D4400E078F1F0ED8DFE8D0E945934EF8FF8A309
:101D5400AF8DB8A1AF3FEFEFBE0791F0EF8DF8A1C3
:101D6400FA93EA93B0D1ABA1BCA10E94573EEF8D88
:101D7400F8A1ED8FFE8F00E010E0E0E0EF8FE8A324
:101D840028CF0E940A340E941B40A59608956297AA
:101D94000E9414400E945F3481F0E0912607F09184
:101DA400270760912807709129070E94663EBCD1DD
:101DB400EA8BFB8B309709F462C1E5E5F3E0FA9313
:101DC400EA9380E00E9428322296E0E0EE8BEF8BCB
:101DD400AE89BF89A436E0E0BE0770F40E94723475
:101DE400E03031F00E947234EA930E94420601C04E
:101DF40003C00E947834ECCFE0912607F0912707C6
:101E04006091280770912907EE83FF83688779879B
:101E1400E0E0EE8BEF8BE0E0EC8BED8BAE89BF89DD
:101E2400AC15BD0510F00C943F10EC89FD89EE0F44
:101E3400FF1FFE2FE0E0AE81BF818885998566276C
:101E440077270E94123D0E947D3309F416C140E0B9
:101E540050E04031E0E05E0710F00C94051020E003
:101E640030E02B30E0E03E07D8F40E9433340E9487
:101E74007E3431F440E150E0CE8ADF8A00E010C0C5
:101E840001E00E943334E20FF31F0E9483340E9466
:101E9400390D309711F000E003C02F5F3F4FE1CFC1
:101EA400003011F40C9400100E9433343B960E94CD
:101EB400883410810E9491340E9433349F01F901C7
:101EC400ED5DFA4FE0810E949B33F901EE5DFA4F1C
:101ED400E0810E94A6337F936F93FF93EF93F90100
:101EE400EF5DFA4FE0810E94AE33AF91BF918F91C5
:101EF4009F910E94263DDF01CB01F901E05EFA4F7C
:101F04000E949934EE87FF87688B798BF901E15E33
:101F1400FA4F0E94A034F901E25EFA4F0E94A43401
:101F24000E94803DEA87FB876C877D8714FF09C088
:101F3400E0E7F3E0FA93EA9380E00E9428322296E5
:101F440014C0E4E7F3E0FA93EA93E889F9896A892B
:101F54007B890E94663EE889F9896A897B890E94A7
:101F6400663E88E00E9428322A9620E030E028303D
:101F7400E0E03E07A0F40E943334E20FF31F0E9416
:101F84008834E081E03259F0EE85FF8568897989EB
:101F94000E9483340E9442062F5F3F4FE8CF14FF14
:101FA4000FC0EDE9F3E0FA93EA93EC85FD856E85C5
:101FB4007F850E94663E84E00E94283226961EC0D9
:101FC400EEE2EA930E94420628E030E02B30E0E0A3
:101FD4003E07A0F40E943334E20FF31F0E948834BA
:101FE400E081E03259F0EE85FF85688979890E94A5
:101FF40083340E9442062F5F3F4FE8CF0E9478341B
:102004004F5F5F4F26CFEC89FD893196EC8BFD8BBA
:10201400E0912607F091270760912807709129071E
:10202400A0912207B091230780912407909125075E
:102034000E940A4009F1E82DAC89BD89F0E0EA1755
:10204400FB07D1F4EA89FB890E945934EC8BFD8BA0
:10205400AC89BD89AF3FEFEFBE0769F00E94A93498
:10206400EC89FD89EA8BFB8BE0E0EE8BEF8BE0E003
:10207400EC8BED8B01C001C0D1CE0E9491340E9443
:102084001B4068960895E9EAF3E0FA93EA93E09135
:102094000E07F0910F0760911007709111070E94CD
:1020A400663E84E00E9428322696E5ECF3E0FA933B
:1020B400EA93E2E1F7E0662777270E94663E84E030
:1020C4000E9428322FC02497AC81BD811297E82D3D
:1020D400FF2766277727882799270E94B73DDF01C6
:1020E400CB01E0913607F0913707662777270E94E6
:1020F400123DE0933807F093390760933A077093E1
:102104003B07F30166277727A0913807B091390779
:1021140080913A0790913B070E94B434E883F98395
:102124006A837B8326960895E0911E07F0911F072A
:102134006091200770912107A881B9818A819B81D0
:102144000E940A4018F0E0E0F0E061C0A0911E0790
:10215400B0911F078091200790912107E881F981B0
:102164006A817B810E941C3DE883F9836A837B83B7
:102174000E94C1340E94E23DE883F9836A837B8331
:10218400E0913607F091370766277727A881B98150
:102194008A819B810E940A4018F0E0E0F0E037C099
:1021A400E0913607F0913707A881B9818A819B8134
:1021B400662777270E94213DA883B9838A839B835E
:1021C400E82DA881B9818A819B81FF27662777271B
:1021D4000E94E23DE883F9836A837B83EE5FFF4FCD
:1021E4006F4F7F4FE883F9836A837B83A881B9812A
:1021F4008A819B81A030E0E0BE07E1E08E07E0E049
:102204009E0718F0E0E0F0E002C0E881F98124962E
:10221400089526970E941440AD85BE85129718F440
:10222400EFEFFFEF14C1E6E3EE1511F00C946C111F
:102234000E94C9340E94CF340E94C9340E94D5340C
:102244000E94DC34A13059F4EE81FF8168857985E0
:102254000E947D3319F4EFEFFFEFF9C02CC0AC8579
:10226400A03011F0A23039F50E94F23421F1E0914E
:102274003D07F0913E0760913F07709140070E942F
:10228400F83F79F00E94013530F40E94143519F4B6
:10229400EFEFFFEFDCC00E94363519F4EFEFFFEFEC
:1022A400D6C0EE81FF81688579850E947D3319F45B
:1022B400EFEFFFEFCCC0F901EB5FFA4FF081E0E004
:1022C4000F010E944435D001F0E0EA2BFB2BEA8792
:1022D400FB87BBC0E2E3EE1511F00C9424120E94BC
:1022E4004A35F695E7959F010E944A35E170F070F2
:1022F400AF010E9451350E945435F301D8010E9468
:102304008A3DA0911E07B0911F07809120079091EC
:102314002107662777270E94123DEE83FF83688793
:102324007987AC85A13039F40E947D3319F4EFEF3D
:10233400FFEF8DC02CC0AC85A03011F0A23039F570
:102344000E94F23421F1E0913D07F0913E07609143
:102354003F07709140070E94F83F79F00E940135D1
:1023640030F40E94143519F4EFEFFFEF70C00E94AF
:10237400363519F4EFEFFFEF6AC0EE81FF8168850F
:1023840079850E947D3319F4EFEFFFEF60C00E945E
:102394004435F0E0EA87FB870E945A3589F5F80155
:1023A40031960E94DC34A03019F0AC85A230D9F407
:1023B4000E94013530F40E94143519F4EFEFFFEF59
:1023C40046C00E94363519F4EFEFFFEF40C0EE81AE
:1023D400FF8168857985E0933D07F0933E0760931C
:1023E4003F0770934007EE81FF81688579850E94DD
:1023F4007D3319F4EFEFFFEF2AC0F091040504C018
:10240400F901EB5FFA4FF081E0E0AA85BB85EA2B86
:10241400FB2BEA87FB87042E052A19F00E94623DF4
:1024240003C0EA85FB85FF70EA87FB87AA85BB8525
:10243400A83FEFE0BE0728F0EA85FB85F06FEA8746
:10244400FB8703C0EFEFFFEF02C0EA85FB850E9424
:102454001B402F9608951A930A9310E000E00E3063
:10246400C0F50E945F350E94F73379F4E12F1F5FB6
:10247400F0E0E654F84FFF93EF930E945F350E941B
:102484006635AF91BF91EC9320C00E945F35AC914B
:10249400AE3241F4183028F4E12F1F5F0E946A35F0
:1024A400F9CF13C00E945F35EC91E03041F41B304A
:1024B40028F4E12F1F5F0E946A35F9CF0AC0E5E0D6
:1024C400E0933C07E0E0F0E00CC01B3010F40F5F39
:1024D400C6CFA12FB0E0A654B84FE0E0EC93EAEBEE
:1024E400F7E019810881249608952C970E941540DD
:1024F400E0912A07F0912B0760912C0770912D072A
:10250400ED83FE836F837887E1E0F0E0EF87F88B5B
:10251400A989BA890E94FC3F19F4E6E3EE1509F093
:1025240021C0ED81FE816F817885A0914C07B09127
:102534004D0780914E0790914F070E940A4090F4F6
:10254400E0914C07F0914D0760914E0770914F0751
:10255400ED83FE836F837887E0915407F0915507EC
:10256400EF87F88B01E0E0912E07F0912F0760913F
:10257400300770913107AD81BE818F8198850E94AB
:102584000F4010F00C940E14E6E3EE1511F00C94C9
:102594007C13E989FA89309791F4ED81FE816F818A
:1025A4007885E0934C07F0934D0760934E07709342
:1025B4004F07EF85F889E0935407F0935507ED81B1
:1025C400FE816F8178850E947D3319F4E0E0F0E0AC
:1025D40025C1E0915007F091510760915207709125
:1025E40053070E94F83F81F0E0915007F0915107A2
:1025F400ED87FE87E0E0E0935007E0935107E09316
:102604005207E093530703C0E0E0ED87EE873D8572
:102614004E85F301F695E7953E174F0710F00C949D
:102624007713E32FF42FEE0FFF1FEB5FFA4F0E9497
:10263400A034E32FF42FEE0FFF1FEC5FFA4FE0817D
:102644000E949533E987FA876B877C87E32FF42F01
:10265400662777277F936F93FF93EF93F3016627A2
:1026640077270E946B3DDF01CB01EF85F889662750
:102674007727E150F040604070400E94923DAF9156
:10268400BF918F919F910E94123D1E2F2F2F0E9468
:102694007135B1F4E985FA856B857C850E94F83F34
:1026A40061F4E32FF42F66277727E0935007F09324
:1026B40051076093520770935307E12FF22FAEC076
:1026C400E0914107F09142076091430770914407FC
:1026D400A12FB22F882799270E940A4018F40E943C
:1026E4007C359CC03F5F4F4F94CF0E9482350E943F
:1026F4008F3591C0E2E3EE1511F00C940A1400300A
:1027040059F0ED81FE816F8178850E947D3319F443
:10271400E0E0F0E083C000E0EF85F88966277727E2
:10272400A3E0B0E080E090E00E94923D0E946B3D07
:102734001E2F2F2FF301A12FB22F0E94193E1E2FFF
:102744002F2FE12FF22F1F5F2F4F0E94DF33E987D6
:10275400FA876B877C876116720699F40E9482352A
:10276400ED81FE816F8178850E947D3319F4E0E06C
:10277400F0E054C0F09104050E94953510E020E08B
:1027840009C0E12FF22F1F5F2F4FEC5FFA4FF0814A
:102794000E949535EF85F889E17041F0A985BA85E5
:1027A4008B859C85E4E00E944D3D08C0E985FA854F
:1027B4006B857C85EF7FFF7060707070E987FA87A6
:1027C4006B877C870E94713519F4EF85F88926C0E0
:1027D400E0914107F09142076091430770914407EB
:1027E400AF85B889882799270E940A4018F40E9467
:1027F4007C3514C06116720621F4EF85F889E17006
:1028040009F403C00E94823501E00E948F3503C0A1
:10281400E0E0F0E003C0A7CE0E947C350E941C409B
:102824006396089529970E941440AA89BB89129738
:1028340010F4E0E06EC1E6E3EE1511F00C9486149A
:102844000E94A3350E94CF340E94A3350E94D53440
:1028540066277727A0E0B2E080E090E00E94B434DD
:102864000E94A93551F4EB85FC856D857E850E9417
:102874007D3311F4E0E04DC129C0AF85A03011F0E3
:10288400A23021F50E94B03509F1E0913D07F091A5
:102894003E0760913F07709140070E94F83F69F03E
:1028A4000E94013528F40E94143511F4E0E031C18E
:1028B4000E94363511F4E0E02CC1EB85FC856D8572
:1028C4007E850E947D3311F4E0E023C1F901EB5FC2
:1028D400FA4FDF01E989F070EC93D901AC5FBA4F8C
:1028E400E889F989F0700E94BF3519F0AF85A230EC
:1028F40051F40E94C33511F4E0E00BC10E94E135AC
:1029040011F4E0E006C104C1E2E3EE1511F00C9409
:1029140088150E94EB35F695E7959F010E94EB35EB
:10292400E170F070E987FA870E9451350E945435AE
:10293400F8010E948B33A0911E07B0911F0780916C
:102944002007909121070E94123D0E94A93551F45D
:10295400EB85FC856D857E850E947D3311F4E0E076
:10296400D8C029C0AF85A03011F0A23021F50E9453
:10297400B03509F1E0913D07F0913E0760913F07C2
:10298400709140070E94F83F69F00E94013528F4D5
:102994000E94143511F4E0E0BCC00E94363511F4F5
:1029A400E0E0B7C0EB85FC856D857E850E947D33B4
:1029B40011F4E0E0AEC0E889F989EF70F070EE83BD
:1029C400E889F9890E94623DEF70F070EF83E9892C
:1029D400F070EF70F070E8870E945A3511F00C9493
:1029E4004615E985FA85309731F10E9444350E94F5
:1029F400F2350E94C33511F4E0E08BC00E94E1354A
:102A040011F4E0E086C00E94033611F4E0E081C0D6
:102A14000E9411360E94173619F0AF85A23051F486
:102A24000E94C33511F4E0E074C00E94E13511F452
:102A3400E0E06FC028C00E941C360E94C33511F428
:102A4400E0E067C00E94E13511F4E0E062C00E945A
:102A5400033611F4E0E05DC0E09104050E942836DD
:102A64000E942C36EA2B0E94173619F0AF85A2304B
:102A740051F40E94C33511F4E0E04BC00E94E135EB
:102A840011F4E0E046C041C0E985FA853097E1F0F1
:102A94000E9444350E94F235F901EB5FFA4F0F01B1
:102AA4000E941136D0010E94BF3519F0AF85A230C3
:102AB40051F40E94C33511F4E0E02BC00E94E135CB
:102AC40011F4E0E026C021C00E941C36F901EB5F3E
:102AD400FA4FE0810E942836F901EB5FFA4F0F01AB
:102AE4000E942C36EA2BFB2BD0010E94BF3519F033
:102AF400AF85A23051F40E94C33511F4E0E009C05F
:102B04000E94E13511F4E0E004C002C0E0E001C03D
:102B1400E1E00E941B406496089526970E941540A8
:102B2400EB85FC85309711F4E0E081C0AB85BC8572
:102B3400A45EBD4F0E94513EEF83F88769877A8770
:102B44000E9430360E94330CE03011F4E0E06FC094
:102B54000E943936E25EFA4F1E2F2F2F2F931F93B8
:102B64001F5F2F4F0E943F36F070AF91BF91EC93DF
:102B74002F931F931F5F2F4F0E943F36EF2FF0E0DC
:102B8400AF91BF91EC9300E0043030F40E944536DD
:102B94001F5F2F4F0F5FF8CF0E943936E65EFA4F62
:102BA4001E2F2F2FE0E0EF83E887E987EA8700E014
:102BB4000430F8F4AF81B88589859A85E8E00E94ED
:102BC400413DEF83F88769877A87A12FB22FEC9173
:102BD400AF81B88589859A85FF27662777270E9464
:102BE400263DEF83F88769877A87115020400F5F6D
:102BF400DFCFEF81F88569857A85EF5FFF4F6F4FEF
:102C04007F4FEF83F88769877A8700E0043030F4D8
:102C14001F5F2F4F0E9445360F5FF8CF0E9430365A
:102C24000E94A10CE03011F4E0E001C0E1E00E9458
:102C34001C402D9608950E945C3611F4E0E03BC0E0
:102C44002C813D81E0E0E0933D07E0933E07E09373
:102C54003F07E0934007293FEFEF3E07B0F40E949F
:102C640062368F01083FEFEF1E0720F400240016A0
:102C7400010609F40AC00E9468360E946F3611F4F6
:102C8400E0E019C0202F312FE6CF0E9468360E9461
:102C9400753611F4E0E00FC0E0E0E0934C07E093F8
:102CA4004D07E0934E07E0934F07E0E0E0935407AD
:102CB400E0935507E1E00E941D402696089524976D
:102CC400E0E0E883E983EA83EB830E94C1340E9455
:102CD4000F40ACF4E881F9816A817B81EC5FFA4FA3
:102CE4000E947B36E881F9816A817B81EF5FFF4F27
:102CF4006F4F7F4FE883F9836A837B83E6CFE0914C
:102D04002A07F0912B0760912C0770912D07E05052
:102D1400FE4F6F4F7F4FE883F9836A837B83E82DEF
:102D2400A0E0B4E0F0E00E94B23DA0912207B0918F
:102D3400230780912407909125070E94803D0E94DB
:102D4400123DA881B9818A819B810E940F40B8F409
:102D5400E881F9816A817B810E947F3619F40E949F
:102D6400853636C0E881F9816A817B81E050FE4F67
:102D74006F4F7F4FE883F9836A837B83D0CFE8EF7B
:102D8400E0930405EFEFE0930505E0930605E6E321
:102D9400EE1519F4EFEFE0930705E0912A07F0919F
:102DA4002B0760912C0770912D070E947F3659F0F4
:102DB400E0912E07F0912F07609130077091310751
:102DC4000E947F3619F40E94853602C0E0E0F0E0EC
:102DD400249608950E941640E0912607F091270753
:102DE4006091280770912907AE81BF810E94573EE8
:102DF400288539850E948B3691F4E0912207F09161
:102E040023076091240770912507E0932607F09328
:102E1400270760932807709329072F5F3F4F0C8182
:102E24001D810E948F3651F1D9010E94F73319F0A8
:102E34000E94933669F41F930F930F5F1F4FD901BC
:102E44002F5F3F4F0E946635AF91BF91EC9315C041
:102E54000E948B3679F40E949736EC81FD810E94A2
:102E64009B3619F0EFEFFFEF0DC00C811D812F5F32
:102E74003F4F03C0EFEFFFEF05C0D3CF0E9497365B
:102E8400E0E0F0E00E941D402A960895A0970E9479
:102E94001440E0E0EA87EB87EC87ED87EEA1FFA121
:102EA4000E94A136FE017C960E94A83619F00E9469
:102EB400AE368AC1E0912607F09127076091280772
:102EC40070912907EE83FF8368877987FE01369620
:102ED400FA93EA93FE017A960E94BD36EE85FF8549
:102EE400309739F4AE81BF81888599850E9404406A
:102EF40019F40E94AE3668C10E94C436EC8BFD8B77
:102F04000E94CA36EE8BFF8B0E94D43619F40E94BD
:102F1400AE365AC1EE89FF89EC5FFA4F8F01FE018C
:102F240078969F0140E050E04B30E0E05E07B0F45B
:102F34000E948F3659F01F930F930F5F1F4FD901D3
:102F44002F5F3F4FEC91AF91BF9104C0D8010F5F49
:102F54001F4FE0E2EC934F5F5F4FE6CFD8010F5F66
:102F64001F4FE0E1EC93D8010F5F1F4F0E94E5363D
:102F74000F5F1F4FE0E0EC9340E050E04430E0E0AE
:102F84005E0740F4D8010F5F1F4FE0E0EC934F5F02
:102F94005F4FF4CFD8010F5F1F4F0E94E5360F5FDC
:102FA4001F4F0E94E5360F5F1F4F0E94E5360F5FEB
:102FB4001F4FE0E0EC9340E050E04430E0E05E0777
:102FC40040F4D8010F5F1F4FE0E0EC934F5F5F4F79
:102FD400F4CF1F930F930F5F1F4FEC89FD89F0709F
:102FE400AF91BF91EC931F930F930F5F1F4FED8928
:102FF400F070AF91BF91EC9340E050E04430E0E0DA
:103004005E0740F4D8010F5F1F4FE0E0EC934F5F81
:103014005F4FF4CFEE81FF81688579850E947F360A
:1030240019F40E94AE36D0C0EC89FD89FA93EA9374
:10303400EFEFFFEF0E94E9360E941414E03019F418
:103044000E94AE36C1C0E0912607F0912707609137
:103054002807709129070E947D3319F40E94AE3627
:10306400B3C00E945F3439F104E015E024E235E096
:1030740040E050E04032E0E05E0770F43F932F936D
:103084002F5F3F4FD8010F5F1F4FEC91AF91BF915E
:10309400EC934F5F5F4FEECFE0E2E09305054CE326
:1030A40050E04034E0E05E0728F40E94EE364F5FC3
:1030B4005F4FF7CF27C041E050E04B30E0E05E07C0
:1030C40028F40E94F5364F5F5F4FF7CF4CE050E095
:1030D4004032E0E05E0728F40E94EE364F5F5F4F17
:1030E400F7CFEEE2E0930405E0E1E0930F054AE355
:1030F40050E04034E0E05E0728F40E94EE364F5F73
:103104005F4FF7CF42E250E04B32E0E05E0728F435
:103114000E94F5364F5F5F4FF7CFEEE2E093240550
:10312400E0932505E0E1E0932F05EC89E0931E058B
:10313400ED89E0931F0540E450E04615570528F457
:103144000E94EE364F5F5F4FF8CF0E94A934EA85A4
:10315400FB856C857D85E0932607F09327076093B4
:10316400280770932907EE81FF81688579850E947D
:103174007F3619F4EFEFFFEF27C040E050E0403412
:10318400E0E05E0728F40E94EE364F5F5F4FF7CF12
:1031940041E050E0E82DDA01F0E0AE17BF0790F40B
:1031A400FA010E94FC36AE81BF81888599850E9410
:1031B400123D0E947F3619F4EFEFFFEF05C04F5F19
:1031C4005F4FE8CFE0E0F0E00E941B40A89608952E
:1031D4006C970E941440E0E0EA87EB87EC87ED8768
:1031E400EAA1FBA10E94A136FE0178960E94A836AE
:1031F40019F00E94AE36E5C0EC89E03019F40E9463
:10320400AE36DFC0E0912607F091270760912807CA
:1032140070912907EE83FF8368877987FE0174968E
:103224000E949B3619F00E94AE36CBC00E945F34D8
:1032340079F0EA85FB856C857D85A0912607B091A0
:10324400270780912807909129070E940A4019F4C2
:103254000E94AE36B6C020E030E0E82DD901F0E09F
:10326400AE17BF0710F00C947D19F9010E94FC36CB
:10327400A0912607B09127078091280790912907EC
:103284000E94123D0E947D3319F40E94AE3699C00B
:1032940040E050E04031E0E05E0750F500240216C3
:1032A400030621F400240416050609F002C042E0D6
:1032B40050E00E943334EC5FFA4F8F010E940537CF
:1032C40019F4282D332714C0D8010E94F73369F468
:1032D4000F5F1F4F0E943334E25FFA4FE017F1078C
:1032E40019F40E94AE366DC0EFCF4F5F5F4FD2CF5F
:1032F4002F5F3F4FB2CFEE81FF8168857985E093E0
:103304002607F09327076093280770932907FE0187
:103314003696FA93EA93FE0176960E94BD36EA85C4
:10332400FB856C857D85E0932607F09327076093E2
:10333400280770932907EE85FF85309719F4EFEF7E
:10334400FFEF3FC00E94CA36EA8BFB8B0E94D43643
:1033540019F4EFEFFFEF35C0EA89FB89E15EFA4F1C
:103364000E94A034EA89FB89E25EFA4F0E94A434E9
:10337400E88BF98BAA89BB89AC5FBA4FE5EEEC9375
:10338400EA89FB89E15FFA4FE081E27019F0EFEF1F
:10339400FFEF17C0EE81FF81688579850E947F3633
:1033A40019F4EFEFFFEF0DC0E889F989FA93EA9376
:1033B4000E941D16E03019F4EFEFFFEF02C0E0E0C9
:1033C400F0E00E941B40A49608956C970E9415405B
:1033D400E0E0ED83EE83EF83E887A9A1BAA1AC9185
:1033E400AC3531F4A9A1BAA11196AC91A03009F081
:1033F40016C0E0912207F091230760912407709191
:103404002507E0932607F093270760932807709316
:103414002907E0E0E0935707E0E0F0E060C1E9A1AC
:10342400FAA10E940937FE0177960E94A83619F086
:103434000E94103754C1EB89E03019F4EFEFFFEF2D
:103444004EC1AB89AE3231F4AC89AE3219F4AD89D8
:10345400A03009F069C00E945F3419F4EFEFFFEF68
:103464003EC1E0912607F0912707609128077091EB
:1034740029070E947D3319F4EFEFFFEF30C1B091BB
:103484003F05A0E0E0913E05F0E0EA2BFB2BE98B41
:10349400FA8B309729F0FA93EA930E94651008C0DA
:1034A400E0912207F091230760912407709125078A
:1034B400E0932607F0932707609328077093290762
:1034C40029A13AA10E941F370E948F3629F10E9438
:1034D400933619F40E94293709F011C00E942D3740
:1034E4000E9435370E942D370E94393719F4EFEFC7
:1034F400FFEFF5C00E9444372E5F3F4F0CC01F936F
:103504000F930F5F1F4FD9012F5F3F4F0E94663506
:10351400AF91BF91EC93D8CFD8010F5F1F4F0E949A
:103524004A37E0E0F0E0DBC0FE0173968F01FE0154
:1035340073969F01FE017E962E173F07A8F40E9402
:10354400053761F03F932F932F5F3F4FD8010F5FF3
:103554001F4F0E946635AF91BF9104C0D9012F5F00
:103564003F4FE0E2EC93E6CF0E944D37FE017396A5
:103574008F01E0E0E98BEA8BE0E0EB87EC8740E049
:10358400AB85BC85AC15BD0510F00C946F1BE989A7
:10359400FA890E945137E0E0EF87E88BAF85B8895C
:1035A400509710F00C94691B0E9465370E947E347A
:1035B40019F40E94103793C00E946537E987FA878F
:1035C400E0E0ED87EE87AD85BE851B97C0F40E94D1
:1035D4006C370C900E947337E01511F441E00CC075
:1035E4000E946C37EC91E03029F40E947337E0328A
:1035F40031F002C040E003C00E947D37E4CF403088
:1036040011F40C94641BE985FA85E15FFA4FE081BB
:10361400E03111F040E056C0E985FA85E15EFA4FE9
:103624000E94A034E985FA85E25EFA4F0E94A43430
:10363400ED87FE870E948337E0932607F0932707E0
:10364400609328077093290729A13AA10E948B3619
:1036540039F407E517E00E9497362F5F3F4F02C009
:103664000E941F370E948F3629F10E94933619F465
:103674000E94293709F011C00E942D370E94353766
:103684000E942D370E94393719F4EFEFFFEF27C05E
:103694000E9444372E5F3F4F0CC01F930F930F5F60
:1036A4001F4FD9012F5F3F4F0E946635AF91BF91E5
:1036B400EC93D8CFD8010F5F1F4F0E944A37E0E048
:1036C400F0E00DC00E9489370E948F3567CFE989E9
:1036D400FA893196E98BFA8B53CF0E9410370E94F6
:1036E4001C40A396089568970E941540AD8DBE8D29
:1036F400AC91AE3261F4AD8DBE8D1196AC91AE320B
:1037040031F4AD8DBE8D1296AC91A03009F036C067
:103714000E945F3419F4EFEFFFEFD9C0E091260760
:10372400F091270760912807709129070E947D3343
:1037340019F4EFEFFFEFCBC0B0913F05A0E0E091AB
:103744003E05F0E0EA2BFB2BED87FE87309719F05E
:103754000E94833708C0E0912207F091230760910B
:10376400240770912507E0932607F09327076093B9
:10377400280770932907E0E0F0E0A9C00D8D1E8DA5
:10378400FE013F969F01FE017A962E173F07F0F443
:10379400D8010E94F73369F43F932F932F5F3F4F73
:1037A400D8010F5F1F4F0E946635AF91BF91EC9314
:1037B4000CC00E94053731F4D9012F5F3F4FE0E27E
:1037C400EC9303C0EFEFFFEF82C0DDCF0E944D37D3
:1037D400E0E0ED87EE87E0E0EF83E88740E0AF814B
:1037E400B885AC15BD0510F00C94671CED85FE85FD
:1037F4000E945137E0E0EB87EC87AB85BC8550979E
:1038040010F00C94641CEB85FC85EE0FFF1F0E94E6
:10381400593DED83FE830E947E3419F4EFEFFFEFF0
:1038240056C0E0E0E987EA87A985BA851B97E8F4E2
:10383400E985FA85DE011F96AE0FBF1F0C90AD819E
:10384400BE81EA0FFB1FEC5FFA4FE081E01511F433
:1038540041E005C040E0EBE0F0E0E987FA87E98564
:10386400FA853196E987FA87DFCF403031F1ED816F
:10387400FE81E15FFA4FE081E03111F040E01DC0CC
:10388400ED81FE81E15EFA4F0E94A034ED81FE815C
:10389400E25EFA4F0E94A434E987FA87FA93EA9326
:1038A4000E946510E0932607F0932707609328078A
:1038B40070932907E0E0F0E00AC00E948F370E946D
:1038C40089379BCF0E947D378ACFEFEFFFEF0E94AD
:1038D4001C406F9608950E94953719F00E94A837EE
:1038E40056C2EC89E03019F40E94A83750C20E94F5
:1038F400B737A885B9858A859B850E94044021F045
:1039040000240216030619F40E94A83740C2E0E01E
:10391400EE83EF83E9E2F2E0FA93EA930E94F6324F
:103924000E94CF3731F4E9E0E0933C070E94A837C6
:103934002EC2AE81BF81A45EBD4FE6E5F4E464E32C
:1039440076E40E94573EAE81BF811C96E4EEF0E01F
:10395400ED93FC93AE81BF81A05EBD4FE6E4F4E439
:1039640066E675E40E94573E0E94D33719F40E941C
:10397400A8370DC20E94EF3719F40E94F93707C225
:103984000E94003811F40C94E81DAAA1A23011F091
:10399400A33031F4FA01E15FFA4FE081E17009F4F8
:1039A40003C00E940838F3C100E010E00C30E0E0EE
:1039B4001E0768F4F801AE81BF81EA0FFB1F0F01F7
:1039C400AAEBB7E00E940C380F5F1F4FEFCFFA014C
:1039D400E15EFA4F0E94A034FA01E25EFA4F0E94BF
:1039E400A434AE81BF811C96ED93FC930E941238DF
:1039F400AE81BF811E96ED93FC930E9418380E94FD
:103A040020380E942B3800E010E00430E0E01E076C
:103A140080F5EE81FF81E45EFD4FFF93EF93DF01BC
:103A24000E94513EDF01CB01E8E00E94413DAF918D
:103A3400BF910E94573EEE81FF81E45EFD4F0F016E
:103A4400DF010E94513E7F936F93FF93EF930E9497
:103A54003238EC91AF91BF918F919F91FF276627E8
:103A640077270E94263DD0010E94573E0F5F1F4FCB
:103A7400CCCFAE81BF81A05EBD4FE0E0F0E060E05E
:103A840070E00E94573EAAA1A23041F50E942B3853
:103A940000E010E00630E0E01E0738F40E943238FF
:103AA400E0E0EC930F5F1F4FF5CF0E943938B1F07F
:103AB400F9010E9442380E947F3619F40E94F937B6
:103AC40066C10E9420380E9453380E941D16AE81A0
:103AD400BF811C96E0E0F0E0ED93FC930E945A381D
:103AE4000E946138AE81BF815096ED93FC930E9491
:103AF400393821F40E941238309709F008C0AAA17D
:103B0400A13019F40E94083842C1E2E0EAA3E88532
:103B1400F9856A857B85AE81BF8156960E94573EA2
:103B2400FA01AE81BF815A96ED93FC930E946538E9
:103B3400AAA1A330B1F4EE81FF81FA93EA93E0E005
:103B4400F0E060E070E00E94663EE1E0EA930E94EB
:103B54009526EF3FAFEFFA0719F40E94F93717C122
:103B64001DC00E945A380E9465100E94663E0E9441
:103B7400330C00E010E00615170538F40E946D3888
:103B84000E9473380F5F1F4FF6CFEE81FF817C9642
:103B9400AE81BF81A95DBD4FED93FC93EAA1AE81D7
:103BA400BF81AC5DBD4FEC93E0E0E0933C07EC8556
:103BB400FD856E857F85E0932607F0932707609344
:103BC400280770932907EE81FF81E1C0E2E0E093CA
:103BD4003C070E94F937DBC00E94953731F0EEE0D4
:103BE400E0933C070E94A837D2C0EC89E03019F476
:103BF4000E947738CCC00E94B737E885F9856A857A
:103C04007B850E94F83F31F4EFE0E0933C070E948B
:103C1400A837BDC00E94D33731F4E4E0E0933C07F9
:103C24000E94A837B4C00E94EF3719F40E94773875
:103C3400AEC00E94003871F0FA01E15FFA4FE081F2
:103C4400E170E13031F4E6E0E0933C070E94A837EC
:103C54009EC058C000E010E00B30E0E01E0770F496
:103C64000E947B3831970F01A889B989ED91A88BFF
:103C7400B98BD001EC930F5F1F4FEECFAA89BB899C
:103C8400E0E2EC930E947B380E9481380E948138E4
:103C940000E010E00430E0E01E0728F40E948138C0
:103CA4000F5F1F4FF7CF0E9481380E9481380E9416
:103CB40081380E94813800E010E00430E0E01E0703
:103CC40028F40E9481380F5F1F4FF7CF0E9481387C
:103CD4000E94813800E010E00430E0E01E0728F480
:103CE4000E9481380F5F1F4FF7CFE885F9856A85F9
:103CF4007B850E947F3631F4E3E0E0933C070E9429
:103D0400A83745C0EC85FD856E857F85E093260741
:103D1400F09327076093280770932907EBA1FCA170
:103D2400FA93EA93E2E0EA930E946D1C0E94CF3773
:103D340019F4E0E0F0E02BC0EAA1E03019F1EC85E1
:103D4400FD856E857F850E947D3331F4E4E0E09348
:103D54003C07E0E0F0E01BC0FA01E05FFA4F0F011E
:103D6400E081AAA1EA2BD001EC93EC85FD856E8558
:103D74007F850E947F3631F4E3E0E0933C07E0E086
:103D8400F0E005C0E0E0E0933C07EE81FF810E9493
:103D94001B40A596089566970E941640E0E0E887C8
:103DA400E987EA87EB87EA8DFB8DFA93EA93FE01B4
:103DB4003A96FA93EA93FE0170960E94A83621F08F
:103DC400EEE00E948A387EC0EC85E03021F4E5E024
:103DD4000E948A3877C0E0912607F0912707609106
:103DE400280770912907EC83FD836E837F83FE018E
:103DF4003496FA93EA93FE013E96FA93EA930E946C
:103E0400610D8F01AC81BD818E819F810E94044030
:103E140021F000240016010621F4EFE00E948A3804
:103E240051C0E885F9856A857B85E0932607F09380
:103E3400270760932807709329070E949B380E94E4
:103E44001C3E9F01F901AC81BD818E819F81662753
:103E540077270E94213DAC83BD838E839F83EC81B1
:103E6400FD816E817F810E947D3319F40E94A33805
:103E740029C0A4E0B5E0A20FB31FE5EEEC93EC81FA
:103E8400FD816E817F810E947F3619F40E94853600
:103E940019C0F901E15EFA4F0E94A034F901E25E13
:103EA400FA4F0E94A4349F01022E032A49F03A9348
:103EB4002A930E941D16E03019F4EFEFFFEF02C0C1
:103EC400E1E0F0E00E941D406C96089568970E941E
:103ED4001540ED8DFE8DFA93EA930E942D12EB8B23
:103EE400FC8B309719F40E94A93897C0E0E0E98F61
:103EF400EA8FEB8FEC8FEF8DF8A1FA93EA93FE0132
:103F04007B96FA93EA93FE0139960E94A83621F033
:103F1400EEE00E94AF3881C0ED81E03021F4E5E0AD
:103F24000E94AF387AC00E94C038FA93EA93EF8DAA
:103F3400F8A1FA93EA930E94610D1E2F2F2F012EF0
:103F4400022A19F00E94CF3868C00E94C0380E942B
:103F540009370E94610D1E2F2F2FAD89BE898F89CD
:103F6400988D0E94044021F000240116020619F4E1
:103F74000E94CF3852C0E98DFA8D6B8D7C8DE09311
:103F84002607F09327076093280770932907F30106
:103F9400AD89BE898F89988D662777270E941C3E3C
:103FA4001E2F2F2FE12FF22FAD89BE898F89988D77
:103FB400662777270E94213DAD8BBE8B8F8B988F10
:103FC400ED89FE896F89788D0E947D3319F40E94F2
:103FD400A33823C0E12FF22FEC5FFA4F3E2F4F2F6F
:103FE40000E00B3070F44F933F933F5F4F4FAB892A
:103FF400BC89ED91AB8BBC8BAF91BF91EC930F5F00
:10400400F0CFED89FE896F89788D0E947F3619F48F
:10401400EFEFFFEF02C0E0E0F0E00E941C40A19649
:1040240008950E94E13821F00E94E938A13019F482
:10403400EFEFFFEF38C00E94E938A23021F00E9470
:10404400E938A33071F50E945A380E9465107F93B5
:104054006F93FF93EF930E94EF380E948A3DAF91D4
:10406400BF918F919F910E94F53800E010E00615F2
:10407400170538F40E94FE38E081EC930F5F1F4F60
:10408400F6CFEA81FB816C817D810E947F3619F431
:10409400EFEFFFEF08C00E94023919F4EFEFFFEFD2
:1040A40002C0E0E0F0E01981088128960895A88113
:1040B400B9810E940A3969F0E881F981FA93EA9397
:1040C4000E941320EF3FAFEFFA0719F4EFEFFFEF71
:1040D40013C00E940F39E0E0E883E983E0E0F0E0F8
:1040E4000BC0E881F981309719F4EFEFFFEF04C0BA
:1040F4000E940F39E0E0F0E0229608952C970E9488
:104104001540EB8DFC8DFA93EA930E942D12ED83FA
:10411400FE83309719F40E94A9383FC210E020E0D2
:104124001615270510F00C94CD22E12FF22F0E94D2
:104134004238ED87FE876F87788B0E947D3319F4B0
:10414400EFEFFFEF2AC200E0003110F00C94CA2216
:10415400E02FF0E0EE0FFF1F0E94593D3E2F4F2F3E
:10416400EAEBF7E0ED83FE83E32FF42FEC5FFA4FE5
:10417400EF83F887AF81B885EC91E03019F4EFEF65
:10418400FFEF0BC2ED81FE81FA93EA93E985FA858C
:10419400FA93EA93EBE0EA930E94953CE03011F045
:1041A4000C94C822E32FF42FE15FFA4FE081AB892E
:1041B400BC89EC93E32FF42FED5DFA4FE0810E946C
:1041C4009B33E32FF42FEE5DFA4FE0810E94A63378
:1041D4007F936F93FF93EF93E32FF42FEF5DFA4FE9
:1041E400E0810E94AE33AF91BF918F919F910E9465
:1041F400263DDF01CB01E32FF42FE05EFA4F0E944E
:104204009934A98DBA8D0E94573EE32FF42FE15EB5
:10421400FA4F0E94A034E32FF42FE25EFA4F0E947B
:10422400A434A989BA89ED93FC93E32FF42FEB5EB0
:10423400FA4F0E94A034E32FF42FEC5EFA4FE08192
:104244000E949533E987FA876B877C87EF89F88D1D
:104254000E941539FF93EF930E941C390E94E23D9E
:10426400E05DFF4F6F4F7F4FAF91BF910E942C399C
:10427400FF93EF930E941C390E941C3EE05DFF4FA8
:104284006F4F7F4FAF91BF910E9434390E942C39F8
:10429400FF93EF930E943D390E94E23DE05DFF4FA2
:1042A4006F4F7F4FAF91BF910E942C39FF93EF93D3
:1042B4000E943D390E941C3EE05DFF4F6F4F7F4FCF
:1042C400AF91BF910E9434390E944C39FF93EF9310
:1042D4000E946539AF91BF910E947439FF93EF93A7
:1042E4000E948A39AF91BF910E949939FF93EF934D
:1042F4000E94AF39AF91BF910E942C39FF93EF9385
:104304000E94BE39AF91BF910E94CD390E94CD3930
:10431400EC93E32FF42FED5EFA4F0E94A034E32FC9
:10432400F42FEE5EFA4FE0810E9495330E94D63955
:10433400FF93EF930E94E1390E94E23DE05DFF4F5D
:104344006F4F7F4FAF91BF910E942C39FF93EF9332
:104354000E94E1390E941C3EE05DFF4F6F4F7F4F8A
:10436400AF91BF910E94F139FF93EF930E94FA3904
:104374000E94E23DE05DFF4F6F4F7F4FAF91BF91D1
:104384000E942C39FF93EF930E94FA390E941C3E3D
:10439400E05DFF4F6F4F7F4FAF91BF910E94F139A6
:1043A400FF93EF930E940A3A0E94E23DE05DFF4FC3
:1043B4006F4F7F4FAF91BF910E942C39FF93EF93C2
:1043C4000E940A3A0E941C3EE05DFF4F6F4F7F4FF0
:1043D400AF91BF910E941A3AE32FF42FE35EFA4F94
:1043E4000E94A034E32FF42FE45EFA4FE0810E9490
:1043F4009533E987FA876B877C87ED89FE890E946C
:104404001539FF93EF930E941C390E94E23DE05D51
:10441400FF4F6F4F7F4FAF91BF910E942C39FF9395
:10442400EF930E941C390E941C3EE05DFF4F6F4FCA
:104434007F4FAF91BF910E9434390E942C39FF9372
:10444400EF930E943D390E94E23DE05DFF4F6F4FC4
:104454007F4FAF91BF910E942C39FF93EF930E943D
:104464003D390E941C3EE05DFF4F6F4F7F4FAF917F
:10447400BF910E9434390E944C39FF93EF930E94FC
:104484006539AF91BF910E947439FF93EF930E94F5
:104494008A39AF91BF910E949939FF93EF930E949B
:1044A400AF39AF91BF910E942C39FF93EF930E94D3
:1044B400BE39AF91BF910E94CD390E94CD39EC93A2
:1044C400E32FF42FE55EFA4F0E94A034E32FF42F7C
:1044D400E65EFA4FE0810E9495330E94D639FF933D
:1044E400EF930E94E1390E94E23DE05DFF4F6F4F80
:1044F4007F4FAF91BF910E942C39FF93EF930E949D
:10450400E1390E941C3EE05DFF4F6F4F7F4FAF913A
:10451400BF910E94F139FF93EF930E94FA390E94F0
:10452400E23DE05DFF4F6F4F7F4FAF91BF910E941F
:104534002C39FF93EF930E94FA390E941C3EE05DF0
:10454400FF4F6F4F7F4FAF91BF910E94F139FF939F
:10455400EF930E940A3A0E94E23DE05DFF4F6F4FE5
:104564007F4FAF91BF910E942C39FF93EF930E942C
:104574000A3A0E941C3EE05DFF4F6F4F7F4FAF91A0
:10458400BF910E941A3AE0E0F0E007C00F5FDCCD73
:104594001F5F2F4FC5CD0E94203A0E941C406D968C
:1045A400089524970E941740EF81F885309719F4F5
:1045B400EFEFFFEFEAC00E94263A7F936F93FF93D9
:1045C400EF93AF81B885A45EBD4F0E94513EAF9179
:1045D400BF918F919F910E940A4039F4AF81B885B1
:1045E4000E942D3AEFEFFFEFD0C00E94323A0081D3
:1045F400AF81B885A95DBD4F0D901C90AF81B88582
:104604000E94393A11F00C94BE230E94413AA23020
:1046140021F00E94413AA33061F510E020E0161524
:10462400270558F4A12FB22FAC5FBA4F0E94473A26
:10463400E081EC931F5F2F4FF2CF0E944D3A7F939E
:104644006F93FF93EF930E94553A0E94B7330E94F1
:104654008A3DAF91BF918F919F910E945B3AEB810C
:10466400FC816D817E810E947F3619F4EFEFFFEFAC
:104674008CC0EF81F8850E94643AB0F40E944D3AF0
:104684007F936F93FF93EF93EF81F8850E946B3ACA
:10469400AF91BF918F919F910E945B3A0E94553ACE
:1046A4003196ED93FC9342C0EF81F885A089B189DE
:1046B400A83FEFEFBE0748F0AF81B8850E94713A7A
:1046C4000E94263A0E94763A60C0EF81F885A0895C
:1046D400B189BA93AA930E946510EB83FC836D831E
:1046E4007E83AF81B8850E947F3AAF81B8851E96DC
:1046F4000E944D3EAF81B8855296ED93FC93AF81F5
:10470400B88550960E944D3EAF81B8851E96ED93B4
:10471400FC93EF81F885A685B785BA93AA930E9486
:104724006138AF81B8855096ED93FC93EB81FC81A1
:104734006D817E810E947D3319F4EFEFFFEF25C078
:1047440010E020E01615270568F40E94473A0F018F
:10475400A4E0B5E0A10FB21FEC91D001EC931F5F70
:104764002F4FF0CFEF81F8857C96AF81B885A95D96
:10477400BD4FED93FC9305C00E94323A3196ED9300
:10478400FC930E94263A0E94763A0E941E40299683
:1047940008950E94E13829F00E94853A0E94F83F6A
:1047A40019F4EFEFFFEFBBC20E94E938A33021F008
:1047B4000E94E938A23009F403C0EFEFFFEFAFC263
:1047C4000E94853A7F936F93FF93EF930E948C3AF4
:1047D400AF91BF918F919F910E940A4019F40E945A
:1047E400933A09F409C00E949A3A0E94A13A0E949D
:1047F400A83AE081F0E093C20E94A13ADF01EE8181
:10480400FF817C96EA17FB0711F00C94D72400E093
:1048140010E00615170538F40E94FE38E081EC9389
:104824000F5F1F4FF6CF0E945A380E9465107F9386
:104834006F93FF93EF930E94EF380E948A3DAF91EC
:10484400BF918F919F910E94F538EA81FB816C8121
:104854007D810E947F3619F4EFEFFFEF60C2EE8195
:10486400FF81A489B5891297D8F00E945A380E9412
:1048740065107F936F93FF93EF930E94AB3A329747
:10488400DF01F3010E948A3DAF91BF918F919F9107
:104894000E94F5380E94AB3A3197ED93FC9365C0C2
:1048A400EE81FF81A485B585BF93AF930E94B13A91
:1048B400AF91BF91EA17FB0731F4E7E0E0933C07BF
:1048C400EFEFFFEF2CC2AE81BF815496E82DF0E0EC
:1048D400ED93FC930E94B13AAE81BF815096ED9363
:1048E400FC93AE81BF8152960E944D3EAE81BF8142
:1048F4001E96ED93FC93EE81FF81A685B785BF9349
:10490400AF930E941238AF91BF91EA17FB0751F0A1
:104914000E945A380E947712AE81BF815296ED935D
:10492400FC9302C00E9418380E945A380E946510F5
:104934007F936F93FF93EF93E82DFF2766277727E5
:10494400E150F04060407040DF01CB01F301662785
:1049540077270E94B73DAF91BF918F919F910E949D
:10496400123DEA83FB836C837D83EA81FB816C8146
:104974007D810E94663E0E94330C00E010E0061523
:10498400170538F40E946D380E9473380F5F1F4F6B
:10499400F6CFEE81FF817C96E150FE4FAE81BF8160
:1049A400A95DBD4FED93FC9305C00E94A13A3197D8
:1049B400ED93FC930E94853A3197604070400E94C9
:1049C400573E0E94A13A0E94A83AE081F0E0A7C1B4
:1049D4000E94B73AEE81FF81309719F4EFEFFFEFB1
:1049E4009EC10E94E938A13031F4E6E0E0933C072F
:1049F400EFEFFFEF94C10E943938D1F40E94C4361E
:104A0400AE81BF811C96ED93FC930E94BB3A0E9439
:104A14001238AE81BF811E96ED93FC930E945338E9
:104A24000E94C33A0E94CA3A19F4EFEFFFEF77C12C
:104A34000E94853A7F936F93FF93EF930E948C3A81
:104A4400AF91BF918F919F910E940A4019F40E94E7
:104A5400933A09F43FC00E94B13AAE81BF815296A5
:104A6400ED93FC930E94C436AE81BF811E96ED93F4
:104A7400FC930E94BB3A0E946538EE81FF81A289B3
:104A8400B389BA93AA93E885F985A685B785BA93BD
:104A9400AA930E946F3619F4EFEFFFEF40C10E9412
:104AA4005A380E94C33A0E94753619F4EFEFFFEFAB
:104AB40036C10E94023919F4EFEFFFEF30C10E94B2
:104AC4009A3AEE81FF817C96AE81BF81A95DBD4F8C
:104AD400ED93FC930E94A13AA885A083AE81BF8187
:104AE400A95DBD4F0D901C90AE81BF810E94393AE3
:104AF40011F00C946B260E94853A7F936F93FF9379
:104B0400EF930E948C3AAF91BF918F919F910E9435
:104B14000A4030F4E0E1E0933C07EFEFFFEFFFC021
:104B24000E945A380E9465107F936F93FF93EF930E
:104B34000E94EF380E948A3DAF91BF918F919F915F
:104B44000E94F53800E010E00615170538F40E94BD
:104B5400FE38E081EC930F5F1F4FF6CFEA81FB81B3
:104B64006C817D810E94663E0E94A10CEE81FF81D2
:104B74000E94643AC0F40E945A380E9465107F93E0
:104B84006F93FF93EF93EE81FF810E946B3AAF9195
:104B9400BF918F919F910E94F5380E94AB3A319654
:104BA400ED93FC9355C0EE81FF81A089B189A83FA4
:104BB400EFEFBE0718F0E6E3EE1561F0EE81FF813A
:104BC400A089B189A83FEFE0BE0718F0E2E3EE1533
:104BD40009F01AC00E94853A7F936F93FF93EF9375
:104BE4000E948C3AAF91BF918F919F910E940A408D
:104BF40031F0E0E2E0933C07EFEFFFEF90C0AE81CD
:104C0400BF810E94713A1AC00E94B13AAE81BF813D
:104C14005296ED93FC93AE81BF8150960E944D3E17
:104C2400AE81BF811E96ED93FC930E945A380E9478
:104C34006138AE81BF815096ED93FC930E94653834
:104C44000E945A380E946510EA83FB836C837D833B
:104C54000E94933A01F5EA81FB816C817D810E9477
:104C64007D3319F4EFEFFFEF5AC000E010E000309D
:104C7400E2E01E0738F40E946D380E9473380F5F1B
:104C84001F4FF5CFEE81FF817C96AE81BF81A95D78
:104C9400BD4FED93FC930E948C3A7F936F93FF93E7
:104CA400EF930E94853AAF91BF918F919F910E949B
:104CB4000A4041F40E948C3AEF5FFF4F6F4F7F4FE1
:104CC4000E94573E0E94023919F4EFEFFFEF27C00C
:104CD4001CC00E94A13A3196ED93FC930E948C3A39
:104CE4007F936F93FF93EF930E94853AAF91BF91A7
:104CF4008F919F910E940A4041F40E948C3AEF5F89
:104D0400FF4F6F4F7F4F0E94573E0E94853AEF5FDF
:104D1400FF4F6F4F7F4F0E94573EE885F0E01981A7
:104D240008812996089528970E941640E989FA89EE
:104D3400309719F40E94203A47C1EC85E03081F4A1
:104D4400A989BA89A05EBD4F0E94513EAD85BE853A
:104D54008F8598890E94123DED87FE876F87788B37
:104D64000E94D03A0E940A4038F4A989BA890E9464
:104D74002D3A0E94DB3A28C1AC85A13041F40E944F
:104D8400D03A0E941C3DED87FE876F87788BA989F6
:104D9400BA890E940A3959F0E989FA89FA93EA939F
:104DA4000E941320309719F0EFEFFFEF0DC1A9898E
:104DB400BA891C962D913C91F901A989BA891E964C
:104DC400ED93FC933A932A930E946138A989BA8996
:104DD4005096ED93FC93A989BA895296E0E0F0E0ED
:104DE400ED93FC930E941B34AD85BE858F85988915
:104DF4000E94E23DEC83FD836E837F830E941B341B
:104E0400AD85BE858F8598890E941C3EE887F98709
:104E14006A877B87A989BA89AA5DBD4FE0E0EC93D4
:104E2400EC81FD816E817F810E94F83F11F40C9426
:104E34006B27E989FA89A089B189A83FEFEFBE07FA
:104E440000F1AC81BD818E819F81A130E0E0BE077D
:104E5400E0E08E07E0E09E0739F4A885B9858A85ED
:104E64009B850E94044009F005C0A989BA890E9463
:104E7400713A2FC0A989BA890E942D3A0E94DB3A5F
:104E8400A3C0A989BA8950962D913C91A989BA8960
:104E94001E960E944D3EA989BA895296ED93FC93C1
:104EA400F901A989BA891E96ED93FC930E94623692
:104EB400A989BA895096ED93FC93EC81FD816E81AA
:104EC4007F81319760407040EC83FD836E837F83E4
:104ED400A7CFE989FA89A685B785BA93AA930E94D0
:104EE4006510EC83FD836E837F83A989BA890E9450
:104EF4007F3A0E94E13A0E940F40B0F00E949B3832
:104F04000E94123DEC83FD836E837F830E94E13A0D
:104F14000E94213DA887B9878A879B87A989BA8976
:104F240054960E94E93AE5CFEC81FD816E817F8140
:104F34000E947D3319F4EFEFFFEF46C000E010E06C
:104F44000615170550F4E989FA897C96E00FF11FDC
:104F54000E9473380F5F1F4FF3CFA989BA89AA5DE6
:104F6400BD4FAC91A13039F4A885B9858A859B855C
:104F74000E94044009F00DC0A989BA895C96F30126
:104F84003197EA0FFB1FA989BA89A95DBD4FED933B
:104F9400FC93A989BA895C96E885F9856A857B853D
:104FA400EA0FFB1FA989BA89A95DBD4FED93FC9354
:104FB400ED85FE856F857889A989BA89A05EBD4F84
:104FC4000E94573EE0E0F0E00E941D406396089581
:104FD400E881F981309729F4EFEFFFEF6FEF7FEF6E
:104FE40022C00E94EF3A1FC0E881F981309719F47A
:104FF400EFEFFFEF18C0A881B981A45EBD4F0E94F6
:10500400513E7F936F93FF93EF930E94EF3AAF91DA
:10501400BF918F919F910E940A4019F4E1E0F0E062
:1050240002C0E0E0F0E0229608950E945C3609F4A4
:1050340030C000E010E00032E0E01E0750F5EEE47E
:10504400F3E0FA93EA9380E00E942832229620E06B
:1050540030E02031E0E03E07C8F4EFEDF3E0FA93EE
:10506400EA93AE81BF815C96F801EE0FFF1F0E94A8
:10507400593DE20FF31FAE0FBF1F0E94F63A84E0C2
:105084000E94283226962F5F3F4FE3CF0F5F1F4FBA
:10509400D2CF0E941D40269608951A930A93EA815E
:1050A400FB81309709F41AC0EEE4F3E0FA93EA9333
:1050B40080E00E942832229600E010E00030E2E016
:1050C4001E0760F4EA81FB817C96E00FF11FE0810A
:1050D400EA930E9442060F5F1F4FF0CF19810881A7
:1050E40024960895E2E0EBBBE3E0EABBEFEFE8BB14
:1050F400E0E0E7BBEFEFE5BBE0E0E4BBEFEFE2BBF2
:10510400E0E0E1BBEFEFE3B9E0E0E2B9EFEFE09319
:105114006200E0E0E0936100EFE1E0936500E0E02D
:10512400E09364000895E0E0EBB9E8E1EAB9E6E071
:10513400E0939500E0E0E0939000E8E0E9B9089599
:10514400E0E0E0939A00E0939B00E6E0E0939D00AA
:10515400E7E0E0939900E0E0E0939800E8E1E09371
:105164009A000895F894E0E0ECBFE0936D000E948B
:1051740074280E9495280E94A228E0E0E5BFE093ED
:105184006A00EABFE9BFE7BFE0937D007894089521
:10519400E5EEF3E0FA93EA9380E00E942832229647
:1051A400E6EFF3E0FA93EA9380E00E942832229635
:1051B400EDE2F4E0FA93EA9380E00E94283222962A
:1051C400EBE5F4E0FA93EA9380E00E942832229619
:1051D400E7E8F4E0FA93EA9380E00E94283222960A
:1051E400EAEBF4E0FA93EA9380E00E9428322296F4
:1051F400EAEEF4E0FA93EA9380E00E9428322296E1
:10520400E5E2F5E0FA93EA9380E00E94283237C0A1
:10521400E7E5F5E0FA93EA9380E00E9428322296CB
:10522400EDE6F5E0FA93EA9380E00E9428322296B4
:10523400E3E9F5E0FA93EA9380E00E9428322296AB
:10524400EAEBF5E0FA93EA9380E00E942832229692
:10525400E8EEF5E0FA93EA9380E00E942832229681
:10526400ECE1F6E0FA93EA9380E00E942832229679
:10527400E3E4F6E0FA93EA9380E00E94283222966F
:1052840008955F9B03C00E943206FBCF08950E94DD
:10529400174000E010E0EB81FC810E171F07BCF5FE
:1052A4000E9432062E2F2A3011F02D3021F40E9454
:1052B400FD3AF8012FC02830C1F40024001601067D
:1052C4009CF42A930E944206E0E2EA930E9442067A
:1052D4002A930E944206ED81FE813197ED83FE837D
:1052E4000E94FD3A0150104011C02B3129F40E9454
:1052F400FD3AE0E0F0E00EC02A930E944206AD8140
:10530400BE812D93AD83BE830F5F1F4FC4CF0E9418
:10531400FD3AF8010E941E4027960895E881F9811C
:10532400AB81BC81EA17FB0731F0EAE9F6E0FA93B6
:10533400EA9380E011C0AA81A13049F4E3EAF6E0DF
:105344000E94023B84E00E942832269608C0E4EBC7
:10535400F6E0FA93EA9380E00E942832229625969A
:10536400089524970E9417400E940C3B0E94123B10
:10537400E02FFF2766277727EB83FC836D837E83EB
:1053840010E020E0EF81A12FB22FF0E0AE17BF07AD
:1053940010F00C940D2A0E940C3B083071F412504A
:1053A4002040AB81BC818D819E81E8E00E944D3D0F
:1053B400EB83FC836D837E8309C00D3011F00A30CA
:1053C40029F4EB81FC816D817E8129C00B3129F4A4
:1053D400EFEFFFEF6FEF7FEF22C00E94123BAB8134
:1053E400BC818D819E81E4E00E94413DEB83FC837E
:1053F4006D837E83E02FAB81BC818D819E81FF27ED
:10540400662777270E94263DEB83FC836D837E838A
:105414001F5F2F4FB7CFEB81FC816D817E810E948E
:105424001E4028960895EF976C970E94144000E060
:1054340010E0E1E0EE83FE01EF59FF4FE081E4323A
:1054440071F4E0ECF6E0FA93EA9380E00E942832EB
:105454002296EBB10E94853DE074D9F79EC2E133F8
:1054640081F4E8EDF6E0FA93EA9380E00E942832B2
:1054740022960E944707F0E00E94173B0E941C3BC3
:105484008CC2E23319F40E94C90E87C2E33379F562
:10549400EBEEF6E0FA93EA9380E00E94223B0E944E
:1054A400283B21F1EEEFF6E0FA93EA9380E00E94C4
:1054B400223B0E94173B0E94EE1DE093C707F09326
:1054C400C807E9E0F7E0FA93EA9380E00E94323BF0
:1054D4000E94E9360E941C3BE091C707F091C8077F
:1054E400309721F0FA93EA930E94592056C2E4338C
:1054F400A9F4E4E1F7E0FA93EA9380E00E94223B06
:105504000E94283B51F0FE01FB96FA93EA930E9415
:10551400CD1E0E94E9360E943A3B3FC2E53321F595
:10552400E7E2F7E0FA93EA9380E00E94223B0E94CC
:10553400283BC9F0E5E4F7E0FA93EA9380E00E949F
:10554400403B0E94453B79F0FE01FB96FA93EA93B7
:10555400FE01EB5AFF4FFA93EA930E94681F0E94E0
:10556400E9360E943A3B19C2E63311F00C94262B1B
:10557400E5E5F7E0FA93EA9380E00E94223B0E947B
:10558400283B11F40C94252BE4E6F7E0FA93EA9314
:1055940080E00E94403B0E94523BF901E133A0E0CD
:1055A400FA0759F4EFE8F7E0FA93EA9380E00E94EF
:1055B400223BFA93EA93E1E01DC0E233A0E0FA074C
:1055C40059F4E9E9F7E0FA93EA9380E00E94223B78
:1055D400FA93EA93E2E00EC0E333A0E0FA0789F419
:1055E400E4EAF7E0FA93EA9380E00E94223BFA931C
:1055F400EA93E3E0EA930E946D1CE093C707F093FB
:10560400C807E091C707F091C807309741F4E0EB71
:10561400F7E00E94023B84E019D7269614C0E6EC1A
:10562400F7E0FA93EA93FE01FD96662777270E9436
:10563400663E84E00BD72696E2E0E093C6070E941C
:105644000A29E0E0EE83A9C1E733A9F4E7EEF7E025
:10565400FA93EA9380E00E94223B0E94283B51F097
:10566400FE01FB96FA93EA930E9448170E94173BA7
:105674000E943A3B92C1E833A9F4EBEFF7E0FA93C6
:10568400EA9380E00E94223B0E94283B51F0FE01F5
:10569400FB96FA93EA930E94EA180E94173B0E9431
:1056A4003A3B7BC1E933A9F4E1E1F8E0FA93EA93E8
:1056B40080E00E94223B0E94283B51F0FE01FB96B1
:1056C400FA93EA930E94E7190E94173B0E943A3B1F
:1056D40064C1E03311F00C94DC2BE2E3F8E0FA93BC
:1056E400EA9380E0B3D622960E94453B11F40C94D1
:1056F400DB2BFE01ED5AFF4FFA93EA93FE013D9630
:10570400FA93EA93FE01B996FA93EA93FE01759629
:10571400FA93EA931A930A93EDB7FEB73197FA9383
:10572400EA935F934F930E9480204F915F91EF3FE4
:10573400AFEFFA07B9F1E9E4F8E00E94573B84E0DF
:1057440085D62696FE01B596FA93EA930E94713C9B
:10575400E5E7F8E0FA93EA9380E078D62296FE0132
:105764003F96FA93EA930E94713CE7E8F8E0FA93D3
:10577400EA93D8010E94F63A84E068D62696EDE9C9
:10578400F8E0FA93EA93FA01662777270E94663EC7
:105794005A934A930E9465100E94663E88E056D64A
:1057A4002A9607C0E9ECF8E00E94023B84E04ED65A
:1057B4002696F3C0E63411F00C94362CECEDF8E0A8
:1057C400FA93EA9380E00E94603BFF2766277727DD
:1057D400EF83F88769877A87EF81EA930E9442060C
:1057E400AF81B88589859A85A935E0E0BE07E0E0F8
:1057F4008E07E0E09E0741F0A937E0E0BE07E0E055
:105804008E07E0E09E0771F4EFE1F9E0FA93EA9382
:1058140080E01CD622960E9461160E94173B0E94CB
:105824003A3B21C0AF81B88589859A85AE34E0E0E2
:10583400BE07E0E08E07E0E09E0741F0AE36E0E010
:10584400BE07E0E08E07E0E09E0731F4E5E2F9E010
:10585400FA93EA9380E005C0E5E3F9E0FA93EA936A
:1058640080E0F4D5229699C0ED3239F5E7E5F9E008
:10587400FA93EA9380E00E94653BEB87FC876D878F
:105884007E87AB85BC858D859E85AF3FEFEFBE07D8
:10589400EFEF8E07EFEF9E0779F0E4E7F9E00E945F
:1058A400573B84E0D3D52696EB85FC856D857E85B4
:1058B4000E94663E0E94AD0B70C0E53421F4E0E026
:1058C400E0933C076AC0EE3421F50E94C4369F0180
:1058D400E9E8F9E0FA93EA93F901662777270E9449
:1058E400663EE0913C07FF27662777270E94663EC5
:1058F40088E0ACD52A96E4ECF9E0FA93EA933A937B
:105904002A930E9465100E94663E84E09FD52696E5
:1059140044C0ED3451F5E6EDF9E0FA93EA9380E002
:105924000E946C3BEB87FC876D877E87EAEEF9E08B
:10593400FA93EA9380E00E946C3B9F01EB85FC851F
:10594400FA93EA933A932A930E94CA3A31F0EBEF1E
:10595400F9E0FA93EA9380E005C0E6E0FAE0FA930E
:10596400EA9380E073D5229618C0E23519F40E94B8
:105974002B0B13C0E93419F40E946C0B0EC0E635EE
:1059840051F4E4E1FAE0FA93EA9380E05FD52296D9
:105994000E94451002C0E0E0EE83AE81A13011F414
:1059A4000E94CA280E941B40EF96A396089524974C
:1059B4000E941640E885E13391F4E6E3FAE0FA93B5
:1059C400EA93E091C707F091C807FA93EA930E941B
:1059D400EA270E94663E84E039D5269648C1E23320
:1059E40011F00C944E2DE1E5FAE0FA93EA9380E08D
:1059F4000E94653BEC83FD836E837F83AC81BD8114
:105A04008E819F81AF3FEFEFBE07EFEF8E07EFEF81
:105A14009E0709F42CC1E7E6FAE00E94733B84E098
:105A240015D526960E947C3BF801E133A0E0FA07E5
:105A340051F4E3EAFAE0FA93EA9380E007D5229678
:105A440000E010E01BC0E233A0E0FA0751F4E1EB00
:105A5400FAE0FA93EA9380E0F9D4229601E010E0A8
:105A64000DC0E333A0E0FA0749F4EFEBFAE0FA9350
:105A7400EA9380E0EBD4229602E010E0E091C707BD
:105A8400F091C8070E94733B0A930E9495260E94D6
:105A9400173B0E943A3BEBC0E33319F40E94813B6D
:105AA400E6C0E43391F4EDECFAE0FA93EA9380E093
:105AB4000E94603B0E948C3BEA930E944206EEEEF9
:105AC400FAE0FA93EA9380E0D0C0E53371F4E09110
:105AD400C707F091C807FA93EA930E94F627309714
