:0E0000000C9447000C9400000C9400000C942B
:10000E0000000C9400000C9400000C9400000C9462
:10001E0000000C9400000C9400000C9400000C9452
:10002E0000000C9400000C9400000C9400000C9442
:10003E0000000C9400000C9400000C9400000C9432
:10004E0000000C9400000C9400000C9400000C9422
:10005E0000000C9400000C9400000C9400000C9412
:10006E0000000C9400000C9400000C9400000C9402
:10007E0000000C9400000C9400000C940000000092
:10008E00F894EE27ECBBF1E0F5BFE5BFE0936C0012
:10009E00EBBFF8E1F1BDE1BD8DE0A2E0BB27ED9332
:1000AE008A95E9F780E090E1A0E0B1E0ED93019749
:1000BE00E9F7ECE8F0E085919591009761F0A59154
:1000CE00B59105901590BF01F00105900D92019725
:1000DE00E1F7FB01F0CFEFEFEDBFE0E1EEBFC0E0E7
:1000EE00D5E00C947A00E0E0EBBBEABBE8BBE7BBE3
:1000FE00E5BBE4BBE2BBE1BBE3B9E2B9E09362006E
:10010E00E0936100E0936500E0936400E0BFE3BF1D
:10011E00E2BFE1BFEFBDEEBDEDBDECBDE7BDE6BD9F
:10012E00EBBDEABDE9BDE8BDE0937900E093780050
:10013E00E5BDE4BDE3BDE0938B00E0938A00E09360
:10014E008900E0938800E0938100E0938000E093C3
:10015E008700E0938600E0938500E0938400E093AF
:10016E008300E0938200E0936A00EABFE9BFE7BF35
:10017E00E0937D00EBB9E8E1EAB9E6E0E0939500A3
:10018E00E0E0E0939000ECE0E9B9E0E8E8B9E0E007
:10019E00E0BDE0937100E0E2E0937000E0E0E093F8
:1001AE007200E4E0E0937400FFCFFFCF5F9BFECFC1
:1001BE00ECB108955D9BFECFE881ECB921960895D0
:00000001FF
