:0A00000032C0FECFFDCFFCCFFBCFD6
:10000A00FACFF9CFF8CF1EC213C2F5CF56C0F3CF3D
:10001A00F2CFF1CFF0CFEFCF6AC0EDCF01004D6143
:10002A00696E2050726F6772616D2E20506F727404
:10003A0000000000000000000000000000000100B5
:10004A00140200506F72742052532D323332202022
:10005A00202064FF0100040026000000F894EE2727
:10006A00ECBBF1E0FBBFEBBFE5BFF8E1F1BDE1BDE1
:10007A008DE0A2E0BB27ED938A95E9F780E094E052
:10008A00A0E6ED930197E9F7EEE5F0E08591959109
:10009A00009761F0A591B59105901590BF01F00107
:1000AA0005900D920197E1F7FB01F0CFEFE5EDBF67
:1000BA00E4E0EEBFC0E6D1E0F7C141D20A930CB149
:1000CA004CD2EBB1EC7181F4BB2031F426FC03C0B5
:1000DA00CC2447D2B02E08C044D2BA9429F41ED1F7
:1000EA00E03011F0689426F8099142D2189527D287
:1000FA00E1B1E03811F4E89430F8E1B1E03911F4F3
:10010A00689430F8662091F423FC0DC0E3B1EA3A12
:10011A0019F4689420F806C0E13721F4689423F8AA
:10012A00772434D202C063B031D20CC06A942ED282
:10013A00662041F483B0E89423F8DDD0E03011F072
:10014A00689424F8E1B1E83B19F0E1B1E83A99F48E
:10015A00AA2061F425FC03C0E0E0E3B906C09924B3
:10016A00E0916002EF5FAE2E1AD205C018D2AA2023
:10017A0011F4E89425F8E5ECE6BFFAD1189518D2FF
:10018A00E0936102689425F8089516D2E1E0E093BD
:10019A006102E3E0E0936202689425F808950CD2C4
:1001AA00E0E0E0936102E2E0E0936202689425F8FD
:1001BA000895FED1E0936102689425F831F825FC90
:1001CA00FECFE1E0EBBFE2E0EBBF15CB089576D2BC
:1001DA0000E010E0E0916401E03059F4F1D1EAE482
:1001EA00F0E0FA93EA93EAE4F0E0E491EED130D257
:1001FA0015C0E02F0F5FEED1E5E0F1D10F5FEAD134
:10020A00E0E0EDD10F5FEED14082E02F0F5FEAD13F
:10021A005082E02F0F5FDED1EFEFEC9300E0E6D1E2
:10022A00E01730F0E02FDED1E0811E0F0F5FF7CF2D
:10023A00A02FB0E0A05ABD4F1C93689425F881C046
:10024A003CD210E020E0E9E2E093600200E00032F4
:10025A0058F4D0D1EF59FD4FDF01CCD1E85DFF4F03
:10026A00E491EC930F5FF3CFA0E0B0E011D2E093FA
:10027A008102A0E0B0E00CD2DF01CB01E8E0F8D1C6
:10028A00E0938202E0E0E0938302E09384024092EA
:10029A008502E0938602A7E8B2E0E8E4F0E0F4D150
:1002AA00EC93E8E4F0E0F0D1EF2FF0E0E09388027D
:1002BA0010E09CD1E11728F0A0D1E0812E0F1F5F3A
:1002CA00F8CF20938902689425F8FBD123960895E4
:1002DA0073D150926102E52DEE5FE0936202689459
:1002EA0025F80895E1E78BD18CD1EFEF88D189D138
:1002FA00E6E785D10895E2D100E010E0E0916101DE
:10030A00E11730F0E12FF0E07ED10E0F1F5FF6CF3C
:10031A00801611F4EFEF15C0E0E013C0CFD100E072
:10032A0010E0E09160021E1728F467D1E0810E0FF9
:10033A001F5FF7CF62D1E081E01711F4EFEF01C040
:10034A00E0E0C3D108950A93E0916201E03089F4B4
:10035A00E0916301E13021F4BBDFE89424F808C09E
:10036A00E43621F484D0E89424F802C0E89424F80E
:10037A004DC0A09162014A1609F5E0916301E3308C
:10038A0021F45EDFE89424F818C0E13021F41FDF7D
:10039A00E89424F812C0E73021F40BDFE89424F83B
:1003AA000CC0E43019F433D124F807C0E53019F44D
:1003BA0031D124F802C0E89424F828C0E0916201FF
:1003CA00EE3FA9F4E0916301E43019F420D124F856
:1003DA000DC0E53019F41ED124F808C0EB3021F421
:1003EA00CEDEE89424F802C0E89424F80FC030FC6A
:1003FA000BC000E0E0916101EF5FE01728F0FAD04E
:10040A0002D1FDD00F5FF6CFE89424F80991089540
:10041A00F894D6D0E0EAF2E0FA93EA93E091A002E7
:10042A00D4D006D17894689425F8E89426F80895EB
:10043A00EA93EFB7EA93F1D0689422F8E991EFBF13
:10044A00E9911895EA93EFB7689427F8EFBFE99115
:10045A001895E89422F8E4D0E5E0E3BF0895DDD0EA
:10046A000895E3B3E770EF5F4E2EDDD008953ADFCB
:10047A00F0DF26FC15C022FE05C09398E89421F807
:10048A0055240EC0E894939B6894A2B3A3F9A2BB27
:10049A00E89427F8689421F85090C502939AE9CF16
:1004AA00DEDFE89426F80895E0E0E8BBE7BBE7E082
:1004BA00E5BBE0E0E4BBE2BBECE1E1BBAED0B0D02F
:1004CA00E0E0EFBDE5E8EEBD48D0E7E6E7BDE9E6E6
:1004DA00E6BDE0E0EBBDEABDE9BDE8BDE2BDE5BDD4
:1004EA00E4BDE3BDE5BFE5E0E9BFE0E0EBB9E8E97B
:1004FA00EAB9E6E8E0BDE0E0E0BDECE0E9B9E0E851
:10050A00E8B9E0E0E0BFE1B9E2E0E0B98CD0E5E4C7
:10051A00E6BF7894939AA5DF939827FCA8DF24FC7A
:10052A0012DF26FC75DFF9CFFFCF5F9BFECFECB160
:10053A0008955D9BFECFE881ECB9219608950A9251
:10054A001A92FA926A937A938A939A93AA93BA938B
:10055A00EA93FA93EFB7EA930895E0E0EDBDECBDB4
:10056A000895EC2DC394F0E0E056FD4F0083089502
:10057A00E991EFBFF991E991B991A991999189917D
:10058A0079916991F990199009900895E72D7394DA
:10059A00F0E0E05AFE4FDF01E3B1EC930895E92D54
:1005AA009394F0E0E05AFD4FE081E3B9AA940895EC
:1005BA00E1E0E09360020895E2E0E09360020895CA
:1005CA00E0E6F2E0FA93EA930895EF5FF0E0FA9337
:1005DA00EA930895F0E0E05AFD4FDF010895EC93A5
:1005EA00E02F0895F0E0E05AFD4F0895E09160028F
:1005FA00E1500895E02FF0E00895E12FF3CFEA9358
:10060A0098CFE3E0FCCFE05AFE4FE0810895C7DDC2
:10061A00E8940895BADDE8940895E0E0E3BF089508
:10062A00E0E0E2BF0895E42DEE0FEF5FE2B908952E
:10063A0099818881009641F0BD81AC81FB81EA8174
:10064A0061916D930197E1F7FD81EC8126960895FA
:10065A0099818881009641F0BD81AC81FB81EA8154
:10066A0005900D920197E1F7FD81EC812696089598
:10067A00EE230E2EFD01BC0131F076956795F795B4
:10068A00E7950A94D1F708950590F491E02D08951D
:10069A00129603D07F2F6E2F1297119602D0FE2F3B
:1006AA001197E199FECFFF93FFB7F894AEBBBFBB9A
:1006BA00E09AEDB3FFBFFF9108952A931A930A9324
:1006CA0008952A8119810881089509911991089537
:00000001FF
