:0C0000000C940F010C9400000C94000004
:10000C000C9400000C9400000C9400000C94000064
:10001C000C9400000C9400000C9400000C94000054
:10002C000C9400000C942C030C9422040C940000EF
:10003C000C9400000C94ED040C9400000C94BF0282
:10004C000C9400000C9400000C9400000C94000024
:10005C000C9400000C9400000C9400000C94000014
:10006C000C9400000C9400000C9400000C94000004
:10007C000C9400000C9400000C9400000C940000F4
:10008C00506F7274204465766963652076312E302A
:10009C000000000000000000000000000000000054
:1000AC000001850785070100020003000400010020
:1000BC000A000000400000000000010041000000A8
:1000CC000000020049000000000003004A0000008C
:1000DC00000004004C000000000005004D00000072
:1000EC000200060050000100000007005100020051
:1000FC000000080052000200000009005800020035
:10010C0000000A005900020000000B005B00000018
:10011C0000000C005C00020001000D005D000200FC
:10012C0001000E005E00020000000F0060000200E3
:10013C0000001000610002000000110062000200CB
:10014C0000001200630002000000130064000200B3
:10015C00000014006500020000001500660003009A
:10016C00010016006A000300010017007A0000006D
:10017C00030018007B000300000019006900000058
:10018C0000001027E80364000A00010000100001C1
:10019C0010000100CFEEF0F2203100CFEEF0F22093
:1001AC003200CFEEF0F2203300CFEEF0F22034002C
:1001BC000A0D002558200025303258200000000080
:1001CC0000000400A80CCA0102000400AE000200EA
:1001DC000600B00007004007A00101005007B20064
:1001EC0007005107A70101006107B400070062076F
:1001FC00AE0101007207B60007007307B5010100DC
:10020C008307B80001000B00BA0001008608BC008F
:10021C000000F894EE27ECBBF1E0F5BFE5BFE093EE
:10022C006C00EBBFF8E1F1BDE1BD8DE0A2E0BB27B6
:10023C00ED938A95E9F788EA9BE0A0E0B1E0ED93B5
:10024C000197E9F7EEECF1E085919591009761F05B
:10025C00A591B59105901590BF01F00105900D92F7
:10026C000197E1F7FB01F0CFE7EAEDBFECE0EEBF61
:10027C00C0E0D5E00C943D020E94331FE09185074D
:10028C00E03011F00C948801E3E4EA9364D1E2E0ED
:10029C00EA935BD1E0E0EA9358D110E0143068F5B2
:1002AC0000E00F30A0F4E12FF0E0A1E1B0E00E94FB
:1002BC002C1EE05CF84FDF01E02FF0E0AE0FBF1F0B
:1002CC002C91203021F02A9340D10F5FEACF0F30D0
:1002DC0028F4E0E2EA9339D10F5FF9CFA12FBB27C5
:1002EC00E1E1F0E00E942C1EA0E5B7E0AE0FBF1FCD
:1002FC00EC91EA932AD11F5FD1CFEFEFEA9325D18E
:10030C0032D12EC0E13061F5EDE0EA9324D110E05A
:10031C00143010F51A9319D1A12FBB27E1E1F0E0AD
:10032C000E942C1EA0E5B7E0AE0FBF1FEC91EA9324
:10033C000CD1A12FBB27E1E1F0E00E942C1EA0E51F
:10034C00B7E0AE0FBF1FEC91F0E0E050F94FE08149
:10035C00EA93FBD01F5FDCCFEFEFEA93F6D003D12B
:10036C000E943A1F239608950A93E8E2EA93F3D089
:10037C0000E0003248F4E02FF0E0E457FF4FE49146
:10038C00EA93E3D00F5FF5CFA0E0B0E00E94E11E4E
:10039C00FA93EA9383D1A0E0B0E00E94E11E0E94A0
:1003AC001D1EFA93EA937AD1A4E0B0E00E94EA1EF3
:1003BC00EA93CBD0E0E0EA93C8D0ECEAF0E00E94FC
:1003CC00D31EFA93EA936AD1CED009910895E091A5
:1003DC008507A4E0B0E00E94091FE1E0EA93BBD0DE
:1003EC00E1E0EA93B2D0BFD00895A0E0B0E00E9463
:1003FC00E11E0E94181F41F0E1E0EA93ACD0E0E06E
:10040C00EA93A3D0B0D00895E0918507F0918607C8
:10041C006091870770918807A0E0B0E00E94F61EFB
:10042C00E1E0EA9398D0E1E0EA938FD09CD0089574
:10043C00E0E0EA9390D097D0E1E0E5BFE2E0E5BFE1
:10044C000C9400FC08955FD11AD1ACD2A8D20895B7
:10045C00DA98EAE0F0E0FA93EA930E94CA1DDA9A7D
:10046C00E4EFF1E0FA93EA930E94CA1D0895D09A42
:10047C00D19AD898D99A0E9429020E942E02789477
:10048C00539AE8EBFBE0FA93EA930E94CA1DADD2B3
:10049C0046D5E030E9F3D09AD19AD89AD998D8D2E7
:1004AC00E1D0E03011F40C94A902A4E0B0E00E9479
:1004BC00EA1EA0918407EA1711F0AF3F21F5DAD0BC
:1004CC00E13019F40E9442011DC0E33019F40E947E
:1004DC00BA0118C0E43019F40E94ED0113C0E530E4
:1004EC0019F40E94FB010EC0E73019F40E941E02A1
:1004FC0009C0E63011F4DCD005C0E43B11F435D36F
:10050C0001C0BAD020C001E0E0918B09E017D8F00F
:10051C00E02FF0E0E050F94FE081A0918407EA175A
:10052C0081F4D09AD19AD898D99A0A93BCD2A4D0F3
:10053C00E2E3F0E0FA93EA930E94CA1D0A93DED23A
:10054C0002C00F5FE1CFA7CFFFCF5D9BFECFE8814D
:10055C00ECB9AE0E67C1AA24539AE881EF5FEA9317
:10056C000E94AB025FC1AA920E94AB02E1E0BE2ED8
:10057C000895AA93EA93FA93EFB7EA930A930CB10E
:10058C00EB2DE13091F4013709F058C0E2E0BE2EBA
:10059C00CC24ECB5FDB5E056F04FFBBDEABDE0E177
:1005AC00E6BFE7B7E061E7BF49C0E23029F4E02FCE
:1005BC00E350DE2EE3E041C0E33021F400938407E6
:1005CC00E4E03BC0E43059F4E02EE0E0E093840832
:1005DC00DD2011F0E5E001C0E6E0BE2E2FC0E530D5
:1005EC00A9F4A0918408AF3F08F026C0E0918408DC
:1005FC00EF5FE0938408E150F0E0EB57F84F008395
:10060C00A0918408AD15D0F0E6E017C0E630A1F457
:10061C00C01611F0E1E00BC0E0918408EF5FE093AD
:10062C008408E150F0E0EB57F84F0083E7E0BE2E72
:10063C00E7B7EF7EE7BF02C0E1E0BE2EC00E099126
:10064C00E991EFBFF991E991A9911895EA93EFB768
:10065C00EA93E1E0BE2EE7B7EF7EE7BFE991EFBF8B
:10066C00E9911895E7E0EB1511F4EFEF0895E0E050
:10067C0008950895EE2D0895E1E0BE2E0895E0E072
:10068C00EBB9E0E9EAB9E6E8E0939500ECE0E9B90A
:10069C00E0E0E0939000E5E0EEBD0895E881EA9398
:1006AC000E94AB02E981F070EA930E94AB02F5C0A4
:1006BC001A930A93D09AD19AD898D99ADA928AD066
:1006CC0000E00D1598F4E02FF0E0EB57F84FE081C7
:1006DC00EA935DD0E02FF0E0EB57F84FE081A0916A
:1006EC008508EA0FE09385080F5FEBCF9DD00E9441
:1006FC004203EAE0F0E0FA93EA930E94CA1DE4E0B8
:10070C00EA93FCD1A2C1E0E0E0937100E0E2E09357
:10071C007000E0E0E0937200E4E0E0937400089570
:10072C00E0917400E07829F4E0918A09E17009F411
:10073C00F7CF0895E4EAE09374000E949603A09129
:10074C007100A83021F0A0917100A03109F402C011
:10075C00E0E00895EFEF0895E4E9E0937400089564
:10076C000E949603E881E0937300E4E8E093740040
:10077C000E949603A0917100A83121F0A091710004
:10078C00A03409F402C0E0E04DC0EFEF4BC00E9472
:10079C009603E881E0937300E4E8E09374000E9410
:1007AC009603A0917100A83211F0E0E03BC0EFEF8E
:1007BC0039C005D10E949603E881E03011F0E4ECD9
:1007CC0001C0E4E8E09374000E949603FDD0E09130
:1007DC00730028C00E94A003E03019F40E94B203F9
:1007EC00F9CFE0E0EA930E94B603E03019F40E94DE
:1007FC00B203F0CFE0E0E0938508E1E7EA930E94D2
:10080C00CD03E0918508EF58E0938508E881EF5F10
:10081C00EA930E94CD03E881EF5FA0918508EA0F6F
:10082C00E093850821960895E0918508EA930E944B
:10083C00CD030E94B2030895EA93EFB7EA93E8E080
:10084C00E0938608E7B7E77FE7BFE991EFBFE9914F
:10085C001895B5D00E94A003E03011F40E94B203A9
:10086C00E981EE0FEA930E94B603E03011F40E9486
:10087C00B203E881EA930E94CD030E94B203A4D094
:10088C00E0918A09E17011F4EFEF07C0A0918A0999
:10089C00E1E0EA27E0938A09E0E0229608950A93C2
:1008AC008ED00E94A003E03011F40E94B203E981C3
:1008BC00EE0FEA930E94B603E03011F40E94B203EB
:1008CC000E94960300E0E0910105EF5FE01750F005
:1008DC00E02FF0E0E050FB4FE081EA930E94CD0363
:1008EC000F5FF1CF0E94B2036FD0E0918A09E170E3
:1008FC0011F4EFEF37C1A0918A09E1E0EA27E09308
:10090C008A09E0E02FC10A930E94A003E03011F4A1
:10091C000E94B203E981EE0FEF5FEA930E94B603E7
:10092C00E03011F40E94B203E1E0EA930E94DF038D
:10093C00E093000601E0E09100060E1778F4E02F3A
:10094C00F0E0E050FA4FFF93EF93E1E0EA930E945E
:10095C00DF03AF91BF91EC930F5FEDCFE02FF0E091
:10096C00E050FA4FFF93EF93E0E0EA930E94DF032D
:10097C00AF91BF91EC930E94B203E0918A09E170B0
:10098C0019F449D0E03009F402C0EFEFEBC0A091AC
:10099C008A09E1E0EA27E0938A09E0E0E3C0BF9A24
:1009AC00BC9A0895E0E0E0BFE3BFE1E0E2BFE0E025
:1009BC00E1BFE1E0E7BFE0E0E0937D000895E0E017
:1009CC00E2BFE6E0E3BF0895E0E0E3BF0895EA93F9
:1009DC00EFB7EA93E0E0E3BFE0918A09E160E093CE
:1009EC008A09E991EFBFE99118950A9301E00A3061
:1009FC0048F40A93EAEAEA930E942F04E03011F0DB
:100A0C000F5FF5CFE02FE150E0938B09E0E0F7E0CA
:100A1C00E0930007FCC01A930A9300E010E0E09109
:100A2C0000061E1740F4E12FF0E0E050FA4FE08191
:100A3C000E0F1F5FF4CFE12FF0E0E050FA4FE08192
:100A4C00E01711F4EFEF01C0E0E00991199108955E
:100A5C000A93E1E7E0930005E3E0E0930105E0E0B1
:100A6C00E0930205E1E0E0930305E5E7E09304057C
:100A7C0001E0E0918B09E017A8F00A930E9455045D
:100A8C00E4E1F0E0FA93EA930E94CA1D0A930E94F3
:100A9C008904A02FB0E0A050B94FE0910106EC936F
:100AAC000F5FE7CFB4C01A930A9310E0E1E7E0932D
:100ABC000005ED2DED5FE0930105A2E0B5E0E091BE
:100ACC008407EC93E092030504E0ED2DEC5FE01756
:100ADC0068F0A02FB0E0A050BB4FE12F1F5FF0E0FB
:100AEC00EB57F84FE081EC930F5FEFCFEA81EA937D
:100AFC000E94550419810881239608950A93E1E711
:100B0C00E0930005E3E0E0930105E0E0E0930205EB
:100B1C00E2E0E0930305E6E7E0930405E981EA935C
:100B2C000E945504E4E1F0E0FA93EA930E94CA1D96
:100B3C00E981EA930E948904E0910006E03091F08B
:100B4C00539A00E0E0910006E01750F0E02FF0E03F
:100B5C00E050FA4FE081EA930E94AB020F5FF2CFB4
:100B6C00E1E0BE2E0881229608950A93E091850754
:100B7C00E130B9F4D09AD19AD898D99AF201319639
:100B8C00FA93EA93E0E0EA930E9445184F01082C8F
:100B9C00092811F4E0E001C0E5E5EA930E94801C0D
:100BAC0034C0E23091F1E33091F4D09AD19AD898D4
:100BBC00D99A9A928A920E94991A082C092811F4AF
:100BCC00E0E001C0E5E5EA930E94801C1EC0E43021
:100BDC00E1F0E530D1F0E630C1F0E73019F40E94D5
:100BEC000A1313C0E83089F4D09AD19AD898D99ABC
:100BFC009A928A920E94221A082C092811F4E0E099
:100C0C0001C0E5E5EA930E94801CE1E0BE2E09914B
:100C1C000895E881EFB9779BFECFEFB1A5C6249775
:100C2C000E94301FC498AE85BB2760EC70E0E8E0F2
:100C3C00F0E00E942C1EE60FF71F04910A930E940D
:100C4C000F06AE85BB2762EC70E0E8E0F0E00E9496
:100C5C002C1EE60FF71F0E94D31E9F01022E032AA3
:100C6C0071F440E050E04430E0E05E0738F4E0E03E
:100C7C00EA930E940F064F5F5F4FF5CF3CC0EA85A9
:100C8C00FB856C857D85E070F07060707F7FDF0187
:100C9C00CB01E8E10E94081E0E2F0A930E940F065A
:100CAC00EA85FB856C857D85E070F0706F7F7070D8
:100CBC000E941D1E0E2F0A930E940F06EA85FB85CB
:100CCC006C857D85E070FF7F60707070DF01CB01FB
:100CDC00E8E00E94081E0E2F0A930E940F06EA8578
:100CEC00FB856C857D85EF7FF070607070700E2FCA
:100CFC000A930E940F06EE85E03011F405E901C05D
:100D0C000FEF0A930E940F06EFEFEA930E940F0673
:100D1C00AE85BB2764EC70E0E8E0F0E00E942C1E8E
:100D2C00E60FF71F0E94D31E9F01F901309731F493
:100D3C00EFEFEA930E940F06F0E0E3C0E130A0E091
:100D4C00FA0701F5EFEFEA930E940F061E2FE0E081
:100D5C00EE83EF83E887E987EE81FF8168857985EB
:100D6C000E94181F61F4EFEFEA930E940F06FF2711
:100D7C0066277727EE83FF8368877987EDCFE12F8E
:100D8C00F0E0BFC0E230A0E0FA0741F5EFEFEA93E4
:100D9C000E940F06FF2766277727EE83FF8368875D
:100DAC007987AE81BF8188859985E8E00E94FC1D1A
:100DBC007F936F93FF93EF93EFEFEA930E940F06ED
:100DCC00AF91BF918F919F91FF27662777270E9444
:100DDC00EA1DEE83FF836887798793C0E330A0E038
:100DEC00FA0711F00C948507EFEFEA930E940F06B7
:100DFC001E2FE0E0E0938C09E0938D09E0938E09BF
:100E0C00E0938F09EFEFEA930E940F06FF27662706
:100E1C007727EE83FF8368877987AE81BF818885CA
:100E2C009985E8E10E94FC1DE0938C09F0938D09F3
:100E3C0060938E0970938F09EFEFEA930E940F066F
:100E4C00FF2766277727EE83FF83688779870E94C1
:100E5C00221EA0918C09B0918D0980918E099091E0
:100E6C008F090E94EA1DE0938C09F0938D09609321
:100E7C008E0970938F09EFEFEA930E940F06FF27FC
:100E8C0066277727EE83FF8368877987AE81BF81DA
:100E9C0088859985E8E00E94FC1DA0918C09B09191
:100EAC008D0980918E0990918F090E94EA1DE09323
:100EBC008C09F0938D0960938E0970938F09EFEF75
:100ECC00EA930E940F06FF2766277727EE83FF839E
:100EDC0068877987A0918C09B0918D0980918E09D2
:100EEC0090918F090E94EA1DE0938C09F0938D0973
:100EFC0060938E0970938F09E12FF0E002C0E0E05F
:100F0C00F0E00E94371F2F960895C49AEFEFEA93F2
:100F1C000E940F06EFEFEA930E940F0608952497A4
:100F2C000A93E7B3E760E7BBBB98BC9AE0E5EDB981
:100F3C00E0E0EEB9E0E0F2E0E093960BF093970B73
:100F4C00E0E0E093E70BE093E80BE093E90BE09330
:100F5C00EA0B47D3E03011F4E0E028C3E0E0E9838A
:100F6C00EA83EB83EC83A981BA818B819C81A436C3
:100F7C00E0E0BE07E0E08E07E0E09E0710F00030F6
:100F8C00A1F4C498EFEFEA930E940F060E2FC49AB7
:100F9C00E981FA816B817C81EF5FFF4F6F4F7F4F4F
:100FAC00E983FA836B837C83DECFE0E0E983EA8319
:100FBC00EB83EC83A981BA818B819C81A436E0E020
:100FCC00BE07E0E08E07E0E09E07F0F440D3E0308F
:100FDC00D9F4A981BA818B819C81A336E0E0BE074C
:100FEC00E0E08E07E0E09E0711F4E0E0DFC2E9816B
:100FFC00FA816B817C81EF5FFF4F6F4F7F4FE983ED
:10100C00FA836B837C83D6CFE0E0F0E060E070E0A5
:10101C000E94D71E4DD3E03029F4E1E0E093D30BCE
:10102C00E0E0C4C2B091570BA0E0E091560BF0E0A9
:10103C00EA2BFB2BE093900BF093910BA091900972
:10104C00AB3E21F4E0919209E03921F0A091900996
:10105C00A93E51F4E0918E0BE53521F4E0918F0B14
:10106C00EA3A09F001C001C005C0E0E0E093900B42
:10107C00E093910BE091900BF091910B6627772701
:10108C00DF01CB01E091960BF091970B6627772748
:10109C000E94591EE093B50BF093B60B6093B70BFF
:1010AC007093B80BE091900BF091910B309791F0FD
:1010BC00E091B50BF091B60B6091B70B7091B80B3A
:1010CC000E94D71EF5D2E03029F4E1E0E093D30B77
:1010DC00E0E06CC2E0919009FF27662777270E9419
:1010EC00221EDF01CB01F0919109E0E00E94271E46
:1010FC000E94EA1DDF01CB01E0919209F0E00E9411
:10110C00271E0E94EA1DE093920BF093930B6093C1
:10111C00940B7093950BB0919C09A0E0E0919B0906
:10112C00F0E0EA2BFB2BE093960BF093970BE091FE
:10113C009D09E093980BB0919F09A0E0E0919E0966
:10114C00F0E0EA2BFB2BE093990BF0939A0BE091D8
:10115C00A009E0939B0BB091A209A0E0E091A1093A
:10116C00F0E0EA2BFB2BE0939C0BF0939D0BB091E2
:10117C00A709A0E0E091A609F0E0EA2BFB2BE09395
:10118C009E0BF0939F0BB091A409A0E0E091A309F2
:10119C00F0E0EA2BFB2B66277727E093A10BF0936B
:1011AC00A20B6093A30B7093A40B0E94181FD1F594
:1011BC00E091B309FF2766277727DF01CB01E8E130
:1011CC000E94FC1DDF01CB01E091B209FF276627CD
:1011DC0077270E94221E0E94EA1D7F936F93FF9334
:1011EC00EF93E091B109FF2766277727DF01CB0149
:1011FC00E8E00E94FC1DAF91BF918F919F910E94DE
:10120C00EA1DDF01CB01E091B009FF2766277727A4
:10121C000E94EA1DE093A10BF093A20B6093A30B29
:10122C007093A40BE091BA09FF2766277727DF019B
:10123C00CB01E8E10E94FC1DDF01CB01E091B90973
:10124C00FF27662777270E94221E0E94EA1D7F93A4
:10125C006F93FF93EF93E091B809FF2766277727E9
:10126C00DF01CB01E8E00E94FC1DAF91BF918F9193
:10127C009F910E94EA1DDF01CB01E091B709FF2786
:10128C00662777270E94EA1DE093A50BF093A60B27
:10129C006093A70B7093A80BE0E0E983EA83EB83E0
:1012AC00EC83A981BA818B819C81AB30E0E0BE07D5
:1012BC00E0E08E07E0E09E0700F5E981FA816B81A2
:1012CC007C81E755F44FDF01E981FA816B817C81E8
:1012DC00E55DFF4F6F4F7F4FE057F64FE081EC938A
:1012EC00E981FA816B817C81EF5FFF4F6F4F7F4FFC
:1012FC00E983FA836B837C83D4CFE0E0E093B40B77
:10130C00E091990BF0919A0B66277727DF01CB01BF
:10131C00E091960BF091970B662777270E94591E48
:10132C00A091B50BB091B60B8091B70B9091B80B07
:10133C000E94D61DE093C10BF093C20B6093C30BBC
:10134C007093C40BE0919E0BF0919F0B662777274F
:10135C00DF01CB01E091960BF091970B6627772775
:10136C000E94591EA091C10BB091C20B8091C30B6E
:10137C009091C40B0E94D61DE093C50BF093C60B45
:10138C006093C70B7093C80BE0919B0BFF276627EC
:10139C007727DF01CB01E0919E0BF0919F0B662725
:1013AC0077270E94591EDF01CB01E091990BF09138
:1013BC009A0B662777270E94D61DE093B90BF09302
:1013CC00BA0B6093BB0B7093BC0BE091960BF09136
:1013DC00970BA091B90BB091BA0B8091BB0B90916C
:1013EC00BC0B662777270E94341EE093B90BF09351
:1013FC00BA0B6093BB0B7093BC0BE091B50BF091E7
:10140C00B60B6091B70B7091B80BA091B90BB09162
:10141C00BA0B8091BB0B9091BC0B0E94D61DE09334
:10142C00B90BF093BA0B6093BB0B7093BC0BE091B0
:10143C009C0BF0919D0BEE0FFF1F0E94141EA091B0
:10144C00960BB091970BAE0FBF1F1197E091960BB7
:10145C00F091970B0E945E1E66277727E093C90BCD
:10146C00F093CA0B6093CB0B7093CC0BE0919E0B5B
:10147C00F0919F0BA0919B0BB0E00E942C1EA091B1
:10148C00990BB0919A0BAE0FBF1FE091C90BF09165
:10149C00CA0B6091CB0B7091CC0B882799270E94BB
:1014AC00D61DE093CD0BF093CE0BA091A10BB09178
:1014BC00A20B8091A30B9091A40B662777270E9417
:1014CC00E51DA093D80BB093D90B8093DA0B9093B6
:1014DC00DB0BE091980BA091D80BB091D90B8091BC
:1014EC00DA0B9091DB0BFF27662777270E94711E82
:1014FC00E093D80BF093D90B6093DA0B7093DB0B62
:10150C00E0E0E093E30BE093E40BE093E50BE09376
:10151C00E60BE1E0F0E0E093EB0BF093EC0BA09129
:10152C00D80BB091D90B8091DA0B9091DB0BA53FC6
:10153C00EFE0BE07E0E08E07E0E09E0720F4E2E378
:10154C00E093A00B1CC0A091D80BB091D90B80914B
:10155C00DA0B9091DB0BA53FEFEFBE07E0E08E07B7
:10156C00E0E09E0720F4E6E3E093A00B08C0E0E087
:10157C00E093A00BECE0E093D30BE0E017C0E0911C
:10158C00B90BF091BA0B6091BB0B7091BC0BE09353
:10159C00BD0BF093BE0B6093BF0B7093C00BECE5CF
:1015AC00E093ED0BE0E0E093EE0BE1E00881259693
:1015BC000895EDB1E03519F4E1E5EDB910C0EDB1E8
:1015CC00E13519F4E2E5EDB90AC0EDB1E23519F4F3
:1015DC00E3E5EDB904C0E0E5EDB9E0E00895E1E044
:1015EC0008950E94331F20E0243078F5C49A10E04F
:1015FC001A3030F4EFEFEA930E940F061F5FF8CF1A
:10160C00E0E0EA93E0E0F0E060E070E00E94D71EDA
:10161C000E9415060E2F10E0183C70F4013029F4CE
:10162C00C49AE0E5EDB9E1E03FC0EFEFEA930E9428
:10163C000F060E2F1F5FF0CF0E94DF0AE03019F467
:10164C00C49AE0E031C02F5FCFCFE0E02DC00E9404
:10165C00331F0E948B0710E020E0183EE3E02E07BA
:10166C00F0F4E1E0EA93E0E0F0E060E070E00E948A
:10167C00D71E0E9415060E2F003089F0EFEFEA936B
:10168C000E940F060E2F003051F0EFEFEA930E94EC
:10169C000F060E2F003019F01F5F2F4FDECF0030DA
:1016AC0011F4E1E001C0E0E00E943A1F2396089596
:1016BC0024970A93E091960BF091970BAD81BE8124
:1016CC008F819885662777270E949F1E0E94181F7E
:1016DC0029F0E4E0E093D30BE0E08EC00E948B078E
:1016EC00E7E0EA93EE81FF81688579850E94D71E39
:1016FC000E9415060E2FE0E0E983EA83EB83EC836E
:10170C00A981BA818B819C81A83EE3E0BE07E0E011
:10171C008E07E0E09E07A0F40E3F91F0EFEFEA9306
:10172C000E940F060E2FE981FA816B817C81EF5F9D
:10173C00FF4F6F4F7F4FE983FA836B837C83E0CF3E
:10174C000E3F11F00C94F80BE0E0E983EA83EB8395
:10175C00EC83E091960BF091970BA981BA818B8168
:10176C009C81662777270E942B1FE0F4E981FA8180
:10177C006B817C81E057F64FFF93EF93EFEFEA9389
:10178C000E940F06AF91BF91EC93E981FA816B81B6
:10179C007C81EF5FFF4F6F4F7F4FE983FA836B8341
:1017AC007C83D7CFEFEFEA930E940F06EFEFEA931B
:1017BC000E940F06EFEFEA930E940F06C49AE0E036
:1017CC00E093D30BED81FE816F817885E093D40B90
:1017DC00F093D50B6093D60B7093D70BE0E5EDB976
:1017EC00E1E00AC0C49A0E94DF0AE03009F076CF2B
:1017FC00E4E0E093D30BE0E00881299608950E9481
:10180C00311FE091960BF091970BAD81BE818F81CA
:10181C009885662777270E949F1E0E94181F79F4CF
:10182C00E091B50BF091B60B6091B70B7091B80BC2
:10183C00AD81BE818F8198850E94261F28F0E3E040
:10184C00E093D30BE0E066C00E948B07E9E0EA93DB
:10185C00EE81FF81688579850E94D71E0E9415064E
:10186C000E2F20E030E040E0383EE3E04E0760F41D
:10187C00003011F421E008C0EFEFEA930E940F064C
:10188C000E2F3F5F4F4FF0CF2030D1F1EFEFEA93A7
:10189C000E940F06EEEFEA930E940F0630E040E044
:1018AC00E091960BF091970B3E174F0758F4A0E977
:1018BC00B9E0A30FB41FEC91EA930E940F063F5FAF
:1018CC004F4FEECFEFEFEA930E940F06EFEFEA9344
:1018DC000E940F06EFEFEA930E940F060E2FE02FE7
:1018EC00E06E1E2F153E61F4EFEFEA930E940F0697
:1018FC00E030D1F3C49AE0E0E093D30BE1E00AC00E
:10190C00C49A0E94DF0AE03009F09ECFE3E0E09336
:10191C00D30BE0E00E94381F29960895A881A032CD
:10192C0018F4EFEFFFEF20C0A881A232C1F0AA3269
:10193C00B1F0AB32A1F0AC3291F0AE3281F0AF32FB
:10194C0071F0AA3310F0A03450F0A881AB3510F030
:10195C00AE3528F0A881AC3711F0A53E19F4EFEFA5
:10196C00FFEF02C0E0E0F0E0219608956B970E9433
:10197C00301FE0E0EC8B00E010E0E9A1FAA1ED8B68
:10198C00FE8BE0E0EF8FE8A3AF8DB8A11B9710F0B2
:10199C000C94380DAD89BE89EC91EA930E94940C9D
:1019AC003097A1F4EF8DF8A1DE011696EA0FFB1F1C
:1019BC00FF93EF93AD89BE89ED91AD8BBE8BEA930E
:1019CC000E94C31DAF91BF91EC9346C0AD89BE89F7
:1019DC00AC91AE32F9F4AF8DB8A1189768F4EF8DD5
:1019EC00F8A13196EF8FF8A33197DE011696AE0F62
:1019FC00BF1FE0E2EC93EFCFEF8DF8A13197EF8FA3
:101A0C00F8A3ED89FE893196ED8BFE8BEC89E160B4
:101A1C00EC8B22C0AD89BE89EC91E03091F4AF8D96
:101A2C00B8A11B9768F4EF8DF8A13196EF8FF8A34E
:101A3C003197DE011696AE0FBF1FE0E2EC93EFCFAD
:101A4C000BC0ABA1BCA1E0E0F0E060E070E00E9454
:101A5C00CE1EEFEFFFEFB5C1EF8DF8A13196EF8FF2
:101A6C00F8A392CFE0E0E98BABA1BCA10E94C81E09
:101A7C00A091B90BB091BA0B8091BB0B9091BC0BA0
:101A8C000E94261F29F420919C0B30919D0B26C09F
:101A9C00ABA1BCA10E94C81E0E94D71ED5D1ED8F50
:101AAC00FE8F309719F0EC89E068EC8BE091960B87
:101ABC00F091970B66277727DF01CB01E091980B0C
:101ACC00FF27662777270E94591EDF01CB01E0E232
:101ADC00F0E060E070E00E94971E9F01E0E0EF8F65
:101AEC00E8A30217130710F00C94DD0EABA1BCA1F8
:101AFC000E94C81E7F936F93FF93EF93EF8DF8A115
:101B0C0066277727DF01CB01E091960BF091970BBD
:101B1C00662777270E94591EAF91BF918F919F9195
:101B2C000E94D61D0E94D71E0E945E0BE03009F465
:101B3C003EC140E050E04031E0E05E0710F00C9414
:101B4C00B00EFA01EE0FFF1F0E94141EE057F64F65
:101B5C00EF8BF88FFE013696ED8BFE8BAF89B88D2F
:101B6C00EC91E030B9F5EC89E07149F5ABA1BCA181
:101B7C000E94C81E7F936F93FF93EF93EF8DF8A194
:101B8C0066277727DF01CB01E091960BF091970B3D
:101B9C00662777270E94591EAF91BF918F919F9115
:101BAC000E94DB1DFA01EE0FFF1F0E94141E662718
:101BBC0077270E94D61DE98FFA8F6B8F7C8FE98D6A
:101BCC00FA8D6B8D7C8DABA1BCA10E94CE1EE0E08A
:101BDC00F0E0F7C0AF89B88DAC91A53E69F5ABA12B
:101BEC00BCA10E94C81E7F936F93FF93EF93EF8D60
:101BFC00F8A166277727DF01CB01E091960BF091D6
:101C0C00970B662777270E94591EAF91BF918F9132
:101C1C009F910E94DB1DFA01EE0FFF1F0E94141E04
:101C2C00662777270E94D61DE98FFA8F6B8F7C8FE2
:101C3C00EC89E061EC8B89C0EC89E17011F40C94B7
:101C4C00660EED89FE89FA93EA93E98DFA8DFA9383
:101C5C00EA93EBE0EA930E949E1DE03081F5ABA184
:101C6C00BCA10E94C81E7F936F93FF93EF93EF8DDF
:101C7C00F8A166277727DF01CB01E091960BF09155
:101C8C00970B662777270E94591EAF91BF918F91B2
:101C9C009F910E94DB1DFA01EE0FFF1F0E94141E84
:101CAC00662777270E94D61DE98FFA8F6B8F7C8F62
:101CBC00ABA1BCA10E94CE1EEFEFFFEF82C045C0CE
:101CCC00ED89FE89FA93EA93E98DFA8DFA93EA93FA
:101CDC00EBE0EA930E949E1DE03031F4AF89B88DA1
:101CEC001B96EC91E07109F430C0ABA1BCA10E9431
:101CFC00C81E7F936F93FF93EF93EF8DF8A1662728
:101D0C007727DF01CB01E091960BF091970B6627BB
:101D1C0077270E94591EAF91BF918F919F910E947E
:101D2C00DB1DFA01EE0FFF1F0E94141E662777279A
:101D3C000E94D61DE98FFA8F6B8F7C8FABA1BCA153
:101D4C000E94CE1EEFEFFFEF3CC00F5F1F4F4F5FA7
:101D5C005F4FF1CEEF8DF8A13196EF8FF8A32017DE
:101D6C00310721F5EC89E07809F1ED8DFE8DFA93C0
:101D7C00EA93E1E0EA93E5D0EF8FF8A3AF8DB8A139
:101D8C00AF3FEFEFBE0791F0EF8DF8A1FA93EA9316
:101D9C001CD0ABA1BCA10E94CE1EEF8DF8A1ED8F83
:101DAC00FE8F00E010E0E0E0EF8FE8A39ACEABA14D
:101DBC00BCA1E0E0F0E060E070E00E94CE1EEFEF2E
:101DCC00FFEF0E94371FA59608952497AC81BD8123
:101DDC001297E091980BFF2766277727882799277A
:101DEC000E94591EDF01CB01E091CD0BF091CE0B7F
:101DFC00662777270E94D61DE093CF0BF093D00B6C
:101E0C006093D10B7093D20BE091960BF091970BE2
:101E1C0066277727A091CF0BB091D00B8091D10B77
:101E2C009091D20B0E94591EA091B50BB091B60B9C
:101E3C008091B70B9091B80B0E94D61DE883F98363
:101E4C006A837B8326960895E091B50BF091B60BCF
:101E5C006091B70B7091B80BA881B9818A819B8175
:101E6C000E94261F18F0E0E0F0E070C4A091B50BC2
:101E7C00B091B60B8091B70B9091B80BE881F981BA
:101E8C006A817B810E94E01DE883F9836A837B83EE
:101E9C00E091960BF091970BA881B9818A819B8177
:101EAC00662777270E94711EE883F9836A837B83F8
:101EBC00E091CD0BF091CE0B66277727A881B981E5
:101ECC008A819B810E94261F18F0E0E0F0E03EC45E
:101EDC00E091CD0BF091CE0BA881B9818A819B81C9
:101EEC00662777270E94E51DA883B9838A839B8385
:101EFC00E091980BA881B9818A819B81FF27662785
:101F0C0077270E94711EE883F9836A837B83EE5FD7
:101F1C00FF4F6F4F7F4FE883F9836A837B83A881E0
:101F2C00B9818A819B81A030E0E0BE07E1E08E0799
:101F3C00E0E09E0718F0E0E0F0E008C4E881F981E9
:101F4C0005C426970E94301FAD85BE85129718F4E4
:101F5C00EFEFFFEFC7C0A091A00BA63311F00C94CC
:101F6C007310E091960BF091970BF695E795AD8574
:101F7C00BE850E945E1EA091990BB0919A0BEA0F40
:101F8C00FB1F8F01E091960BF091970BF695E7955F
:101F9C00AD85BE850E949C1EEE0FFF1F9F01F801B0
:101FAC00EE0FFF1FFE2FE0E0A091B50BB091B60B2A
:101FBC008091B70B9091B80B662777270E94D61D9E
:101FCC00EE83FF8368877987AC85A13051F40E943A
:101FDC00D71E0E945E0BE03019F4EFEFFFEF82C0CA
:101FEC006AC0AC85A03019F0A23009F064C0E09151
:101FFC00D40BF091D50B6091D60B7091D70BAE81B1
:10200C00BF81888599850E94261F11F40C9461105C
:10201C000E94181F11F40C945410E091C50BF09110
:10202C00C60B6091C70B7091C80BA091D40BB091EB
:10203C00D50B8091D60B9091D70B0E942B1FE8F4F7
:10204C00A091C10BB091C20B8091C30B9091C40BAA
:10205C000E94E01DA091D40BB091D50B8091D60BB2
:10206C009091D70B0E94D61D0E94D71E0E94050C82
:10207C00E03019F4EFEFFFEF35C0E091D40BF091A5
:10208C00D50B6091D60B7091D70B0E94D71E0E9476
:10209C00050CE03019F4EFEFFFEF24C0EE81FF8167
:1020AC00688579850E94D71E0E945E0BE03019F47A
:1020BC00EFEFFFEF17C0F901EF56F64FF081E0E0BC
:1020CC000F01A0E9B9E0A20FB31FEC91D001F0E031
:1020DC00EA2BFB2BEA87FB8703C0EFEFFFEF02C075
:1020EC00EA85FB850E94371F2F9608951A930A9351
:1020FC0010E000E00E3010F00C94DB10E02FAA8101
:10210C00BB81F0E0AE0FBF1FEC91EA930E94940CE0
:10211C003097A9F4E12F1F5FF0E0EF5AF34FFF93D4
:10212C00EF93E02FAA81BB81F0E0AE0FBF1FEC91C3
:10213C00EA930E94C31DAF91BF91EC9332C0E02F84
:10214C00AA81BB81F0E0AE0FBF1FAC91AE3261F43F
:10215C00183048F4E12F1F5FF0E0EF5AF34FDF0126
:10216C00E0E2EC93F5CF1DC0E02FAA81BB81F0E03B
:10217C00AE0FBF1FEC91E03061F41B3048F4E12F3F
:10218C001F5FF0E0EF5AF34FDF01E0E2EC93F5CF85
:10219C000CC0E5E0E093D30BE0E0F0E0198108819E
:1021AC00D5C21B3010F40F5FA5CFA12FB0E0AF5AF2
:1021BC00B34FE0E0EC93E1E5FCE019810881C6C285
:1021CC0029970E94301FAA89BB89129710F4E0E06E
:1021DC00F1C0A091A00BA63311F00C94DD11E0918D
:1021EC00960BF091970BF695E795AA89BB890E94FF
:1021FC005E1EA091990BB0919A0BEA0FFB1F8F01F9
:10220C00E091960BF091970BF695E795AA89BB890F
:10221C000E949C1EEE0FFF1F9F01F8016627772777
:10222C00A0E0B2E080E090E00E94591EA091B50BB6
:10223C00B091B60B8091B70B9091B80B0E94D61D44
:10224C00EB87FC876D877E87AF85A13049F40E94B0
:10225C00D71E0E945E0BE03011F4E0E0ABC067C00B
:10226C00AF85A03019F0A23009F061C0E091D40B19
:10227C00F091D50B6091D60B7091D70BAB85BC85CB
:10228C008D859E850E94261F11F40C949D110E9431
:10229C00181F11F40C949111E091C50BF091C60B21
:1022AC006091C70B7091C80BA091D40BB091D50B5A
:1022BC008091D60B9091D70B0E942B1FE0F4A0912C
:1022CC00C10BB091C20B8091C30B9091C40B0E94B7
:1022DC00E01DA091D40BB091D50B8091D60B9091B1
:1022EC00D70B0E94D61D0E94D71E0E94050CE03011
:1022FC0011F4E0E05FC0E091D40BF091D50B60914C
:10230C00D60B7091D70B0E94D71E0E94050CE030A3
:10231C0011F4E0E04FC0EB85FC856D857E850E9455
:10232C00D71E0E945E0BE03011F4E0E043C0F901CF
:10233C00EF56F64FDF01E989F070EC93D901A05705
:10234C00B64FE889F989F070EC93AF85A13011F0A4
:10235C00A23061F5A091C10BB091C20B8091C30B5F
:10236C009091C40BE091C50BF091C60B6091C70B1B
:10237C007091C80B0E94E01DAB85BC858D859E8538
:10238C000E94D61D0E94D71E0E94050CE03011F44D
:10239C00E0E010C0EB85FC856D857E850E94D71E24
:1023AC000E94050CE03011F4E0E004C002C0E0E053
:1023BC0001C0E1E00E94371F6496089526970E94A1
:1023CC00311FEB85FC85309711F4E0E0C1C0AB8583
:1023DC00BC85A45EBD4F0E94C81EEF83F887698739
:1023EC007A87EB85FC85A689B789808D918D0E94B3
:1023FC00DC1E0E945E0BE03011F4E0E0A9C0AB855E
:10240C00BC855A960E94C41EE655F64F1E2F2F2FE0
:10241C002F931F931F5F2F4FAB85BC851C960E947B
:10242C00C41EF070AF91BF91EC932F931F931F5F5D
:10243C002F4FAB85BC851C960E94C41EEF2FF0E07D
:10244C00AF91BF91EC9300E00430D0F4EF81F885AC
:10245C0069857A85EF7FF07060707070A12FB22F54
:10246C00EC93AF81B88589859A85E8E00E94081EB7
:10247C00EF83F88769877A871F5F2F4F0F5FE4CF51
:10248C00AB85BC855A960E94C41EEA55F64F1E2F8A
:10249C002F2FE0E0EF83E887E987EA8700E004303C
:1024AC00F8F4AF81B88589859A85E8E00E94FC1D17
:1024BC00EF83F88769877A87A12FB22FEC91AF81D0
:1024CC00B88589859A85FF27662777270E94EA1D9C
:1024DC00EF83F88769877A87115020400F5FDFCF31
:1024EC00EF81F88569857A85EF5FFF4F6F4F7F4FDE
:1024FC00EF83F88769877A8700E00430D0F41F5F98
:10250C002F4FEF81F88569857A85EF7FF0706070C9
:10251C007070A12FB22FEC93AF81B88589859A8505
:10252C00E8E00E94081EEF83F88769877A870F5FBF
:10253C00E4CFEB85FC85A689B789808D918D0E94AF
:10254C00DC1E0E94050CE03011F4E0E001C0E1E07B
:10255C000E94381F2D9608950E94321FEC81FD8138
:10256C00309711F4E0E04CC02C813D81E0E0E09329
:10257C00D40BE093D50BE093D60BE093D70B293F0C
:10258C00EFEF3E0700F53A932A93E0E0EA930E94BE
:10259C00A70F8F01083FEFEF1E0720F40024001651
:1025AC00010609F410C03A932A93E0E0F0E0FA93A4
:1025BC00EA93EA930E94E610E03011F4E0E020C0C8
:1025CC00202F312FDCCF3A932A93E0E0F0E0FA93FE
:1025DC00EA93E2E0EA930E94E610E03011F4E0E0C6
:1025EC000FC0E0E0E093E30BE093E40BE093E50B2A
:1025FC00E093E60BE0E0E093EB0BE093EC0BE1E017
:10260C000E94391F269608952497E0E0E883E98319
:10261C00EA83EB83E091960BF091970BA881B9813B
:10262C008A819B81662777270E942B1FB4F4E8814F
:10263C00F9816A817B81E057F64FDF01E0E0EC9392
:10264C00E881F9816A817B81EF5FFF4F6F4F7F4F8C
:10265C00E883F9836A837B83DDCFE091C10BF09132
:10266C00C20B6091C30B7091C40BE050FE4F6F4FC7
:10267C007F4FE883F9836A837B83E091980BA0E01A
:10268C00B4E0F0E00E94541EA091B90BB091BA0BCB
:10269C008091BB0B9091BC0B0E94271E0E94D61DF3
:1026AC00A881B9818A819B810E942B1FE8F4E88163
:1026BC00F9816A817B810E94D71E0E94050CE03053
:1026CC0031F4E3E0E093D30BEFEFFFEF3FC0E88191
:1026DC00F9816A817B81E050FE4F6F4F7F4FE88319
:1026EC00F9836A837B83C9CFE8EFE0939009EFEF1E
:1026FC00E0939109E0939209A091A00BA63311F4F9
:10270C00E0939309E091C10BF091C20B6091C30B64
:10271C007091C40B0E94D71E0E94050CE03071F022
:10272C00E091C50BF091C60B6091C70B7091C80B73
:10273C000E94D71E0E94050CE03031F4E3E0E093D8
:10274C00D30BEFEFFFEF02C0E0E0F0E0249608952A
:10275C000E94321FE091BD0BF091BE0B6091BF0B3C
:10276C007091C00BAE81BF810E94CE1E2885398529
:10277C00D901AC91AC3591F4E091B90BF091BA0B55
:10278C006091BB0B7091BC0BE093BD0BF093BE0B37
:10279C006093BF0B7093C00B2F5F3F4F0C811D815B
:1027AC00D901EC91E03091F1EA930E94940C3097AE
:1027BC0021F0D901AC91AE3279F41F930F930F5FD6
:1027CC001F4FD9012F5F3F4FEC91EA930E94C31D1D
:1027DC00AF91BF91EC9319C0D901AC91AC3591F488
:1027EC00D801E0E0EC93EC81FD81FA93EA9317D0E9
:1027FC00309719F0EFEFFFEF0EC00C811D812F5FAA
:10280C003F4F03C0EFEFFFEF06C0CACFD801E0E0A7
:10281C00EC93E0E0F0E00E94391F2A960895689747
:10282C000E94311FAD8DBE8DAC91AE3261F4AD8D79
:10283C00BE8D1196AC91AE3231F4AD8DBE8D12962B
:10284C00AC91A03009F04BC0E091B90BF091BA0BF0
:10285C006091BB0B7091BC0BA091BD0BB091BE0BEA
:10286C008091BF0B9091C00B0E94261F19F4EFEFC3
:10287C00FFEF09C1E091BD0BF091BE0B6091BF0B56
:10288C007091C00B0E94D71E0E945E0BE03019F4B1
:10289C00EFEFFFEFF8C0B091CB09A0E0E091CA09CF
:1028AC00F0E0EA2BFB2BED87FE87309729F0FA93AB
:1028BC00EA930E94EB0E08C0E091B90BF091BA0BB1
:1028CC006091BB0B7091BC0BE093BD0BF093BE0BF6
:1028DC006093BF0B7093C00BE0E0F0E0D4C00D8DA3
:1028EC001E8DFE013F969F01FE017A962E173F0723
:1028FC0020F5D801EC91EA930E94940C309779F46E
:10290C003F932F932F5F3F4FD8010F5F1F4FEC91D9
:10291C00EA930E94C31DAF91BF91EC930DC0D801F7
:10292C00EC91E03031F4D9012F5F3F4FE0E2EC93B2
:10293C0003C0EFEFFFEFA7C0D7CFD901E0E0EC93D6
:10294C00E0E0ED87EE87E0E0EF83E88740E0E091A0
:10295C009C0BF0919D0BAF81B885AE17BF0710F0A3
:10296C000C944715ED85FE85EE0FFF1FFE2FE0E062
:10297C00A091BD0BB091BE0B8091BF0B9091C00B81
:10298C00662777270E94D61D0E94D71E0E945E0BD9
:10299C00E0E0EB87EC87AB85BC85509710F00C948E
:1029AC004115EB85FC85EE0FFF1F0E94141EED8375
:1029BC00FE83E057F64FE081E03019F4EFEFFFEFC4
:1029CC0062C0E0E0E987EA87A985BA851B97E8F43D
:1029DC00E985FA85DE011F96AE0FBF1F0C90AD8105
:1029EC00BE81EA0FFB1FE057F64FE081E01511F4B2
:1029FC0041E005C040E0EBE0F0E0E987FA87E985CB
:102A0C00FA853196E987FA87DFCF403049F1ED81BD
:102A1C00FE81E556F64FE081E03111F040E020C038
:102A2C00ED81FE81E555F64FF081E0E0DF01ED81AF
:102A3C00FE81E655F64FE081F0E0EA2BFB2BE987AF
:102A4C00FA87FA93EA930E94EB0EE093BD0BF09396
:102A5C00BE0B6093BF0B7093C00BE0E0F0E013C0B3
:102A6C00EF81F8853196EF83F887EB85FC853196FD
:102A7C00EB87FC8790CFED85FE853196ED87FE8741
:102A8C0066CFEFEFFFEF0E94381F6F9608956C979B
:102A9C000E94301FE0E0EC87ED87EE87EF87EBA11B
:102AAC00FCA1FA93EA93FE013E96FA93EA93FE0197
:102ABC007896FA93EA930E94AE13309779F0EC85EE
:102ACC00FD856E857F85E093BD0BF093BE0B609307
:102ADC00BF0B7093C00BE0E0F0E0AAC4EC89E030CF
:102AEC0079F4EC85FD856E857F85E093BD0BF093C5
:102AFC00BE0B6093BF0B7093C00BE0E0F0E098C48A
:102B0C00E091BD0BF091BE0B6091BF0B7091C00BAF
:102B1C00E887F9876A877B87FE013896FA93EA93F0
:102B2C00FE017696FA93EA930E94BC0C9F01A8854D
:102B3C00B9858A859B850E94201F21F000240216EE
:102B4C00030679F4EC85FD856E857F85E093BD0BDE
:102B5C00F093BE0B6093BF0B7093C00BE0E0F0E002
:102B6C0067C4E0E0EE83EF83E9E2F2E0FA93EA93E4
:102B7C000E94361DEE83FF83309791F4E9E0E093D9
:102B8C00D30BEC85FD856E857F85E093BD0BF093B3
:102B9C00BE0B6093BF0B7093C00BE0E0F0E048C439
:102BAC00AE81BF81A45EBD4FE6E5F4E464E376E458
:102BBC000E94CE1EAE81BF811C96E4EEF0E0ED9338
:102BCC00FC93AE81BF81A05EBD4FE6E4F4E466E603
:102BDC0075E40E94CE1EE091960BF091970BA885A0
:102BEC00B9858A859B85662777270E949F1EAF0132
:102BFC00FA01A885B9858A859B85662777270E9467
:102C0C00E51DA887B9878A879B87E885F9856A853A
:102C1C007B850E94D71E0E945E0BE03079F4EC8518
:102C2C00FD856E857F85E093BD0BF093BE0B6093A5
:102C3C00BF0B7093C00BE0E0F0E0FAC3FE0174969A
:102C4C00FA93EA930E947C10E88BF98B3097A9F4E5
:102C5C00EE81FF81FA93EA930E94531DEC85FD856A
:102C6C006E857F85E093BD0BF093BE0B6093BF0B1D
:102C7C007093C00BE0E0F0E0DBC3FA01E057F64FD5
:102C8C00EA8BFB8B022E032A11F40C942D18AAA1AB
:102C9C00A23011F0A33031F4FA01E556F64FE08181
:102CAC00E17009F418C0EBE0E093D30BEE81FF81E7
:102CBC00FA93EA930E94531DEC85FD856E857F8502
:102CCC00E093BD0BF093BE0B6093BF0B7093C00BE6
:102CDC00E0E0F0E0ADC300E010E00C30E0E01E07F7
:102CEC0080F4F801AE81BF81EA0FFB1F0F01A1E553
:102CFC00BCE0A00FB11FEC91D001EC930F5F1F4F04
:102D0C00ECCFFA01E555F64FF081E0E0DF01FA0176
:102D1C00E655F64FE081F0E0EA2BFB2BAE81BF814C
:102D2C001C96ED93FC93AE81BF811C960E94C41E31
:102D3C00AE81BF811E96ED93FC93AE81BF815296FE
:102D4C00E0E0F0E0ED93FC93AE81BF81A45EBD4F5B
:102D5C00E0E0F0E060E070E00E94CE1EFA01E05787
:102D6C00F64F7F96EA8BFB8B00E010E00430E0E03E
:102D7C001E07A0F5EE81FF81E45EFD4FFF93EF93FC
:102D8C00DF010E94C81EDF01CB01E8E00E94FC1DA0
:102D9C00AF91BF910E94CE1EEE81FF81E45EFD4F8C
:102DAC000F01DF010E94C81E7F936F93FF93EF9377
:102DBC00AA89BB891197AA8BBB8B1196EC91AF9109
:102DCC00BF918F919F91FF27662777270E94EA1D5D
:102DDC00D0010E94CE1E0F5F1F4FC8CFAE81BF81A6
:102DEC00A05EBD4FE0E0F0E060E070E00E94CE1E1F
:102DFC00AAA1A23011F00C946A17FA01E057F64F11
:102E0C007F96EA8BFB8B00E010E00630E0E01E07BB
:102E1C0058F4AA89BB891197AA8BBB8B1196E0E059
:102E2C00EC930F5F1F4FF1CFAE81BF81A45EBD4FFE
:102E3C000E94C81E0E94181F11F40C946A17F90105
:102E4C00EE0FFF1FFE2FE0E0A091BD0BB091BE0B6B
:102E5C008091BF0B9091C00B662777270E94D61DDF
:102E6C000E94D71E0E94050CE030A9F4EE81FF8170
:102E7C00FA93EA930E94531DEC85FD856E857F8540
:102E8C00E093BD0BF093BE0B6093BF0B7093C00B24
:102E9C00E0E0F0E0CDC2AE81BF81A45EBD4FE0E0CA
:102EAC00F0E060E070E00E94CE1EEE81FF81A48510
:102EBC00B585BA93AA930E94B212AE81BF811C96BB
:102ECC00E0E0F0E0ED93FC93EE81FF81A685B78501
:102EDC00BA93AA93E1E0EA930E94A70FAE81BF8157
:102EEC005096ED93FC93AE81BF81A45EBD4F0E94C2
:102EFC00C81E0E94181F39F4AE81BF811C960E9417
:102F0C00C41E309709F01DC0AAA1A130C1F4EBE09A
:102F1C00E093D30BEE81FF81FA93EA930E94531D49
:102F2C00EC85FD856E857F85E093BD0BF093BE0B24
:102F3C006093BF0B7093C00BE0E0F0E079C2E2E06D
:102F4C00EAA3E885F9856A857B85AE81BF815696B3
:102F5C000E94CE1EFA01AE81BF815A96ED93FC936E
:102F6C00AE81BF815496E1E0F0E0ED93FC93AAA111
:102F7C00A33039F5EE81FF81FA93EA93E0E0F0E0BB
:102F8C0060E070E00E94D71EE1E0EA93EDD2EF3FE3
:102F9C00AFEFFA07A9F4EE81FF81FA93EA930E944E
:102FAC00531DEC85FD856E857F85E093BD0BF093FD
:102FBC00BE0B6093BF0B7093C00BE0E0F0E038C227
:102FCC002EC0EE81FF81A685B785BA93AA930E9485
:102FDC00EB0E0E94D71E0E945E0B00E010E0E09109
:102FEC00960BF091970B0E171F0780F4EE81FF8163
:102FFC007C96E00FF11F0F01A0E9B9E0A00FB11F03
:10300C00EC91D001EC930F5F1F4FE9CFEE81FF8164
:10301C007C96AE81BF81A95DBD4FED93FC93EAA177
:10302C00AE81BF81AC5DBD4FEC93E0E0E093D30B80
:10303C00EC85FD856E857F85E093BD0BF093BE0B13
:10304C006093BF0B7093C00BEE81FF81F1C1E2E086
:10305C00E093D30BEE81FF81FA93EA930E94531D08
:10306C00EC85FD856E857F85E093BD0BF093BE0BE3
:10307C006093BF0B7093C00BE0E0F0E0D9C16C978C
:10308C000E94301FE0E0EC87ED87EE87EF87EBA125
:10309C00FCA1FA93EA93FE013E96FA93EA93FE01A1
:1030AC007896FA93EA930E94AE13309791F0EEE083
:1030BC00E093D30BEC85FD856E857F85E093BD0B8E
:1030CC00F093BE0B6093BF0B7093C00BE0E0F0E08D
:1030DC00AFC1EC89E03091F4E5E0E093D30BEC85E3
:1030EC00FD856E857F85E093BD0BF093BE0B6093E1
:1030FC00BF0B7093C00BE0E0F0E09AC1E091BD0B08
:10310C00F091BE0B6091BF0B7091C00BE887F987F3
:10311C006A877B87FE013896FA93EA93FE017696CE
:10312C00FA93EA930E94BC0C9F01E885F9856A85A5
:10313C007B850E94181F91F4EFE0E093D30BEC8594
:10314C00FD856E857F85E093BD0BF093BE0B609380
:10315C00BF0B7093C00BE0E0F0E06AC1E091960BFE
:10316C00F091970BA885B9858A859B85662777276B
:10317C000E949F1EAF01FA01A885B9858A859B859F
:10318C00662777270E94E51DA887B9878A879B87C2
:10319C00E885F9856A857B850E94D71E0E945E0BA7
:1031AC00E03091F4E4E0E093D30BEC85FD856E8583
:1031BC007F85E093BD0BF093BE0B6093BF0B7093B8
:1031CC00C00BE0E0F0E034C1FE017496FA93EA9390
:1031DC000E947C10E88BF98B309791F4E5E0E0933A
:1031EC00D30BEC85FD856E857F85E093BD0BF0934D
:1031FC00BE0B6093BF0B7093C00BE0E0F0E018C106
:10320C00FA01E057F64FEA8BFB8B022E032AD1F022
:10321C00FA01E556F64FE081E170E13091F4E6E019
:10322C00E093D30BEC85FD856E857F85E093BD0B1C
:10323C00F093BE0B6093BF0B7093C00BE0E0F0E01B
:10324C00F7C0AAC000E010E00B30E0E01E0788F4E5
:10325C00EA89FB893196EA8BFB8B31970F01A889A0
:10326C00B989ED91A88BB98BD001EC930F5F1F4FEF
:10327C00EBCFAA89BB89E0E2EC93EA89FB89319612
:10328C00EA8BFB8BAA89BB891196AA8BBB8B1197F6
:10329C00E0E0EC93AA89BB891196AA8BBB8B1197A2
:1032AC00EC9300E010E00430E0E01E0758F4AA892B
:1032BC00BB891196AA8BBB8B1197E0E0EC930F5F47
:1032CC001F4FF1CFAA89BB891196AA8BBB8B119783
:1032DC00E0E0EC93AA89BB891196AA8BBB8B119762
:1032EC00EC93AA89BB891196AA8BBB8B1197EC9393
:1032FC00AA89BB891196AA8BBB8B1197EC9300E022
:10330C0010E00430E0E01E0758F4AA89BB8911963E
:10331C00AA8BBB8B1197E0E0EC930F5F1F4FF1CFA3
:10332C00AA89BB891196AA8BBB8B1197E0E0EC9311
:10333C00AA89BB891196AA8BBB8B1197EC9300E0E1
:10334C0010E00430E0E01E0758F4AA89BB891196FE
:10335C00AA8BBB8B1197E0E0EC930F5F1F4FF1CF63
:10336C00E885F9856A857B850E94D71E0E94050C2D
:10337C00E03091F4E3E0E093D30BEC85FD856E85B2
:10338C007F85E093BD0BF093BE0B6093BF0B7093E6
:10339C00C00BE0E0F0E04CC0EC85FD856E857F85D0
:1033AC00E093BD0BF093BE0B6093BF0B7093C00BFF
:1033BC00EBA1FCA1FA93EA93E2E0EA930E944D158B
:1033CC00EE83FF83309719F4E0E0F0E031C0EAA11E
:1033DC00E03049F1EC85FD856E857F850E94D71E16
:1033EC000E945E0BE03031F4E4E0E093D30BE0E0BC
:1033FC00F0E01EC0FA01E456F64F0F01E081AAA1DD
:10340C00EA2BD001EC93EC85FD856E857F850E94BF
:10341C00D71E0E94050CE03031F4E3E0E093D30BAF
:10342C00E0E0F0E005C0E0E0E093D30BEE81FF813B
:10343C000E94371FA596089524971A930A93AE817C
:10344C00BF810E941C1F29F0AC5DBD4FAC91A13017
:10345C0019F4EFEFFFEF63C0AE81BF81AC5DBD4FE0
:10346C00AC91A23041F0AE81BF81AC5DBD4FAC914F
:10347C00A33009F052C0EE81FF81A685B785BA93BF
:10348C00AA930E94EB0E7F936F93FF93EF93AE8101
:10349C00BF8154960E94C41E3197A091960BB09197
:1034AC00970B0E942C1EAF91BF918F919F91662715
:1034BC0077270E94D61DEA83FB836C837D8300E013
:1034CC0010E0E091960BF091970B0E171F0768F424
:1034DC00D801A057B64FEE81FF817C96E00FF11F0B
:1034EC00E081EC930F5F1F4FECCFEA81FB816C8185
:1034FC007D810E94D71E0E94050CE03019F4EFEF7D
:10350C00FFEF0DC0EE81FF81FA93EA930E94E41164
:10351C00E03019F4EFEFFFEF02C0E0E0F0E01981CA
:10352C00088128960895A881B981AC5DBD4FAC91F6
:10353C00A13069F0E881F981FA93EA930E94221A8A
:10354C00EF3FAFEFFA0719F4EFEFFFEF0BC0E88195
:10355C00F981FA93EA930E94531DE0E0E883E98332
:10356C00E0E0F0E02296089528970E94321FE98946
:10357C00FA89309731F4E2E0E093D30BEFEFFFEFF1
:10358C00B1C1EC85E03081F4A989BA89A05EBD4F48
:10359C000E94C81EAD85BE858F8598890E94D61D58
:1035AC00ED87FE876F87788BA989BA89A45EBD4F9A
:1035BC000E94C81EAD85BE858F8598890E94261FE6
:1035CC0058F4A989BA89AB5DBD4FEAE0EC93E0935E
:1035DC00D30BEFEFFFEF86C1AC85A13081F4A98945
:1035EC00BA89A45EBD4F0E94C81EAD85BE858F856D
:1035FC0098890E94E01DED87FE876F87788BA989DB
:10360C00BA89AC5DBD4FAC91A13059F0E989FA890A
:10361C00FA93EA930E94221A309719F0EFEFFFEF1A
:10362C0061C1A989BA891C962D913C91F901A9898E
:10363C00BA891E96ED93FC933A932A93E1E0EA93B0
:10364C000E94A70FA989BA895096ED93FC93A9897A
:10365C00BA895296E0E0F0E0ED93FC93E091960B82
:10366C00F091970B66277727DF01CB01E091980B40
:10367C00FF27662777270E94591EAD85BE858F854B
:10368C0098890E94711EEC83FD836E837F83E09189
:10369C00960BF091970B66277727DF01CB01E09112
:1036AC00980BFF27662777270E94591EAD85BE858C
:1036BC008F8598890E949F1EE887F9876A877B8788
:1036CC00A989BA89AA5DBD4FE0E0EC93EC81FD813C
:1036DC006E817F810E94181F11F40C94CF1BE98915
:1036EC00FA89A089B189A83FEFEFBE0730F1AC8110
:1036FC00BD818E819F81A130E0E0BE07E0E08E07A6
:10370C00E0E09E0739F4A885B9858A859B850E94DF
:10371C00201F09F007C0A989BA89AA5DBD4FE1E055
:10372C00EC9337C0A989BA89AB5DBD4FEAE0EC9345
:10373C00E093D30BEFEFFFEFD5C0A989BA89509670
:10374C002D913C91A989BA891E960E94C41EA98903
:10375C00BA895296ED93FC93F901A989BA891E9600
:10376C00ED93FC933A932A93E0E0EA930E94A70F1F
:10377C00A989BA895096ED93FC93EC81FD816E81F9
:10378C007F81319760407040EC83FD836E837F8333
:10379C009DCFE989FA89A685B785BA93AA930E9429
:1037AC00EB0EEC83FD836E837F83A989BA895496D3
:1037BC00E1E0F0E0ED93FC93E091960BF091970B28
:1037CC00A885B9858A859B85662777270E942B1F3C
:1037DC0048F1E091960BF091970BAC81BD818E81F5
:1037EC009F81662777270E94D61DEC83FD836E830D
:1037FC007F83E091960BF091970BA885B9858A850C
:10380C009B85662777270E94E51DA887B9878A873D
:10381C009B87A989BA8954960E94C41E3196ED9350
:10382C00FC93CACFEC81FD816E817F810E94D71EF3
:10383C000E945E0BE03019F4EFEFFFEF53C000E095
:10384C0010E0E091960BF091970B0E171F0780F488
:10385C00E989FA897C96E00FF11F0F01A0E9B9E024
:10386C00A00FB11FEC91D001EC930F5F1F4FE9CF6C
:10387C00A989BA89AA5DBD4FAC91A13039F4A8854C
:10388C00B9858A859B850E94201F09F010C0A989E3
:10389C00BA895C96E091960BF091970B3197EA0FF1
:1038AC00FB1FA989BA89A95DBD4FED93FC93A9892A
:1038BC00BA895C96E885F9856A857B85EA0FFB1FDA
:1038CC00A989BA89A95DBD4FED93FC93ED85FE8561
:1038DC006F857889A989BA89A05EBD4F0E94CE1EDA
:1038EC00E0E0F0E00E94391F639608955F9BFECFE5
:1038FC00ECB108955D9BFECFE881ECB9219608955B
:10390C0022970E94301F08EA1CE0D801E0E0F0E0AA
:10391C00ED93FC93002E012AA9F1D8010E94C41E3C
:10392C00E00FF11F3496AF0112960E94C41E9F0146
:10393C00309719F02E833F8304C0E0E0F1E1EE8371
:10394C00FF83EE81FF81E41BF50BDF01E885F98530
:10395C003496AE17BF0798F0FA01D8011296ED9382
:10396C00FC93F901DA011296ED93FC93E885F98545
:10397C00DA01ED93FC934C5F5F4FFA0105C0022F07
:10398C00132FC8CFE0E0F0E00E94371F2A9608956D
:10399C000E94321F08EA1CE0002E012A81F0D80197
:1039AC0012960E94C41E9F01DF01EC81FD81EA1773
:1039BC00FB0711F4F80105C0022F132FEDCFE0E047
:1039CC00F0E00E94391F2696089522970E94301F1E
:1039DC00EA85FB85309711F40C94301D34978F01D8
:1039EC001A930A93D5DF9F013097A1F1D801129653
:1039FC000E94C41ED9011296ED93FC93E885F985BB
:103A0C00309741F1FA93EA937BDFAF013097E9F0FD
:103A1C00D8010E94C41EEE83FF83DF01E885F9857F
:103A2C00AE17BF0720F4EE81FF81E887F9875A9320
:103A3C004A93EC85FD85FA93EA93EC85FD85FA9320
:103A4C00EA930E945E1DFA0107C0F801D901129693
:103A5C00ED93FC93E0E0F0E00E94371F2C96089564
:103A6C001A930A9300E010E0EA81FB81309781F011
:103A7C00FA93EA9345DF8F01309751F01A930A932A
:103A8C00E0E0EA93ED81FE81FA93EA930E947B1DBC
:103A9C00F8011981088124960895E881F981FA9337
:103AAC00EA93E0E0F0E0FA93EA938FDF2296089530
:103ABC00998188810096A9F0BD81AC81FB81EA8156
:103ACC00EA17FB0771F02CF061916D930197E1F708
:103ADC0008C0A80FB91FE80FF91F62916E930197E8
:103AEC00E1F7FD81EC8126960895B981A8811096A5
:103AFC0031F0FC81EB816A8161931197E9F7EB81DD
:103B0C00FC8125960895A991B991EE27FF276D9117
:103B1C00662311F03196FBCF0895AA27BB27E991B4
:103B2C00F9910590002011F01196FBCFFD0108953D
:103B3C00662777278991E991F991A991B991882301
:103B4C0049F08A956D917191671721F46623B9F745
:103B5C00EE270895671BE1F3E1E008F4E2500895C5
:103B6C006991A991B991EFEFFF277D91671709F43E
:103B7C00EF2FF3957723C9F70895E991E13618F003
:103B8C00EB3708F4E0520895E991F991309639F049
:103B9C0080ED97E00197F1F7A8953197C9F7089553
:103BAC00EA0FFB1F681F791F0895AE0FBF1F861FFA
:103BBC00971F0895EA1BFB0B680B790B0895AE1B3E
:103BCC00BF0B860B970B0895EA2BFB2B682B792BDD
:103BDC000895E095F09531960895E095F0956095EF
:103BEC007095EF5FFF4F6F4F7F4F0895EE230E2EB2
:103BFC00FD01BC0131F0EE0FFF1F661F771F0A9409
:103C0C00D1F70895EE230E2EFD01BC0131F076950F
:103C1C006795F795E7950A94D1F70895EE0FFF1F76
:103C2C00EE0FFF1FEE0FFF1FEE0FFF1F0895E62F85
:103C3C00F72F60E070E008956E2F7F2FE0E0F0E04A
:103C4C0008956F2F660F660B762F0895FA9FF02D4F
:103C5C00EB9FF00DEA9FE02DF10D08957A9F702DEA
:103C6C006B9F700DF89F700DE99F700D6A9F602D12
:103C7C00710DFB9F600D711DE89F600D711D8827F4
:103C8C00FA9FF02D610D781FEB9FF00D611D781FD1
:103C9C00EA9FE02DF10D681F781F08954ED0D6DFF6
:103CAC000EF497DF089557D0D9DF0EF496DF089500
:103CBC000024112490E1AA0FBB1F001C111C0E1A2A
:103CCC001F0A18F40E0E1F1E01C0A1609A9599F7D9
:103CDC00FD01D00108953F934F935F93002411246D
:103CEC003327442750E2AA0FBB1F881F991F001CC3
:103CFC00111C331F441F0E1A1F0A360B470B28F4D6
:103D0C000E0E1F1E361F471F01C0A1605A9559F792
:103D1C00FD01BC01D001832F942F5F914F913F91F6
:103D2C00089519D0D8DF0EF458DF0895C1DFFD01D6
:103D3C000895D1DFFD01BC010895E894F7FF02C09E
:103D4C0048DF6894B7FF06C0A095B095119600F8AF
:103D5C00039400FA0895E89477FF02C03EDF68945C
:103D6C0097FF0BC00024A095B09580959095119667
:103D7C00801D901D00F8039400FA0895ED91FC91BC
:103D8C0011970895ED91FD916D917C911397089584
:103D9C00ED93FD936D937C9308950590F491E02D34
:103DAC0008957A936A93FA93EA9308959A938A936F
:103DBC00BA93AA930895129603D07F2F6E2F129761
:103DCC00119602D0FE2F1197E199FECFFF93FFB70A
:103DDC00F894AEBBBFBBE09AEDB3FFBFFF91089563
:103DEC000AD012960E2E1F2EE62FF72F04D0E02DA0
:103DFC00F12D1297089507D01196EF93EF2F03D062
:103E0C00EF9111970895E199FECF9FB7F894AEBB4F
:103E1C00BFBBE09A8DB3E81719F0EDBBE29AE19ABB
:103E2C009FBF0895309760407040089500240A1693
:103E3C000B06089500240A160B06080609060895B9
:103E4C00EA17FB07680779070895AE17BF078607BF
:103E5C00970708955A934A933A932A931A930A937D
:103E6C0008955D814C813B812A81198108810895D7
:00000001FF
