:020000000C945E
:1000020044010C9400000C9400000C9400000C9429
:1000120000000C9400000C9400000C9400000C945E
:1000220000000C9400000C9456040C9400000C94F4
:10003200C4030C9400000C9400000C9400000C9477
:100042004A040C9400000C9454030C9400000C9489
:1000520000000C9400000C9400000C9400000C941E
:1000620000000C9400000C9400000C9400000C940E
:1000720000000C945B040C9400000C9400000C949F
:1000820000000C9407200C94000009000000536348
:1000920072616D626C696E672044657669636500A2
:1000A2000000000000000000000000000000090243
:1000B20000000800280628060100000000000000D9
:1000C20001000000000000000000400000000000ED
:1000D2000100410000000000020049000000000091
:1000E20003004A000000000004004C000000000071
:1000F20005004D0000000200060050000100000053
:100102000700510002000000080052000200000037
:1001120009005800020000000A0059000200000015
:100122000B005B00000000000C005C0002000100FC
:100132000D005D00020001000E005E0002000000E2
:100142000F006000020000001000610002000000C9
:1001520011006200020000001200630002000000B1
:100162001300640002000000140065000200000099
:10017200150066000300010016006A00030001007A
:1001820017007A000000030018007B000300000043
:10019200190069000000000002450189064205F6C7
:1001A200CD00AE00BA00350043006601B200A600E1
:1001B20007007D0006007A00010000000000000038
:1001C2000000F8001027E80364000A000100001094
:1001D200000110000100506F7274202052532D3222
:1001E200333220B900757365722E62696E000A0D92
:1001F2000025582000253032582000000000000061
:100202000400500CFE0102000400B20002000900CA
:10021200B60002000B00B8000F000F06D801010063
:100222002306BA0002002907BC000800FC099A0153
:100232000200140AA2010200160AA4010200180A0E
:10024200A60102001A0AA80102001C0AAA01020061
:10025200200AAC010200220AAE010200240AB00107
:100262000200260AB2010200280AB40101002F0A84
:10027200B6010100300AB8010100320ABA010100D8
:100282003C0BC4010000F894EE27ECBBF1E0F5BF93
:10029200E5BFE0936C00EBBFF8E1F1BDE1BD8DE09D
:1002A200A2E0BB27ED938A95E9F780E59BE0A0E009
:1002B200B1E0ED930197E9F7E2E0F2E085919591E3
:1002C200009761F0A591B59105901590BF01F001DD
:1002D20005900D920197E1F7FB01F0CFEFE4EDBF3E
:1002E200ECE0EEBFC0E8D3E00C9442020E94BF2AC9
:1002F200E0912806E03049F5E3E1EA93BAD1E2E081
:100302000E940F2300E00F3058F4E02FF0E0E15F8D
:10031200F94F2081203021F02A93A1D10F5FF3CF32
:100322000F3028F4E0E2EA939AD10F5FF9CFA12FC0
:10033200BB27E1E1F0E00E94C529AFE1B6E00E94EF
:1003420016238DD10E941B2321C0E130F9F4E4EB86
:10035200F0E0E491A3E0EA9FE02DEF5FEA9389D118
:1003620010E0E4EBF0E0E4911E1770F40E94212308
:10037200E12F0E942523E12FF0E0E250FA4FE081C5
:10038200EA936DD11F5FEDCF0E941B230E94C62A04
:10039200239608950A93E8E2EA936BD100E00032D3
:1003A20048F4E02FF0E0E057FF4FE491EA9357D191
:1003B2000F5FF5CFA1E0B0E00E946D2AFA93EA93B5
:1003C2000BD2A1E0B0E00E946D2A0E94B129FA93FB
:1003D200EA9302D2A0E0B0E00E94762A0E940F23A4
:1003E200E0EBF0E00E94592AFA93EA93F5D14BD15F
:1003F20009910895E0912806A0E0B0E00E94952AB4
:100402000E9429230E942D230895A1E0B0E00E94BA
:100412006D2A0E94A42A31F00E9429230E942123DE
:1004220032D10895E0912806F091290660912A06BA
:1004320070912B06A1E0B0E00E94822A0E9429233B
:100442000E942D230895E0E0EA9313D11CD1E1E04C
:10045200E5BFE2E0E5BF0C9400FC08950E94B11FE5
:10046200ACD1DAD1E5D1F1D1D4D10895D29ADA98CA
:10047200EAE0F0E0FA93EA930E945029DA9AD298DD
:10048200089520E000E1D09AD19AD898D99A0E9492
:100492002F0278940E943702E8EBFBE0FA93EA938A
:1004A2000E945029E0E0E0938003E0E2E0938103C0
:1004B200E0E8F3E00E9433230E94C61F539AA1E0B2
:1004C200B0E00E946D2A7F936F93FF93EF93ECE865
:1004D200F0E00E945D2AAF91BF918F919F910E949F
:1004E200B22A39F48AD5E03021F0689422F80E94C9
:1004F200382311E0E4EBF0E0E491E11728F01A93DD
:100502000E94E7201F5FF6CFA895D09AD19AD89A79
:10051200D99811E0E4EBF0E0E491E117D0F11A93FD
:100522000E942721E03099F1E0918005E03051F5F9
:10053200E0918205E13019F41A9315D222C0E3301A
:1005420091F4E09183050E943C237E2A0E9443237A
:100552002E23203039F4871411F0E0E001C0E1E0ED
:10056200EA939AD00EC0E43061F4E09183050E94D0
:100572003C237E2A0E9443232E23203011F46894C8
:1005820020F805C0E1E8F5E0FA93EA932ED11F5F67
:10059200C1CF03D1E03011F40C941E030E94AA1AB9
:1005A200A0E0B0E00E94762AA0912606EA1711F098
:1005B200AF3FE1F5FBD0E13019F40E94770135C07D
:1005C200E33019F40E94CB0130C0E43019F40E94E8
:1005D200FB012BC0E53019F40E94060226C0E73069
:1005E20019F40E94240221C0E63061F4E091280649
:1005F200EA930E94B421E03011F40E944B23772445
:10060200282D12C0ED3A11F4B8D30EC0E03A11F021
:10061200E13A21F40E944F23282D06C0E23A21F448
:100622006AD10E944F23282DC4D007C00E941922EC
:10063200E03011F40E944B23BCD022FE0DC020FEFC
:100642000BC0882049F00E94EE1A4AD1D09AD19A62
:10065200D898D99A7724282D0C948502FFCF5D9BD8
:10066200FECFE881ECB9A0912206EA0FE0932206C0
:100672009CC1EAE0E0932306E0E0E0932206E881F1
:100682000E94252392C1E0912206EA930E94300340
:10069200E1E0E093230608950E9429230E94552356
:1006A2000E94440382C1AA93EA93FA93EFB7EA93B2
:1006B2000A930CB1E0912306E130A9F4013709F065
:1006C20055C0E2E0E0932306E0E0E0932406ECB5B7
:1006D200FDB5E056F04FFBBDEABDE0E1E6BFE7B78E
:1006E200E061E7BF43C0E23031F4E02FE350E09332
:1006F2002506E3E039C0E33021F400932606E4E066
:1007020033C0E43079F400932706E0E0E093270752
:10071200E0912506E03011F0E5E001C0E6E0E0936B
:10072200230624C0E53079F4A0912707AF3F08F0F3
:100732001AC00E945923E0912506A0912707AE17FF
:10074200A8F0E6E011C0E63071F4E0912406E0176B
:1007520011F0E1E003C00E945923E7E0E093230691
:100762000E94642303C0E1E0E0932306E02FA091FE
:100772002406EA0FE09324060991E991EFBFF9916B
:10078200E991A99118950E946823E1E0E09323067C
:100792000E9464230E946C231895A0912306A7301F
:1007A20011F4EFEF0895E0E008950895E09127062F
:1007B2000895E1E0E09323060895E0E0EBB9E0E973
:1007C200EAB9E6E8E0939500ECE0E9B9E0E0E0930D
:1007D2009000E5E0EEBD08950E945523E981F07096
:1007E200EA930E943003229608950A93A981BA815E
:1007F200EC91EF5F0E2FE02F0150E03049F0A9811C
:10080200BA81ED91A983BA83EA930E943003F3CFB0
:10081200A7C0BF9ABC9A0895E0E0E0BFE3BFE1E061
:10082200E2BFE0E0E1BFE7B7A1E0EA27E7BF089552
:10083200E0E0E5BDE4BDE3BDE7B7A0E40E947023BC
:10084200A0E0EA27E0937D0008950E947523E0E08E
:10085200E0938900EAEAE0938800E0E0E093810017
:10086200EFEFE0938000E0E0E0938700E093860002
:10087200E0938500E0938400E0938300E09382009C
:10088200E7B7A0E00E947023A4E0EA27E0937D008E
:1008920008950E946823E0E0E3BFE0912807E16049
:1008A200E09328070E946C231895EA93E0E0E5BDE7
:1008B200E9911895AA93EA93EFB7EA93689420F81E
:1008C200E0E0E0938B00E0938A00E894C79B689491
:1008D200A8B3A7F9A8BBE991EFBFE991A99118952F
:1008E200E89420F8E0EFE0938900E0E0E0938800EC
:1008F2000E94752308951A930A9310915F06AFE53B
:10090200B6E0E091280AF091290AEC93E0912506DD
:10091200F0E0E85DF94F0F01E081E11BAE2FE091BD
:10092200280AF091290AB0E0EA0FFB1FD001EC93EC
:100932000991199108950A9301E0E4EBF0E0E49142
:10094200E01768F00E947C23AE2FEA81EA1729F4AF
:10095200E981E01711F0E1E003C00F5FEECFE0E0C4
:10096200088123960895E0918305EA93E981EA9349
:100972000E949C04E03029F40E948223E0918305C6
:1009820003C00E948223E0E0EC93E881F0E0E350B0
:10099200FA4FE081E03031F40E948723AFEFEA277B
:1009A2008E2203C00E9487238E2A219608950A93DD
:1009B20000E0E5E0F0E02F01A02F0F5FAC3740F43C
:1009C2000E948D23E02F0E9493230E94952AF4CF48
:1009D20032C024970E949823E8830E949823E983D7
:1009E2000E949823EA83AC81BD81EC91EB83E8817C
:1009F200F9816A817B818FC00A9300E0043860F438
:100A0200E02FF0E0EF5CF94FE0810E949E2311F4A9
:100A1200E0E011C00F5FF2CFE1E00DC00A9300E009
:100A2200043040F4EFEF0E949E2311F4E0E003C093
:100A32000F5FF6CFE1E0099108950E94AB23B1F078
:100A4200E09129060E949E2389F0E0912A060E94E5
:100A52009E2361F0E0912B060E949E2339F0E091E3
:100A62002C060E949E2311F0E1E00895E0E0089533
:100A7200249784E0A0E0B0E0EEEBF0E00E94CA2A06
:100A8200EC81FD81FA93EA930E94EA04E883F983F8
:100A92006A837B830E94BF23E883F9836A837B8313
:100AA2000E94CE23DF01CB01E881F9816A817B813B
:100AB2000E94B72A20F4EFEF0E94D623F1CF0E94C2
:100AC2001E05E03011F4E0E026C0E0912907F09124
:100AD2002A07FA93EA93EA81FB816C817D810E9465
:100AE200DF2311F4E0E017C0E0912806E13039F489
:100AF2000E94FD04E03011F4E0E00DC00BC0E230D2
:100B020039F40E940F05E03011F4E0E004C002C0A5
:100B1200E0E001C0E1E026960895E0912907F09116
:100B22002A07FA93EA930E943C16EF3FAFEFFA07C7
:100B320011F4E0E00895E1E008950A9304E0E0E0B2
:100B420023FCE1E0AE2FE981E170EA1719F00E947F
:100B52008E050CC00E94CE23EF3FAFEFFA07AFEF36
:100B62006A07AFEF7A0711F0E1E030C0E981E030C7
:100B720051F4E7EEF1E00E94E9230E94EE2311F422
:100B8200E0E024C01FC0E7EEF1E0FA93EA93E3E06D
:100B9200EA930E94EE23B1F4E7EEF1E00E94F6231D
:100BA2000E94F314E0932907F0932A07309711F477
:100BB200E0E00CC0E02F0150E03021F0E0E00E94C4
:100BC200D623F8CFE981E0FB23F8E1E00881229601
:100BD2000895609788E0A8E0B0E0E2ECF0E00E94BF
:100BE200CA2AE889F9896A897B89E150F040604024
:100BF20070400E94AC29E88BF98B6A8B7B8B0E9438
:100C02003823E03011F40C94BB060E94B51AE88335
:100C1200F9836A837B83E881F9816A817B813197D9
:100C220060407040E883F9836A837B83EF5FFF4F04
:100C32006F4F7F4F11F40C94BB06E885F9856A85E6
:100C42007B85EF5FFF4F6F4F7F4FE887F9876A879A
:100C52007B87319760407040EC87FD876E877F8786
:100C62000E94BF23EC87FD876E877F87E09129076B
:100C7200F0912A07FA93EA93EE85FF8568897989CC
:100C82000E94DF2311F40C94BA060E94FB230E94F7
:100C9200BB29EC83FD836E837F830E94FB230E942A
:100CA20003240E94FB23FE2FE0E0FE2FE0E0AC8154
:100CB200BD818E819F810E94BB290E947029EC8395
:100CC200FD836E837F830E94FB23FE2FE0E0FE2FD5
:100CD200E0E00E940324E889F9896A897B89AC8172
:100CE200BD818E819F810E94B22A11F00C94BA06B6
:100CF200E4E8EA930E943A03EC810E941224E8E0BD
:100D02000E941A24EC81FD816E817F810E94B129AB
:100D12000E941224E8E10E941A24E0E0EC83ED83B1
:100D2200EE83EF83AC81BD818E819F81A038E0E0AC
:100D3200BE07E0E08E07E0E09E07B8F40E941F24A1
:100D420011F0E0E002C00E94FB23EA930E9430030C
:100D5200EC81FD816E817F81EF5FFF4F6F4F7F4F8F
:100D6200EC83FD836E837F83DDCF0E944403E1E049
:100D720002C051CFE0E06496089522FC03C00E94B5
:100D82004B233BC0E0912806E13011F0E230E1F460
:100D9200E1E0EA930E949E05E03099F0EDE2F6E090
:100DA200FA93EA930E943905E03021F00E94382339
:100DB200E1E003C00E943823E0E0EA930E944D0381
:100DC20002C00E944B2319C0E33039F40E94D804B8
:100DD200E1E0EA930E944D0310C0E43071F4EDE2C9
:100DE200F6E0FA93EA930E94EA040E94632A0E94C0
:100DF200EA05E03011F40E944B230895E881EFB92F
:100E0200779BFECFEFB137C524970E94BC2AC498C6
:100E1200AE85BB276CEC70E00E94292404910A93F2
:100E22000E9430246EEC70E00E9429240E94592A0C
:100E32009F01022E032A71F440E050E04430E0E0CA
:100E42005E0738F4E0E0EA930E94FF064F5F5F4FCF
:100E5200F5CF28C0EA85FB856C857D85E070F07052
:100E620060707F7FDF01CB01E8E10E943524E070F2
:100E7200F0706F7F70700E94B1290E944024EA8551
:100E8200FB856C857D85E070FF7F60707070DF018F
:100E9200CB01E8E00E943524EF7FF0706070707043
:100EA2000E944024EE85E03011F405E901C00FEF05
:100EB2000A930E9444240E94302460ED70E00E9454
:100EC20029240E94592A9F01F901309721F40E9496
:100ED2004924F0E088C0E130A0E0FA07E1F40E9482
:100EE20049241E2FE0E0EE83EF83E887E987EE8155
:100EF200FF81688579850E94A42A51F40E944924C1
:100F0200FF2766277727EE83FF8368877987EFCFEE
:100F1200E12FF0E068C0E230A0E0FA07D9F40E94C5
:100F220049240E944D24E8E00E9486297F936F9312
:100F3200FF93EF930E944924AF91BF918F919F91AC
:100F4200FF27662777270E947029EE83FF83688731
:100F5200798749C0E330A0E0FA0711F00C94F20758
:100F62000E9449241E2FE0E0E0932B07E0932C0718
:100F7200E0932D07E0932E070E9449240E944D24FE
:100F8200E8E10E948629E0932B07F0932C076093F7
:100F92002D0770932E070E9449240E9459240E9413
:100FA200B6290E9461240E944D24E8E00E9486290D
:100FB2000E9461240E945924A0912B07B0912C0712
:100FC20080912D0790912E070E947029E0932B07A4
:100FD200F0932C0760932D0770932E07E12FF0E01A
:100FE20002C0E0E0F0E00E94C32A2F960895C49A5E
:100FF2000E9474240E94FF06089524970A93E7B37F
:10100200E760E7BBBB98BC9A0E947724EEB9E0E0A8
:10101200F2E0E0933509F0933609E0E0E0938609C7
:10102200E0938709E0938809E0938909D7D2E030F9
:1010320011F4E0E0B9C2E0E0E983EA83EB83EC83F8
:10104200A981BA818B819C81A436E0E0BE07E0E0F1
:101052008E07E0E09E0710F0003041F4C4980E9431
:1010620049240E2FC49A0E947B24EACFE0E0E98350
:10107200EA83EB83EC83A981BA818B819C81A436BC
:10108200E0E0BE07E0E08E07E0E09E07A0F4CFD2EA
:10109200E03089F4A981BA818B819C81A336E0E09A
:1010A200BE07E0E08E07E0E09E0711F4E0E07CC2BC
:1010B2000E947B24E0CFE0E0F0E060E070E00E947C
:1010C200882419F40E948E246FC2B091F608A0E021
:1010D200E091F508F0E0EA2BFB2BE0932F09F09367
:1010E2003009A0912F07AB3E21F4E0913107E0399E
:1010F20021F0A0912F07A93E51F4E0912D09E53589
:1011020021F4E0912E09EA3A09F001C001C005C0BC
:10111200E0E0E0932F09E0933009E0912F09F0918C
:1011220030090E949324E0935409F0935509609387
:10113200560970935709E0912F09F09130093097C1
:1011420071F0E0915409F09155096091560970913E
:1011520057090E94882419F40E948E2425C2E09126
:101162002F07FF27662777270E94B629DF01CB01C9
:10117200F0913007E0E00E94BB290E947029DF0154
:10118200CB01E0913107F0E00E94BB290E94702957
:10119200E0933109F0933209609333097093340973
:1011A200B0913B07A0E0E0913A07F0E0EA2BFB2B7D
:1011B200E0933509F0933609E0913C07E093370953
:1011C200B0913E07A0E0E0913D07F0E0EA2BFB2B57
:1011D200E0933809F0933909E0913F07E0933A0927
:1011E200B0914107A0E0E0914007F0E0EA2BFB2B31
:1011F200E0933B09F0933C09B0914607A0E0E091EF
:101202004507F0E0EA2BFB2BE0933D09F0933E0902
:10121200B0914307A0E0E09142070E94A024E0932E
:101222004009F093410960934209709343090E9477
:10123200A42A39F5E09152070E94A624E0915107B1
:101242000E94B1247F936F93FF93EF93E091500735
:101252000E94B924AF91BF918F919F910E947029F2
:10126200DF01CB01E0914F07FF27662777270E9416
:101272007029E0934009F093410960934209709309
:101282004309E09159070E94A624E09158070E9461
:10129200B1247F936F93FF93EF93E09157070E94DE
:1012A200B924AF91BF918F919F910E947029DF0164
:1012B200CB01E0915607FF27662777270E94702906
:1012C200E0934409F09345096093460970934709F6
:1012D200E0E0E983EA83EB83EC83A981BA818B8125
:1012E2009C81AB30E0E0BE07E0E08E07E0E09E07C5
:1012F200B0F4E981FA816B817C81E85BF64FDF0112
:10130200E981FA816B817C81E55DFF4F6F4F7F4FF1
:10131200E15DF84FE081EC930E947B24DECFE0E0B8
:10132200E0935309E0913809F09139090E9493241E
:10133200A0915409B091550980915609909157098D
:101342000E945C29E0936009F0936109609362094D
:1013520070936309E0913D09F0913E090E94932444
:10136200A0916009B091610980916209909163092D
:101372000E945C29E0936409F09365096093660911
:1013820070936709E0913A09FF2766277727DF0103
:10139200CB01E0913D09F0913E09662777270E9433
:1013A200ED29DF01CB01E0913809F0913909662777
:1013B20077270E945C29E0935809F09359096093BA
:1013C2005A0970935B09E0913509F0913609A091B1
:1013D2005809B091590980915A0990915B09662781
:1013E20077270E94CD29E0935809F0935909609319
:1013F2005A0970935B09E0915409F0915509609183
:10140200560970915709A0915809B09159098091D4
:101412005A0990915B090E945C29E0935809F09364
:10142200590960935A0970935B09E0913B09F09165
:101432003C09EE0FFF1F0E949E29A0913509B09131
:101442003609AE0FBF1F1197E0913509F0913609A9
:101452000E94F22966277727E0936809F0936909C9
:1014620060936A0970936B09E0913D09F0913E091E
:10147200A0913A09B0E00E94C529A0913809B09123
:101482003909AE0FBF1FE0916809F09169096091B7
:101492006A0970916B09882799270E945C29E09359
:1014A2006C09F0936D09A0914009B09141098091B6
:1014B200420990914309662777270E946B29A093DE
:1014C2007709B09378098093790990937A09E0912A
:1014D2003709A0917709B0917809809179099091A3
:1014E2007A09FF27662777270E94052AE093770962
:1014F200F09378096093790970937A09E0E0E093B8
:101502008209E0938309E0938409E0938509E1E08D
:10151200F0E0E0938A09F0938B09A0917709B091EA
:1015220078098091790990917A09A53FEFE0BE0789
:10153200E0E08E07E0E09E0720F4E2E3E0933F095B
:101542001CC0A0917709B091780980917909909196
:101552007A09A53FEFEFBE07E0E08E07E0E09E07C5
:1015620020F4E6E3E0933F0908C0E0E0E0933F099E
:10157200ECE0E0937209E0E017C0E0915809F091C5
:10158200590960915A0970915B09E0935C09F093E3
:101592005D0960935E0970935F09ECE5E0938C0945
:1015A200E0E0E0938D09E1E0088125960895EDB130
:1015B200E03519F4E1E5EDB90FC0EDB1E13519F40B
:1015C200E2E5EDB909C0EDB1E23519F4E3E5EDB9B3
:1015D20003C00E9477240895E1E008950E94BF2A83
:1015E20020E0243010F5C49A10E01A3020F40E9452
:1015F20049241F5FFACFE0E00E94C22410E0183CA9
:1016020058F4013021F4C49A0E94CD2431C00E94C2
:1016120049240E2F1F5FF3CF0E94D80AE03019F43D
:10162200C49AE0E025C02F5FDCCFE0E021C00E9439
:10163200BF2A0E94F80710E020E0183EE3E02E07E0
:1016420090F4E1E00E94C224003069F00E94492433
:101652000E2F003041F00E9449240E2F003019F065
:101662001F5F2F4FEACF003011F4E1E001C0E0E04C
:101672000E94C62A2396089524970A930E94D12491
:1016820019F00E94E02463C00E94F807E7E00E947C
:10169200E524E0E0E983EA83EB83EC83A981BA8164
:1016A2008B819C81A83EE3E0BE07E0E08E07E0E08C
:1016B2009E0740F40E3F31F00E9449240E2F0E94F3
:1016C2007B24ECCF0E3FD9F5E0E0E983EA83EB839C
:1016D200EC83E0913509F0913609A981BA818B81B9
:1016E2009C81662777270E94B72A80F4E981FA81D4
:1016F2006B817C81E15DF84FFF93EF930E94492457
:10170200AF91BF91EC930E947B24E3CF0E9474249B
:101712000E9444240E94FF06C49AE0E0E09372090A
:10172200ED81FE816F817885E0937309F0937409EE
:1017320060937509709376090E94CD2408C0C49AFB
:101742000E94D80AE03009F09FCF0E94E02408816D
:10175200299608950E94BD2A0E94D12479F4E0912D
:101762005409F09155096091560970915709AD815C
:10177200BE818F8198850E94B22A18F00E94F024BF
:1017820050C00E94F807E9E00E94E52420E030E022
:1017920040E0383EE3E04E0750F4003011F421E01F
:1017A20006C00E9449240E2F3F5F4F4FF2CF2030D8
:1017B20081F10E944924EEEFEA930E94FF0630E095
:1017C20040E0E0913509F09136093E174F0758F491
:1017D200AFE2B7E0A30FB41FEC91EA930E94FF06B9
:1017E2003F5F4F4FEECF0E9474240E9444240E9418
:1017F200FF060E2FE02FE06E1E2F153E51F40E94C1
:101802004924E030E1F3C49AE0E0E0937209E1E0B8
:1018120008C0C49A0E94D80AE03009F0B2CF0E94F0
:10182200F0240E94C42A29960895A881A03218F4AF
:10183200EFEFFFEF20C0A881A232C1F0AA32B1F0CF
:10184200AB32A1F0AC3291F0AE3281F0AF3271F036
:10185200AA3310F0A03450F0A881AB3510F0AE35A9
:1018620028F0A881AC3711F0A53E19F4EFEFFFEF95
:1018720002C0E0E0F0E0219608956B970E94BC2A36
:10188200E0E0EC8B00E010E0E9A1FAA1ED8BFE8B29
:10189200E0E0EF8FE8A3AF8DB8A11B9710F00C9496
:1018A200980CAD89BE890E94F524A1F4EF8DF8A1B0
:1018B200DE011696EA0FFB1FFF93EF93AD89BE89F7
:1018C200ED91AD8BBE8BEA930E944929AF91BF91F6
:1018D200EC932AC0AD89BE89AC91AE32A9F4AF8D2A
:1018E200B8A1189718F40E94FB24F9CFEF8DF8A144
:1018F2003197EF8FF8A3ED89FE893196ED8BFE8B40
:10190200EC89E160EC8B10C0AD89BE89EC91E030CE
:1019120041F4AF8DB8A11B9718F40E94FB24F9CFB4
:1019220003C00E94082510C10E941325B4CFE0E035
:10193200E98BABA1BCA10E944E2AA0915809B0919B
:10194200590980915A0990915B090E94B22A29F49F
:1019520020913B0930913C0919C0ABA1BCA10E9466
:101962004E2A0E94632A29D1ED8FFE8F309719F0FB
:10197200EC89E068EC8B0E941925DF01CB01E0E2E3
:10198200F0E060E070E00E942B2A9F01E0E0EF8F20
:10199200E8A30217130710F00C94A30DABA1BCA18E
:1019A2000E944E2A7F936F93FF93EF930E94292503
:1019B200AF91BF918F919F910E945C290E948824D0
:1019C20009F4C0C040E050E04031E0E05E0710F0B2
:1019D2000C947B0D0E943825E15DF84FEF8BF88F58
:1019E200FE013696ED8BFE8BAF89B88DEC91E0301F
:1019F200E1F4EC89E071A1F4ABA1BCA10E944E2AF2
:101A02007F936F93FF93EF930E942925AF91BF912C
:101A12008F919F910E9461290E9438250E943E2544
:101A22000E944725E0E0F0E08FC0AF89B88DAC910D
:101A3200A53EC1F4ABA1BCA10E944E2A7F936F9335
:101A4200FF93EF930E942925AF91BF918F919F91B0
:101A52000E9461290E9438250E943E25EC89E0619E
:101A6200EC8B43C0EC89E170E9F00E945025C9F487
:101A7200ABA1BCA10E944E2A7F936F93FF93EF9379
:101A82000E942925AF91BF918F919F910E94612958
:101A92000E9438250E943E250E944725EFEFFFEF66
:101AA20053C023C00E94502531F4AF89B88D1B96D4
:101AB200EC91E07109F419C0ABA1BCA10E944E2ABD
:101AC2007F936F93FF93EF930E942925AF91BF916C
:101AD2008F919F910E9461290E9438250E943E2584
:101AE2000E944725EFEFFFEF2FC00F5F1F4F4F5FA1
:101AF2005F4F6ACF0E9413252017310711F5EC8939
:101B0200E078F9F0ED8DFE8D0E94E923D4D0EF8FBD
:101B1200F8A3AF8DB8A1AF3FEFEFBE0791F0EF8D05
:101B2200F8A1FA93EA9314D0ABA1BCA10E94542A63
:101B3200EF8DF8A1ED8FFE8F00E010E0E0E0EF8F77
:101B4200E8A327CF0E9408250E94C32AA5960895DC
:101B52002497AC81BD811297E0913709FF27662750
:101B62007727882799270E94ED29DF01CB01E09191
:101B72006C09F0916D09662777270E945C29E09332
:101B82006E09F0936F096093700970937109E09187
:101B92003509F091360966277727A0916E09B09131
:101BA2006F0980917009909171090E945E25E88306
:101BB200F9836A837B8326960895E0915409F09114
:101BC20055096091560970915709A881B9818A8196
:101BD2009B810E94B22A18F0E0E0F0E06AC0A09176
:101BE2005409B09155098091560990915709E8819D
:101BF200F9816A817B810E946629E883F9836A837D
:101C02007B83E0913509F0913609A881B9818A81F7
:101C12009B81662777270E94052AE883F9836A83D6
:101C22007B83E0916C09F0916D0966277727A88183
:101C3200B9818A819B810E94B22A18F0E0E0F0E02B
:101C420038C0E0916C09F0916D09A881B9818A814F
:101C52009B81662777270E946B29A883B9838A8391
:101C62009B83E0913709A881B9818A819B81FF27F3
:101C7200662777270E94052AE883F9836A837B8394
:101C8200EE5FFF4F6F4F7F4FE883F9836A837B8359
:101C9200A881B9818A819B81A030E0E0BE07E1E0A2
:101CA2008E07E0E09E0718F0E0E0F0E002C0E88175
:101CB200F9812496089526970E94BC2AAD85BE8597
:101CC200129718F4EFEFFFEF73C0A0913F09A6330C
:101CD20011F00C94D40E0E946B250E9474250E9470
:101CE2006B250E947E25EE0FFF1FFE2FE0E0A091E4
:101CF2005409B09155098091560990915709662768
:101D020077270E945C29EE83FF8368877987AC85F9
:101D1200A13039F40E94882419F4EFEFFFEF48C094
:101D220030C0AC85A03011F0A23059F5E0917309B2
:101D3200F09174096091750970917609AE81BF8145
:101D4200888599850E94B22AE1F00E94A42A79F03E
:101D52000E94852530F40E94982519F4EFEFFFEFD9
:101D620027C00E94BA2519F4EFEFFFEF21C0EE81E0
:101D7200FF81688579850E94882419F4EFEFFFEFCF
:101D820017C0F901E05DF84FF081E0E00F01AFE22A
:101D9200B7E0A20FB31FEC91D001F0E0EA2BFB2BCE
:101DA200EA87FB8703C0EFEFFFEF02C0EA85FB85FE
:101DB2000E94C32A2F9608951A930A9310E000E016
:101DC2000E30C8F50E94C8250E94160C309779F48F
:101DD200E12F1F5FF0E0E051F64FFF93EF930E9477
:101DE200C8250E944929AF91BF91EC9320C00E945F
:101DF200CD25AC91AE3241F4183028F4E12F1F5FAB
:101E02000E94D425F9CF13C00E94CD25EC91E03079
:101E120041F41B3028F4E12F1F5F0E94D425F9CF33
:101E22000AC0E5E0E0937209E0E0F0E00CC01B308C
:101E320010F40F5FC5CFA12FB0E0A051B64FE0E084
:101E4200EC93E0EFF9E019810881249608952C972C
:101E52000E94BD2AE0916009F091610960916209D6
:101E620070916309ED83FE836F837887E1E0F0E090
:101E7200EF87F88BA989BA890E94A82A21F4A09138
:101E82003F09A63309F021C0ED81FE816F8178857B
:101E9200A0918209B091830980918409909185096A
:101EA2000E94B22A90F4E0918209F0918309609134
:101EB200840970918509ED83FE836F837887E091B1
:101EC2008A09F0918B09EF87F88B01E0E0916409B0
:101ED200F09165096091660970916709AD81BE81D3
:101EE2008F8198850E94B72A10F00C944E10A09111
:101EF2003F09A63311F00C944A10E989FA89309708
:101F020091F4ED81FE816F817885E0938209F093EF
:101F120083096093840970938509EF85F889E093BA
:101F22008A09F0938B09ED81FE816F8178850E9489
:101F3200882419F4E0E0F0E0B2C0E0918609F09163
:101F4200870960918809709189090E94A42A81F009
:101F5200E0918609F0918709ED87FE87E0E0E09342
:101F62008609E0938709E0938809E093890903C011
:101F7200E0E0ED87EE873D854E85E0913509F091F1
:101F82003609F695E7953E174F0710F00C94381076
:101F9200E32FF42FEE0FFF1FE05DF84F0E94DB25C9
:101FA200E32FF42FEE0FFF1FE15DF84FE0810E9457
:101FB200A024E987FA876B877C87E32FF42F6627B3
:101FC20077277F936F93FF93EF93E0913509F09119
:101FD2003609662777270E94A729DF01CB01EF8503
:101FE200F88966277727E150F040604070400E94F0
:101FF200CD29AF91BF918F919F910E945C291E2F95
:102002002F2FE989FA89A985BA858B859C85662750
:1020120077270E94B22AB1F4E985FA856B857C851F
:102022000E94A42A61F4E32FF42F66277727E09316
:102032008609F09387096093880970938909E12FD3
:10204200F22F2DC0E0917709F0917809609179091A
:1020520070917A09A12FB22F882799270E94B22A5C
:1020620018F40E94DF251BC03F5F4F4F86CFED81E2
:10207200FE816F817885E050FE4F6F4F7F4FED8379
:10208200FE836F837887EF85F8893196EF87F88B27
:1020920003C0E0E0F0E003C019CF0E94DF250E94F8
:1020A200C42A6396089529970E94BC2AAA89BB89EB
:1020B200129710F4E0E08BC0A0913F09A63311F013
:1020C2000C94E5100E94E5250E9474250E94E525E6
:1020D2000E947E2566277727A0E0B2E080E090E0AC
:1020E2000E945E25EB87FC876D877E87AF85A130D6
:1020F20031F40E94882411F4E0E069C02DC0AF855C
:10210200A03011F0A23041F5E0917309F091740909
:102112006091750970917609AB85BC858D859E8528
:102122000E94B22AC9F00E94A42A69F00E94852561
:1021320028F40E94982511F4E0E049C00E94BA25D3
:1021420011F4E0E044C0EB85FC856D857E850E943C
:10215200882411F4E0E03BC0F901E05DF84FDF01B3
:10216200E989F070EC93D901A15DB84FE889F9894A
:10217200F070EC93AF85A13011F0A23021F5A0915F
:102182006009B09161098091620990916309E091BF
:102192006409F091650960916609709167090E946E
:1021A2006629AB85BC858D859E850E94EE2511F43E
:1021B200E0E00DC0EB85FC856D857E850E94F625ED
:1021C20011F4E0E004C002C0E0E001C0E1E00E94DE
:1021D200C32A6496089526970E94BD2AEB85FC8542
:1021E200309711F4E0E081C0AB85BC85A45EBD4FA1
:1021F2000E944E2AEF83F88769877A870E94FC251E
:102202000E943D0BE03011F4E0E06FC00E94052611
:10221200E75BF84F1E2F2F2F2F931F931F5F2F4F18
:102222000E940B26F070AF91BF91EC932F931F93F6
:102232001F5F2F4F0E940B26EF2FF0E0AF91BF914F
:10224200EC9300E0043030F40E9411261F5F2F4F00
:102252000F5FF8CF0E940526EB5BF84F1E2F2F2F42
:10226200E0E0EF83E887E987EA8700E00430F8F4EA
:10227200AF81B88589859A85E8E00E948629EF8337
:10228200F88769877A87A12FB22FEC91AF81B88541
:1022920089859A85FF27662777270E947029EF8311
:1022A200F88769877A87115020400F5FDFCFEF816F
:1022B200F88569857A85EF5FFF4F6F4F7F4FEF8318
:1022C200F88769877A8700E0043030F41F5F2F4F68
:1022D2000E9411260F5FF8CF0E94FC250E94AB0BD3
:1022E200E03011F4E0E001C0E1E00E94C42A2D9642
:1022F20008950E94BE2AEC81FD81309711F4E0E03E
:1023020045C02C813D81E0E0E0937309E0937409BC
:10231200E0937509E0937609293FEFEF3E07D8F481
:102322000E9428268F01083FEFEF1E0720F40024A9
:102332000016010609F40FC03A932A93E0E0F0E098
:102342000E94F6230E945410E03011F4E0E01EC017
:10235200202F312FE1CF3A932A93E0E0F0E00E9460
:1023620033230E945410E03011F4E0E00FC0E0E0AB
:10237200E0938209E0938309E0938409E09385095D
:10238200E0E0E0938A09E0938B09E1E00E94C52A2C
:10239200269608950E94BE2AE0915C09F0915D099B
:1023A20060915E0970915F09AE81BF810E94542ADB
:1023B200288539850E942E2691F4E0915809F091E2
:1023C200590960915A0970915B09E0935C09F09395
:1023D2005D0960935E0970935F092F5F3F4F0C8127
:1023E2001D81D901EC91E03061F10E94F52421F0C8
:1023F200D901AC91AE3269F41F930F930F5F1F4F57
:10240200D9012F5F3F4F0E943226AF91BF91EC93CB
:1024120017C00E942E2689F40E943626EC81FD8187
:10242200FA93EA9316D0309719F0EFEFFFEF0DC051
:102432000C811D812F5F3F4F03C0EFEFFFEF05C0FF
:10244200D0CF0E943626E0E0F0E00E94C52A2A960C
:10245200089568970E94BD2AAD8DBE8DAC91AE32B3
:1024620061F4AD8DBE8D1196AC91AE3231F4AD8D6D
:10247200BE8D1296AC91A03009F048C0E091580987
:10248200F091590960915A0970915B09A0915C0918
:10249200B0915D0980915E0990915F090E94B22A14
:1024A20019F4EFEFFFEFF2C0E0915C09F0915D09E2
:1024B20060915E0970915F090E94882419F4EFEF20
:1024C200FFEFE4C0B0916A07A0E0E0916907F0E095
:1024D200EA2BFB2BED87FE87309729F0FA93EA93DC
:1024E2000E94A90D08C0E0915809F0915909609124
:1024F2005A0970915B09E0935C09F0935D0960935E
:102502005E0970935F09E0E0F0E0C0C00D8D1E8DA2
:10251200FE013F969F01FE017A962E173F07F8F4BF
:10252200D8010E94F52469F43F932F932F5F3F4F08
:10253200D8010F5F1F4F0E943226AF91BF91EC93DB
:102542000DC0D801EC91E03031F4D9012F5F3F4F3B
:10255200E0E2EC9303C0EFEFFFEF98C0DCCFD901CC
:10256200E0E0EC93E0E0ED87EE87E0E0EF83E887E0
:1025720040E0E0913B09F0913C09AF81B885AE178C
:10258200BF0710F00C944513ED85FE850E943A2694
:102592000E945C290E94632A0E943D0BE0E0EB87C7
:1025A200EC87AB85BC85509710F00C943F13EB85FC
:1025B200FC85EE0FFF1F0E949E29ED83FE83E15DE5
:1025C200F84FE081E03019F4EFEFFFEF5FC0E0E099
:1025D200E987EA87A985BA851B97E8F4E985FA8530
:1025E200DE011F96AE0FBF1F0C90AD81BE81EA0FB8
:1025F200FB1FE15DF84FE081E01511F441E005C0F9
:1026020040E0EBE0F0E0E987FA87E985FA85319668
:10261200E987FA87DFCF403031F1ED81FE81E65C58
:10262200F84FE081E03111F040E01DC0ED81FE8104
:10263200E65BF84F0E94DB25ED81FE81E75BF84FF8
:102642000E944926E987FA87FA93EA930E94A90D24
:10265200E0935C09F0935D0960935E0970935F09F2
:10266200E0E0F0E013C0EF81F8853196EF83F88760
:10267200EB85FC853196EB87FC8793CFED85FE8554
:102682003196ED87FE8775CFEFEFFFEF0E94C42AE8
:102692006F9608952C970E94BF2A00E00C3068F4D0
:1026A200E02FF0E0DE0113960E944E26A889B98938
:1026B200F0E00E9453260F5FF1CFFE013396FA93AA
:1026C200EA93E989EA9308D01E2F2F2FE12FF22FE8
:1026D2000E94C62A629608950E94592619F00E9405
:1026E200712679C2EC89E03019F40E94712673C216
:1026F2000E948026A885B9858A859B850E94AC2A7E
:1027020021F000240216030619F40E94712663C206
:10271200E0E0EE83EF83E9E2F2E0FA93EA930E94CB
:10272200E7220E94982631F4E9E0E09372090E94C0
:10273200712651C2AE81BF81A45EBD4FE6E5F4E4CD
:1027420064E376E40E94542AAE81BF811C96E4EED3
:10275200F0E0ED93FC93AE81BF81A05EBD4FE6E455
:10276200F4E466E675E40E94542A0E949C2619F459
:102772000E94712630C20E94BB2619F40E94C5260F
:102782002AC20E94CB2611F40C94ED14AAA1A23005
:1027920011F0A33031F4FA01E65CF84FE081E17008
:1027A20009F403C00E94D32616C200E010E00C30E8
:1027B200E0E01E0768F4F801AE81BF81EA0FFB1F5B
:1027C2000F01A0EFB9E00E94D7260F5F1F4FEFCF96
:1027D200FA01E65BF84F0E94DB25FA01E75BF84F4E
:1027E2000E944926AE81BF811C96ED93FC930E9404
:1027F200DD26AE81BF811E96ED93FC93AE81BF8133
:102802000E94E3260E94E9260E94F42600E010E0DE
:102812000430E0E01E0780F5EE81FF81E45EFD4FAB
:10282200FF93EF93DF010E944E2ADF01CB01E8E024
:102832000E948629AF91BF910E94542AEE81FF81A6
:10284200E45EFD4F0F01DF010E944E2A7F936F93DA
:10285200FF93EF930E94FB26EC91AF91BF918F9172
:102862009F91FF27662777270E947029D0010E9437
:10287200542A0F5F1F4FCCCFAE81BF81A05EBD4FE8
:10288200E0E0F0E060E070E00E94542AAAA1A230E9
:1028920041F50E94F42600E010E00630E0E01E0759
:1028A20038F40E94FB26E0E0EC930F5F1F4FF5CF58
:1028B2000E940227B1F0F9010E943A260E94EE25F9
:1028C20019F40E94C52687C10E94E9260E940B279F
:1028D2000E947A11AE81BF811C96E0E0F0E0ED9398
:1028E200FC930E9412270E941927AE81BF81509645
:1028F200ED93FC930E94022721F40E94DD2630977B
:1029020009F008C0AAA1A13019F40E94D32663C11C
:10291200E2E0EAA3E885F9856A857B85AE81BF811D
:1029220056960E94542AFA01AE81BF815A96ED93BF
:10293200FC930E941D27AAA1A330A9F4EE81FF8176
:10294200FA93EA93E0E0F0E060E070E00E94632A2C
:10295200E1E0EA936CD4EF3FAFEFFA0719F40E947B
:10296200C52639C121C00E9412270E94A90D0E94CA
:10297200632A0E943D0B00E010E0E0913509F091DE
:1029820036090E171F0738F40E9425270E942B27AD
:102992000F5F1F4FF2CFEE81FF817C96AE81BF8128
:1029A200A95DBD4FED93FC93EAA1AE81BF81AC5D01
:1029B200BD4FEC93E0E0E0937209EC85FD856E85F6
:1029C2007F85E0935C09F0935D0960935E097093E3
:1029D2005F09EE81FF81FFC0E2E0E09372090E948D
:1029E200C526F9C02C971A930A9300E010E00C3028
:1029F200E0E01E0764F4F801DE0112960E942F2720
:102A0200AF85B8890E9453260F5F1F4FF0CFFE019A
:102A12003296FA93EA93E889EA9304D019810881FD
:102A2200619608950E94592631F0EEE0E093720912
:102A32000E947126D0C0EC89E03019F40E9434273C
:102A4200CAC00E948026E885F9856A857B850E9436
:102A5200A42A31F4EFE0E09372090E947126BBC010
:102A62000E949C2631F4E4E0E09372090E947126F0
:102A7200B2C00E94BB2619F40E943427ACC00E9447
:102A8200CB2671F0FA01E65CF84FE081E170E130AB
:102A920031F4E6E0E09372090E9471269CC058C0AE
:102AA20000E010E00B30E0E01E0770F40E943827CF
:102AB20031970F01A889B989ED91A88BB98BD00103
:102AC200EC930F5F1F4FEECFAA89BB89E0E2EC9334
:102AD2000E9438270E943E270E943E2700E010E015
:102AE2000430E0E01E0728F40E943E270F5F1F4FCC
:102AF200F7CF0E943E270E943E270E943E270E9457
:102B02003E2700E010E00430E0E01E0728F40E94B7
:102B12003E270F5F1F4FF7CF0E943E270E943E279E
:102B220000E010E00430E0E01E0728F40E943E2797
:102B32000F5F1F4FF7CFE885F9856A857B850E9475
:102B4200F62531F4E3E0E09372090E94712643C056
:102B5200EC85FD856E857F85E0935C09F0935D09C8
:102B620060935E0970935F09EBA1FCA10E9433237D
:102B72000E946D130E94982619F4E0E0F0E02BC049
:102B8200EAA1E03019F1EC85FD856E857F850E9412
:102B9200882431F4E4E0E0937209E0E0F0E01BC045
:102BA200FA01E55CF84F0F01E081AAA1EA2BD001FE
:102BB200EC93EC85FD856E857F850E94F62531F4C8
:102BC200E3E0E0937209E0E0F0E005C0E0E0E093CA
:102BD2007209EE81FF810E94C32AA59608950E9480
:102BE2004727AE81BF810E94A82A21F00E944B276D
:102BF200A13019F4EFEFFFEF3AC00E944B27A23049
:102C020021F00E944B27A33081F50E9412270E94D7
:102C1200A90D7F936F93FF93EF930E945127AF917A
:102C2200BF918F919F910E945E2700E010E0E0919A
:102C32003509F09136090E171F0738F40E946727ED
:102C4200E081EC930F5F1F4FF2CFEA81FB816C8131
:102C52007D810E94F62519F4EFEFFFEF08C00E9474
:102C62006B2719F4EFEFFFEF02C0E0E0F0E019810B
:102C7200088128960895A881B9810E94732769F076
:102C8200E881F981FA93EA930E94F015EF3FAFEFE2
:102C9200FA0719F4EFEFFFEF5AC4E881F981FA93CA
:102CA200EA930E940423E0E0E883E983E0E0F0E0B5
:102CB2004EC424970E94BF2AEF81F885309719F4F9
:102CC200EFEFFFEFF8C00E9478277F936F93FF9397
:102CD200EF93AF81B885A45EBD4F0E944E2AAF919B
:102CE200BF918F919F910E94B22A39F4AF81B8852A
:102CF2000E947F27EFEFFFEFDEC00E948427008152
:102D0200AF81B885A95DBD4F0D901C90AF81B8858C
:102D12000E948B2711F00C9453170E949627A23021
:102D220021F00E949627A33099F510E020E0E0916F
:102D32003509F09136091E172F0758F4A12FB22F2B
:102D4200A15DB84F0E949C27E081EC931F5F2F4F3B
:102D5200EECF0E94A2277F936F93FF93EF930E947F
:102D6200AA273197A0913509B09136090E94C52949
:102D7200AF91BF918F919F910E94B027EB81FC810F
:102D82006D817E810E94F62519F4EFEFFFEF93C06B
:102D9200EF81F8850E94B927D0F40E94A2277F9381
:102DA2006F93FF93EF930E94AA27A0913509B091E8
:102DB20036090E94C529AF91BF918F919F910E94C0
:102DC200B0270E94AA273196ED93FC9342C0EF816F
:102DD200F885A089B189A83FEFEFBE0748F0AF811F
:102DE200B8850E94C1270E9478270E94C62763C027
:102DF200EF81F885A089B189BA93AA930E94A90D9F
:102E0200EB83FC836D837E83AF81B8850E94CF27DD
:102E1200AF81B8851E960E944A2AAF81B885529624
:102E2200ED93FC93AF81B88550960E944A2AAF81F8
:102E3200B8851E96ED93FC93EF81F885A685B7853C
:102E4200BA93AA930E941927AF81B8855096ED9341
:102E5200FC93EB81FC816D817E810E94882419F4B0
:102E6200EFEFFFEF28C010E020E0E0913509F0918C
:102E720036091E172F0760F40E949C270F01AFE24C
:102E8200B7E0A10FB21F0E94D5271F5F2F4FEDCFD2
:102E9200EF81F8857C96AF81B885A95DBD4FED9332
:102EA200FC9305C00E9484273196ED93FC930E9407
:102EB20078270E94C6270E94C62A299608950E9452
:102EC2004727EE81FF81309719F4EFEFFFEFABC197
:102ED2000E944B27A13031F4E6E0E0937209EFEF54
:102EE200FFEFA1C10E940227D9F40E94D927AE8127
:102EF200BF811C96ED93FC930E94DF270E94DD2682
:102F0200AE81BF811E96ED93FC930E940B270E9417
:102F1200E727E1E00E94EE2719F4EFEFFFEF83C10C
:102F22000E94F3277F936F93FF93EF930E94FA27F8
:102F3200AF91BF918F919F910E94B22A19F40E9482
:102F4200012809F443C00E940828AE81BF8152962D
:102F5200ED93FC930E94D927AE81BF811E96ED931B
:102F6200FC930E94DF270E941D27EE81FF81A28928
:102F7200B389BA93AA93E885F985A685B785BA93EA
:102F8200AA93E0E00E94EE2719F4EFEFFFEF4BC1A6
:102F92000E9412270E94E727E2E00E94EE2719F41E
:102FA200EFEFFFEF40C10E946B2719F4EFEFFFEF45
:102FB2003AC1AE81BF810E940E28EE81FF817C96CC
:102FC200AE81BF81A95DBD4FED93FC930E94132892
:102FD200A885A083AE81BF81A95DBD4F0D901C90D5
:102FE200AE81BF810E948B2711F00C94EE180E94D3
:102FF200F3277F936F93FF93EF930E94FA27AF918A
:10300200BF918F919F910E94B22A30F4E0E1E09348
:103012007209EFEFFFEF07C10E9412270E94A90D6C
:103022007F936F93FF93EF930E945127AF91BF91CC
:103032008F919F910E945E2700E010E0E091350998
:10304200F09136090E171F0738F40E946727E081B6
:10305200EC930F5F1F4FF2CFEA81FB816C817D8180
:103062000E94632A0E94AB0BEE81FF810E94B92766
:10307200E0F40E9412270E94A90D7F936F93FF93A1
:10308200EF930E941A28A0913509B09136090E9447
:10309200C529AF91BF918F919F910E945E270E9497
:1030A2001A283196ED93FC9357C0EE81FF81A089D7
:1030B200B189A83FEFEFBE0720F0A0913F09A633E8
:1030C20069F0EE81FF81A089B189A83FEFE0BE07D8
:1030D20020F0A0913F09A23309F01AC00E94F32701
:1030E2007F936F93FF93EF930E94FA27AF91BF9163
:1030F2008F919F910E94B22A31F0E0E2E09372092F
:10310200EFEFFFEF90C0AE81BF810E94C1271AC0CE
:103112000E940828AE81BF815296ED93FC93AE8146
:10312200BF8150960E944A2AAE81BF811E96ED93BE
:10313200FC930E9412270E941927AE81BF815096EC
:10314200ED93FC930E941D270E9412270E94A90D55
:10315200EA83FB836C837D830E94012801F5EA8167
:10316200FB816C817D810E94882419F4EFEFFFEFCF
:103172005AC000E010E00030E2E01E0738F40E947E
:1031820025270E942B270F5F1F4FF5CFEE81FF816E
:103192007C96AE81BF81A95DBD4FED93FC930E94E9
:1031A200FA277F936F93FF93EF930E94F327AF91D8
:1031B200BF918F919F910E94B22A41F40E94FA27F7
:1031C200EF5FFF4F6F4F7F4F0E94542A0E946B2781
:1031D20019F4EFEFFFEF27C01CC00E9413283196AD
:1031E200ED93FC930E94FA277F936F93FF93EF93E3
:1031F2000E94F327AF91BF918F919F910E94B22AB3
:1032020041F40E94FA27EF5FFF4F6F4F7F4F0E94FA
:10321200542A0E94F327EF5FFF4F6F4F7F4F0E94A8
:10322200542AE885F0E019810881299608952897A3
:103232000E94BE2AE989FA89309731F4E2E0E093EC
:103242007209EFEFFFEF54C1EC85E03081F4A989F8
:10325200BA89A05EBD4F0E944E2AAD85BE858F857C
:1032620098890E945C29ED87FE876F87788B0E9480
:1032720020280E94B22A38F4A989BA890E947F279D
:103282000E942B2835C1AC85A13041F40E94202830
:103292000E946629ED87FE876F87788BA989BA8994
:1032A2000E94732759F0E989FA89FA93EA930E94F6
:1032B200F015309719F0EFEFFFEF1AC1A989BA891B
:1032C2001C962D913C91F901A989BA891E96ED931C
:1032D200FC933A932A930E941927A989BA89509696
:1032E200ED93FC93A989BA890E94E3260E941925CD
:1032F200AD85BE858F8598890E94052AEC83FD8362
:103302006E837F830E941925AD85BE858F8598893E
:103312000E94332AE887F9876A877B87A989BA8955
:103322000E940E28EC81FD816E817F810E94A42A79
:1033320011F40C94EC19E989FA89A089B189A83FA2
:10334200EFEFBE0700F1AC81BD818E819F81A1307C
:10335200E0E0BE07E0E08E07E0E09E0739F4A885D2
:10336200B9858A859B850E94AC2A09F005C0A98986
:10337200BA890E94C1272FC0A989BA890E947F27D2
:103382000E942B28B5C0A989BA8950962D913C91EB
:10339200A989BA891E960E944A2AA989BA8952968F
:1033A200ED93FC93F901A989BA891E96ED93FC93DA
:1033B2000E942826A989BA895096ED93FC93EC8144
:1033C200FD816E817F81319760407040EC83FD8387
:1033D2006E837F83A7CFE989FA89A685B785BA93D9
:1033E200AA930E94A90DEC83FD836E837F83A98932
:1033F200BA890E94CF270E9431280E94B72A08F179
:10340200E0913509F0913609AC81BD818E819F81B1
:10341200662777270E945C29EC83FD836E837F8376
:103422000E9431280E946B29A887B9878A879B87C7
:10343200A989BA8954960E944A2A3196ED93FC933F
:10344200DACFEC81FD816E817F810E94882419F49C
:10345200EFEFFFEF4DC000E010E0E0913509F09191
:1034620036090E171F0750F4E989FA897C96E00F96
:10347200F11F0E942B270F5F1F4FEFCFA989BA8937
:10348200AA5DBD4FAC91A13039F4A885B9858A8572
:103492009B850E94AC2A09F010C0A989BA895C9662
:1034A200E0913509F09136093197EA0FFB1FA9899E
:1034B200BA89A95DBD4FED93FC93A989BA895C963F
:1034C200E885F9856A857B85EA0FFB1FA989BA8998
:1034D200A95DBD4FED93FC93ED85FE856F857889DF
:1034E200A989BA89A05EBD4F0E94542AE0E0F0E0AB
:1034F2000E94C52A63960895E881F981309729F4DC
:10350200EFEFFFEF6FEF7FEF22C00E943C281FC05A
:10351200E881F981309719F4EFEFFFEF18C0A88125
:10352200B981A45EBD4F0E944E2A7F936F93FF9391
:10353200EF930E943C28AF91BF918F919F910E947F
:10354200B22A19F4E1E0F0E002C0E0E0F0E02296F5
:103552000895E89420F80E947523E2ECE093890034
:10356200E6EFE09388000895249784E0A0E0B0E0BD
:10357200ECEBF1E00E94CA2A0E94AB2329F4E0E0BE
:10358200F0E060E070E0B1C00E94FB23E0932C0AFF
:10359200F0932D0A0E94FB230E9443280E94FB23E2
:1035A200FE2FE0E0FE2FE0E0A0912C0AB0912D0A60
:1035B200EA2BFB2BE0932C0AF0932D0A0E94FB23AB
:1035C200FE2FE0E0FE2FE0E00E944328E0912C0A6B
:1035D200F0912D0A0E94BB2988C02497E0912F0AFE
:1035E200E030C1F4E5E0F0E02F010E948D230E945B
:1035F200762AE0932E0A0E94B51AE0932C0AF093E1
:103602002D0AE0E0E093390AE0933A0AE1E0E09320
:103612002F0A6AC0E13059F5E0912C0AF0912D0A87
:10362200A091390AB0913A0AAE17BF07E0F41DD44F
:10363200E091390AF0913A0A3196E093390AF0930F
:103642003A0AE091370AF091380A3196E093370A44
:10365200F093380AE091370AE77021F4E7E0E0934B
:103662002F0A42C003C0E4E0E0932F0A3DC0E730D6
:10367200A1F44AD4E091370AEF7759F4E091370A7E
:10368200E07819F0B8D0E1E001C0E6E0E0932F0A5B
:103692002BC0E1E0E0932F0A27C0E53029F4ABD03C
:1036A200E1E0E0932F0A20C0E63031F478D027D24F
:1036B200E8E0E0932F0A18C0E83029F4CBD3E1E028
:1036C200E0932F0A11C0E43079F4A0913B0AA430B0
:1036D20018F03BD4E0E003C0E0913B0AEF5FE093D7
:1036E2003B0AE0E0E0932F0AE1E0249608950E946D
:1036F200BE2AE5E5E093040AA5E0BAE0E091240AD7
:10370200F091250AEC93E5E5E093060AE093070AB7
:10371200A8E0BAE0E0912E0AEC93E5E5E093090A0D
:10372200E0930A0AE091FC09E0930B0AE091FD099B
:10373200E0930C0AE091FE09E0930D0AE091FF0983
:10374200E0930E0AE091000AE0930F0AE091010A69
:10375200E093100AE091020AE093110AE091030A51
:10376200E093120A00E010E020E030E02F30E0E0C9
:103772003E076CF4A4E0BAE0A20FB31FEC91D801AB
:10378200F0E0EA0FFB1F8F012F5F3F4FEFCFEFEF0C
:10379200FFEFE01BF10B8F010093130A49C2E09186
:1037A200280AE07889F034D1E091200AE093FC09FC
:1037B2002FD1ADEFB9E00E945028A0E0BAE00E94FC
:1037C2005028A1E0BAE00FC023D1AEEFB9E00E94C9
:1037D2005028AFEFB9E00E945028A2E0BAE00E9460
:1037E2005028A3E0BAE0E091200AF091210AEC937C
:1037F2000E94781B0895E091280AE07859F0E09140
:10380200280AF091290AEF77F070E093280AF093E2
:10381200290A05C0E091280AE068E093280A089581
:103822000E94BC2AE091220AF091230AA091140A74
:10383200B091150AEA23FB238F0120E030E040E03B
:1038420050E04031E0E05E074CF420273127217040
:103852003070159507954F5F5F4FF3CFE091140AD3
:10386200F091150AEE0FFF1FE093140AF093150A68
:10387200F901A091140AB091150AEA2BFB2BE093EF
:10388200140AF093150A37C10E94BC2AE091240A57
:10389200F091250AA091160AB091170AEA23FB2398
:1038A2008F0120E030E040E050E04031E0E05E0790
:1038B2004CF42027312721703070159507954F5F02
:1038C2005F4FF3CFE091160AF091170AEE0FFF1F38
:1038D200E093160AF093170AF901A091160AB09123
:1038E200170AEA2BFB2BE093160AF093170A03C17F
:1038F2000E94BC2AE091180AF091190AE87BF07044
:103902008F0120E030E040E050E04031E0E05E072F
:103912004CF42027312721703070159507954F5FA1
:103922005F4FF3CFE091180AF091190AEE0FFF1FD3
:10393200E093180AF093190AF901A091180AB091BC
:10394200190AEA2BFB2BE093180AF093190AD3C049
:103952000E94BC2AE0911A0AF0911B0AE070F570ED
:103962008F0120E030E040E050E04031E0E05E07CF
:103972004CF42027312721703070159507954F5F41
:103982005F4FF3CFE0911A0AF0911B0AEE0FFF1F6F
:10399200E0931A0AF0931B0AF901A0911A0AB09156
:1039A2001B0AEA2BFB2BE0931A0AF0931B0AA3C013
:1039B2000E94BC2AE0911C0AF0911D0AE074F77083
:1039C2008F0120E030E040E050E04031E0E05E076F
:1039D2004CF42027312721703070159507954F5FE1
:1039E2005F4FF3CFE0911C0AF0911D0AEE0FFF1F0B
:1039F200E0931C0AF0931D0AF901A0911C0AB091F0
:103A02001D0AEA2BFB2BE0931C0AF0931D0A73C0DC
:103A12000E94BC2AE091200AF091210AE175F77018
:103A22008F0120E030E040E050E04031E0E05E070E
:103A32004CF42027312721703070159507954F5F80
:103A42005F4FF3CFE091200AF091210AEE0FFF1FA2
:103A5200E093200AF093210AF901A091200AB09183
:103A6200210AEA2BFB2BE093200AF093210AF07043
:103A72008F01002E012A71F23EC00E94BC2A20E072
:103A820030E042E050E0FA014F5F5F4F0E9457285A
:103A9200FA014F5F5F4FE058FC4FDF01EFEEEC930E
:103AA200FA014F5F5F4F0E945D28FA014F5F5F4F3F
:103AB200E058FC4FDF01E1EAEC9300E010E0E09116
:103AC2008303D801F0E0EA17FB0740F0F801EE5754
:103AD200FC4F0E9463280F5F1F4FF1CF20937204A7
:103AE200E1E0E0932106E0E00E946A28E09183038E
:103AF2000E946E28C1F30E94C32A269608950E944E
:103B0200BE2A20E030E0E5E2E0932A0A00E010E07D
:103B12000C3EE0E01E07D0F40E94D91CE6E8F3E078
:103B2200E00FF11FDF010E947428E6E8F3E0E00FE6
:103B3200F11FE081E73439F4E6E8F3E0E00FF11F2A
:103B4200DF01E8E7EC930F5F1F4FE2CFE7E4E0937A
:103B52008603EFE1E0938703EEEFE0938803E091C1
:103B62008C03F0E0E093180AF093190AE0918C03B9
:103B7200A8EBEA27E0939703E0918C03A0912A0A2D
:103B8200EA27E093910300E010E00C37E0E01E0723
:103B9200D0F40E94791CA6E8B3E0F801B0960E9426
:103BA2002F27EA5FFF4FDF010E94762A0E947B28BF
:103BB200F801EA5FFF4FDF010E94762A0E94842803
:103BC2000F5F1F4FE2CF00E010E00830E0E01E0779
:103BD20008F50E94791CA6E8B3E0F801B096E45813
:103BE200FF4FEA0FFB1F0F01ACEFB9E0A00FB11FAF
:103BF200AC91E091180AF091190AEA27D001EC93EE
:103C0200ACEFB9E0A00FB11FEC910E9484280F5FC6
:103C12001F4FDBCF0E948A280E94791CE091180A6C
:103C2200F091190AE227F327E0932A040E943E1D2D
:103C32000E94C52A249608950A9300E00C3EB8F427
:103C42000E94D91CA6E8B3E00E9490280E94742822
:103C5200A6E8B3E00E949028AC91A73431F4A6E81C
:103C6200B3E00E949028E8E7EC930F5FE7CFE7E428
:103C7200E0938603EFE1E0938703EEEFE09388039E
:103C8200E0918C03F0E0E093180AF093190AE091B6
:103C92008C03A8EBEA27E0939703E0918C03A091B1
:103CA2002A0AEA27E093910300E00C3B88F40E9481
:103CB200791CA6E8B3E0E02FE05EF0E00E944E2619
:103CC200F0E0E158FB4FE0810E947B280F5FEDCFCF
:103CD2000E943E1DC6C31A930A9300E010E00C3EF8
:103CE200E0E01E07DCF40E94A91CD801A158BB4FDA
:103CF200E0911A0AF0911B0AF070EC93AFE7B4E07E
:103D0200A00FB11FAC91A73431F4AFE7B4E0A00F1C
:103D1200B11FE8E7EC930F5F1F4FE1CFE7E4E093B9
:103D22007F04EFE1E0938004EEEFE0938104E09101
:103D32002B0AEF70E0938204E0912B0AEF5FE0938D
:103D42002B0AEA81E0939C04E091280AF091290A67
:103D5200E078F0708F01E0919604EF77AE2FF801D2
:103D6200EA2BE0939604E0919904F0E0E093160ABE
:103D7200F093170A0E94451CE091160AF091170A67
:103D8200A2E0B0E0EA27E0939004009186041127B4
:103D9200F801EF70F070E555FF4F8F01AFE7B4E027
:103DA200A00FB11FEC91F0E0E093140AF093150A12
:103DB200A091220AB091230AEA27E093890419818B
:103DC200088102C20E94BE2A20E030E000E010E03A
:103DD2000E38E0E01E0740F4F801E656FB4F0E9461
:103DE20063280F5F1F4FF4CF0E948A282093280573
:103DF2003093290500E010E00039E0E01E07C8F426
:103E02000E94111CF801E656FB4F0F01F801E6561D
:103E1200FB4FE081AE2FE091140AF091150AEA27D8
:103E2200AFEFB0E0EA27FB27D001EC930F5F1F4F03
:103E3200E3CFAC81A93039F4E0919904A9E0EA27F3
:103E4200E0938A0406C0E0919904A6E5EA27E0938C
:103E52008A04EAC2E7E2E0932A0AE9E0EA930E94CE
:103E62006C1EE9E00E9495280895249784E0A0E062
:103E7200B0E0E0ECF1E00E94CA2A0E949A28E6E053
:103E8200EA930E946C1EE091390AF0913A0A662781
:103E92007727A4E8B0E080E090E00E94CD29EC5FB3
:103EA200FF4F6F4F7F4FEA83FB836C837D83E091EB
:103EB2002907F0912A07FA93EA93EC81FD816E813A
:103EC2007F810E94632AE2E0EA930E94181900E0CF
:103ED20010E00438E0E01E0780F40E941F2469F419
:103EE200F801E156FB4FFF93EF930E94FB23AF9142
:103EF200BF91EC930F5F1F4FECCFE6E00E94952835
:103F020019810881269608950E949A28E5E0EA938D
:103F12000E946C1E00E010E00031E0E01E0778F421
:103F2200F801A3E0B0E00E94C529E156FB4F0F0162
:103F3200A4E0BAE00E94D7260F5F1F4FEDCFE5E065
:103F42000E949528099119910895E6E2E0932A0AC0
:103F5200E8E0EA930E946C1EE8E00E94952808952A
:103F6200ECE0E0937000EFEFE0937300E4E0E093A5
:103F720074000895E0917400E17008950E94BB1FDF
:103F8200E030E1F7E0913C0B08950A930E94BB1FD9
:103F9200E030E1F7E981E0933B0BAA81BB81EC9130
:103FA200E0933C0AE17069F401E0E9810E1748F4FC
:103FB2000E94A0280F010E94CD250E94D5270F5FE5
:103FC200F4CF0E94A5281FC00E94BB1FE030E1F77A
:103FD2000E94A52808950A930E94BB1FE030E1F7D2
:103FE200E0912006E17061F000E0E9810E1740F4F3
:103FF2000E94CD250E94A028E081EC930F5FF5CFAF
:10400200E0912006E170088124960895AA93BA935C
:10401200EA93FA93EFB7EA93E0917100E83011F076
:10402200E03121F4E0E0E0933D0B02C0E83109F415
:1040320002C0E83291F4E0913B0BA0913D0BAE1728
:1040420038F40E94AF28E081E0937300E5E802C0F3
:104052000E94B928E09374003AC0E03539F40E9416
:10406200AF28DF01E0917300EC9302C0E03469F401
:10407200E0913B0BE150A0913D0BAE1710F4E5EC43
:1040820001C0E5E8E093740022C0E83559F4A0913C
:104092003D0BB0E0A45CB54FE0917300EC930E943D
:1040A200B92813C0E83311F4E5EA0FC0E03211F089
:1040B200E83409F402C0E03309F402C0E03001F44C
:1040C200E0917100E0933C0BE4E0E0937400E9912D
:1040D200EFBFF991E991B991A99118951A930A93B1
:1040E20000E0AA81BB811C91E12F1150E03021F048
:1040F2000E94C0280E0FF8CFE02F16C01A930A9321
:1041020000E0AA81BB811C91E12F1150E03021F027
:104112000E94C0280E0FF8CFAA81BB81EC91E01754
:1041220011F4E1E001C0E0E01981088124960895CC
:10413200A881E0E20E94C0290E2EE8E40E94C02974
:10414200E02911F00E94E51FE881CBC00E94BB1F4D
:10415200E030C9F5E0912006E17061F1D09AD19A80
:10416200D89AD998A0912106A13051F4EA81EE0F94
:10417200E0938003E981E09381030E94C62818C07E
:10418200A0912106A23041F4EA81EE0FE160E093B2
:1041920080030E94C6280CC0A0912106A33041F4DE
:1041A200EEE7F5E0FA93EA93EA81EA930E94EC1FC4
:1041B200E1E00AC00E94BF1FEA930E949920D09AB0
:1041C200D19AD898D99AE0E0239608950A9302E00A
:1041D200E02F0F5FF0E00E945728E02F0F5F0E9450
:1041E200CE28E4E0EC93E02F0F5FF0E00E945D2820
:1041F200E02F0F5F0E94CE28EEEAEC93E02F0F5FD4
:104202000E94CE28E1E0EC93E02F0F5FF0E0E0584F
:10421200FC4FFF93EF93E3E8F3E0FA93EA930E94F3
:104222006F20AE2FE0918203EA0FAF91BF91EC9322
:10423200E1E0E0932106E9810E946A28E09183038C
:104242000E946E28C1F3088122960895E1E0E0936E
:104252002106E881EA93E0E20E94D328D1F3E2E06A
:10426200E09321060E94DA28EA93E1E00E94DE2828
:10427200C9F3E3E0E09321060E94DA280E94D328E2
:10428200D9F3E0917F05E03059F1E2E0E0932106B5
:104292000E94DA28EA93E0917F05EE5F0E94DE2811
:1042A200B9F3E3E0E09321060E94DA28EA93E09171
:1042B2007F05EE5F0E94DE28B9F3EFE7F5E0FA939F
:1042C200EA930E947F20E03059F0E1E0E09321067A
:1042D200E881EA93E1E20E94D328D1F3E1E001C050
:1042E200E0E0219608950E94BE2A10E020E032E02C
:1042F200E32F3F5FF0E00E945728E32F3F5F0E94C9
:10430200CE28E0912506ED5FEC93E32F3F5FF0E0CE
:10431200E058FC4FDF01E0912606EC93E32F3F5F6C
:10432200F0E0E058FC4FDF01E0912706EC9300E05B
:10433200E0912506E01758F0E32F3F5F0E94CE2858
:10434200E12F1F5F0E949323EC930F5FF1CFE1E017
:10435200E0932106EC810E946A28E09183030E9487
:104362006E28C1F361C00E94BE2A11E022E0AC8136
:10437200AF3F11F0AE3F11F4E0E0EC83E4EBF0E08C
:10438200E491AC81EA1710F4E0E04EC0E22F2F5F17
:10439200F0E00E9457280E94E3283081E22F2F5F2D
:1043A2000E94CE28E0912506EF5FEC930E94E3285D
:1043B200E0813E0FEC81E03031F4E22F2F5F0E946A
:1043C200CE28EFEF05C0E22F2F5F0E94CE28E0E05B
:1043D200EC930E94E328E0813E0F00E0E091250685
:1043E200E1500E1778F4E12F0E9493233E0FE22F43
:1043F2002F5F0E94CE28E12F1F5F0E949323EC9330
:104402000F5FECCFE22F2F5FF0E0E058FC4F3083DC
:10441200E1E0E0932106EC810E946A28E0918303A7
:104422000E946E28C1F3E1E00E94C52A25960895F4
:104432000A9301E0E4EBF0E0E491E01788F00E94D7
:104442007C23A0912606EA1749F4D09AD19AD898EB
:10445200D99A0A930E947421E1E003C00F5FEACF68
:10446200E0E0099108955F9BFECFECB108955D9B5A
:10447200FECFE881ECB92196089522970E94BC2ACA
:1044820000E51CE0D801E0E0F0E0ED93FC93002EA3
:10449200012A91F1D8010E944A2AE00FF11F3496B5
:1044A200AF0196D6309719F02E833F8304C0E0E027
:1044B200F1E1EE83FF83EE81FF81E41BF50BDF0167
:1044C200E885F9853496AE17BF0798F0FA01D8014E
:1044D2001296ED93FC93F901DA011296ED93FC9397
:1044E200E885F985DA01ED93FC934C5F5F4FFA01A1
:1044F20005C0022F132FCBCFE0E0F0E00E94C32AC9
:104502002A9608950E94BE2A00E51CE0002E012A88
:1045120061F05ED6DF01EC81FD81EA17FB0711F441
:10452200F80105C0022F132FF1CFE0E0F0E00E9466
:10453200C52A2696089522970E94BC2AEA85FB8501
:10454200309711F40C94E12234978F011A930A9355
:10455200D9DF9F013097A1F1D80112960E944A2A11
:10456200D9011296ED93FC93E885F985309741F1D4
:10457200FA93EA9382DFAF013097E9F0D8010E9403
:104582004A2AEE83FF83DF01E885F985AE17BF076C
:1045920020F4EE81FF81E887F9875A934A93EC85EC
:1045A200FD85FA93EA93EC85FD85FA93EA930E94DE
:1045B200EF28FA0107C0F801D9011296ED93FC9396
:1045C200E0E0F0E00E94C32A2C9608951A930A9321
:1045D20000E010E0EA81FB81309781F0FA93EA93E0
:1045E2004CDF8F01309751F01A930A93E0E0EA937F
:1045F200ED81FE81FA93EA930E940C29F801198158
:10460200088124960895E881F981FA93EA93E0E01B
:10461200F0E0FA93EA938FDF22960895EA930E94DC
:104622003003E0E0EA930C943003AE0FBF1FEC912D
:10463200EA930895EFEFEA930E9430030C94440347
:10464200E0E0EA930C943003EF5FEA930C943003BA
:10465200E1E0EA930C943A03E1E0EA930E9430032A
:104662000C944403FA93EA93E2E0EA930895E0E0BB
:10467200EA930C949E05E170AE2FE12FE1500E9467
:104682007E290895E12FE150A1E00E947E29AFEF3B
:10469200EA270895E0E0EA930C944D03E0E0EA9300
:1046A2000E94742177240895E881EA930C943003E0
:1046B200E0912707EF5FE0932707E150F0E0E85D24
:1046C200F94F00830895E7B7EF7EE7BF0895EA93B5
:1046D200EFB7EA930895E991EFBFE9910895EA27C8
:1046E200E7BFE0917D000895E0E0E0938B00E5E014
:1046F200E0938A000895E02FF0E0E350FA4FE08162
:104702000895A881B0E0A350BA4F0895E881E1501E
:10471200A1E00E947E290895F20131962F0131977E
:10472200DF010895F0E0E85DF94FE0810895AC8182
:10473200BD81ED91AC83BD830895EA93E091290791
:10474200F0912A07FA93EA930E946017EF3FAFEFC6
:10475200FA070895E0912907F0912A07FA93EA935C
:10476200E0E0F0E060E070E00E94632AE2E0EA93B9
:104772000E941819EF3FAFEFFA070895E150F04099
:1047820060407040A4E8B0E080E090E00E94CD2953
:10479200EC5FFF4F6F4F7F4F0895E0912907F09133
:1047A2002A07FA93EA930C947D1AEA93E091290777
:1047B200F0912A07FA93EA930C9460170E94632AF5
:1047C200E2E0EA930E941819EF3FAFEFFA0708956B
:1047D200FA93EA93E1E0EA9308950E944B13E0937F
:1047E2002907F0932A0730970895FA93EA93E0E0B5
:1047F200EA930895E0912907F0912A07FA93EA9340
:104802000C945A16FE2FE0E0AC81BD818E819F810F
:104812000E94BB290E947029EC83FD836E837F83F3
:104822000895EA930E943003AC81BD818E819F81FD
:1048320008950E949229EA930C943003E09129078B
:10484200F0912A07FA93EA930E94891A3097089501
:10485200E8E0F0E00E94C529E60FF71F08950E94E4
:10486200FF06AE85BB2708950E9492290E2F0A9358
:104872000E94FF06EA85FB856C857D8508950E2FD3
:104882000A930C94FF060E94FF06EFEFEA93089545
:10489200EFEFEA930C94FF06FF2766277727EE8354
:1048A200FF8368877987AE81BF818885998508955E
:1048B200FF2766277727EE83FF8368877987089526
:1048C200A0912B07B0912C0780912D0790912E0774
:1048D2000E947029E0932B07F0932C0760932D0719
:1048E20070932E07D5CFEFEFEA93CDCFE0E5EDB988
:1048F200E0E00895E981FA816B817C81EF5FFF4FEF
:104902006F4F7F4FE983FA836B837C8308950E9404
:10491200632A0E943D0BE0300895E1E0E0937209C2
:10492200E0E0089566277727DF01CB01E0913509A2
:10493200F0913609662777270E94ED290895F0E065
:10494200EA2BFB2B662777270895FF276627772711
:10495200DF01CB01E8E10E948629DF01CB01089546
:10496200FF27662777270E94B6290E94702908959B
:10497200FF2766277727DF01CB01E8E00E9486291F
:104982000895EA93E0E0F0E060E070E00E94632ABC
:104992000E9405070E2F0895E0E5EDB9E1E00895C4
:1049A200E0913509F0913609AD81BE818F819885FC
:1049B200662777270E94332A0E94A42A0895E4E0FA
:1049C200E0937209E0E00895EA93EE81FF81688541
:1049D20079850E94632A0E9405070E2F0895E3E05D
:1049E200E0937209E0E00895EC91EA930E94160CBC
:1049F20030970895EF8DF8A13196EF8FF8A3319794
:104A0200DE011696AE0FBF1FE0E2EC930895ABA154
:104A1200BCA1E0E0F0E060E070E00E94542AEFEF19
:104A2200FFEF0895EF8DF8A13196EF8FF8A3089567
:104A3200E0913509F091360966277727DF01CB012E
:104A4200E0913709FF27662777270E94ED2908950D
:104A5200EF8DF8A166277727DF01CB01E0913509B9
:104A6200F0913609662777270E94ED290895FA0109
:104A7200EE0FFF1F0E949E290895662777270E9446
:104A82005C29E98FFA8F6B8F7C8F0895E98DFA8DFF
:104A92006B8D7C8DABA1BCA10E94542A0895ED8937
:104AA200FE89FA93EA93E98DFA8DFA93EA93EBE0A1
:104AB200EA930E942429E03008950E94ED29A091F2
:104AC2005409B091550980915609909157090E9455
:104AD2005C290895E0913509F0913609F695E7953C
:104AE200AD85BE8508950E94F229A0913809B09142
:104AF2003909EA0FFB1F8F0108950E94302AEE0F39
:104B0200FF1F9F01F8010895E0916409F091650982
:104B12006091660970916709A0917309B091740957
:104B220080917509909176090E94B72A0895A09103
:104B32006009B09161098091620990916309E091E5
:104B42006409F091650960916609709167090E9494
:104B52006629A0917309B0917409809175099091A9
:104B620076090E945C290E94632A0E94AB0BE03006
:104B72000895E0917309F09174096091750970913B
:104B820076090E94632A0E94AB0BE0300895E02F61
:104B9200AA81BB81F0E049CDE02FAA81BB81F0E080
:104BA200AE0FBF1F0895F0E0E051F64FDF01E0E2E3
:104BB200EC930895F081E0E0DF010895EDE0E093E9
:104BC2007209E0E0F0E00895E0913509F0913609CC
:104BD200F695E795AA89BB8908950E945C290E94EF
:104BE200632A0E94AB0BE03008950E94632A0E9460
:104BF200AB0BE0300895EB85FC85A689B789808DE3
:104C0200918D0E94682A0895AB85BC855A960E94B0
:104C12004A2A0895AB85BC851C960E944A2A0895AB
:104C2200EF81F88569857A85EF7FF070607070702A
:104C3200A12FB22FEC93AF81B88589859A85E8E0E0
:104C42000E949229EF83F88769877A8708953A93B9
:104C52002A93E0E0EA930C945C0ED901AC91AC3556
:104C62000895EC91EA930C944929D801E0E0EC9381
:104C72000895EE0FFF1FFE2FE0E0A0915C09B091B6
:104C82005D0980915E0990915F09662777270895F3
:104C9200E081F0E0EA2BFB2B0895EA0FFB1F0F01E6
:104CA200E02F0895EA0FFB1FE491D001EC930895E1
:104CB2006C970E94BC2AE0E0EC87ED87EE87EF87D5
:104CC200EBA1FCA1FA93EA93FE013E96FA93EA93D2
:104CD200FE017896FA93EA930E94CB1130970895D9
:104CE200EC85FD856E857F85E0935C09F0935D0917
:104CF20060935E0970935F09E0E0F0E00895E0914F
:104D02005C09F0915D0960915E0970915F09E88725
:104D1200F9876A877B87FE013896FA93EA93FE0148
:104D22007696FA93EA930E943E0C9F010895EE83D1
:104D3200FF8330970895E0913509F0913609A885EF
:104D4200B9858A859B85662777270E94332AAF011A
:104D5200FA01A885B9858A859B85662777270E94EF
:104D62006B29A887B9878A879B87E885F9856A8531
:104D72007B85CDCDFE017496FA93EA930E94DD0EF7
:104D8200E88BF98B30970895EE81FF81FA93EA93CD
:104D92003ADCA6CFFA01E15DF84FEA8BFB8B022EDB
:104DA200032A0895EBE0E0937209EECFA00FB11F42
:104DB200EC91D001EC930895AE81BF811C960E94C4
:104DC2004A2A08955296E0E0F0E0ED93FC930895AC
:104DD200AE81BF81A45EBD4FE0E0F0E060E070E034
:104DE2000E94542A0895FA01E15DF84F7F96EA8BFA
:104DF200FB8B0895AA89BB891197AA8BBB8B11964D
:104E02000895AE81BF81A45EBD4F0E944E2A0E94CA
:104E1200A42A0895EE81FF81A485B585BA93AA9349
:104E22000895EE81FF81A685B785BA93AA93089566
:104E3200E1E0EA930C945C0EAE81BF815496E1E00E
:104E4200F0E0ED93FC930895EE81FF817C96E00FF4
:104E5200F11F08950F01AFE2B7E0A8CFEA0FFB1FE1
:104E62000F01F8010895E5E0E093720939CFEA896C
:104E7200FB893196EA8BFB8B0895AA89BB8911962F
:104E8200AA8BBB8B1197E0E0EC93089524971A93B9
:104E92000A930895AE81BF81AC5DBD4FAC91089578
:104EA200AE81BF8154960E944A2A3197A09135095A
:104EB200B09136090E94C5290895662777270E9476
:104EC2005C29EA83FB836C837D830895D801A15D0D
:104ED200B84FBACFEE81FF81FA93EA930E94EC10A9
:104EE200E0300895AC5DBD4FAC91A1300895AF8123
:104EF200B885A05EBD4F0E944E2A0895AB5DBD4F9E
:104F0200EAE0EC930895AF81B885A95DBD4F0E9498
:104F12004A2A08955C96E0913509F0913609319755
:104F2200EA0FFB1FE015F1050895AF81B885AC5D6E
:104F3200BD4FAC910895EF81F8857C96E10FF21F89
:104F42000895EF81F885A685B785BA93AA930C9444
:104F5200A90DAF81B88554960E944A2A0895662702
:104F620077270E945C29EB83FC836D837E830895FF
:104F7200A489B589E0913709F0E0AE17BF0708951B
:104F8200AA5DBD4FE1E0EC930895EF5FFF4F6F4FD5
:104F92007F4F0E94542AE02FF0E008955496E1E0FA
:104FA200F0E0ED93FC930895EC91D001EC93089519
:104FB200E0E0F0E0FA93EA930C94280FAE81BF810F
:104FC2005096EFEFFFEFED93FC930895E885F98596
:104FD200A089B189BA93AA930895EA930E945410C2
:104FE200E0300895AE81BF81A05EBD4F0E944E2A7F
:104FF2000895AE81BF81A45EBD4F0E944E2A0895DE
:10500200AE81BF81AA5DBD4FEC91E0300895AE81C3
:10501200BF811E960E944A2A0895AA5DBD4FE0E014
:10502200EC930895AE81BF81A95DBD4F0E944A2ACB
:105032000895AE81BF8154960E944A2A0895A98993
:10504200BA89A45EBD4F0E944E2AAD85BE858F856A
:1050520098890895EAE0E0937209EFEFFFEF08956F
:10506200E0913509F0913609A885B9858A859B8535
:10507200662777270895A881B981A05EBD4F0E9457
:105082004E2A0895FE2FE0E0A0912C0AB0912D0A3D
:10509200EA2BFB2BE0932C0AF0932D0A0895E09162
:1050A200200AF091210AEC930C94091DE058FC4F60
:1050B200DF01E1E7EC930895E058FC4FDF01E0E007
:1050C200EC930895E081D901F0E0EA0FFB1F9F0104
:1050D2000895EA93E0E1EA930895EC5FEA930E946F
:1050E200A720E0300895E0911C0AF0911D0AF070AB
:1050F200EC930895AE2FE091180AF091190AEA276D
:10510200D001EC930895D901F0E0EA0FFB1F9F0153
:105112000895EFEFFFEFE21BF30B9F010895E02FDD
:10512200F0E0AE0FBF1F0895EA930E94E31E0C94B5
:105132001D1E1A930A93E6E2E0932A0A0895E02FCD
:10514200F0E0E45CF54F0895E0E0E0932006E8EF3C
:10515200E0933C0BE5EAE09374000895E0913D0B87
:10516200EF5FE0933D0BE150F0E0E45CF54F089512
:10517200E0912006E160E0932006E4E90895AA8127
:10518200BB81ED91AA83BB830895E0E8F3E0FA9333
:10519200EA93EA81EA930C94C61FF0E0E058FC4FD0
:1051A200DF010895EA93E2E0EA930E94A720E0304B
:1051B2000895E881EA93E0E00895EA930E94A72027
:1051C200E0300895E22FE150F0E0E058FC4F0895FE
:1051D200D80112960E944A2A9F01089599818881D6
:1051E2000096A9F0BD81AC81FB81EA81EA17FB0739
:1051F20071F02CF061916D930197E1F708C0A80F4F
:10520200B91FE80FF91F62916E930197E1F7FD81D3
:10521200EC8126960895B981A881109631F0FC811F
:10522200EB816A8161931197E9F7EB81FC81259605
:105232000895A991B991EE27FF276D91662311F088
:105242003196FBCF0895662777278991E991F991E5
:10525200A991B991882349F08A956D917191671747
:1052620021F46623B9F7EE270895671BE1F3E1E025
:1052720008F4E25008956991A991B991EFEFFF27DF
:105282007D91671709F4EF2FF3957723C9F70895F6
:10529200E991E13618F0EB3708F4E0520895E9910C
:1052A200F991309639F080ED97E00197F1F7A895E2
:1052B2003197C9F70895EA0FFB1F681F791F0895F8
:1052C200AE0FBF1F861F971F0895EA1BFB0B680BCB
:1052D200790B0895AE1BBF0B860B970B0895EA2B33
:1052E200FB2B682B792B0895E095F09560957095CE
:1052F200EF5FFF4F6F4F7F4F0895EE230E2EEA2F81
:1053020019F0EE0F0A94E9F70895EE230E2EFD012F
:10531200BC0131F0EE0FFF1F661F771F0A94D1F711
:105322000895EE230E2EFD01BC0131F076956795AE
:10533200F795E7950A94D1F70895EE0FFF1FEE0F48
:10534200FF1FEE0FFF1FEE0FFF1F08957695679563
:10535200F795E7950895EE0FFF1F661F771F0895D3
:10536200E62FF72F60E070E008956E2F7F2FE0E0C8
:10537200F0E008956F2F660F660B762F0895EA17F7
:10538200E1E009F0EE270895FA9FF02DEB9FF00D72
:10539200EA9FE02DF10D08957A9F702D6B9F700D9D
:1053A200F89F700DE99F700D6A9F602D710DFB9F34
:1053B200600D711DE89F600D711D8827FA9FF02D09
:1053C200610D781FEB9FF00D611D781FEA9FE02DA4
:1053D200F10D681F781F089549D0DEDF0EF484DFD7
:1053E20008950024112490E1AA0FBB1F001C111C78
:1053F2000E1A1F0A18F40E0E1F1E01C0A1609A9504
:1054020099F7FD01D00108953F934F935F930024D4
:1054120011243327442750E2AA0FBB1F881F991F6C
:10542200001C111C331F441F0E1A1F0A360B470B98
:1054320028F40E0E1F1E361F471F01C0A1605A9589
:1054420059F7FD01BC01D001832F942F5F914F9139
:105452003F9108950BD0D8DF0EF446DF0895C1DFE7
:10546200FD010895D1DFFD01BC010895E89477FFA5
:1054720002C03ADF689497FF0BC00024A095B09554
:10548200809590951196801D901D00F8039400FA66
:105492000895ED91FC9111970895ED91FD916D9113
:1054A2007C9113970895ED93FD936D937C930895EA
:1054B2000590F491E02D08950590159065917491F1
:1054C200F00108957A936A93FA93EA9308959A936E
:1054D2008A93BA93AA930895129603D07F2F6E2FC0
:1054E2001297119602D0FE2F1197E199FECFFF93EA
:1054F200FFB7F894AEBBBFBBE09AEDB3FFBFFF911D
:1055020008950AD012960E2E1F2EE62FF72F04D0E2
:10551200E02DF12D1297089507D01196EF93EF2FFA
:1055220003D0EF9111970895E199FECF9FB7F894B8
:10553200AEBBBFBBE09A8DB3E81719F0EDBBE29AA0
:10554200E19A9FBF0895309760407040089500240B
:105552000A160B06089500240A160B060806090609
:105562000895EA17FB07680779070895AE17BF0782
:105572008607970708955A934A933A932A931A9360
:105582000A9308955D814C813B812A8119810881AA
:105592000895AC0FBD1F05900D928A95E1F708950D
:00000001FF
